{
  "transactions": [
    {
      "hash": "0xd39cf079fe90a9359c50f1eb5b2d68bc600ab3bae299a3d7e32e8ed696b33ec8",
      "transactionType": "CREATE",
      "contractName": "MockERC20",
      "contractAddress": "0xe7a4113a8a497dd72d29f35e188eed7403e8b2e8",
      "function": null,
      "arguments": [
        "USD Coin",
        "USDC",
        "6"
      ],
      "transaction": {
        "from": "0xa6b3d200cd34ca14d7579dac8b054bf50a62c37c",
        "gas": "0xb461c",
        "value": "0x0",
        "input": "0x60806040523461033057610b7f8038038061001981610334565b9283398101906060818303126103305780516001600160401b0381116103305782610045918301610359565b60208201519092906001600160401b03811161033057604091610069918401610359565b91015160ff81168091036103305782516001600160401b03811161024157600354600181811c91168015610326575b602082101461022357601f81116102c3575b506020601f821160011461026057819293945f92610255575b50508160011b915f199060031b1c1916176003555b81516001600160401b03811161024157600454600181811c91168015610237575b602082101461022357601f81116101c0575b50602092601f821160011461015f57928192935f92610154575b50508160011b915f199060031b1c1916176004555b60ff1960055416176005556040516107d490816103ab8239f35b015190505f80610125565b601f1982169360045f52805f20915f5b8681106101a85750836001959610610190575b505050811b0160045561013a565b01515f1960f88460031b161c191690555f8080610182565b9192602060018192868501518155019401920161016f565b60045f527f8a35acfbc15ff81a39ae7d344fd709f28e8600b4aa8c65c6b64bfe7fe36bd19b601f830160051c81019160208410610219575b601f0160051c01905b81811061020e575061010b565b5f8155600101610201565b90915081906101f8565b634e487b7160e01b5f52602260045260245ffd5b90607f16906100f9565b634e487b7160e01b5f52604160045260245ffd5b015190505f806100c3565b601f1982169060035f52805f20915f5b8181106102ab57509583600195969710610293575b505050811b016003556100d8565b01515f1960f88460031b161c191690555f8080610285565b9192602060018192868b015181550194019201610270565b60035f527fc2575a0e9e593c00f959f8c92f12db2869c3395a3b0502d05e2516446f71f85b601f830160051c8101916020841061031c575b601f0160051c01905b81811061031157506100aa565b5f8155600101610304565b90915081906102fb565b90607f1690610098565b5f80fd5b6040519190601f01601f191682016001600160401b0381118382101761024157604052565b81601f82011215610330578051906001600160401b03821161024157610388601f8301601f1916602001610334565b928284526020838301011161033057815f9260208093018386015e830101529056fe6080806040526004361015610012575f80fd5b5f3560e01c90816306fdde03146105e257508063095ea7b31461056057806318160ddd1461054357806323b872dd14610413578063313ce567146103f357806340c10f191461033857806370a082311461030157806395d89b41146101e65780639dc29fac1461011e578063a9059cbb146100ed5763dd62ed3e14610095575f80fd5b346100e95760403660031901126100e9576100ae6106db565b6001600160a01b036100be6106f1565b91165f5260016020526001600160a01b0360405f2091165f52602052602060405f2054604051908152f35b5f80fd5b346100e95760403660031901126100e9576101136101096106db565b6024359033610707565b602060405160018152f35b346100e95760403660031901126100e9576101376106db565b6001600160a01b03602435911680156101ba57805f525f60205260405f20548281106101a1576020835f947fddf252ad1be2c89b69c2b068fc378daa952ba7f163c4a11628f55a4df523b3ef938587528684520360408620558060025403600255604051908152a3005b9063391434e360e21b5f5260045260245260445260645ffd5b7f96c6fd1e000000000000000000000000000000000000000000000000000000005f525f60045260245ffd5b346100e9575f3660031901126100e9576040515f6004548060011c906001811680156102f7575b6020831081146102e3578285529081156102c75750600114610272575b50819003601f01601f191681019067ffffffffffffffff82118183101761025e5761025a829182604052826106b1565b0390f35b634e487b7160e01b5f52604160045260245ffd5b905060045f527f8a35acfbc15ff81a39ae7d344fd709f28e8600b4aa8c65c6b64bfe7fe36bd19b5f905b8282106102b15750602091508201018261022a565b600181602092548385880101520191019061029c565b90506020925060ff191682840152151560051b8201018261022a565b634e487b7160e01b5f52602260045260245ffd5b91607f169161020d565b346100e95760203660031901126100e9576001600160a01b036103226106db565b165f525f602052602060405f2054604051908152f35b346100e95760403660031901126100e9576103516106db565b6001600160a01b031660243581156103c757600254908082018092116103b35760207fddf252ad1be2c89b69c2b068fc378daa952ba7f163c4a11628f55a4df523b3ef915f9360025584845283825260408420818154019055604051908152a3005b634e487b7160e01b5f52601160045260245ffd5b7fec442f05000000000000000000000000000000000000000000000000000000005f525f60045260245ffd5b346100e9575f3660031901126100e957602060ff60055416604051908152f35b346100e95760603660031901126100e95761042c6106db565b6104346106f1565b604435906001600160a01b03831692835f52600160205260405f206001600160a01b0333165f5260205260405f20545f198103610477575b506101139350610707565b83811061050f5784156104e35733156104b757610113945f52600160205260405f206001600160a01b0333165f526020528360405f20910390558461046c565b7f94280d62000000000000000000000000000000000000000000000000000000005f525f60045260245ffd5b7fe602df05000000000000000000000000000000000000000000000000000000005f525f60045260245ffd5b83907ffb8f41b2000000000000000000000000000000000000000000000000000000005f523360045260245260445260645ffd5b346100e9575f3660031901126100e9576020600254604051908152f35b346100e95760403660031901126100e9576105796106db565b6024359033156104e3576001600160a01b03169081156104b757335f52600160205260405f20825f526020528060405f20556040519081527f8c5be1e5ebec7d5bd14f71427d1e84f3dd0314c0f7b2291e5b200ac8c7c3b92560203392a3602060405160018152f35b346100e9575f3660031901126100e9575f6003548060011c906001811680156106a7575b6020831081146102e3578285529081156102c757506001146106525750819003601f01601f191681019067ffffffffffffffff82118183101761025e5761025a829182604052826106b1565b905060035f527fc2575a0e9e593c00f959f8c92f12db2869c3395a3b0502d05e2516446f71f85b5f905b8282106106915750602091508201018261022a565b600181602092548385880101520191019061067c565b91607f1691610606565b602060409281835280519182918282860152018484015e5f828201840152601f01601f1916010190565b600435906001600160a01b03821682036100e957565b602435906001600160a01b03821682036100e957565b6001600160a01b03169081156101ba576001600160a01b03169182156103c757815f525f60205260405f205481811061078557817fddf252ad1be2c89b69c2b068fc378daa952ba7f163c4a11628f55a4df523b3ef92602092855f525f84520360405f2055845f525f825260405f20818154019055604051908152a3565b8263391434e360e21b5f5260045260245260445260645ffdfea2646970667358221220f9b4317b573fc19378b29ea290a1cd62004ed5cf20a6b5499bbb15714bbb6c4064736f6c634300081a0033000000000000000000000000000000000000000000000000000000000000006000000000000000000000000000000000000000000000000000000000000000a00000000000000000000000000000000000000000000000000000000000000006000000000000000000000000000000000000000000000000000000000000000855534420436f696e00000000000000000000000000000000000000000000000000000000000000000000000000000000000000000000000000000000000000045553444300000000000000000000000000000000000000000000000000000000",
        "nonce": "0x55",
        "chainId": "0x14a34"
      },
      "additionalContracts": [],
      "isFixedGasLimit": false
    },
    {
      "hash": "0xa8924a39f636c44eb97a22fc2d18a7cb7ecba1ab687dd22b399aa30b0bdf3486",
      "transactionType": "CALL",
      "contractName": "MockERC20",
      "contractAddress": "0xe7a4113a8a497dd72d29f35e188eed7403e8b2e8",
      "function": "mint(address,uint256)",
      "arguments": [
        "0xA6B3D200cD34ca14d7579DAc8B054bf50a62c37c",
        "466560000000"
      ],
      "transaction": {
        "from": "0xa6b3d200cd34ca14d7579dac8b054bf50a62c37c",
        "to": "0xe7a4113a8a497dd72d29f35e188eed7403e8b2e8",
        "gas": "0x16f38",
        "value": "0x0",
        "input": "0x40c10f19000000000000000000000000a6b3d200cd34ca14d7579dac8b054bf50a62c37c0000000000000000000000000000000000000000000000000000006ca124a000",
        "nonce": "0x56",
        "chainId": "0x14a34"
      },
      "additionalContracts": [],
      "isFixedGasLimit": false
    },
    {
      "hash": "0xab17bb6302ded03c4ad94c8711d977d5334f8469ba4cca02809ba7d6c3488b47",
      "transactionType": "CREATE",
      "contractName": "VCOPRebased",
      "contractAddress": "0xd16ee99c7ea2b30c13c3dc298eadee00b870bbcc",
      "function": null,
      "arguments": [
        "100000000000000"
      ],
      "transaction": {
        "from": "0xa6b3d200cd34ca14d7579dac8b054bf50a62c37c",
        "gas": "0x14aa39",
        "value": "0x0",
        "input": "0x60806040523461041d576110ef6020813803918261001c81610421565b93849283398101031261041d57516100346040610421565b90600f82526e2b21a7a81029ba30b13632b1b7b4b760891b602083015261005b6040610421565b6004815263056434f560e41b602082015282519091906001600160401b03811161032e57600354600181811c91168015610413575b602082101461031057601f81116103b0575b506020601f821160011461034d57819293945f92610342575b50508160011b915f199060031b1c1916176003555b81516001600160401b03811161032e57600454600181811c91168015610324575b602082101461031057601f81116102ad575b50602092601f821160011461024c57928192935f92610241575b50508160011b915f199060031b1c1916176004555b331561022e5760058054336001600160a01b0319821681179092556040519291906001600160a01b03167f8be0079c531659141344cd1fd0a4f28419497f9722a3daafe3b4186f6b6457e05f80a362100590600655620e7ef060075561271060088190556009555f600a55600160801b601055801561021a5780600160801b04600c5580600f55335f52600d602052600160801b60405f2055335f52600b60205260405f20600160ff1982541617905581525f7fddf252ad1be2c89b69c2b068fc378daa952ba7f163c4a11628f55a4df523b3ef60203393a3604051610ca890816104478239f35b634e487b7160e01b5f52601260045260245ffd5b631e4fbdf760e01b5f525f60045260245ffd5b015190505f8061011d565b601f1982169360045f52805f20915f5b868110610295575083600195961061027d575b505050811b01600455610132565b01515f1960f88460031b161c191690555f808061026f565b9192602060018192868501518155019401920161025c565b60045f527f8a35acfbc15ff81a39ae7d344fd709f28e8600b4aa8c65c6b64bfe7fe36bd19b601f830160051c81019160208410610306575b601f0160051c01905b8181106102fb5750610103565b5f81556001016102ee565b90915081906102e5565b634e487b7160e01b5f52602260045260245ffd5b90607f16906100f1565b634e487b7160e01b5f52604160045260245ffd5b015190505f806100bb565b601f1982169060035f52805f20915f5b81811061039857509583600195969710610380575b505050811b016003556100d0565b01515f1960f88460031b161c191690555f8080610372565b9192602060018192868b01518155019401920161035d565b60035f527fc2575a0e9e593c00f959f8c92f12db2869c3395a3b0502d05e2516446f71f85b601f830160051c81019160208410610409575b601f0160051c01905b8181106103fe57506100a2565b5f81556001016103f1565b90915081906103e8565b90607f1690610090565b5f80fd5b6040519190601f01601f191682016001600160401b0381118382101761032e5760405256fe6080806040526004361015610012575f80fd5b5f3560e01c90816306fdde031461098657508063095ea7b3146108c857806316c517621461087357806318160ddd146108565780631d8d9c761461073d57806323b872dd146105dc5780632723c31c146105bf578063313ce567146105a457806333a19fb31461058757806351ffaf401461056a57806370a082311461052e578063715018a6146104c85780638da5cb5b146104a2578063900cf0cf1461048557806395d89b411461036a578063a9059cbb14610286578063abd5b18114610249578063b7743ba21461022c578063bc4f2d6d14610206578063dd62ed3e146101b25763f2fde38b14610103575f80fd5b346101ae5760203660031901126101ae576001600160a01b03610124610a7f565b61012c610c32565b168015610182576001600160a01b036005548273ffffffffffffffffffffffffffffffffffffffff19821617600555167f8be0079c531659141344cd1fd0a4f28419497f9722a3daafe3b4186f6b6457e05f80a3005b7f1e4fbdf7000000000000000000000000000000000000000000000000000000005f525f60045260245ffd5b5f80fd5b346101ae5760403660031901126101ae576101cb610a7f565b6001600160a01b036101db610a95565b91165f52600e6020526001600160a01b0360405f2091165f52602052602060405f2054604051908152f35b346101ae5760203660031901126101ae576020610224600435610b0a565b604051908152f35b346101ae575f3660031901126101ae576020600754604051908152f35b346101ae5760203660031901126101ae576001600160a01b0361026a610a7f565b165f52600b602052602060ff60405f2054166040519015158152f35b346101ae5760403660031901126101ae5761029f610a7f565b6001600160a01b03166024358115610326576102bd600c5482610aab565b335f52600d60205260405f206102d4828254610ad2565b9055825f52600d6020526102ed60405f20918254610adf565b90556040519081527fddf252ad1be2c89b69c2b068fc378daa952ba7f163c4a11628f55a4df523b3ef60203392a3602060405160018152f35b606460405162461bcd60e51b815260206004820152601860248201527f5472616e7366657220746f207a65726f206164647265737300000000000000006044820152fd5b346101ae575f3660031901126101ae576040515f6004548060011c9060018116801561047b575b6020831081146104675782855290811561044b57506001146103f6575b50819003601f01601f191681019067ffffffffffffffff8211818310176103e2576103de82918260405282610a55565b0390f35b634e487b7160e01b5f52604160045260245ffd5b905060045f527f8a35acfbc15ff81a39ae7d344fd709f28e8600b4aa8c65c6b64bfe7fe36bd19b5f905b828210610435575060209150820101826103ae565b6001816020925483858801015201910190610420565b90506020925060ff191682840152151560051b820101826103ae565b634e487b7160e01b5f52602260045260245ffd5b91607f1691610391565b346101ae575f3660031901126101ae576020600a54604051908152f35b346101ae575f3660031901126101ae5760206001600160a01b0360055416604051908152f35b346101ae575f3660031901126101ae576104e0610c32565b5f6001600160a01b0360055473ffffffffffffffffffffffffffffffffffffffff198116600555167f8be0079c531659141344cd1fd0a4f28419497f9722a3daafe3b4186f6b6457e08280a3005b346101ae5760203660031901126101ae576001600160a01b0361054f610a7f565b165f52600d602052602061022460405f2054600c5490610aec565b346101ae575f3660031901126101ae576020600654604051908152f35b346101ae575f3660031901126101ae576020600854604051908152f35b346101ae575f3660031901126101ae57602060405160068152f35b346101ae575f3660031901126101ae576020600954604051908152f35b346101ae5760603660031901126101ae576105f5610a7f565b6105fd610a95565b906001600160a01b03604435911690815f52600e60205260405f206001600160a01b0333165f5260205260405f20548181106106d3577fddf252ad1be2c89b69c2b068fc378daa952ba7f163c4a11628f55a4df523b3ef916020916001600160a01b0361066c600c5484610aab565b96865f52600d855260405f20610683898254610ad2565b90551695865f52600d845261069d60405f20918254610adf565b9055845f52600e835260405f206001600160a01b0333165f5283528160405f2091039055604051908152a3602060405160018152f35b608460405162461bcd60e51b815260206004820152602160248201527f5472616e7366657220616d6f756e74206578636565647320616c6c6f77616e6360448201527f65000000000000000000000000000000000000000000000000000000000000006064820152fd5b346101ae5760803660031901126101ae57604435602435600435606435610762610c32565b828211156108125783151580610809575b156107c5577f82a68b407e5a7cf56e4f00e977a7ccb29238e51a742bd5122da8dd462c5849cd9360809383600655806007558160085582600955604051938452602084015260408301526060820152a1005b606460405162461bcd60e51b815260206004820152601760248201527f50657263656e7461676573206d757374206265203e20300000000000000000006044820152fd5b50801515610773565b606460405162461bcd60e51b815260206004820152601260248201527f5468726573686f6c647320696e76616c696400000000000000000000000000006044820152fd5b346101ae575f3660031901126101ae576020600f54604051908152f35b346101ae5760403660031901126101ae5761088c610a7f565b602435908115158092036101ae576001600160a01b03906108ab610c32565b165f52600b60205260405f209060ff801983541691161790555f80f35b346101ae5760403660031901126101ae576108e1610a7f565b6001600160a01b0316602435811561094257335f52600e60205260405f20825f526020528060405f20556040519081527f8c5be1e5ebec7d5bd14f71427d1e84f3dd0314c0f7b2291e5b200ac8c7c3b92560203392a3602060405160018152f35b606460405162461bcd60e51b815260206004820152601760248201527f417070726f766520746f207a65726f20616464726573730000000000000000006044820152fd5b346101ae575f3660031901126101ae575f6003548060011c90600181168015610a4b575b6020831081146104675782855290811561044b57506001146109f65750819003601f01601f191681019067ffffffffffffffff8211818310176103e2576103de82918260405282610a55565b905060035f527fc2575a0e9e593c00f959f8c92f12db2869c3395a3b0502d05e2516446f71f85b5f905b828210610a35575060209150820101826103ae565b6001816020925483858801015201910190610a20565b91607f16916109aa565b602060409281835280519182918282860152018484015e5f828201840152601f01601f1916010190565b600435906001600160a01b03821682036101ae57565b602435906001600160a01b03821682036101ae57565b81810292918115918404141715610abe57565b634e487b7160e01b5f52601160045260245ffd5b91908203918211610abe57565b91908201809211610abe57565b8115610af6570490565b634e487b7160e01b5f52601260045260245ffd5b335f52600b60205260ff60405f20541615610bee57600f54600654909182918110610bc0575050610b4b620f4240610b4460085484610aab565b0482610adf565b905b8103610b5b575b50600f5490565b610b6781601054610aec565b9081600c5580600f55600a54905f198214610abe577fc6642d24d84e7f3d36ca39f5cce10e75639d9b158d5193aa350e2f900653e4c0926001606093019182600a5560405192835260208301526040820152a15f610b54565b60075410610be957610be390620f4240610bdc60095483610aab565b0490610ad2565b90610b4d565b905090565b606460405162461bcd60e51b815260206004820152601860248201527f4e6f7420617574686f72697a656420746f2072656261736500000000000000006044820152fd5b6001600160a01b03600554163303610c4657565b7f118cdaa7000000000000000000000000000000000000000000000000000000005f523360045260245ffdfea264697066735822122041c931a83e06d7a783a14eb2ae806d52efa71208b2f6621031f2de440ce6e34164736f6c634300081a003300000000000000000000000000000000000000000000000000005af3107a4000",
        "nonce": "0x57",
        "chainId": "0x14a34"
      },
      "additionalContracts": [],
      "isFixedGasLimit": false
    },
    {
      "hash": "0xcae44aea7704d62f0b694810ee4fefb60144ac484d2527d8dc615f96d96cd8da",
      "transactionType": "CREATE",
      "contractName": "VCOPOracle",
      "contractAddress": "0xa75399067378e21b5f418b8bab1f2075df63fdb4",
      "function": null,
      "arguments": [
        "4200000000"
      ],
      "transaction": {
        "from": "0xa6b3d200cd34ca14d7579dac8b054bf50a62c37c",
        "gas": "0x8dc87",
        "value": "0x0",
        "input": "0x60803460c557601f6106b538819003918201601f19168301916001600160401b0383118484101760c95780849260209460405283398101031260c55751331560b2575f8054336001600160a01b0319821681178355604051939290916001600160a01b0316907f8be0079c531659141344cd1fd0a4f28419497f9722a3daafe3b4186f6b6457e09080a363fa56ea00600155620f42406002558060aa575b506105d790816100de8239f35b6001555f609d565b631e4fbdf760e01b5f525f60045260245ffd5b5f80fd5b634e487b7160e01b5f52604160045260245ffdfe60806040526004361015610011575f80fd5b5f3560e01c80631ef6790d146104245780632b4353c614610337578063566acc62146102d8578063715018a61461027457806382f25fcc146101e85780638da5cb5b146101c3578063905d60841461016457806398d5fdca14610142578063a7bc785714610147578063bfbf0251146101425763f2fde38b14610092575f80fd5b3461013e57602036600319011261013e576004356001600160a01b03811680910361013e576100bf610562565b8015610112576001600160a01b035f548273ffffffffffffffffffffffffffffffffffffffff198216175f55167f8be0079c531659141344cd1fd0a4f28419497f9722a3daafe3b4186f6b6457e05f80a3005b7f1e4fbdf7000000000000000000000000000000000000000000000000000000005f525f60045260245ffd5b5f80fd5b610477565b3461013e575f36600319011261013e576020600154604051908152f35b3461013e57602036600319011261013e577fb1b21e5157e907632ad91311b199e64ef8b6e7a36b4acf9ca920def4dd95e33860406004356101a3610562565b6101ae811515610517565b600154908060015582519182526020820152a1005b3461013e575f36600319011261013e5760206001600160a01b035f5416604051908152f35b3461013e57602036600319011261013e57600435610204610562565b61020f8115156104a7565b620f42406102206001549283610494565b048101808211610260577fb1b21e5157e907632ad91311b199e64ef8b6e7a36b4acf9ca920def4dd95e338918160409260015582519182526020820152a1005b634e487b7160e01b5f52601160045260245ffd5b3461013e575f36600319011261013e5761028c610562565b5f6001600160a01b03815473ffffffffffffffffffffffffffffffffffffffff1981168355167f8be0079c531659141344cd1fd0a4f28419497f9722a3daafe3b4186f6b6457e08280a3005b3461013e57602036600319011261013e577f6c633f26d0fb1eb6a531e13c7f2a11a74ba1fc476f54ce9649ed9c0d502ba9cd6040600435610317610562565b610322811515610517565b600254908060025582519182526020820152a1005b3461013e57602036600319011261013e57600435610353610562565b61035e8115156104a7565b620f42408110156103ba57620f424061037a6001549283610494565b048103818111610260577fb1b21e5157e907632ad91311b199e64ef8b6e7a36b4acf9ca920def4dd95e338918160409260015582519182526020820152a1005b608460405162461bcd60e51b815260206004820152602160248201527f50657263656e74616765206d757374206265206c657373207468616e2031303060448201527f25000000000000000000000000000000000000000000000000000000000000006064820152fd5b3461013e575f36600319011261013e57600254620f4240810290808204620f424014901517156102605760015480156104635760209104604051908152f35b634e487b7160e01b5f52601260045260245ffd5b3461013e575f36600319011261013e576020600254604051908152f35b8181029291811591840414171561026057565b156104ae57565b608460405162461bcd60e51b8152602060048201526024808201527f50657263656e74616765206d7573742062652067726561746572207468616e2060448201527f7a65726f000000000000000000000000000000000000000000000000000000006064820152fd5b1561051e57565b606460405162461bcd60e51b815260206004820152601e60248201527f52617465206d7573742062652067726561746572207468616e207a65726f00006044820152fd5b6001600160a01b035f5416330361057557565b7f118cdaa7000000000000000000000000000000000000000000000000000000005f523360045260245ffdfea2646970667358221220f612ab142a48c22c6e263c063efe6dbd4a69e5c90fbe9b3e9ef49d719d0e757e64736f6c634300081a003300000000000000000000000000000000000000000000000000000000fa56ea00",
        "nonce": "0x58",
        "chainId": "0x14a34"
      },
      "additionalContracts": [],
      "isFixedGasLimit": false
    },
    {
      "hash": "0xd79c9ee71fa235ad14cebb37c34f8956a1e86598e56cb77043c99424d14af642",
      "transactionType": "CREATE2",
      "contractName": "VCOPRebaseHook",
      "contractAddress": "0x866bf94370e8a7c9cdeafb592c2ac62903e30040",
      "function": null,
      "arguments": [
        "0x05E73354cFDd6745C338b50BcFDfA3Aa6fA03408",
        "0xd16Ee99c7EA2B30c13c3dC298EADEE00B870BBCC",
        "0xa75399067378e21b5F418b8bAB1F2075dF63FDB4",
        "0xd16Ee99c7EA2B30c13c3dC298EADEE00B870BBCC",
        "0xE7a4113a8a497DD72D29F35E188eEd7403e8B2E8"
      ],
      "transaction": {
        "from": "0xa6b3d200cd34ca14d7579dac8b054bf50a62c37c",
        "to": "0x4e59b44847b379578588920ca78fbf26c0b4956c",
        "gas": "0x1369c3",
        "value": "0x0",
        "input": "0x000000000000000000000000000000000000000000000000000000000000355f60e06040523461031c57604051601f61105738819003918201601f19168301916001600160401b038311848410176103205780849260a09460405283398101031261031c578051906001600160a01b038216820361031c5761006360208201610354565b61006f60408301610354565b90610088608061008160608601610354565b9401610354565b936080525f6101a0610098610334565b8281528260208201528260408201528260608201528260808201528260a08201528260c08201528260e0820152826101008201528261012082015282610140820152826101608201528261018082015201525f6101a06100f6610334565b8281528260208201528260408201528260608201528260808201528260a08201528260c0820152600160e08201528261010082015282610120820152826101408201528261016082015282610180820152015261200030161580159061030f575b8015610302575b80156102f5575b80156102e8575b80156102db575b80156102cf575b80156102bf575b80156102b3575b80156102a7575b801561029b575b801561028f575b8015610283575b8015610277575b61026457610e105f556001600160a01b0390811660a05290811660c052600280546001600160a01b031990811693831693909317905560038054909216921691909117905542600155604051610cee90816103698239608051818181610273015281816103090152818161035d015281816105890152818161067a0152818161079c015281816108310152610883015260a051818181610142015281816103a00152610ba5015260c0518181816107100152610b360152f35b630732d7b560e51b5f523060045260245ffd5b506001301615156101ab565b506002301615156101a4565b5060043016151561019d565b50600830161515610196565b5060103016151561018f565b50602030161515610188565b5060403016151560011415610181565b5060803016151561017a565b5061010030161515610173565b506102003016151561016c565b5061040030161515610165565b506108003016151561015e565b5061100030161515610157565b5f80fd5b634e487b7160e01b5f52604160045260245ffd5b604051906101c082016001600160401b0381118382101761032057604052565b51906001600160a01b038216820361031c5756fe6080806040526004361015610012575f80fd5b5f3560e01c9081630f29b1e0146108d5575080631924063e146108b857806321d0ee7014610866578063259982e514610866578063575e24b4146107d15780636c2bbe7e1461065b5780636fe7e6eb146107565780637209191c146107345780637dc0d1d0146106f157806389edeb74146106d5578063958af60d146106af5780639f063efc1461065b578063b47b2fb114610529578063b6a8b0fa14610255578063c4e833ce146103c4578063cdb4e09514610381578063dc4c90d31461033e578063dc98354e146102d0578063e1b4af69146102555763ef037fb9146100f8575f80fd5b3461023e57602036600319011261023e576004356040517f8da5cb5b0000000000000000000000000000000000000000000000000000000081526020816004816001600160a01b037f0000000000000000000000000000000000000000000000000000000000000000165afa801561024a575f906101fd575b6001600160a01b0391501633036101b95760407f35e573fc823a1e88156d1baf519137b029a90b14633d92d26e05f6537031ab6c915f5490805f5582519182526020820152a1005b606460405162461bcd60e51b815260206004820152600e60248201527f4e6f7420617574686f72697a65640000000000000000000000000000000000006044820152fd5b506020813d602011610242575b8161021760209383610aca565b8101031261023e57516001600160a01b038116810361023e576001600160a01b0390610171565b5f80fd5b3d915061020a565b6040513d5f823e3d90fd5b3461023e5761026336610a20565b5050505050506001600160a01b037f00000000000000000000000000000000000000000000000000000000000000001633036102a857630a85dc2960e01b5f5260045ffd5b7fae18210a000000000000000000000000000000000000000000000000000000005f5260045ffd5b3461023e5760e036600319011261023e576102e96108f8565b5060a036602319011261023e576102fe610a0a565b506001600160a01b037f00000000000000000000000000000000000000000000000000000000000000001633036102a857630a85dc2960e01b5f5260045ffd5b3461023e575f36600319011261023e5760206040516001600160a01b037f0000000000000000000000000000000000000000000000000000000000000000168152f35b3461023e575f36600319011261023e5760206040516001600160a01b037f0000000000000000000000000000000000000000000000000000000000000000168152f35b3461023e575f36600319011261023e575f6101a06040516103e481610a99565b8281528260208201528260408201528260608201528260808201528260a08201528260c08201528260e0820152826101008201528261012082015282610140820152826101608201528261018082015201526101c0602060405161044781610a99565b5f8152818101905f8252604081015f8152606082015f8152608083015f815260a084015f815260c085015f815260e0860190600182526101008701925f84526101208801945f86526101408901965f88526101608a01985f8a526101a06101808c019b5f8d52019b5f8d526040519d8e915f835251151591015251151560408d015251151560608c015251151560808b015251151560a08a015251151560c089015251151560e08801525115156101008701525115156101208601525115156101408501525115156101608401525115156101808301525115156101a0820152f35b3461023e5761016036600319011261023e576105436108f8565b5060a036602319011261023e5760603660c319011261023e576101443567ffffffffffffffff811161023e5761057d90369060040161090e565b50506001600160a01b037f00000000000000000000000000000000000000000000000000000000000000001633036102a8576024356001600160a01b0381169081810361023e57506001600160a01b036002541680911490811561063c575b5080610625575b610617575b604080517fb47b2fb10000000000000000000000000000000000000000000000000000000081525f6020820152f35b61061f610aec565b506105e8565b506106346001545f5490610a78565b4210156105e3565b90506044356001600160a01b0381169081810361023e575014816105dc565b3461023e57610669366109a0565b505050505050506001600160a01b037f00000000000000000000000000000000000000000000000000000000000000001633036102a857630a85dc2960e01b5f5260045ffd5b3461023e575f36600319011261023e5760206001600160a01b0360035416604051908152f35b3461023e575f36600319011261023e5760205f54604051908152f35b3461023e575f36600319011261023e5760206040516001600160a01b037f0000000000000000000000000000000000000000000000000000000000000000168152f35b3461023e575f36600319011261023e57602061074e610aec565b604051908152f35b3461023e5761010036600319011261023e576107706108f8565b5060a036602319011261023e57610785610a0a565b5060e4358060020b0361023e576001600160a01b037f00000000000000000000000000000000000000000000000000000000000000001633036102a857630a85dc2960e01b5f5260045ffd5b3461023e5761014036600319011261023e576107eb6108f8565b5060a036602319011261023e5760603660c319011261023e576101243567ffffffffffffffff811161023e5761082590369060040161090e565b50506001600160a01b037f00000000000000000000000000000000000000000000000000000000000000001633036102a857630a85dc2960e01b5f5260045ffd5b3461023e576108743661093c565b50505050506001600160a01b037f00000000000000000000000000000000000000000000000000000000000000001633036102a857630a85dc2960e01b5f5260045ffd5b3461023e575f36600319011261023e576020600154604051908152f35b3461023e575f36600319011261023e576020906001600160a01b03600254168152f35b600435906001600160a01b038216820361023e57565b9181601f8401121561023e5782359167ffffffffffffffff831161023e576020838186019501011161023e57565b9061016060031983011261023e576004356001600160a01b038116810361023e579160a060231982011261023e57602491608060c31983011261023e5760c491610144359067ffffffffffffffff821161023e5761099c9160040161090e565b9091565b906101a060031983011261023e576004356001600160a01b038116810361023e579160a060231982011261023e57602491608060c31983011261023e5760c49161014435916101643591610184359067ffffffffffffffff821161023e5761099c9160040161090e565b60c435906001600160a01b038216820361023e57565b61012060031982011261023e576004356001600160a01b038116810361023e579160a060231983011261023e5760249160c4359160e43591610104359067ffffffffffffffff821161023e5761099c9160040161090e565b91908201809211610a8557565b634e487b7160e01b5f52601160045260245ffd5b6101c0810190811067ffffffffffffffff821117610ab657604052565b634e487b7160e01b5f52604160045260245ffd5b90601f8019910116810190811067ffffffffffffffff821117610ab657604052565b610afa6001545f5490610a78565b4210610c74576040517fbfbf02510000000000000000000000000000000000000000000000000000000081526020816004816001600160a01b037f0000000000000000000000000000000000000000000000000000000000000000165afa90811561024a575f91610c42575b50604051907fbc4f2d6d0000000000000000000000000000000000000000000000000000000082528060048301526020826024815f6001600160a01b037f0000000000000000000000000000000000000000000000000000000000000000165af191821561024a575f92610c0d575b5060407f54f7dca807c3be86ecb9fe87d9d880e638b8c2b47050de03f7e9cb676afa760291426001558151908152836020820152a190565b9091506020813d602011610c3a575b81610c2960209383610aca565b8101031261023e5751906040610bd5565b3d9150610c1c565b90506020813d602011610c6c575b81610c5d60209383610aca565b8101031261023e57515f610b66565b3d9150610c50565b606460405162461bcd60e51b815260206004820152600f60248201527f52656261736520746f6f20736f6f6e00000000000000000000000000000000006044820152fdfea2646970667358221220e268e02e07d8b4a49583eb2cdf259bcd276fb2abd613e10d8a4d02d3c47b400564736f6c634300081a003300000000000000000000000005e73354cfdd6745c338b50bcfdfa3aa6fa03408000000000000000000000000d16ee99c7ea2b30c13c3dc298eadee00b870bbcc000000000000000000000000a75399067378e21b5f418b8bab1f2075df63fdb4000000000000000000000000d16ee99c7ea2b30c13c3dc298eadee00b870bbcc000000000000000000000000e7a4113a8a497dd72d29f35e188eed7403e8b2e8",
        "nonce": "0x59",
        "chainId": "0x14a34"
      },
      "additionalContracts": [],
      "isFixedGasLimit": false
    },
    {
      "hash": "0xc8af8b2bc6d32ac315d115f0264245dd5b2e2d8a2f4969f42286107b7c485d95",
      "transactionType": "CALL",
      "contractName": "VCOPRebased",
      "contractAddress": "0xd16ee99c7ea2b30c13c3dc298eadee00b870bbcc",
      "function": "setRebaser(address,bool)",
      "arguments": [
        "0x866bf94370e8A7C9cDeAFb592C2ac62903e30040",
        "true"
      ],
      "transaction": {
        "from": "0xa6b3d200cd34ca14d7579dac8b054bf50a62c37c",
        "to": "0xd16ee99c7ea2b30c13c3dc298eadee00b870bbcc",
        "gas": "0x10816",
        "value": "0x0",
        "input": "0x16c51762000000000000000000000000866bf94370e8a7c9cdeafb592c2ac62903e300400000000000000000000000000000000000000000000000000000000000000001",
        "nonce": "0x5a",
        "chainId": "0x14a34"
      },
      "additionalContracts": [],
      "isFixedGasLimit": false
    },
    {
      "hash": "0xf8afbcc35c97f11bc5010a3c00ac1a7a10bc49fd075c28ecc6c7b06b3be58dbd",
      "transactionType": "CALL",
      "contractName": "VCOPRebased",
      "contractAddress": "0xd16ee99c7ea2b30c13c3dc298eadee00b870bbcc",
      "function": "approve(address,uint256)",
      "arguments": [
        "0x000000000022D473030F116dDEE9F6B43aC78BA3",
        "115792089237316195423570985008687907853269984665640564039457584007913129639935"
      ],
      "transaction": {
        "from": "0xa6b3d200cd34ca14d7579dac8b054bf50a62c37c",
        "to": "0xd16ee99c7ea2b30c13c3dc298eadee00b870bbcc",
        "gas": "0x107d9",
        "value": "0x0",
        "input": "0x095ea7b3000000000000000000000000000000000022d473030f116ddee9f6b43ac78ba3ffffffffffffffffffffffffffffffffffffffffffffffffffffffffffffffff",
        "nonce": "0x5b",
        "chainId": "0x14a34"
      },
      "additionalContracts": [],
      "isFixedGasLimit": false
    },
    {
      "hash": "0x529a27ea78ad6e8a942591edbe0a2b295e1a0c99dc5cff4b279a85506ed3ab37",
      "transactionType": "CALL",
      "contractName": null,
      "contractAddress": "0x000000000022d473030f116ddee9f6b43ac78ba3",
      "function": "approve(address,address,uint160,uint48)",
      "arguments": [
        "0xd16Ee99c7EA2B30c13c3dC298EADEE00B870BBCC",
        "0x4B2C77d209D3405F41a037Ec6c77F7F5b8e2ca80",
        "1461501637330902918203684832716283019655932542975",
        "281474976710655"
      ],
      "transaction": {
        "from": "0xa6b3d200cd34ca14d7579dac8b054bf50a62c37c",
        "to": "0x000000000022d473030f116ddee9f6b43ac78ba3",
        "gas": "0x101ee",
        "value": "0x0",
        "input": "0x87517c45000000000000000000000000d16ee99c7ea2b30c13c3dc298eadee00b870bbcc0000000000000000000000004b2c77d209d3405f41a037ec6c77f7f5b8e2ca80000000000000000000000000ffffffffffffffffffffffffffffffffffffffff0000000000000000000000000000000000000000000000000000ffffffffffff",
        "nonce": "0x5c",
        "chainId": "0x14a34"
      },
      "additionalContracts": [],
      "isFixedGasLimit": false
    },
    {
      "hash": "0x7f68047d41e3c5dea60bdd2794ee01fd6fe18af5f302888f600d21f2a08b961b",
      "transactionType": "CALL",
      "contractName": "MockERC20",
      "contractAddress": "0xe7a4113a8a497dd72d29f35e188eed7403e8b2e8",
      "function": "approve(address,uint256)",
      "arguments": [
        "0x000000000022D473030F116dDEE9F6B43aC78BA3",
        "115792089237316195423570985008687907853269984665640564039457584007913129639935"
      ],
      "transaction": {
        "from": "0xa6b3d200cd34ca14d7579dac8b054bf50a62c37c",
        "to": "0xe7a4113a8a497dd72d29f35e188eed7403e8b2e8",
        "gas": "0x107fc",
        "value": "0x0",
        "input": "0x095ea7b3000000000000000000000000000000000022d473030f116ddee9f6b43ac78ba3ffffffffffffffffffffffffffffffffffffffffffffffffffffffffffffffff",
        "nonce": "0x5d",
        "chainId": "0x14a34"
      },
      "additionalContracts": [],
      "isFixedGasLimit": false
    },
    {
      "hash": "0x3cc65758bc889a19f8472beef301dc1e0ed17764163f5d1f9bdb4502896670d1",
      "transactionType": "CALL",
      "contractName": null,
      "contractAddress": "0x000000000022d473030f116ddee9f6b43ac78ba3",
      "function": "approve(address,address,uint160,uint48)",
      "arguments": [
        "0xE7a4113a8a497DD72D29F35E188eEd7403e8B2E8",
        "0x4B2C77d209D3405F41a037Ec6c77F7F5b8e2ca80",
        "1461501637330902918203684832716283019655932542975",
        "281474976710655"
      ],
      "transaction": {
        "from": "0xa6b3d200cd34ca14d7579dac8b054bf50a62c37c",
        "to": "0x000000000022d473030f116ddee9f6b43ac78ba3",
        "gas": "0x1112d",
        "value": "0x0",
        "input": "0x87517c45000000000000000000000000e7a4113a8a497dd72d29f35e188eed7403e8b2e80000000000000000000000004b2c77d209d3405f41a037ec6c77f7f5b8e2ca80000000000000000000000000ffffffffffffffffffffffffffffffffffffffff0000000000000000000000000000000000000000000000000000ffffffffffff",
        "nonce": "0x5e",
        "chainId": "0x14a34"
      },
      "additionalContracts": [],
      "isFixedGasLimit": false
    },
    {
      "hash": "0xd8a18eac32f008efcff727ec6bfa3365a36911c7fce004df4257fe755e5e4f82",
      "transactionType": "CALL",
      "contractName": "PositionManager",
      "contractAddress": "0x4b2c77d209d3405f41a037ec6c77f7f5b8e2ca80",
      "function": "multicall(bytes[])",
      "arguments": [
        "[0xf7020405000000000000000000000000d16ee99c7ea2b30c13c3dc298eadee00b870bbcc000000000000000000000000e7a4113a8a497dd72d29f35e188eed7403e8b2e80000000000000000000000000000000000000000000000000000000000000bb8000000000000000000000000000000000000000000000000000000000000003c000000000000000000000000866bf94370e8a7c9cdeafb592c2ac62903e300400000000000000000000000000000000000000000040959e71a1c4b5831a826a300000000000000000000000000000000000000000000000000000000000000e00000000000000000000000000000000000000000000000000000000000000000, 0xdd46508f000000000000000000000000000000000000000000000000000000000000004000000000000000000000000000000000000000000000000000000000682037040000000000000000000000000000000000000000000000000000000000000300000000000000000000000000000000000000000000000000000000000000004000000000000000000000000000000000000000000000000000000000000000800000000000000000000000000000000000000000000000000000000000000002020d00000000000000000000000000000000000000000000000000000000000000000000000000000000000000000000000000000000000000000000000000020000000000000000000000000000000000000000000000000000000000000040000000000000000000000000000000000000000000000000000000000000020000000000000000000000000000000000000000000000000000000000000001a0000000000000000000000000d16ee99c7ea2b30c13c3dc298eadee00b870bbcc000000000000000000000000e7a4113a8a497dd72d29f35e188eed7403e8b2e80000000000000000000000000000000000000000000000000000000000000bb8000000000000000000000000000000000000000000000000000000000000003c000000000000000000000000866bf94370e8a7c9cdeafb592c2ac62903e30040fffffffffffffffffffffffffffffffffffffffffffffffffffffffffffea46cfffffffffffffffffffffffffffffffffffffffffffffffffffffffffffed34c0000000000000000000000000000000000000000000000000000023b62f6a53e00000000000000000000000000000000000000000000000000002632e314a00000000000000000000000000000000000000000000000000000000002540be400000000000000000000000000a6b3d200cd34ca14d7579dac8b054bf50a62c37c000000000000000000000000000000000000000000000000000000000000018000000000000000000000000000000000000000000000000000000000000000000000000000000000000000000000000000000000000000000000000000000040000000000000000000000000d16ee99c7ea2b30c13c3dc298eadee00b870bbcc000000000000000000000000e7a4113a8a497dd72d29f35e188eed7403e8b2e8]"
      ],
      "transaction": {
        "from": "0xa6b3d200cd34ca14d7579dac8b054bf50a62c37c",
        "to": "0x4b2c77d209d3405f41a037ec6c77f7f5b8e2ca80",
        "gas": "0x9e425",
        "value": "0x0",
        "input": "0xac9650d800000000000000000000000000000000000000000000000000000000000000200000000000000000000000000000000000000000000000000000000000000002000000000000000000000000000000000000000000000000000000000000004000000000000000000000000000000000000000000000000000000000000001800000000000000000000000000000000000000000000000000000000000000104f7020405000000000000000000000000d16ee99c7ea2b30c13c3dc298eadee00b870bbcc000000000000000000000000e7a4113a8a497dd72d29f35e188eed7403e8b2e80000000000000000000000000000000000000000000000000000000000000bb8000000000000000000000000000000000000000000000000000000000000003c000000000000000000000000866bf94370e8a7c9cdeafb592c2ac62903e300400000000000000000000000000000000000000000040959e71a1c4b5831a826a300000000000000000000000000000000000000000000000000000000000000e00000000000000000000000000000000000000000000000000000000000000000000000000000000000000000000000000000000000000000000000000000000000000000000000000000000000000000000000000000000000000364dd46508f000000000000000000000000000000000000000000000000000000000000004000000000000000000000000000000000000000000000000000000000682037040000000000000000000000000000000000000000000000000000000000000300000000000000000000000000000000000000000000000000000000000000004000000000000000000000000000000000000000000000000000000000000000800000000000000000000000000000000000000000000000000000000000000002020d00000000000000000000000000000000000000000000000000000000000000000000000000000000000000000000000000000000000000000000000000020000000000000000000000000000000000000000000000000000000000000040000000000000000000000000000000000000000000000000000000000000020000000000000000000000000000000000000000000000000000000000000001a0000000000000000000000000d16ee99c7ea2b30c13c3dc298eadee00b870bbcc000000000000000000000000e7a4113a8a497dd72d29f35e188eed7403e8b2e80000000000000000000000000000000000000000000000000000000000000bb8000000000000000000000000000000000000000000000000000000000000003c000000000000000000000000866bf94370e8a7c9cdeafb592c2ac62903e30040fffffffffffffffffffffffffffffffffffffffffffffffffffffffffffea46cfffffffffffffffffffffffffffffffffffffffffffffffffffffffffffed34c0000000000000000000000000000000000000000000000000000023b62f6a53e00000000000000000000000000000000000000000000000000002632e314a00000000000000000000000000000000000000000000000000000000002540be400000000000000000000000000a6b3d200cd34ca14d7579dac8b054bf50a62c37c000000000000000000000000000000000000000000000000000000000000018000000000000000000000000000000000000000000000000000000000000000000000000000000000000000000000000000000000000000000000000000000040000000000000000000000000d16ee99c7ea2b30c13c3dc298eadee00b870bbcc000000000000000000000000e7a4113a8a497dd72d29f35e188eed7403e8b2e800000000000000000000000000000000000000000000000000000000",
        "nonce": "0x5f",
        "chainId": "0x14a34"
      },
      "additionalContracts": [],
      "isFixedGasLimit": false
    }
  ],
  "receipts": [
    {
      "status": "0x1",
      "cumulativeGasUsed": "0x32dded",
      "logs": [],
      "logsBloom": "0x00000000000000000000000000000000000000000000000000000000000000000000000000000000000000000000000000000000000000000000000000000000000000000000000000000000000000000000000000000000000000000000000000000000000000000000000000000000000000000000000000000000000000000000000000000000000000000000000000000000000000000000000000000000000000000000000000000000000000000000000000000000000000000000000000000000000000000000000000000000000000000000000000000000000000000000000000000000000000000000000000000000000000000000000000000000",
      "type": "0x2",
      "transactionHash": "0xd39cf079fe90a9359c50f1eb5b2d68bc600ab3bae299a3d7e32e8ed696b33ec8",
      "transactionIndex": "0xf",
      "blockHash": "0xf8df39250f1405f90cdbe08b77476ab89bdb797552ca4e0e7d9be138afef3707",
      "blockNumber": "0x1866bfa",
      "gasUsed": "0x8ac16",
      "effectiveGasPrice": "0xf43ad",
      "from": "0xa6b3d200cd34ca14d7579dac8b054bf50a62c37c",
      "to": null,
      "contractAddress": "0xe7a4113a8a497dd72d29f35e188eed7403e8b2e8",
      "l1BaseFeeScalar": "0x44d",
      "l1BlobBaseFee": "0x1",
      "l1BlobBaseFeeScalar": "0xa118b",
      "l1Fee": "0x1c75",
      "l1GasPrice": "0xd1",
      "l1GasUsed": "0x68e1"
    },
    {
      "status": "0x1",
      "cumulativeGasUsed": "0x33e7ca",
      "logs": [
        {
          "address": "0xe7a4113a8a497dd72d29f35e188eed7403e8b2e8",
          "topics": [
            "0xddf252ad1be2c89b69c2b068fc378daa952ba7f163c4a11628f55a4df523b3ef",
            "0x0000000000000000000000000000000000000000000000000000000000000000",
            "0x000000000000000000000000a6b3d200cd34ca14d7579dac8b054bf50a62c37c"
          ],
          "data": "0x0000000000000000000000000000000000000000000000000000006ca124a000",
          "blockHash": "0xf8df39250f1405f90cdbe08b77476ab89bdb797552ca4e0e7d9be138afef3707",
          "blockNumber": "0x1866bfa",
          "transactionHash": "0xa8924a39f636c44eb97a22fc2d18a7cb7ecba1ab687dd22b399aa30b0bdf3486",
          "transactionIndex": "0x10",
          "logIndex": "0x76",
          "removed": false
        }
      ],
      "logsBloom": "0x00000000000000000000000400000000000000000000000002000000000000000000000000000000000000000000000000000000000000000000000000000000000000000000000000000008000000000000000000000000000000000000000000000000020000000000000000000800000000000000000000000010000000200000000000000000001000000000000000000000000000000000000000000000000000000000000000000000000000000000000000000000000000000000000000000042000000000000000000000000000000000000000000000000000020000000000000000000000000000000000000000000000000000000000000000040",
      "type": "0x2",
      "transactionHash": "0xa8924a39f636c44eb97a22fc2d18a7cb7ecba1ab687dd22b399aa30b0bdf3486",
      "transactionIndex": "0x10",
      "blockHash": "0xf8df39250f1405f90cdbe08b77476ab89bdb797552ca4e0e7d9be138afef3707",
      "blockNumber": "0x1866bfa",
      "gasUsed": "0x109dd",
      "effectiveGasPrice": "0xf43ad",
      "from": "0xa6b3d200cd34ca14d7579dac8b054bf50a62c37c",
      "to": "0xe7a4113a8a497dd72d29f35e188eed7403e8b2e8",
      "contractAddress": null,
      "l1BaseFeeScalar": "0x44d",
      "l1BlobBaseFee": "0x1",
      "l1BlobBaseFeeScalar": "0xa118b",
      "l1Fee": "0x1b2",
      "l1GasPrice": "0xd1",
      "l1GasUsed": "0x640"
    },
    {
      "status": "0x1",
      "cumulativeGasUsed": "0x43cd31",
      "logs": [
        {
          "address": "0xd16ee99c7ea2b30c13c3dc298eadee00b870bbcc",
          "topics": [
            "0x8be0079c531659141344cd1fd0a4f28419497f9722a3daafe3b4186f6b6457e0",
            "0x0000000000000000000000000000000000000000000000000000000000000000",
            "0x000000000000000000000000a6b3d200cd34ca14d7579dac8b054bf50a62c37c"
          ],
          "data": "0x",
          "blockHash": "0xf8df39250f1405f90cdbe08b77476ab89bdb797552ca4e0e7d9be138afef3707",
          "blockNumber": "0x1866bfa",
          "transactionHash": "0xab17bb6302ded03c4ad94c8711d977d5334f8469ba4cca02809ba7d6c3488b47",
          "transactionIndex": "0x11",
          "logIndex": "0x77",
          "removed": false
        },
        {
          "address": "0xd16ee99c7ea2b30c13c3dc298eadee00b870bbcc",
          "topics": [
            "0xddf252ad1be2c89b69c2b068fc378daa952ba7f163c4a11628f55a4df523b3ef",
            "0x0000000000000000000000000000000000000000000000000000000000000000",
            "0x000000000000000000000000a6b3d200cd34ca14d7579dac8b054bf50a62c37c"
          ],
          "data": "0x00000000000000000000000000000000000000000000000000005af3107a4000",
          "blockHash": "0xf8df39250f1405f90cdbe08b77476ab89bdb797552ca4e0e7d9be138afef3707",
          "blockNumber": "0x1866bfa",
          "transactionHash": "0xab17bb6302ded03c4ad94c8711d977d5334f8469ba4cca02809ba7d6c3488b47",
          "transactionIndex": "0x11",
          "logIndex": "0x78",
          "removed": false
        }
      ],
      "logsBloom": "0x00000000040000000000000400000000000000000000000002800000000000000000000000000000000000000000000000000000000000000000000000000000000000000000000000000008000000000001000000000000000000000000000000000000020000000000000000000800000000000000000000000010000000400000000000000000000000000000000000000000000000000000000000000000000004000000000000000000000000000000000000000000000000000000000000000042000000000000000000000000000000000000000000000000000020000000000000000000000000000000000000000000000000008000000000000000",
      "type": "0x2",
      "transactionHash": "0xab17bb6302ded03c4ad94c8711d977d5334f8469ba4cca02809ba7d6c3488b47",
      "transactionIndex": "0x11",
      "blockHash": "0xf8df39250f1405f90cdbe08b77476ab89bdb797552ca4e0e7d9be138afef3707",
      "blockNumber": "0x1866bfa",
      "gasUsed": "0xfe567",
      "effectiveGasPrice": "0xf43ad",
      "from": "0xa6b3d200cd34ca14d7579dac8b054bf50a62c37c",
      "to": null,
      "contractAddress": "0xd16ee99c7ea2b30c13c3dc298eadee00b870bbcc",
      "l1BaseFeeScalar": "0x44d",
      "l1BlobBaseFee": "0x1",
      "l1BlobBaseFeeScalar": "0xa118b",
      "l1Fee": "0x28c2",
      "l1GasPrice": "0xd1",
      "l1GasUsed": "0x9635"
    },
    {
      "status": "0x1",
      "cumulativeGasUsed": "0x4a9e37",
      "logs": [
        {
          "address": "0xa75399067378e21b5f418b8bab1f2075df63fdb4",
          "topics": [
            "0x8be0079c531659141344cd1fd0a4f28419497f9722a3daafe3b4186f6b6457e0",
            "0x0000000000000000000000000000000000000000000000000000000000000000",
            "0x000000000000000000000000a6b3d200cd34ca14d7579dac8b054bf50a62c37c"
          ],
          "data": "0x",
          "blockHash": "0xf8df39250f1405f90cdbe08b77476ab89bdb797552ca4e0e7d9be138afef3707",
          "blockNumber": "0x1866bfa",
          "transactionHash": "0xcae44aea7704d62f0b694810ee4fefb60144ac484d2527d8dc615f96d96cd8da",
          "transactionIndex": "0x12",
          "logIndex": "0x79",
          "removed": false
        }
      ],
      "logsBloom": "0x00000000000000000000000400000000000000000000000002800020000000000000000000000000000000000000000000000000000000000000000000000000000000000000000400000000000000000001000000000000000000000000000000000000020000000000000000000800000000000000000000000000000000400000000000000000000000000000000000000000000000000000000000000000000000000000000000000000000000000000000000000000000000000000000000000040000000000000000000000000000000000000000000000000000020000000000000000000400000000000000000000000000000000000000000000000",
      "type": "0x2",
      "transactionHash": "0xcae44aea7704d62f0b694810ee4fefb60144ac484d2527d8dc615f96d96cd8da",
      "transactionIndex": "0x12",
      "blockHash": "0xf8df39250f1405f90cdbe08b77476ab89bdb797552ca4e0e7d9be138afef3707",
      "blockNumber": "0x1866bfa",
      "gasUsed": "0x6d106",
      "effectiveGasPrice": "0xf43ad",
      "from": "0xa6b3d200cd34ca14d7579dac8b054bf50a62c37c",
      "to": null,
      "contractAddress": "0xa75399067378e21b5f418b8bab1f2075df63fdb4",
      "l1BaseFeeScalar": "0x44d",
      "l1BlobBaseFee": "0x1",
      "l1BlobBaseFeeScalar": "0xa118b",
      "l1Fee": "0x1000",
      "l1GasPrice": "0xd1",
      "l1GasUsed": "0x3afa"
    },
    {
      "status": "0x1",
      "cumulativeGasUsed": "0x57e458",
      "logs": [],
      "logsBloom": "0x00000000000000000000000000000000000000000000000000000000000000000000000000000000000000000000000000000000000000000000000000000000000000000000000000000000000000000000000000000000000000000000000000000000000000000000000000000000000000000000000000000000000000000000000000000000000000000000000000000000000000000000000000000000000000000000000000000000000000000000000000000000000000000000000000000000000000000000000000000000000000000000000000000000000000000000000000000000000000000000000000000000000000000000000000000000",
      "type": "0x2",
      "transactionHash": "0xd79c9ee71fa235ad14cebb37c34f8956a1e86598e56cb77043c99424d14af642",
      "transactionIndex": "0x13",
      "blockHash": "0xf8df39250f1405f90cdbe08b77476ab89bdb797552ca4e0e7d9be138afef3707",
      "blockNumber": "0x1866bfa",
      "gasUsed": "0xd4621",
      "effectiveGasPrice": "0xf43ad",
      "from": "0xa6b3d200cd34ca14d7579dac8b054bf50a62c37c",
      "to": "0x4e59b44847b379578588920ca78fbf26c0b4956c",
      "contractAddress": null,
      "l1BaseFeeScalar": "0x44d",
      "l1BlobBaseFee": "0x1",
      "l1BlobBaseFeeScalar": "0xa118b",
      "l1Fee": "0x229a",
      "l1GasPrice": "0xd1",
      "l1GasUsed": "0x7f84"
    },
    {
      "status": "0x1",
      "cumulativeGasUsed": "0x5898eb",
      "logs": [],
      "logsBloom": "0x00000000000000000000000000000000000000000000000000000000000000000000000000000000000000000000000000000000000000000000000000000000000000000000000000000000000000000000000000000000000000000000000000000000000000000000000000000000000000000000000000000000000000000000000000000000000000000000000000000000000000000000000000000000000000000000000000000000000000000000000000000000000000000000000000000000000000000000000000000000000000000000000000000000000000000000000000000000000000000000000000000000000000000000000000000000",
      "type": "0x2",
      "transactionHash": "0xc8af8b2bc6d32ac315d115f0264245dd5b2e2d8a2f4969f42286107b7c485d95",
      "transactionIndex": "0x14",
      "blockHash": "0xf8df39250f1405f90cdbe08b77476ab89bdb797552ca4e0e7d9be138afef3707",
      "blockNumber": "0x1866bfa",
      "gasUsed": "0xb493",
      "effectiveGasPrice": "0xf43ad",
      "from": "0xa6b3d200cd34ca14d7579dac8b054bf50a62c37c",
      "to": "0xd16ee99c7ea2b30c13c3dc298eadee00b870bbcc",
      "contractAddress": null,
      "l1BaseFeeScalar": "0x44d",
      "l1BlobBaseFee": "0x1",
      "l1BlobBaseFeeScalar": "0xa118b",
      "l1Fee": "0x1b2",
      "l1GasPrice": "0xd1",
      "l1GasUsed": "0x640"
    },
    {
      "status": "0x1",
      "cumulativeGasUsed": "0x594d54",
      "logs": [
        {
          "address": "0xd16ee99c7ea2b30c13c3dc298eadee00b870bbcc",
          "topics": [
            "0x8c5be1e5ebec7d5bd14f71427d1e84f3dd0314c0f7b2291e5b200ac8c7c3b925",
            "0x000000000000000000000000a6b3d200cd34ca14d7579dac8b054bf50a62c37c",
            "0x000000000000000000000000000000000022d473030f116ddee9f6b43ac78ba3"
          ],
          "data": "0xffffffffffffffffffffffffffffffffffffffffffffffffffffffffffffffff",
          "blockHash": "0xf8df39250f1405f90cdbe08b77476ab89bdb797552ca4e0e7d9be138afef3707",
          "blockNumber": "0x1866bfa",
          "transactionHash": "0xf8afbcc35c97f11bc5010a3c00ac1a7a10bc49fd075c28ecc6c7b06b3be58dbd",
          "transactionIndex": "0x15",
          "logIndex": "0x7a",
          "removed": false
        }
      ],
      "logsBloom": "0x00000000040000000000000400000000000000000000000002000000000000000000000000000000000000000000000000000000800000000000000000200000000000000000000000004000000000000000000000000800000000000000000000000000000000000000000000000000000000000000000000000000000000000000000000000000000000000000000000000000000000000000000000000000020004000000000000000000000000000000000000000000000000000000000000000040000000000000000000000000000000000000000000000000000000000010000000000000000000000000000000000000000000008000000000000000",
      "type": "0x2",
      "transactionHash": "0xf8afbcc35c97f11bc5010a3c00ac1a7a10bc49fd075c28ecc6c7b06b3be58dbd",
      "transactionIndex": "0x15",
      "blockHash": "0xf8df39250f1405f90cdbe08b77476ab89bdb797552ca4e0e7d9be138afef3707",
      "blockNumber": "0x1866bfa",
      "gasUsed": "0xb469",
      "effectiveGasPrice": "0xf43ad",
      "from": "0xa6b3d200cd34ca14d7579dac8b054bf50a62c37c",
      "to": "0xd16ee99c7ea2b30c13c3dc298eadee00b870bbcc",
      "contractAddress": null,
      "l1BaseFeeScalar": "0x44d",
      "l1BlobBaseFee": "0x1",
      "l1BlobBaseFeeScalar": "0xa118b",
      "l1Fee": "0x1b2",
      "l1GasPrice": "0xd1",
      "l1GasUsed": "0x640"
    },
    {
      "status": "0x1",
      "cumulativeGasUsed": "0x5a0812",
      "logs": [
        {
          "address": "0x000000000022d473030f116ddee9f6b43ac78ba3",
          "topics": [
            "0xda9fa7c1b00402c17d0161b249b1ab8bbec047c5a52207b9c112deffd817036b",
            "0x000000000000000000000000a6b3d200cd34ca14d7579dac8b054bf50a62c37c",
            "0x000000000000000000000000d16ee99c7ea2b30c13c3dc298eadee00b870bbcc",
            "0x0000000000000000000000004b2c77d209d3405f41a037ec6c77f7f5b8e2ca80"
          ],
          "data": "0x000000000000000000000000ffffffffffffffffffffffffffffffffffffffff0000000000000000000000000000000000000000000000000000ffffffffffff",
          "blockHash": "0xf8df39250f1405f90cdbe08b77476ab89bdb797552ca4e0e7d9be138afef3707",
          "blockNumber": "0x1866bfa",
          "transactionHash": "0x529a27ea78ad6e8a942591edbe0a2b295e1a0c99dc5cff4b279a85506ed3ab37",
          "transactionIndex": "0x16",
          "logIndex": "0x7b",
          "removed": false
        }
      ],
      "logsBloom": "0x00010000000000010000000400000000000000000000000002000000000000000000000000000000000000000000000000000000000000000008000010080000000000000000000000000000000000000000000000000000000004000000000000000000000000000000000000000000000000000000000000000000000000000020000000000000000000000000000000002000000000000000000000000000000000000000000000000000000000000000000000000000000000080000000000000040000000000000000000000000000000000000000040000000000000000000000000000000000000000000000040000000000000000000000000000400",
      "type": "0x2",
      "transactionHash": "0x529a27ea78ad6e8a942591edbe0a2b295e1a0c99dc5cff4b279a85506ed3ab37",
      "transactionIndex": "0x16",
      "blockHash": "0xf8df39250f1405f90cdbe08b77476ab89bdb797552ca4e0e7d9be138afef3707",
      "blockNumber": "0x1866bfa",
      "gasUsed": "0xbabe",
      "effectiveGasPrice": "0xf43ad",
      "from": "0xa6b3d200cd34ca14d7579dac8b054bf50a62c37c",
      "to": "0x000000000022d473030f116ddee9f6b43ac78ba3",
      "contractAddress": null,
      "l1BaseFeeScalar": "0x44d",
      "l1BlobBaseFee": "0x1",
      "l1BlobBaseFeeScalar": "0xa118b",
      "l1Fee": "0x1e6",
      "l1GasPrice": "0xd1",
      "l1GasUsed": "0x702"
    },
    {
      "status": "0x1",
      "cumulativeGasUsed": "0x5abc93",
      "logs": [
        {
          "address": "0xe7a4113a8a497dd72d29f35e188eed7403e8b2e8",
          "topics": [
            "0x8c5be1e5ebec7d5bd14f71427d1e84f3dd0314c0f7b2291e5b200ac8c7c3b925",
            "0x000000000000000000000000a6b3d200cd34ca14d7579dac8b054bf50a62c37c",
            "0x000000000000000000000000000000000022d473030f116ddee9f6b43ac78ba3"
          ],
          "data": "0xffffffffffffffffffffffffffffffffffffffffffffffffffffffffffffffff",
          "blockHash": "0xf8df39250f1405f90cdbe08b77476ab89bdb797552ca4e0e7d9be138afef3707",
          "blockNumber": "0x1866bfa",
          "transactionHash": "0x7f68047d41e3c5dea60bdd2794ee01fd6fe18af5f302888f600d21f2a08b961b",
          "transactionIndex": "0x17",
          "logIndex": "0x7c",
          "removed": false
        }
      ],
      "logsBloom": "0x00000000000000000000000400000000000000000000000002000000000000000000000000000000000000000000000000000000800000000000000000200000000000000000000000004000000000000000000000000800000000000000000000000000000000000000000000000000000000000000000000000000000000200000000000000000001000000000000000000000000000000000000000000000020000000000000000000000000000000000000000000000000000000000000000000040000000000000000000000000000000000000000000000000000000000010000000000000000000000000000000000000000000000000000000000040",
      "type": "0x2",
      "transactionHash": "0x7f68047d41e3c5dea60bdd2794ee01fd6fe18af5f302888f600d21f2a08b961b",
      "transactionIndex": "0x17",
      "blockHash": "0xf8df39250f1405f90cdbe08b77476ab89bdb797552ca4e0e7d9be138afef3707",
      "blockNumber": "0x1866bfa",
      "gasUsed": "0xb481",
      "effectiveGasPrice": "0xf43ad",
      "from": "0xa6b3d200cd34ca14d7579dac8b054bf50a62c37c",
      "to": "0xe7a4113a8a497dd72d29f35e188eed7403e8b2e8",
      "contractAddress": null,
      "l1BaseFeeScalar": "0x44d",
      "l1BlobBaseFee": "0x1",
      "l1BlobBaseFeeScalar": "0xa118b",
      "l1Fee": "0x1b2",
      "l1GasPrice": "0xd1",
      "l1GasUsed": "0x640"
    },
    {
      "status": "0x1",
      "cumulativeGasUsed": "0x5b775d",
      "logs": [
        {
          "address": "0x000000000022d473030f116ddee9f6b43ac78ba3",
          "topics": [
            "0xda9fa7c1b00402c17d0161b249b1ab8bbec047c5a52207b9c112deffd817036b",
            "0x000000000000000000000000a6b3d200cd34ca14d7579dac8b054bf50a62c37c",
            "0x000000000000000000000000e7a4113a8a497dd72d29f35e188eed7403e8b2e8",
            "0x0000000000000000000000004b2c77d209d3405f41a037ec6c77f7f5b8e2ca80"
          ],
          "data": "0x000000000000000000000000ffffffffffffffffffffffffffffffffffffffff0000000000000000000000000000000000000000000000000000ffffffffffff",
          "blockHash": "0xf8df39250f1405f90cdbe08b77476ab89bdb797552ca4e0e7d9be138afef3707",
          "blockNumber": "0x1866bfa",
          "transactionHash": "0x3cc65758bc889a19f8472beef301dc1e0ed17764163f5d1f9bdb4502896670d1",
          "transactionIndex": "0x18",
          "logIndex": "0x7d",
          "removed": false
        }
      ],
      "logsBloom": "0x00010000000000010000000400000000000000000000000002000000000000000000000000000000000000000000000400000000000000000008000010080000000000000000000000000000000000000000000000000000000000000000000000000000000000000000000000000000000000000000000000000000000000000020000000000000000000000000000000000000000000000000000000000000000000000000000000000000000000000000000000000000000000080000000000000040000000000000000000000000000000000000000040000000000000000000000000040000000000000000020000000000000000000000000000000400",
      "type": "0x2",
      "transactionHash": "0x3cc65758bc889a19f8472beef301dc1e0ed17764163f5d1f9bdb4502896670d1",
      "transactionIndex": "0x18",
      "blockHash": "0xf8df39250f1405f90cdbe08b77476ab89bdb797552ca4e0e7d9be138afef3707",
      "blockNumber": "0x1866bfa",
      "gasUsed": "0xbaca",
      "effectiveGasPrice": "0xf43ad",
      "from": "0xa6b3d200cd34ca14d7579dac8b054bf50a62c37c",
      "to": "0x000000000022d473030f116ddee9f6b43ac78ba3",
      "contractAddress": null,
      "l1BaseFeeScalar": "0x44d",
      "l1BlobBaseFee": "0x1",
      "l1BlobBaseFeeScalar": "0xa118b",
      "l1Fee": "0x1e6",
      "l1GasPrice": "0xd1",
      "l1GasUsed": "0x702"
    },
    {
      "status": "0x1",
      "cumulativeGasUsed": "0x623abf",
      "logs": [
        {
          "address": "0x05e73354cfdd6745c338b50bcfdfa3aa6fa03408",
          "topics": [
            "0xdd466e674ea557f56295e2d0218a125ea4b4f0f6f3307b95f85e6110838d6438",
            "0x13a37c417a218478aaebb839a88a9a73df52cb93399077f2b73fc1b934f6963c",
            "0x000000000000000000000000d16ee99c7ea2b30c13c3dc298eadee00b870bbcc",
            "0x000000000000000000000000e7a4113a8a497dd72d29f35e188eed7403e8b2e8"
          ],
          "data": "0x0000000000000000000000000000000000000000000000000000000000000bb8000000000000000000000000000000000000000000000000000000000000003c000000000000000000000000866bf94370e8a7c9cdeafb592c2ac62903e300400000000000000000000000000000000000000000040959e71a1c4b5831a826a3fffffffffffffffffffffffffffffffffffffffffffffffffffffffffffebbc8",
          "blockHash": "0xf8df39250f1405f90cdbe08b77476ab89bdb797552ca4e0e7d9be138afef3707",
          "blockNumber": "0x1866bfa",
          "transactionHash": "0xd8a18eac32f008efcff727ec6bfa3365a36911c7fce004df4257fe755e5e4f82",
          "transactionIndex": "0x19",
          "logIndex": "0x7e",
          "removed": false
        },
        {
          "address": "0x4b2c77d209d3405f41a037ec6c77f7f5b8e2ca80",
          "topics": [
            "0xddf252ad1be2c89b69c2b068fc378daa952ba7f163c4a11628f55a4df523b3ef",
            "0x0000000000000000000000000000000000000000000000000000000000000000",
            "0x000000000000000000000000a6b3d200cd34ca14d7579dac8b054bf50a62c37c",
            "0x0000000000000000000000000000000000000000000000000000000000000361"
          ],
          "data": "0x",
          "blockHash": "0xf8df39250f1405f90cdbe08b77476ab89bdb797552ca4e0e7d9be138afef3707",
          "blockNumber": "0x1866bfa",
          "transactionHash": "0xd8a18eac32f008efcff727ec6bfa3365a36911c7fce004df4257fe755e5e4f82",
          "transactionIndex": "0x19",
          "logIndex": "0x7f",
          "removed": false
        },
        {
          "address": "0x05e73354cfdd6745c338b50bcfdfa3aa6fa03408",
          "topics": [
            "0xf208f4912782fd25c7f114ca3723a2d5dd6f3bcc3ac8db5af63baa85f711d5ec",
            "0x13a37c417a218478aaebb839a88a9a73df52cb93399077f2b73fc1b934f6963c",
            "0x0000000000000000000000004b2c77d209d3405f41a037ec6c77f7f5b8e2ca80"
          ],
          "data": "0xfffffffffffffffffffffffffffffffffffffffffffffffffffffffffffea46cfffffffffffffffffffffffffffffffffffffffffffffffffffffffffffed34c0000000000000000000000000000000000000000000000000000023b62f6a53e0000000000000000000000000000000000000000000000000000000000000361",
          "blockHash": "0xf8df39250f1405f90cdbe08b77476ab89bdb797552ca4e0e7d9be138afef3707",
          "blockNumber": "0x1866bfa",
          "transactionHash": "0xd8a18eac32f008efcff727ec6bfa3365a36911c7fce004df4257fe755e5e4f82",
          "transactionIndex": "0x19",
          "logIndex": "0x80",
          "removed": false
        },
        {
          "address": "0xd16ee99c7ea2b30c13c3dc298eadee00b870bbcc",
          "topics": [
            "0xddf252ad1be2c89b69c2b068fc378daa952ba7f163c4a11628f55a4df523b3ef",
            "0x000000000000000000000000a6b3d200cd34ca14d7579dac8b054bf50a62c37c",
            "0x00000000000000000000000005e73354cfdd6745c338b50bcfdfa3aa6fa03408"
          ],
          "data": "0x000000000000000000000000000000000000000000000000000024ca9c4373ea",
          "blockHash": "0xf8df39250f1405f90cdbe08b77476ab89bdb797552ca4e0e7d9be138afef3707",
          "blockNumber": "0x1866bfa",
          "transactionHash": "0xd8a18eac32f008efcff727ec6bfa3365a36911c7fce004df4257fe755e5e4f82",
          "transactionIndex": "0x19",
          "logIndex": "0x81",
          "removed": false
        },
        {
          "address": "0xe7a4113a8a497dd72d29f35e188eed7403e8b2e8",
          "topics": [
            "0xddf252ad1be2c89b69c2b068fc378daa952ba7f163c4a11628f55a4df523b3ef",
            "0x000000000000000000000000a6b3d200cd34ca14d7579dac8b054bf50a62c37c",
            "0x00000000000000000000000005e73354cfdd6745c338b50bcfdfa3aa6fa03408"
          ],
          "data": "0x00000000000000000000000000000000000000000000000000000002540be400",
          "blockHash": "0xf8df39250f1405f90cdbe08b77476ab89bdb797552ca4e0e7d9be138afef3707",
          "blockNumber": "0x1866bfa",
          "transactionHash": "0xd8a18eac32f008efcff727ec6bfa3365a36911c7fce004df4257fe755e5e4f82",
          "transactionIndex": "0x19",
          "logIndex": "0x82",
          "removed": false
        }
      ],
      "logsBloom": "0x00000000040000010000000400000000000000000000000002000000000000000100000100008000000000000000000400000000000000000008000010000800000000000010000000000008000000000000000000100000000004008000000000000000020000000000000000000800000000000080800000000010000010200000000005000008001000000000000000002001000000000000000000200000000004000000000000000000084000000000000000000000000000000000000000000042001000000000000000000000000000000000000000000000000020000000000000040000000000000800020044000000000000008000000000000040",
      "type": "0x2",
      "transactionHash": "0xd8a18eac32f008efcff727ec6bfa3365a36911c7fce004df4257fe755e5e4f82",
      "transactionIndex": "0x19",
      "blockHash": "0xf8df39250f1405f90cdbe08b77476ab89bdb797552ca4e0e7d9be138afef3707",
      "blockNumber": "0x1866bfa",
      "gasUsed": "0x6c362",
      "effectiveGasPrice": "0xf43ad",
      "from": "0xa6b3d200cd34ca14d7579dac8b054bf50a62c37c",
      "to": "0x4b2c77d209d3405f41a037ec6c77f7f5b8e2ca80",
      "contractAddress": null,
      "l1BaseFeeScalar": "0x44d",
      "l1BlobBaseFee": "0x1",
      "l1BlobBaseFeeScalar": "0xa118b",
      "l1Fee": "0x56f",
      "l1GasPrice": "0xd1",
      "l1GasUsed": "0x1407"
    }
  ],
  "libraries": [],
  "pending": [],
  "returns": {},
  "timestamp": 1746941654,
  "chain": 84532,
  "commit": "75f5f42"
}