{
  "transactions": [
    {
      "hash": "0x71fb469b2a18419851dccb4bd91630b708dc1569dd7ff331fb80511c0264d2c4",
      "transactionType": "CREATE",
      "contractName": "VCOPRebased",
      "contractAddress": "0x9654e816c592b9794a6c20f97019c952bd69e1b0",
      "function": null,
      "arguments": [
        "1000000000000000000000000"
      ],
      "transaction": {
        "from": "0xa6b3d200cd34ca14d7579dac8b054bf50a62c37c",
        "gas": "0x14b5df",
        "value": "0x0",
        "input": "0x60806040523461042c576111086020813803918261001c81610430565b93849283398101031261042c57516100346040610430565b90600f82526e2b21a7a81029ba30b13632b1b7b4b760891b602083015261005b6040610430565b6004815263056434f560e41b602082015282519091906001600160401b03811161033d57600354600181811c91168015610422575b602082101461031f57601f81116103bf575b506020601f821160011461035c57819293945f92610351575b50508160011b915f199060031b1c1916176003555b81516001600160401b03811161033d57600454600181811c91168015610333575b602082101461031f57601f81116102bc575b50602092601f821160011461025b57928192935f92610250575b50508160011b915f199060031b1c1916176004555b331561023d5760058054336001600160a01b0319821681179092556040519291906001600160a01b03167f8be0079c531659141344cd1fd0a4f28419497f9722a3daafe3b4186f6b6457e05f80a3670e92596fd6290000600655670d2f13f7789f0000600755662386f26fc1000060088190556009555f600a55600160801b60105580156102295780600160801b04600c5580600f55335f52600d602052600160801b60405f2055335f52600b60205260405f20600160ff1982541617905581525f7fddf252ad1be2c89b69c2b068fc378daa952ba7f163c4a11628f55a4df523b3ef60203393a3604051610cb290816104568239f35b634e487b7160e01b5f52601260045260245ffd5b631e4fbdf760e01b5f525f60045260245ffd5b015190505f8061011d565b601f1982169360045f52805f20915f5b8681106102a4575083600195961061028c575b505050811b01600455610132565b01515f1960f88460031b161c191690555f808061027e565b9192602060018192868501518155019401920161026b565b60045f527f8a35acfbc15ff81a39ae7d344fd709f28e8600b4aa8c65c6b64bfe7fe36bd19b601f830160051c81019160208410610315575b601f0160051c01905b81811061030a5750610103565b5f81556001016102fd565b90915081906102f4565b634e487b7160e01b5f52602260045260245ffd5b90607f16906100f1565b634e487b7160e01b5f52604160045260245ffd5b015190505f806100bb565b601f1982169060035f52805f20915f5b8181106103a75750958360019596971061038f575b505050811b016003556100d0565b01515f1960f88460031b161c191690555f8080610381565b9192602060018192868b01518155019401920161036c565b60035f527fc2575a0e9e593c00f959f8c92f12db2869c3395a3b0502d05e2516446f71f85b601f830160051c81019160208410610418575b601f0160051c01905b81811061040d57506100a2565b5f8155600101610400565b90915081906103f7565b90607f1690610090565b5f80fd5b6040519190601f01601f191682016001600160401b0381118382101761033d5760405256fe6080806040526004361015610012575f80fd5b5f3560e01c90816306fdde031461098657508063095ea7b3146108c857806316c517621461087357806318160ddd146108565780631d8d9c761461073d57806323b872dd146105dc5780632723c31c146105bf578063313ce567146105a457806333a19fb31461058757806351ffaf401461056a57806370a082311461052e578063715018a6146104c85780638da5cb5b146104a2578063900cf0cf1461048557806395d89b411461036a578063a9059cbb14610286578063abd5b18114610249578063b7743ba21461022c578063bc4f2d6d14610206578063dd62ed3e146101b25763f2fde38b14610103575f80fd5b346101ae5760203660031901126101ae576001600160a01b03610124610a7f565b61012c610c3c565b168015610182576001600160a01b036005548273ffffffffffffffffffffffffffffffffffffffff19821617600555167f8be0079c531659141344cd1fd0a4f28419497f9722a3daafe3b4186f6b6457e05f80a3005b7f1e4fbdf7000000000000000000000000000000000000000000000000000000005f525f60045260245ffd5b5f80fd5b346101ae5760403660031901126101ae576101cb610a7f565b6001600160a01b036101db610a95565b91165f52600e6020526001600160a01b0360405f2091165f52602052602060405f2054604051908152f35b346101ae5760203660031901126101ae576020610224600435610b0a565b604051908152f35b346101ae575f3660031901126101ae576020600754604051908152f35b346101ae5760203660031901126101ae576001600160a01b0361026a610a7f565b165f52600b602052602060ff60405f2054166040519015158152f35b346101ae5760403660031901126101ae5761029f610a7f565b6001600160a01b03166024358115610326576102bd600c5482610aab565b335f52600d60205260405f206102d4828254610ad2565b9055825f52600d6020526102ed60405f20918254610adf565b90556040519081527fddf252ad1be2c89b69c2b068fc378daa952ba7f163c4a11628f55a4df523b3ef60203392a3602060405160018152f35b606460405162461bcd60e51b815260206004820152601860248201527f5472616e7366657220746f207a65726f206164647265737300000000000000006044820152fd5b346101ae575f3660031901126101ae576040515f6004548060011c9060018116801561047b575b6020831081146104675782855290811561044b57506001146103f6575b50819003601f01601f191681019067ffffffffffffffff8211818310176103e2576103de82918260405282610a55565b0390f35b634e487b7160e01b5f52604160045260245ffd5b905060045f527f8a35acfbc15ff81a39ae7d344fd709f28e8600b4aa8c65c6b64bfe7fe36bd19b5f905b828210610435575060209150820101826103ae565b6001816020925483858801015201910190610420565b90506020925060ff191682840152151560051b820101826103ae565b634e487b7160e01b5f52602260045260245ffd5b91607f1691610391565b346101ae575f3660031901126101ae576020600a54604051908152f35b346101ae575f3660031901126101ae5760206001600160a01b0360055416604051908152f35b346101ae575f3660031901126101ae576104e0610c3c565b5f6001600160a01b0360055473ffffffffffffffffffffffffffffffffffffffff198116600555167f8be0079c531659141344cd1fd0a4f28419497f9722a3daafe3b4186f6b6457e08280a3005b346101ae5760203660031901126101ae576001600160a01b0361054f610a7f565b165f52600d602052602061022460405f2054600c5490610aec565b346101ae575f3660031901126101ae576020600654604051908152f35b346101ae575f3660031901126101ae576020600854604051908152f35b346101ae575f3660031901126101ae57602060405160128152f35b346101ae575f3660031901126101ae576020600954604051908152f35b346101ae5760603660031901126101ae576105f5610a7f565b6105fd610a95565b906001600160a01b03604435911690815f52600e60205260405f206001600160a01b0333165f5260205260405f20548181106106d3577fddf252ad1be2c89b69c2b068fc378daa952ba7f163c4a11628f55a4df523b3ef916020916001600160a01b0361066c600c5484610aab565b96865f52600d855260405f20610683898254610ad2565b90551695865f52600d845261069d60405f20918254610adf565b9055845f52600e835260405f206001600160a01b0333165f5283528160405f2091039055604051908152a3602060405160018152f35b608460405162461bcd60e51b815260206004820152602160248201527f5472616e7366657220616d6f756e74206578636565647320616c6c6f77616e6360448201527f65000000000000000000000000000000000000000000000000000000000000006064820152fd5b346101ae5760803660031901126101ae57604435602435600435606435610762610c3c565b828211156108125783151580610809575b156107c5577f82a68b407e5a7cf56e4f00e977a7ccb29238e51a742bd5122da8dd462c5849cd9360809383600655806007558160085582600955604051938452602084015260408301526060820152a1005b606460405162461bcd60e51b815260206004820152601760248201527f50657263656e7461676573206d757374206265203e20300000000000000000006044820152fd5b50801515610773565b606460405162461bcd60e51b815260206004820152601260248201527f5468726573686f6c647320696e76616c696400000000000000000000000000006044820152fd5b346101ae575f3660031901126101ae576020600f54604051908152f35b346101ae5760403660031901126101ae5761088c610a7f565b602435908115158092036101ae576001600160a01b03906108ab610c3c565b165f52600b60205260405f209060ff801983541691161790555f80f35b346101ae5760403660031901126101ae576108e1610a7f565b6001600160a01b0316602435811561094257335f52600e60205260405f20825f526020528060405f20556040519081527f8c5be1e5ebec7d5bd14f71427d1e84f3dd0314c0f7b2291e5b200ac8c7c3b92560203392a3602060405160018152f35b606460405162461bcd60e51b815260206004820152601760248201527f417070726f766520746f207a65726f20616464726573730000000000000000006044820152fd5b346101ae575f3660031901126101ae575f6003548060011c90600181168015610a4b575b6020831081146104675782855290811561044b57506001146109f65750819003601f01601f191681019067ffffffffffffffff8211818310176103e2576103de82918260405282610a55565b905060035f527fc2575a0e9e593c00f959f8c92f12db2869c3395a3b0502d05e2516446f71f85b5f905b828210610a35575060209150820101826103ae565b6001816020925483858801015201910190610a20565b91607f16916109aa565b602060409281835280519182918282860152018484015e5f828201840152601f01601f1916010190565b600435906001600160a01b03821682036101ae57565b602435906001600160a01b03821682036101ae57565b81810292918115918404141715610abe57565b634e487b7160e01b5f52601160045260245ffd5b91908203918211610abe57565b91908201809211610abe57565b8115610af6570490565b634e487b7160e01b5f52601260045260245ffd5b335f52600b60205260ff60405f20541615610bf857600f54600654909182918110610bc5575050610b50670de0b6b3a7640000610b4960085484610aab565b0482610adf565b905b8103610b60575b50600f5490565b610b6c81601054610aec565b9081600c5580600f55600a54905f198214610abe577fc6642d24d84e7f3d36ca39f5cce10e75639d9b158d5193aa350e2f900653e4c0926001606093019182600a5560405192835260208301526040820152a15f610b59565b60075410610bf357610bed90670de0b6b3a7640000610be660095483610aab565b0490610ad2565b90610b52565b905090565b606460405162461bcd60e51b815260206004820152601860248201527f4e6f7420617574686f72697a656420746f2072656261736500000000000000006044820152fd5b6001600160a01b03600554163303610c5057565b7f118cdaa7000000000000000000000000000000000000000000000000000000005f523360045260245ffdfea264697066735822122036e739b0d2aa1fcb3c13eba60e7e2d399f420d2387b02d62175eeb58ba8167ed64736f6c634300081a003300000000000000000000000000000000000000000000d3c21bcecceda1000000",
        "nonce": "0x2d",
        "chainId": "0x14a34"
      },
      "additionalContracts": [],
      "isFixedGasLimit": false
    },
    {
      "hash": "0x589647c16a0a74544b79a684781010126ea18b465dc233ca5ddadf8d9249edec",
      "transactionType": "CREATE",
      "contractName": "VCOPOracle",
      "contractAddress": "0x3c327dab3ea56c213800d5cb79bdbc66db7d3b91",
      "function": null,
      "arguments": [
        "1000000000000000000"
      ],
      "transaction": {
        "from": "0xa6b3d200cd34ca14d7579dac8b054bf50a62c37c",
        "gas": "0x770db",
        "value": "0x0",
        "input": "0x60803460c257601f6105cf38819003918201601f19168301916001600160401b0383118484101760c65780849260209460405283398101031260c25751331560af575f8054336001600160a01b0319821681178355604051939290916001600160a01b0316907f8be0079c531659141344cd1fd0a4f28419497f9722a3daafe3b4186f6b6457e09080a3670de0b6b3a76400006001558060a7575b506104f490816100db8239f35b6001555f609a565b631e4fbdf760e01b5f525f60045260245ffd5b5f80fd5b634e487b7160e01b5f52604160045260245ffdfe60806040526004361015610011575f80fd5b5f3560e01c80630c59e649146103055780635f2706f91461025b578063715018a6146101f75780638da5cb5b146101d257806391b7f5ed1461013357806398d5fdca146101165763f2fde38b14610066575f80fd5b34610112576020366003190112610112576004356001600160a01b0381168091036101125761009361047f565b80156100e6576001600160a01b035f548273ffffffffffffffffffffffffffffffffffffffff198216175f55167f8be0079c531659141344cd1fd0a4f28419497f9722a3daafe3b4186f6b6457e05f80a3005b7f1e4fbdf7000000000000000000000000000000000000000000000000000000005f525f60045260245ffd5b5f80fd5b34610112575f366003190112610112576020600154604051908152f35b346101125760203660031901126101125760043561014f61047f565b801561018e5760407f945c1c4e99aa89f648fbfe3df471b916f719e16d960fcec0737d4d56bd69683891600154908060015582519182526020820152a1005b606460405162461bcd60e51b815260206004820152601f60248201527f5072696365206d7573742062652067726561746572207468616e207a65726f006044820152fd5b34610112575f3660031901126101125760206001600160a01b035f5416604051908152f35b34610112575f3660031901126101125761020f61047f565b5f6001600160a01b03815473ffffffffffffffffffffffffffffffffffffffff1981168355167f8be0079c531659141344cd1fd0a4f28419497f9722a3daafe3b4186f6b6457e08280a3005b346101125760203660031901126101125760043561027761047f565b6102828115156103fc565b670de0b6b3a7640000610298600154928361046c565b0481018082116102d8577f945c1c4e99aa89f648fbfe3df471b916f719e16d960fcec0737d4d56bd696838918160409260015582519182526020820152a1005b7f4e487b71000000000000000000000000000000000000000000000000000000005f52601160045260245ffd5b346101125760203660031901126101125760043561032161047f565b61032c8115156103fc565b670de0b6b3a764000081101561039257670de0b6b3a7640000610352600154928361046c565b0481038181116102d8577f945c1c4e99aa89f648fbfe3df471b916f719e16d960fcec0737d4d56bd696838918160409260015582519182526020820152a1005b608460405162461bcd60e51b815260206004820152602160248201527f50657263656e74616765206d757374206265206c657373207468616e2031303060448201527f25000000000000000000000000000000000000000000000000000000000000006064820152fd5b1561040357565b608460405162461bcd60e51b8152602060048201526024808201527f50657263656e74616765206d7573742062652067726561746572207468616e2060448201527f7a65726f000000000000000000000000000000000000000000000000000000006064820152fd5b818102929181159184041417156102d857565b6001600160a01b035f5416330361049257565b7f118cdaa7000000000000000000000000000000000000000000000000000000005f523360045260245ffdfea2646970667358221220d361455f453e18bbcaff486ac85ebe03bf85da912574418c0c5cbc72fd3f17a164736f6c634300081a00330000000000000000000000000000000000000000000000000de0b6b3a7640000",
        "nonce": "0x2e",
        "chainId": "0x14a34"
      },
      "additionalContracts": [],
      "isFixedGasLimit": false
    },
    {
      "hash": "0x30109a6fb8a5693349df8baa16909903905d0a4f2d4e2c5a1a4538b1c20aafc7",
      "transactionType": "CREATE2",
      "contractName": "VCOPRebaseHook",
      "contractAddress": "0x4eb4b9f731eccab556f3516550dd4a68fc3b0040",
      "function": null,
      "arguments": [
        "0x05E73354cFDd6745C338b50BcFDfA3Aa6fA03408",
        "0x9654e816C592b9794a6c20F97019C952BD69E1B0",
        "0x3c327daB3Ea56C213800d5CB79bdbc66Db7D3B91",
        "0x9654e816C592b9794a6c20F97019C952BD69E1B0",
        "0x036CbD53842c5426634e7929541eC2318f3dCF7e"
      ],
      "transaction": {
        "from": "0xa6b3d200cd34ca14d7579dac8b054bf50a62c37c",
        "to": "0x4e59b44847b379578588920ca78fbf26c0b4956c",
        "gas": "0x1255b9",
        "value": "0x0",
        "input": "0x0000000000000000000000000000000000000000000000000000000000000a8e60e06040523461031c57604051601f61105738819003918201601f19168301916001600160401b038311848410176103205780849260a09460405283398101031261031c578051906001600160a01b038216820361031c5761006360208201610354565b61006f60408301610354565b90610088608061008160608601610354565b9401610354565b936080525f6101a0610098610334565b8281528260208201528260408201528260608201528260808201528260a08201528260c08201528260e0820152826101008201528261012082015282610140820152826101608201528261018082015201525f6101a06100f6610334565b8281528260208201528260408201528260608201528260808201528260a08201528260c0820152600160e08201528261010082015282610120820152826101408201528261016082015282610180820152015261200030161580159061030f575b8015610302575b80156102f5575b80156102e8575b80156102db575b80156102cf575b80156102bf575b80156102b3575b80156102a7575b801561029b575b801561028f575b8015610283575b8015610277575b61026457610e105f556001600160a01b0390811660a05290811660c052600280546001600160a01b031990811693831693909317905560038054909216921691909117905542600155604051610cee90816103698239608051818181610273015281816103090152818161035d015281816105890152818161067a0152818161079c015281816108310152610883015260a051818181610142015281816103a00152610ba5015260c0518181816107100152610b360152f35b630732d7b560e51b5f523060045260245ffd5b506001301615156101ab565b506002301615156101a4565b5060043016151561019d565b50600830161515610196565b5060103016151561018f565b50602030161515610188565b5060403016151560011415610181565b5060803016151561017a565b5061010030161515610173565b506102003016151561016c565b5061040030161515610165565b506108003016151561015e565b5061100030161515610157565b5f80fd5b634e487b7160e01b5f52604160045260245ffd5b604051906101c082016001600160401b0381118382101761032057604052565b51906001600160a01b038216820361031c5756fe6080806040526004361015610012575f80fd5b5f3560e01c9081630f29b1e0146108d5575080631924063e146108b857806321d0ee7014610866578063259982e514610866578063575e24b4146107d15780636c2bbe7e1461065b5780636fe7e6eb146107565780637209191c146107345780637dc0d1d0146106f157806389edeb74146106d5578063958af60d146106af5780639f063efc1461065b578063b47b2fb114610529578063b6a8b0fa14610255578063c4e833ce146103c4578063cdb4e09514610381578063dc4c90d31461033e578063dc98354e146102d0578063e1b4af69146102555763ef037fb9146100f8575f80fd5b3461023e57602036600319011261023e576004356040517f8da5cb5b0000000000000000000000000000000000000000000000000000000081526020816004816001600160a01b037f0000000000000000000000000000000000000000000000000000000000000000165afa801561024a575f906101fd575b6001600160a01b0391501633036101b95760407f35e573fc823a1e88156d1baf519137b029a90b14633d92d26e05f6537031ab6c915f5490805f5582519182526020820152a1005b606460405162461bcd60e51b815260206004820152600e60248201527f4e6f7420617574686f72697a65640000000000000000000000000000000000006044820152fd5b506020813d602011610242575b8161021760209383610aca565b8101031261023e57516001600160a01b038116810361023e576001600160a01b0390610171565b5f80fd5b3d915061020a565b6040513d5f823e3d90fd5b3461023e5761026336610a20565b5050505050506001600160a01b037f00000000000000000000000000000000000000000000000000000000000000001633036102a857630a85dc2960e01b5f5260045ffd5b7fae18210a000000000000000000000000000000000000000000000000000000005f5260045ffd5b3461023e5760e036600319011261023e576102e96108f8565b5060a036602319011261023e576102fe610a0a565b506001600160a01b037f00000000000000000000000000000000000000000000000000000000000000001633036102a857630a85dc2960e01b5f5260045ffd5b3461023e575f36600319011261023e5760206040516001600160a01b037f0000000000000000000000000000000000000000000000000000000000000000168152f35b3461023e575f36600319011261023e5760206040516001600160a01b037f0000000000000000000000000000000000000000000000000000000000000000168152f35b3461023e575f36600319011261023e575f6101a06040516103e481610a99565b8281528260208201528260408201528260608201528260808201528260a08201528260c08201528260e0820152826101008201528261012082015282610140820152826101608201528261018082015201526101c0602060405161044781610a99565b5f8152818101905f8252604081015f8152606082015f8152608083015f815260a084015f815260c085015f815260e0860190600182526101008701925f84526101208801945f86526101408901965f88526101608a01985f8a526101a06101808c019b5f8d52019b5f8d526040519d8e915f835251151591015251151560408d015251151560608c015251151560808b015251151560a08a015251151560c089015251151560e08801525115156101008701525115156101208601525115156101408501525115156101608401525115156101808301525115156101a0820152f35b3461023e5761016036600319011261023e576105436108f8565b5060a036602319011261023e5760603660c319011261023e576101443567ffffffffffffffff811161023e5761057d90369060040161090e565b50506001600160a01b037f00000000000000000000000000000000000000000000000000000000000000001633036102a8576024356001600160a01b0381169081810361023e57506001600160a01b036002541680911490811561063c575b5080610625575b610617575b604080517fb47b2fb10000000000000000000000000000000000000000000000000000000081525f6020820152f35b61061f610aec565b506105e8565b506106346001545f5490610a78565b4210156105e3565b90506044356001600160a01b0381169081810361023e575014816105dc565b3461023e57610669366109a0565b505050505050506001600160a01b037f00000000000000000000000000000000000000000000000000000000000000001633036102a857630a85dc2960e01b5f5260045ffd5b3461023e575f36600319011261023e5760206001600160a01b0360035416604051908152f35b3461023e575f36600319011261023e5760205f54604051908152f35b3461023e575f36600319011261023e5760206040516001600160a01b037f0000000000000000000000000000000000000000000000000000000000000000168152f35b3461023e575f36600319011261023e57602061074e610aec565b604051908152f35b3461023e5761010036600319011261023e576107706108f8565b5060a036602319011261023e57610785610a0a565b5060e4358060020b0361023e576001600160a01b037f00000000000000000000000000000000000000000000000000000000000000001633036102a857630a85dc2960e01b5f5260045ffd5b3461023e5761014036600319011261023e576107eb6108f8565b5060a036602319011261023e5760603660c319011261023e576101243567ffffffffffffffff811161023e5761082590369060040161090e565b50506001600160a01b037f00000000000000000000000000000000000000000000000000000000000000001633036102a857630a85dc2960e01b5f5260045ffd5b3461023e576108743661093c565b50505050506001600160a01b037f00000000000000000000000000000000000000000000000000000000000000001633036102a857630a85dc2960e01b5f5260045ffd5b3461023e575f36600319011261023e576020600154604051908152f35b3461023e575f36600319011261023e576020906001600160a01b03600254168152f35b600435906001600160a01b038216820361023e57565b9181601f8401121561023e5782359167ffffffffffffffff831161023e576020838186019501011161023e57565b9061016060031983011261023e576004356001600160a01b038116810361023e579160a060231982011261023e57602491608060c31983011261023e5760c491610144359067ffffffffffffffff821161023e5761099c9160040161090e565b9091565b906101a060031983011261023e576004356001600160a01b038116810361023e579160a060231982011261023e57602491608060c31983011261023e5760c49161014435916101643591610184359067ffffffffffffffff821161023e5761099c9160040161090e565b60c435906001600160a01b038216820361023e57565b61012060031982011261023e576004356001600160a01b038116810361023e579160a060231983011261023e5760249160c4359160e43591610104359067ffffffffffffffff821161023e5761099c9160040161090e565b91908201809211610a8557565b634e487b7160e01b5f52601160045260245ffd5b6101c0810190811067ffffffffffffffff821117610ab657604052565b634e487b7160e01b5f52604160045260245ffd5b90601f8019910116810190811067ffffffffffffffff821117610ab657604052565b610afa6001545f5490610a78565b4210610c74576040517f98d5fdca0000000000000000000000000000000000000000000000000000000081526020816004816001600160a01b037f0000000000000000000000000000000000000000000000000000000000000000165afa90811561024a575f91610c42575b50604051907fbc4f2d6d0000000000000000000000000000000000000000000000000000000082528060048301526020826024815f6001600160a01b037f0000000000000000000000000000000000000000000000000000000000000000165af191821561024a575f92610c0d575b5060407f54f7dca807c3be86ecb9fe87d9d880e638b8c2b47050de03f7e9cb676afa760291426001558151908152836020820152a190565b9091506020813d602011610c3a575b81610c2960209383610aca565b8101031261023e5751906040610bd5565b3d9150610c1c565b90506020813d602011610c6c575b81610c5d60209383610aca565b8101031261023e57515f610b66565b3d9150610c50565b606460405162461bcd60e51b815260206004820152600f60248201527f52656261736520746f6f20736f6f6e00000000000000000000000000000000006044820152fdfea26469706673582212206f32c181c104d91a07c18aeb2b98ee0bc97b0ad3c44aadd3cf467dca6916ad8864736f6c634300081a003300000000000000000000000005e73354cfdd6745c338b50bcfdfa3aa6fa034080000000000000000000000009654e816c592b9794a6c20f97019c952bd69e1b00000000000000000000000003c327dab3ea56c213800d5cb79bdbc66db7d3b910000000000000000000000009654e816c592b9794a6c20f97019c952bd69e1b0000000000000000000000000036cbd53842c5426634e7929541ec2318f3dcf7e",
        "nonce": "0x2f",
        "chainId": "0x14a34"
      },
      "additionalContracts": [],
      "isFixedGasLimit": false
    },
    {
      "hash": "0xe1d65152bf1a090ba3be28ec18df18fc0f2a6a8e8eae1f5efc9b3e1f3d19d44c",
      "transactionType": "CALL",
      "contractName": "VCOPRebased",
      "contractAddress": "0x9654e816c592b9794a6c20f97019c952bd69e1b0",
      "function": "setRebaser(address,bool)",
      "arguments": [
        "0x4eB4B9f731ECCaB556f3516550dd4A68fc3b0040",
        "true"
      ],
      "transaction": {
        "from": "0xa6b3d200cd34ca14d7579dac8b054bf50a62c37c",
        "to": "0x9654e816c592b9794a6c20f97019c952bd69e1b0",
        "gas": "0x10816",
        "value": "0x0",
        "input": "0x16c517620000000000000000000000004eb4b9f731eccab556f3516550dd4a68fc3b00400000000000000000000000000000000000000000000000000000000000000001",
        "nonce": "0x30",
        "chainId": "0x14a34"
      },
      "additionalContracts": [],
      "isFixedGasLimit": false
    },
    {
      "hash": "0xb235eedd144856e0fb8b9668b18a83d48ccf461b942b62a93b2351e68d79f8aa",
      "transactionType": "CALL",
      "contractName": "VCOPRebased",
      "contractAddress": "0x9654e816c592b9794a6c20f97019c952bd69e1b0",
      "function": "approve(address,uint256)",
      "arguments": [
        "0x000000000022D473030F116dDEE9F6B43aC78BA3",
        "115792089237316195423570985008687907853269984665640564039457584007913129639935"
      ],
      "transaction": {
        "from": "0xa6b3d200cd34ca14d7579dac8b054bf50a62c37c",
        "to": "0x9654e816c592b9794a6c20f97019c952bd69e1b0",
        "gas": "0x107d9",
        "value": "0x0",
        "input": "0x095ea7b3000000000000000000000000000000000022d473030f116ddee9f6b43ac78ba3ffffffffffffffffffffffffffffffffffffffffffffffffffffffffffffffff",
        "nonce": "0x31",
        "chainId": "0x14a34"
      },
      "additionalContracts": [],
      "isFixedGasLimit": false
    },
    {
      "hash": "0xd54af0daebb284d6c5012e2ad35b067535417b08984379057f27cac40e68b50d",
      "transactionType": "CALL",
      "contractName": null,
      "contractAddress": "0x000000000022d473030f116ddee9f6b43ac78ba3",
      "function": "approve(address,address,uint160,uint48)",
      "arguments": [
        "0x9654e816C592b9794a6c20F97019C952BD69E1B0",
        "0x4B2C77d209D3405F41a037Ec6c77F7F5b8e2ca80",
        "1461501637330902918203684832716283019655932542975",
        "281474976710655"
      ],
      "transaction": {
        "from": "0xa6b3d200cd34ca14d7579dac8b054bf50a62c37c",
        "to": "0x000000000022d473030f116ddee9f6b43ac78ba3",
        "gas": "0x1112d",
        "value": "0x0",
        "input": "0x87517c450000000000000000000000009654e816c592b9794a6c20f97019c952bd69e1b00000000000000000000000004b2c77d209d3405f41a037ec6c77f7f5b8e2ca80000000000000000000000000ffffffffffffffffffffffffffffffffffffffff0000000000000000000000000000000000000000000000000000ffffffffffff",
        "nonce": "0x32",
        "chainId": "0x14a34"
      },
      "additionalContracts": [],
      "isFixedGasLimit": false
    },
    {
      "hash": "0x872b58a5a91c236da79961bb704c9247bfce76f292599b5bae1092618f80e333",
      "transactionType": "CALL",
      "contractName": null,
      "contractAddress": "0x036cbd53842c5426634e7929541ec2318f3dcf7e",
      "function": "approve(address,uint256)",
      "arguments": [
        "0x000000000022D473030F116dDEE9F6B43aC78BA3",
        "115792089237316195423570985008687907853269984665640564039457584007913129639935"
      ],
      "transaction": {
        "from": "0xa6b3d200cd34ca14d7579dac8b054bf50a62c37c",
        "to": "0x036cbd53842c5426634e7929541ec2318f3dcf7e",
        "gas": "0x12ca9",
        "value": "0x0",
        "input": "0x095ea7b3000000000000000000000000000000000022d473030f116ddee9f6b43ac78ba3ffffffffffffffffffffffffffffffffffffffffffffffffffffffffffffffff",
        "nonce": "0x33",
        "chainId": "0x14a34"
      },
      "additionalContracts": [],
      "isFixedGasLimit": false
    },
    {
      "hash": "0x1474b47541e9f09cacbdbe64bfdcf8d05ed054086b24d9603474bca7d059649e",
      "transactionType": "CALL",
      "contractName": null,
      "contractAddress": "0x000000000022d473030f116ddee9f6b43ac78ba3",
      "function": "approve(address,address,uint160,uint48)",
      "arguments": [
        "0x036CbD53842c5426634e7929541eC2318f3dCF7e",
        "0x4B2C77d209D3405F41a037Ec6c77F7F5b8e2ca80",
        "1461501637330902918203684832716283019655932542975",
        "281474976710655"
      ],
      "transaction": {
        "from": "0xa6b3d200cd34ca14d7579dac8b054bf50a62c37c",
        "to": "0x000000000022d473030f116ddee9f6b43ac78ba3",
        "gas": "0x1112d",
        "value": "0x0",
        "input": "0x87517c45000000000000000000000000036cbd53842c5426634e7929541ec2318f3dcf7e0000000000000000000000004b2c77d209d3405f41a037ec6c77f7f5b8e2ca80000000000000000000000000ffffffffffffffffffffffffffffffffffffffff0000000000000000000000000000000000000000000000000000ffffffffffff",
        "nonce": "0x34",
        "chainId": "0x14a34"
      },
      "additionalContracts": [],
      "isFixedGasLimit": false
    },
    {
      "hash": "0xdd9369bfd8c0f4e72230d27c82540bbdc42d8a85babd4515d319cdbb003aa135",
      "transactionType": "CALL",
      "contractName": null,
      "contractAddress": "0x4b2c77d209d3405f41a037ec6c77f7f5b8e2ca80",
      "function": "multicall(bytes[])",
      "arguments": [
        "[0xf7020405000000000000000000000000036cbd53842c5426634e7929541ec2318f3dcf7e0000000000000000000000009654e816c592b9794a6c20f97019c952bd69e1b00000000000000000000000000000000000000000000000000000000000000bb8000000000000000000000000000000000000000000000000000000000000003c0000000000000000000000004eb4b9f731eccab556f3516550dd4a68fc3b0040000000000000000000000000000000000000000100000000000000000000000000000000000000000000000000000000000000000000000000000000000000e00000000000000000000000000000000000000000000000000000000000000000, 0xdd46508f000000000000000000000000000000000000000000000000000000000000004000000000000000000000000000000000000000000000000000000000681ff4e00000000000000000000000000000000000000000000000000000000000000300000000000000000000000000000000000000000000000000000000000000004000000000000000000000000000000000000000000000000000000000000000800000000000000000000000000000000000000000000000000000000000000002020d00000000000000000000000000000000000000000000000000000000000000000000000000000000000000000000000000000000000000000000000000020000000000000000000000000000000000000000000000000000000000000040000000000000000000000000000000000000000000000000000000000000020000000000000000000000000000000000000000000000000000000000000001a0000000000000000000000000036cbd53842c5426634e7929541ec2318f3dcf7e0000000000000000000000009654e816c592b9794a6c20f97019c952bd69e1b00000000000000000000000000000000000000000000000000000000000000bb8000000000000000000000000000000000000000000000000000000000000003c0000000000000000000000004eb4b9f731eccab556f3516550dd4a68fc3b0040fffffffffffffffffffffffffffffffffffffffffffffffffffffffffffffda800000000000000000000000000000000000000000000000000000000000002580000000000000000000000000000000000000000000000000000000064d7f6ae0000000000000000000000000000000000000000000000000000000002faf080000000000000000000000000000000000000000000000002b5e3af16b1880000000000000000000000000000a6b3d200cd34ca14d7579dac8b054bf50a62c37c000000000000000000000000000000000000000000000000000000000000018000000000000000000000000000000000000000000000000000000000000000000000000000000000000000000000000000000000000000000000000000000040000000000000000000000000036cbd53842c5426634e7929541ec2318f3dcf7e0000000000000000000000009654e816c592b9794a6c20f97019c952bd69e1b0]"
      ],
      "transaction": {
        "from": "0xa6b3d200cd34ca14d7579dac8b054bf50a62c37c",
        "to": "0x4b2c77d209d3405f41a037ec6c77f7f5b8e2ca80",
        "gas": "0xa2989",
        "value": "0x0",
        "input": "0xac9650d800000000000000000000000000000000000000000000000000000000000000200000000000000000000000000000000000000000000000000000000000000002000000000000000000000000000000000000000000000000000000000000004000000000000000000000000000000000000000000000000000000000000001800000000000000000000000000000000000000000000000000000000000000104f7020405000000000000000000000000036cbd53842c5426634e7929541ec2318f3dcf7e0000000000000000000000009654e816c592b9794a6c20f97019c952bd69e1b00000000000000000000000000000000000000000000000000000000000000bb8000000000000000000000000000000000000000000000000000000000000003c0000000000000000000000004eb4b9f731eccab556f3516550dd4a68fc3b0040000000000000000000000000000000000000000100000000000000000000000000000000000000000000000000000000000000000000000000000000000000e00000000000000000000000000000000000000000000000000000000000000000000000000000000000000000000000000000000000000000000000000000000000000000000000000000000000000000000000000000000000000364dd46508f000000000000000000000000000000000000000000000000000000000000004000000000000000000000000000000000000000000000000000000000681ff4e00000000000000000000000000000000000000000000000000000000000000300000000000000000000000000000000000000000000000000000000000000004000000000000000000000000000000000000000000000000000000000000000800000000000000000000000000000000000000000000000000000000000000002020d00000000000000000000000000000000000000000000000000000000000000000000000000000000000000000000000000000000000000000000000000020000000000000000000000000000000000000000000000000000000000000040000000000000000000000000000000000000000000000000000000000000020000000000000000000000000000000000000000000000000000000000000001a0000000000000000000000000036cbd53842c5426634e7929541ec2318f3dcf7e0000000000000000000000009654e816c592b9794a6c20f97019c952bd69e1b00000000000000000000000000000000000000000000000000000000000000bb8000000000000000000000000000000000000000000000000000000000000003c0000000000000000000000004eb4b9f731eccab556f3516550dd4a68fc3b0040fffffffffffffffffffffffffffffffffffffffffffffffffffffffffffffda800000000000000000000000000000000000000000000000000000000000002580000000000000000000000000000000000000000000000000000000064d7f6ae0000000000000000000000000000000000000000000000000000000002faf080000000000000000000000000000000000000000000000002b5e3af16b1880000000000000000000000000000a6b3d200cd34ca14d7579dac8b054bf50a62c37c000000000000000000000000000000000000000000000000000000000000018000000000000000000000000000000000000000000000000000000000000000000000000000000000000000000000000000000000000000000000000000000040000000000000000000000000036cbd53842c5426634e7929541ec2318f3dcf7e0000000000000000000000009654e816c592b9794a6c20f97019c952bd69e1b000000000000000000000000000000000000000000000000000000000",
        "nonce": "0x35",
        "chainId": "0x14a34"
      },
      "additionalContracts": [],
      "isFixedGasLimit": false
    }
  ],
  "receipts": [
    {
      "status": "0x1",
      "cumulativeGasUsed": "0x5b598b",
      "logs": [
        {
          "address": "0x9654e816c592b9794a6c20f97019c952bd69e1b0",
          "topics": [
            "0x8be0079c531659141344cd1fd0a4f28419497f9722a3daafe3b4186f6b6457e0",
            "0x0000000000000000000000000000000000000000000000000000000000000000",
            "0x000000000000000000000000a6b3d200cd34ca14d7579dac8b054bf50a62c37c"
          ],
          "data": "0x",
          "blockHash": "0xe15590cee56346a0ac03f7117b81fe68528659e87ac030288c684bdf146b21a9",
          "blockNumber": "0x1864ae8",
          "transactionHash": "0x71fb469b2a18419851dccb4bd91630b708dc1569dd7ff331fb80511c0264d2c4",
          "transactionIndex": "0xe",
          "logIndex": "0xa9",
          "removed": false
        },
        {
          "address": "0x9654e816c592b9794a6c20f97019c952bd69e1b0",
          "topics": [
            "0xddf252ad1be2c89b69c2b068fc378daa952ba7f163c4a11628f55a4df523b3ef",
            "0x0000000000000000000000000000000000000000000000000000000000000000",
            "0x000000000000000000000000a6b3d200cd34ca14d7579dac8b054bf50a62c37c"
          ],
          "data": "0x00000000000000000000000000000000000000000000d3c21bcecceda1000000",
          "blockHash": "0xe15590cee56346a0ac03f7117b81fe68528659e87ac030288c684bdf146b21a9",
          "blockNumber": "0x1864ae8",
          "transactionHash": "0x71fb469b2a18419851dccb4bd91630b708dc1569dd7ff331fb80511c0264d2c4",
          "transactionIndex": "0xe",
          "logIndex": "0xaa",
          "removed": false
        }
      ],
      "logsBloom": "0x00000000000000000000000400000000000000000000000002800000000000000000000000000000000000000000000000000000000001000000000000000000000000000000000000000008000000000001000000000000000000000000000000000000022000000000000000000800000000000000000000000010000000400000000000000000000000000000000000000000000000000000000000000000000000000000000000040000000000000000000000000000000000000000000000000042000000000000000000000000000000000000000000000000000020000000000000000000000000000000000000000000000000000000000000000000",
      "type": "0x2",
      "transactionHash": "0x71fb469b2a18419851dccb4bd91630b708dc1569dd7ff331fb80511c0264d2c4",
      "transactionIndex": "0xe",
      "blockHash": "0xe15590cee56346a0ac03f7117b81fe68528659e87ac030288c684bdf146b21a9",
      "blockNumber": "0x1864ae8",
      "gasUsed": "0xfee5d",
      "effectiveGasPrice": "0xf43b5",
      "from": "0xa6b3d200cd34ca14d7579dac8b054bf50a62c37c",
      "to": null,
      "contractAddress": "0x9654e816c592b9794a6c20f97019c952bd69e1b0",
      "l1BaseFeeScalar": "0x44d",
      "l1BlobBaseFee": "0x1",
      "l1BlobBaseFeeScalar": "0xa118b",
      "l1Fee": "0xa14",
      "l1GasPrice": "0x17",
      "l1GasUsed": "0x9769"
    },
    {
      "status": "0x1",
      "cumulativeGasUsed": "0x6112d1",
      "logs": [
        {
          "address": "0x3c327dab3ea56c213800d5cb79bdbc66db7d3b91",
          "topics": [
            "0x8be0079c531659141344cd1fd0a4f28419497f9722a3daafe3b4186f6b6457e0",
            "0x0000000000000000000000000000000000000000000000000000000000000000",
            "0x000000000000000000000000a6b3d200cd34ca14d7579dac8b054bf50a62c37c"
          ],
          "data": "0x",
          "blockHash": "0xe15590cee56346a0ac03f7117b81fe68528659e87ac030288c684bdf146b21a9",
          "blockNumber": "0x1864ae8",
          "transactionHash": "0x589647c16a0a74544b79a684781010126ea18b465dc233ca5ddadf8d9249edec",
          "transactionIndex": "0xf",
          "logIndex": "0xab",
          "removed": false
        }
      ],
      "logsBloom": "0x00000000000000000000000400000020000000000000000002800000000000000000000000000000000000000000000000000000000000000000000000000000000000000000000000000000000000000001000000000000000000000000000000000000020000000000000000000800000000000000000000000000000000400000000000000000000000000000000000000000000000000000000000000000000000000000000000000000000000000000000000000000000000000000000000000041000000000000000000000800000000000000000000000000000020000000000000000000000000000000000000000000000000000000000000000000",
      "type": "0x2",
      "transactionHash": "0x589647c16a0a74544b79a684781010126ea18b465dc233ca5ddadf8d9249edec",
      "transactionIndex": "0xf",
      "blockHash": "0xe15590cee56346a0ac03f7117b81fe68528659e87ac030288c684bdf146b21a9",
      "blockNumber": "0x1864ae8",
      "gasUsed": "0x5b946",
      "effectiveGasPrice": "0xf43b5",
      "from": "0xa6b3d200cd34ca14d7579dac8b054bf50a62c37c",
      "to": null,
      "contractAddress": "0x3c327dab3ea56c213800d5cb79bdbc66db7d3b91",
      "l1BaseFeeScalar": "0x44d",
      "l1BlobBaseFee": "0x1",
      "l1BlobBaseFeeScalar": "0xa118b",
      "l1Fee": "0x34f",
      "l1GasPrice": "0x17",
      "l1GasUsed": "0x31b9"
    },
    {
      "status": "0x1",
      "cumulativeGasUsed": "0x6e58fe",
      "logs": [],
      "logsBloom": "0x00000000000000000000000000000000000000000000000000000000000000000000000000000000000000000000000000000000000000000000000000000000000000000000000000000000000000000000000000000000000000000000000000000000000000000000000000000000000000000000000000000000000000000000000000000000000000000000000000000000000000000000000000000000000000000000000000000000000000000000000000000000000000000000000000000000000000000000000000000000000000000000000000000000000000000000000000000000000000000000000000000000000000000000000000000000",
      "type": "0x2",
      "transactionHash": "0x30109a6fb8a5693349df8baa16909903905d0a4f2d4e2c5a1a4538b1c20aafc7",
      "transactionIndex": "0x10",
      "blockHash": "0xe15590cee56346a0ac03f7117b81fe68528659e87ac030288c684bdf146b21a9",
      "blockNumber": "0x1864ae8",
      "gasUsed": "0xd462d",
      "effectiveGasPrice": "0xf43b5",
      "from": "0xa6b3d200cd34ca14d7579dac8b054bf50a62c37c",
      "to": "0x4e59b44847b379578588920ca78fbf26c0b4956c",
      "contractAddress": null,
      "l1BaseFeeScalar": "0x44d",
      "l1BlobBaseFee": "0x1",
      "l1BlobBaseFeeScalar": "0xa118b",
      "l1Fee": "0x87c",
      "l1GasPrice": "0x17",
      "l1GasUsed": "0x7f84"
    },
    {
      "status": "0x1",
      "cumulativeGasUsed": "0x6f0d91",
      "logs": [],
      "logsBloom": "0x00000000000000000000000000000000000000000000000000000000000000000000000000000000000000000000000000000000000000000000000000000000000000000000000000000000000000000000000000000000000000000000000000000000000000000000000000000000000000000000000000000000000000000000000000000000000000000000000000000000000000000000000000000000000000000000000000000000000000000000000000000000000000000000000000000000000000000000000000000000000000000000000000000000000000000000000000000000000000000000000000000000000000000000000000000000",
      "type": "0x2",
      "transactionHash": "0xe1d65152bf1a090ba3be28ec18df18fc0f2a6a8e8eae1f5efc9b3e1f3d19d44c",
      "transactionIndex": "0x11",
      "blockHash": "0xe15590cee56346a0ac03f7117b81fe68528659e87ac030288c684bdf146b21a9",
      "blockNumber": "0x1864ae8",
      "gasUsed": "0xb493",
      "effectiveGasPrice": "0xf43b5",
      "from": "0xa6b3d200cd34ca14d7579dac8b054bf50a62c37c",
      "to": "0x9654e816c592b9794a6c20f97019c952bd69e1b0",
      "contractAddress": null,
      "l1BaseFeeScalar": "0x44d",
      "l1BlobBaseFee": "0x1",
      "l1BlobBaseFeeScalar": "0xa118b",
      "l1Fee": "0x6a",
      "l1GasPrice": "0x17",
      "l1GasUsed": "0x640"
    },
    {
      "status": "0x1",
      "cumulativeGasUsed": "0x6fc1fa",
      "logs": [
        {
          "address": "0x9654e816c592b9794a6c20f97019c952bd69e1b0",
          "topics": [
            "0x8c5be1e5ebec7d5bd14f71427d1e84f3dd0314c0f7b2291e5b200ac8c7c3b925",
            "0x000000000000000000000000a6b3d200cd34ca14d7579dac8b054bf50a62c37c",
            "0x000000000000000000000000000000000022d473030f116ddee9f6b43ac78ba3"
          ],
          "data": "0xffffffffffffffffffffffffffffffffffffffffffffffffffffffffffffffff",
          "blockHash": "0xe15590cee56346a0ac03f7117b81fe68528659e87ac030288c684bdf146b21a9",
          "blockNumber": "0x1864ae8",
          "transactionHash": "0xb235eedd144856e0fb8b9668b18a83d48ccf461b942b62a93b2351e68d79f8aa",
          "transactionIndex": "0x12",
          "logIndex": "0xac",
          "removed": false
        }
      ],
      "logsBloom": "0x00000000000000000000000400000000000000000000000002000000000000000000000000000000000000000000000000000000800001000000000000200000000000000000000000004000000000000000000000000800000000000000000000000000002000000000000000000000000000000000000000000000000000000000000000000000000000000000000000000000000000000000000000000000020000000000000000040000000000000000000000000000000000000000000000000040000000000000000000000000000000000000000000000000000000000010000000000000000000000000000000000000000000000000000000000000",
      "type": "0x2",
      "transactionHash": "0xb235eedd144856e0fb8b9668b18a83d48ccf461b942b62a93b2351e68d79f8aa",
      "transactionIndex": "0x12",
      "blockHash": "0xe15590cee56346a0ac03f7117b81fe68528659e87ac030288c684bdf146b21a9",
      "blockNumber": "0x1864ae8",
      "gasUsed": "0xb469",
      "effectiveGasPrice": "0xf43b5",
      "from": "0xa6b3d200cd34ca14d7579dac8b054bf50a62c37c",
      "to": "0x9654e816c592b9794a6c20f97019c952bd69e1b0",
      "contractAddress": null,
      "l1BaseFeeScalar": "0x44d",
      "l1BlobBaseFee": "0x1",
      "l1BlobBaseFeeScalar": "0xa118b",
      "l1Fee": "0x6a",
      "l1GasPrice": "0x17",
      "l1GasUsed": "0x640"
    },
    {
      "status": "0x1",
      "cumulativeGasUsed": "0x707cc4",
      "logs": [
        {
          "address": "0x000000000022d473030f116ddee9f6b43ac78ba3",
          "topics": [
            "0xda9fa7c1b00402c17d0161b249b1ab8bbec047c5a52207b9c112deffd817036b",
            "0x000000000000000000000000a6b3d200cd34ca14d7579dac8b054bf50a62c37c",
            "0x0000000000000000000000009654e816c592b9794a6c20f97019c952bd69e1b0",
            "0x0000000000000000000000004b2c77d209d3405f41a037ec6c77f7f5b8e2ca80"
          ],
          "data": "0x000000000000000000000000ffffffffffffffffffffffffffffffffffffffff0000000000000000000000000000000000000000000000000000ffffffffffff",
          "blockHash": "0xe15590cee56346a0ac03f7117b81fe68528659e87ac030288c684bdf146b21a9",
          "blockNumber": "0x1864ae8",
          "transactionHash": "0xd54af0daebb284d6c5012e2ad35b067535417b08984379057f27cac40e68b50d",
          "transactionIndex": "0x13",
          "logIndex": "0xad",
          "removed": false
        }
      ],
      "logsBloom": "0x00010000000000010000000400000000000000000000000002000000000000000000000000000000000000000000000000000000000000000008000010080000000000000000000000000000000000000000000000000000000000000000000000000000000000000000000000000000000000000000000000000040000000000020000000000000000000000000000000000000000000000000000000000000000000000000000000000000000000000000000000000000000000080000000000000040000000000000000000000000000000000000000040200000000000000000000000000000000000000000000000000000000000000000000000004400",
      "type": "0x2",
      "transactionHash": "0xd54af0daebb284d6c5012e2ad35b067535417b08984379057f27cac40e68b50d",
      "transactionIndex": "0x13",
      "blockHash": "0xe15590cee56346a0ac03f7117b81fe68528659e87ac030288c684bdf146b21a9",
      "blockNumber": "0x1864ae8",
      "gasUsed": "0xbaca",
      "effectiveGasPrice": "0xf43b5",
      "from": "0xa6b3d200cd34ca14d7579dac8b054bf50a62c37c",
      "to": "0x000000000022d473030f116ddee9f6b43ac78ba3",
      "contractAddress": null,
      "l1BaseFeeScalar": "0x44d",
      "l1BlobBaseFee": "0x1",
      "l1BlobBaseFeeScalar": "0xa118b",
      "l1Fee": "0x77",
      "l1GasPrice": "0x17",
      "l1GasUsed": "0x702"
    },
    {
      "status": "0x1",
      "cumulativeGasUsed": "0x715671",
      "logs": [
        {
          "address": "0x036cbd53842c5426634e7929541ec2318f3dcf7e",
          "topics": [
            "0x8c5be1e5ebec7d5bd14f71427d1e84f3dd0314c0f7b2291e5b200ac8c7c3b925",
            "0x000000000000000000000000a6b3d200cd34ca14d7579dac8b054bf50a62c37c",
            "0x000000000000000000000000000000000022d473030f116ddee9f6b43ac78ba3"
          ],
          "data": "0xffffffffffffffffffffffffffffffffffffffffffffffffffffffffffffffff",
          "blockHash": "0xe15590cee56346a0ac03f7117b81fe68528659e87ac030288c684bdf146b21a9",
          "blockNumber": "0x1864ae8",
          "transactionHash": "0x872b58a5a91c236da79961bb704c9247bfce76f292599b5bae1092618f80e333",
          "transactionIndex": "0x14",
          "logIndex": "0xae",
          "removed": false
        }
      ],
      "logsBloom": "0x00000000040000000000000400000000000000000000000002000000000000000000000000000000000000000000000000000000800000000000000000200000000000000000000000004000000000000000000000000800000000000000000800000000000000000000000000000000000000000000000000000000000000000000000000000000000000000000000000000000000000000000000000000000020000000000000000000000000000000000000000000000000000000000000000000040000000000000000000000000000000000000000000000000000000000010000000000000000000000020000000000000000000000000000000000000",
      "type": "0x2",
      "transactionHash": "0x872b58a5a91c236da79961bb704c9247bfce76f292599b5bae1092618f80e333",
      "transactionIndex": "0x14",
      "blockHash": "0xe15590cee56346a0ac03f7117b81fe68528659e87ac030288c684bdf146b21a9",
      "blockNumber": "0x1864ae8",
      "gasUsed": "0xd9ad",
      "effectiveGasPrice": "0xf43b5",
      "from": "0xa6b3d200cd34ca14d7579dac8b054bf50a62c37c",
      "to": "0x036cbd53842c5426634e7929541ec2318f3dcf7e",
      "contractAddress": null,
      "l1BaseFeeScalar": "0x44d",
      "l1BlobBaseFee": "0x1",
      "l1BlobBaseFeeScalar": "0xa118b",
      "l1Fee": "0x6a",
      "l1GasPrice": "0x17",
      "l1GasUsed": "0x640"
    },
    {
      "status": "0x1",
      "cumulativeGasUsed": "0x72113b",
      "logs": [
        {
          "address": "0x000000000022d473030f116ddee9f6b43ac78ba3",
          "topics": [
            "0xda9fa7c1b00402c17d0161b249b1ab8bbec047c5a52207b9c112deffd817036b",
            "0x000000000000000000000000a6b3d200cd34ca14d7579dac8b054bf50a62c37c",
            "0x000000000000000000000000036cbd53842c5426634e7929541ec2318f3dcf7e",
            "0x0000000000000000000000004b2c77d209d3405f41a037ec6c77f7f5b8e2ca80"
          ],
          "data": "0x000000000000000000000000ffffffffffffffffffffffffffffffffffffffff0000000000000000000000000000000000000000000000000000ffffffffffff",
          "blockHash": "0xe15590cee56346a0ac03f7117b81fe68528659e87ac030288c684bdf146b21a9",
          "blockNumber": "0x1864ae8",
          "transactionHash": "0x1474b47541e9f09cacbdbe64bfdcf8d05ed054086b24d9603474bca7d059649e",
          "transactionIndex": "0x15",
          "logIndex": "0xaf",
          "removed": false
        }
      ],
      "logsBloom": "0x00010000000000010000000400000000000000000000000002000000000000000000000000000000000000000000000000000000000000000008000010080000000000000000000000000000000000000000000000000000000000000000000000000000000000000000000000000000000000000000000000000000000000000020000040000000000000000000000000000000000000000000000000000000000000000000000000000000000000000000000000000000100000080000000000000040000000000000000000000000000000000000000040000000000000000000000000000000000000000040000000000000000000000000000000000400",
      "type": "0x2",
      "transactionHash": "0x1474b47541e9f09cacbdbe64bfdcf8d05ed054086b24d9603474bca7d059649e",
      "transactionIndex": "0x15",
      "blockHash": "0xe15590cee56346a0ac03f7117b81fe68528659e87ac030288c684bdf146b21a9",
      "blockNumber": "0x1864ae8",
      "gasUsed": "0xbaca",
      "effectiveGasPrice": "0xf43b5",
      "from": "0xa6b3d200cd34ca14d7579dac8b054bf50a62c37c",
      "to": "0x000000000022d473030f116ddee9f6b43ac78ba3",
      "contractAddress": null,
      "l1BaseFeeScalar": "0x44d",
      "l1BlobBaseFee": "0x1",
      "l1BlobBaseFeeScalar": "0xa118b",
      "l1Fee": "0x77",
      "l1GasPrice": "0x17",
      "l1GasUsed": "0x702"
    },
    {
      "status": "0x1",
      "cumulativeGasUsed": "0x796cb3",
      "logs": [
        {
          "address": "0x05e73354cfdd6745c338b50bcfdfa3aa6fa03408",
          "topics": [
            "0xdd466e674ea557f56295e2d0218a125ea4b4f0f6f3307b95f85e6110838d6438",
            "0xe8a5e2451215e687316a44f0352d6533271c69b589c3d338db2eacd38182f732",
            "0x000000000000000000000000036cbd53842c5426634e7929541ec2318f3dcf7e",
            "0x0000000000000000000000009654e816c592b9794a6c20f97019c952bd69e1b0"
          ],
          "data": "0x0000000000000000000000000000000000000000000000000000000000000bb8000000000000000000000000000000000000000000000000000000000000003c0000000000000000000000004eb4b9f731eccab556f3516550dd4a68fc3b004000000000000000000000000000000000000000010000000000000000000000000000000000000000000000000000000000000000000000000000000000000000",
          "blockHash": "0xe15590cee56346a0ac03f7117b81fe68528659e87ac030288c684bdf146b21a9",
          "blockNumber": "0x1864ae8",
          "transactionHash": "0xdd9369bfd8c0f4e72230d27c82540bbdc42d8a85babd4515d319cdbb003aa135",
          "transactionIndex": "0x16",
          "logIndex": "0xb0",
          "removed": false
        },
        {
          "address": "0x4b2c77d209d3405f41a037ec6c77f7f5b8e2ca80",
          "topics": [
            "0xddf252ad1be2c89b69c2b068fc378daa952ba7f163c4a11628f55a4df523b3ef",
            "0x0000000000000000000000000000000000000000000000000000000000000000",
            "0x000000000000000000000000a6b3d200cd34ca14d7579dac8b054bf50a62c37c",
            "0x000000000000000000000000000000000000000000000000000000000000035d"
          ],
          "data": "0x",
          "blockHash": "0xe15590cee56346a0ac03f7117b81fe68528659e87ac030288c684bdf146b21a9",
          "blockNumber": "0x1864ae8",
          "transactionHash": "0xdd9369bfd8c0f4e72230d27c82540bbdc42d8a85babd4515d319cdbb003aa135",
          "transactionIndex": "0x16",
          "logIndex": "0xb1",
          "removed": false
        },
        {
          "address": "0x05e73354cfdd6745c338b50bcfdfa3aa6fa03408",
          "topics": [
            "0xf208f4912782fd25c7f114ca3723a2d5dd6f3bcc3ac8db5af63baa85f711d5ec",
            "0xe8a5e2451215e687316a44f0352d6533271c69b589c3d338db2eacd38182f732",
            "0x0000000000000000000000004b2c77d209d3405f41a037ec6c77f7f5b8e2ca80"
          ],
          "data": "0xfffffffffffffffffffffffffffffffffffffffffffffffffffffffffffffda800000000000000000000000000000000000000000000000000000000000002580000000000000000000000000000000000000000000000000000000064d7f6ae000000000000000000000000000000000000000000000000000000000000035d",
          "blockHash": "0xe15590cee56346a0ac03f7117b81fe68528659e87ac030288c684bdf146b21a9",
          "blockNumber": "0x1864ae8",
          "transactionHash": "0xdd9369bfd8c0f4e72230d27c82540bbdc42d8a85babd4515d319cdbb003aa135",
          "transactionIndex": "0x16",
          "logIndex": "0xb2",
          "removed": false
        },
        {
          "address": "0x036cbd53842c5426634e7929541ec2318f3dcf7e",
          "topics": [
            "0xddf252ad1be2c89b69c2b068fc378daa952ba7f163c4a11628f55a4df523b3ef",
            "0x000000000000000000000000a6b3d200cd34ca14d7579dac8b054bf50a62c37c",
            "0x00000000000000000000000005e73354cfdd6745c338b50bcfdfa3aa6fa03408"
          ],
          "data": "0x0000000000000000000000000000000000000000000000000000000002faf080",
          "blockHash": "0xe15590cee56346a0ac03f7117b81fe68528659e87ac030288c684bdf146b21a9",
          "blockNumber": "0x1864ae8",
          "transactionHash": "0xdd9369bfd8c0f4e72230d27c82540bbdc42d8a85babd4515d319cdbb003aa135",
          "transactionIndex": "0x16",
          "logIndex": "0xb3",
          "removed": false
        },
        {
          "address": "0x9654e816c592b9794a6c20f97019c952bd69e1b0",
          "topics": [
            "0xddf252ad1be2c89b69c2b068fc378daa952ba7f163c4a11628f55a4df523b3ef",
            "0x000000000000000000000000a6b3d200cd34ca14d7579dac8b054bf50a62c37c",
            "0x00000000000000000000000005e73354cfdd6745c338b50bcfdfa3aa6fa03408"
          ],
          "data": "0x0000000000000000000000000000000000000000000000000000000002faf080",
          "blockHash": "0xe15590cee56346a0ac03f7117b81fe68528659e87ac030288c684bdf146b21a9",
          "blockNumber": "0x1864ae8",
          "transactionHash": "0xdd9369bfd8c0f4e72230d27c82540bbdc42d8a85babd4515d319cdbb003aa135",
          "transactionIndex": "0x16",
          "logIndex": "0xb4",
          "removed": false
        }
      ],
      "logsBloom": "0x00000000040000010000000400000000000000000000000002000000000000000100000100000000000000000000000000000000000001000008000010000800000000000010000000000008000000000000000000100000000000008000000800000000022000000000000000000800080000000000000000000050000020000000000045000008000000000000000000000001000000000000000000200000000004000000000000040000000000000000000000000000100000000000000000000043005000000000000000000000000000000000000000200000000020010000000200000000000000000860000004000000000000000000000000004000",
      "type": "0x2",
      "transactionHash": "0xdd9369bfd8c0f4e72230d27c82540bbdc42d8a85babd4515d319cdbb003aa135",
      "transactionIndex": "0x16",
      "blockHash": "0xe15590cee56346a0ac03f7117b81fe68528659e87ac030288c684bdf146b21a9",
      "blockNumber": "0x1864ae8",
      "gasUsed": "0x75b78",
      "effectiveGasPrice": "0xf43b5",
      "from": "0xa6b3d200cd34ca14d7579dac8b054bf50a62c37c",
      "to": "0x4b2c77d209d3405f41a037ec6c77f7f5b8e2ca80",
      "contractAddress": null,
      "l1BaseFeeScalar": "0x44d",
      "l1BlobBaseFee": "0x1",
      "l1BlobBaseFeeScalar": "0xa118b",
      "l1Fee": "0x146",
      "l1GasPrice": "0x17",
      "l1GasUsed": "0x1323"
    }
  ],
  "libraries": [],
  "pending": [],
  "returns": {},
  "timestamp": 1746924722,
  "chain": 84532,
  "commit": "74b6c77"
}