{
  "transactions": [
    {
      "hash": "0x648cc7c9985ff0118d319278018552d0d87c8448b2d709ea2c07c4d84a93bd04",
      "transactionType": "CALL",
      "contractName": null,
      "contractAddress": "0x736830eba7754e5b05242eca783fd4b6ba6d77ad",
      "function": "approve(address,uint256)",
      "arguments": [
        "0x8B5bcC363ddE2614281aD875bad385E0A785D3B9",
        "115792089237316195423570985008687907853269984665640564039457584007913129639935"
      ],
      "transaction": {
        "from": "0xa6b3d200cd34ca14d7579dac8b054bf50a62c37c",
        "to": "0x736830eba7754e5b05242eca783fd4b6ba6d77ad",
        "gas": "0xf983",
        "value": "0x0",
        "input": "0x095ea7b30000000000000000000000008b5bcc363dde2614281ad875bad385e0a785d3b9ffffffffffffffffffffffffffffffffffffffffffffffffffffffffffffffff",
        "nonce": "0x1fa",
        "chainId": "0x14a34"
      },
      "additionalContracts": [],
      "isFixedGasLimit": false
    },
    {
      "hash": "0xbab62947df4b8d123c75d95e2a0cccf4b4ecaecc820223837cbfd6be8955bc0e",
      "transactionType": "CALL",
      "contractName": "PoolSwapTest",
      "contractAddress": "0x8b5bcc363dde2614281ad875bad385e0a785d3b9",
      "function": "swap((address,address,uint24,int24,address),(bool,int256,uint160),(bool,bool),bytes)",
      "arguments": [
        "(0x736830eBa7754e5b05242eca783Fd4b6BA6d77Ad, 0xDcD12D26aE3E3e1985F8cAeC1548B29bd649567E, 3000, 60, 0x2499b757519Bb317E80d9006761e4eaA7A468040)",
        "(true, -4000000000000, 4295128740)",
        "(false, false)",
        "0x"
      ],
      "transaction": {
        "from": "0xa6b3d200cd34ca14d7579dac8b054bf50a62c37c",
        "to": "0x8b5bcc363dde2614281ad875bad385e0a785d3b9",
        "gas": "0x598ce",
        "value": "0x0",
        "input": "0x2229d0b4000000000000000000000000736830eba7754e5b05242eca783fd4b6ba6d77ad000000000000000000000000dcd12d26ae3e3e1985f8caec1548b29bd649567e0000000000000000000000000000000000000000000000000000000000000bb8000000000000000000000000000000000000000000000000000000000000003c0000000000000000000000002499b757519bb317e80d9006761e4eaa7a4680400000000000000000000000000000000000000000000000000000000000000001fffffffffffffffffffffffffffffffffffffffffffffffffffffc5cad6bc00000000000000000000000000000000000000000000000000000000001000276a40000000000000000000000000000000000000000000000000000000000000000000000000000000000000000000000000000000000000000000000000000000000000000000000000000000000000000000000000000000000000000000001600000000000000000000000000000000000000000000000000000000000000000",
        "nonce": "0x1fb",
        "chainId": "0x14a34"
      },
      "additionalContracts": [],
      "isFixedGasLimit": false
    }
  ],
  "receipts": [
    {
      "status": "0x1",
      "cumulativeGasUsed": "0x8d300a",
      "logs": [
        {
          "address": "0x736830eba7754e5b05242eca783fd4b6ba6d77ad",
          "topics": [
            "0x8c5be1e5ebec7d5bd14f71427d1e84f3dd0314c0f7b2291e5b200ac8c7c3b925",
            "0x000000000000000000000000a6b3d200cd34ca14d7579dac8b054bf50a62c37c",
            "0x0000000000000000000000008b5bcc363dde2614281ad875bad385e0a785d3b9"
          ],
          "data": "0xffffffffffffffffffffffffffffffffffffffffffffffffffffffffffffffff",
          "blockHash": "0x9c1dd3b08db1b0c2d581326f374d09fa3eba193499375934b596d87efd34bff8",
          "blockNumber": "0x1876b49",
          "transactionHash": "0x648cc7c9985ff0118d319278018552d0d87c8448b2d709ea2c07c4d84a93bd04",
          "transactionIndex": "0x37",
          "logIndex": "0xae",
          "removed": false
        }
      ],
      "logsBloom": "0x00000000000000000000000400000000000000000000000002000010000000000004000000000000000000000000000000000000000000000000000000200000000000000000000000000000000000000000000000000000000000000000000000200000000000000000000000000000000000000000000000000000000000000000000000000000000000000000000000000000000000000000000000000000020000000000000100000000000000000000000000000000000000000000000000000040020000000000000000000000000000000000000000000000000000000010000000000000000000000000000000000000000000000000001000000000",
      "type": "0x2",
      "transactionHash": "0x648cc7c9985ff0118d319278018552d0d87c8448b2d709ea2c07c4d84a93bd04",
      "transactionIndex": "0x37",
      "blockHash": "0x9c1dd3b08db1b0c2d581326f374d09fa3eba193499375934b596d87efd34bff8",
      "blockNumber": "0x1876b49",
      "gasUsed": "0xb4a5",
      "effectiveGasPrice": "0xececd",
      "from": "0xa6b3d200cd34ca14d7579dac8b054bf50a62c37c",
      "to": "0x736830eba7754e5b05242eca783fd4b6ba6d77ad",
      "contractAddress": null,
      "l1BaseFeeScalar": "0x44d",
      "l1BlobBaseFee": "0x1",
      "l1BlobBaseFeeScalar": "0xa118b",
      "l1Fee": "0x66",
      "l1GasPrice": "0x15",
      "l1GasUsed": "0x640"
    },
    {
      "status": "0x1",
      "cumulativeGasUsed": "0x913d5e",
      "logs": [
        {
          "address": "0x05e73354cfdd6745c338b50bcfdfa3aa6fa03408",
          "topics": [
            "0x40e9cecb9f5f1f1c5b9c97dec2917b7ee92e57ba5563708daca94dd84ad7112f",
            "0x4f18bff5011ef80327d814cdd03b23808be728d793d44c4efd3e635083c8c6bd",
            "0x0000000000000000000000008b5bcc363dde2614281ad875bad385e0a785d3b9"
          ],
          "data": "0xfffffffffffffffffffffffffffffffffffffffffffffffffffffc5cad6bc000000000000000000000000000000000000000000000000000000000003bad55540000000000000000000000000000000000000000040d114051fdefbc482c37ba00000000000000000000000000000000000000000000000000001651dda27472fffffffffffffffffffffffffffffffffffffffffffffffffffffffffffebc0f0000000000000000000000000000000000000000000000000000000000000bb8",
          "blockHash": "0x9c1dd3b08db1b0c2d581326f374d09fa3eba193499375934b596d87efd34bff8",
          "blockNumber": "0x1876b49",
          "transactionHash": "0xbab62947df4b8d123c75d95e2a0cccf4b4ecaecc820223837cbfd6be8955bc0e",
          "transactionIndex": "0x38",
          "logIndex": "0xaf",
          "removed": false
        },
        {
          "address": "0x2499b757519bb317e80d9006761e4eaa7a468040",
          "topics": [
            "0xe94fd6ffbea861e602dda2012df60a3e042352b8e6e2f2a987f05990c4287196"
          ],
          "data": "0x0000000000000000000000008b5bcc363dde2614281ad875bad385e0a785d3b94f18bff5011ef80327d814cdd03b23808be728d793d44c4efd3e635083c8c6bd",
          "blockHash": "0x9c1dd3b08db1b0c2d581326f374d09fa3eba193499375934b596d87efd34bff8",
          "blockNumber": "0x1876b49",
          "transactionHash": "0xbab62947df4b8d123c75d95e2a0cccf4b4ecaecc820223837cbfd6be8955bc0e",
          "transactionIndex": "0x38",
          "logIndex": "0xb0",
          "removed": false
        },
        {
          "address": "0x2499b757519bb317e80d9006761e4eaa7a468040",
          "topics": [
            "0xb1ea69d247feed513ceedec202946186146dc8f88adde997c8f6dbdd61698ec8"
          ],
          "data": "0x4f18bff5011ef80327d814cdd03b23808be728d793d44c4efd3e635083c8c6bd0000000000000000000000000000000000000000000000000000000000000001",
          "blockHash": "0x9c1dd3b08db1b0c2d581326f374d09fa3eba193499375934b596d87efd34bff8",
          "blockNumber": "0x1876b49",
          "transactionHash": "0xbab62947df4b8d123c75d95e2a0cccf4b4ecaecc820223837cbfd6be8955bc0e",
          "transactionIndex": "0x38",
          "logIndex": "0xb1",
          "removed": false
        },
        {
          "address": "0x2499b757519bb317e80d9006761e4eaa7a468040",
          "topics": [
            "0x9a8eb31960851ae244c135ec92d6f3a8955580cc40662ecdc9c786bc42722700"
          ],
          "data": "0x0000000000000000000000000000000000000000000000000000000068223572000000000000000000000000000000000000000000000000000000006822352e000000000000000000000000000000000000000000000000000000000000001e0000000000000000000000000000000000000000000000000000000000000001",
          "blockHash": "0x9c1dd3b08db1b0c2d581326f374d09fa3eba193499375934b596d87efd34bff8",
          "blockNumber": "0x1876b49",
          "transactionHash": "0xbab62947df4b8d123c75d95e2a0cccf4b4ecaecc820223837cbfd6be8955bc0e",
          "transactionIndex": "0x38",
          "logIndex": "0xb2",
          "removed": false
        },
        {
          "address": "0x00cc0a1f3e618dfb177c701781db39afd53ce7af",
          "topics": [
            "0x6c633f26d0fb1eb6a531e13c7f2a11a74ba1fc476f54ce9649ed9c0d502ba9cd"
          ],
          "data": "0x00000000000000000000000000000000000000000000000000000000001021850000000000000000000000000000000000000000000000000000000000100c4f",
          "blockHash": "0x9c1dd3b08db1b0c2d581326f374d09fa3eba193499375934b596d87efd34bff8",
          "blockNumber": "0x1876b49",
          "transactionHash": "0xbab62947df4b8d123c75d95e2a0cccf4b4ecaecc820223837cbfd6be8955bc0e",
          "transactionIndex": "0x38",
          "logIndex": "0xb3",
          "removed": false
        },
        {
          "address": "0x00cc0a1f3e618dfb177c701781db39afd53ce7af",
          "topics": [
            "0xf77ee0047b07d500bcb5dc409382d7f02612a6ea259f6bb70255b7511ce7e740"
          ],
          "data": "0x0000000000000000000000002499b757519bb317e80d9006761e4eaa7a4680400000000000000000000000000000000000000000000000000000000000000040000000000000000000000000000000000000000000000000000000000000000856434f502f434f50000000000000000000000000000000000000000000000000",
          "blockHash": "0x9c1dd3b08db1b0c2d581326f374d09fa3eba193499375934b596d87efd34bff8",
          "blockNumber": "0x1876b49",
          "transactionHash": "0xbab62947df4b8d123c75d95e2a0cccf4b4ecaecc820223837cbfd6be8955bc0e",
          "transactionIndex": "0x38",
          "logIndex": "0xb4",
          "removed": false
        },
        {
          "address": "0x00cc0a1f3e618dfb177c701781db39afd53ce7af",
          "topics": [
            "0x3f677077d8e6673cad47ce93ec074f228deefae585474297b54b1bf1dd46b287"
          ],
          "data": "0x0000000000000000000000002499b757519bb317e80d9006761e4eaa7a46804000000000000000000000000000000000000000000000000000000000000000600000000000000000000000000000000000000000000000000000000000100c4f000000000000000000000000000000000000000000000000000000000000000856434f502f434f50000000000000000000000000000000000000000000000000",
          "blockHash": "0x9c1dd3b08db1b0c2d581326f374d09fa3eba193499375934b596d87efd34bff8",
          "blockNumber": "0x1876b49",
          "transactionHash": "0xbab62947df4b8d123c75d95e2a0cccf4b4ecaecc820223837cbfd6be8955bc0e",
          "transactionIndex": "0x38",
          "logIndex": "0xb5",
          "removed": false
        },
        {
          "address": "0x736830eba7754e5b05242eca783fd4b6ba6d77ad",
          "topics": [
            "0xf2771607920bd37d2d6f4c8518e7a4af63952de953ffbce440fcb2996a08ecc6"
          ],
          "data": "0x0000000000000000000000002499b757519bb317e80d9006761e4eaa7a4680400000000000000000000000000000000000000000000000000000000000100c4f",
          "blockHash": "0x9c1dd3b08db1b0c2d581326f374d09fa3eba193499375934b596d87efd34bff8",
          "blockNumber": "0x1876b49",
          "transactionHash": "0xbab62947df4b8d123c75d95e2a0cccf4b4ecaecc820223837cbfd6be8955bc0e",
          "transactionIndex": "0x38",
          "logIndex": "0xb6",
          "removed": false
        },
        {
          "address": "0x736830eba7754e5b05242eca783fd4b6ba6d77ad",
          "topics": [
            "0xf3e1e2a5273a458217787bbe62979abb7421260914956a33dd3d49943798cc5b"
          ],
          "data": "0x00000000000000000000000000000000000000000000000000037b65505828000000000000000000000000000000000000000000000000000003727b57388e000000000000000000000000000000000000000000000000000000000000002710",
          "blockHash": "0x9c1dd3b08db1b0c2d581326f374d09fa3eba193499375934b596d87efd34bff8",
          "blockNumber": "0x1876b49",
          "transactionHash": "0xbab62947df4b8d123c75d95e2a0cccf4b4ecaecc820223837cbfd6be8955bc0e",
          "transactionIndex": "0x38",
          "logIndex": "0xb7",
          "removed": false
        },
        {
          "address": "0x736830eba7754e5b05242eca783fd4b6ba6d77ad",
          "topics": [
            "0xc6642d24d84e7f3d36ca39f5cce10e75639d9b158d5193aa350e2f900653e4c0"
          ],
          "data": "0x00000000000000000000000000000000000000000000000000000000000000030000000000000000000000000000000000000000000000000003727b57388e00000000000000000000000000000000000000000000004a4366d6dd6cc24eacdb",
          "blockHash": "0x9c1dd3b08db1b0c2d581326f374d09fa3eba193499375934b596d87efd34bff8",
          "blockNumber": "0x1876b49",
          "transactionHash": "0xbab62947df4b8d123c75d95e2a0cccf4b4ecaecc820223837cbfd6be8955bc0e",
          "transactionIndex": "0x38",
          "logIndex": "0xb8",
          "removed": false
        },
        {
          "address": "0x2499b757519bb317e80d9006761e4eaa7a468040",
          "topics": [
            "0x54f7dca807c3be86ecb9fe87d9d880e638b8c2b47050de03f7e9cb676afa7602"
          ],
          "data": "0x0000000000000000000000000000000000000000000000000000000000100c4f0000000000000000000000000000000000000000000000000003727b57388e00",
          "blockHash": "0x9c1dd3b08db1b0c2d581326f374d09fa3eba193499375934b596d87efd34bff8",
          "blockNumber": "0x1876b49",
          "transactionHash": "0xbab62947df4b8d123c75d95e2a0cccf4b4ecaecc820223837cbfd6be8955bc0e",
          "transactionIndex": "0x38",
          "logIndex": "0xb9",
          "removed": false
        },
        {
          "address": "0x736830eba7754e5b05242eca783fd4b6ba6d77ad",
          "topics": [
            "0xddf252ad1be2c89b69c2b068fc378daa952ba7f163c4a11628f55a4df523b3ef",
            "0x000000000000000000000000a6b3d200cd34ca14d7579dac8b054bf50a62c37c",
            "0x00000000000000000000000005e73354cfdd6745c338b50bcfdfa3aa6fa03408"
          ],
          "data": "0x000000000000000000000000000000000000000000000000000003a352944000",
          "blockHash": "0x9c1dd3b08db1b0c2d581326f374d09fa3eba193499375934b596d87efd34bff8",
          "blockNumber": "0x1876b49",
          "transactionHash": "0xbab62947df4b8d123c75d95e2a0cccf4b4ecaecc820223837cbfd6be8955bc0e",
          "transactionIndex": "0x38",
          "logIndex": "0xba",
          "removed": false
        },
        {
          "address": "0xdcd12d26ae3e3e1985f8caec1548b29bd649567e",
          "topics": [
            "0xddf252ad1be2c89b69c2b068fc378daa952ba7f163c4a11628f55a4df523b3ef",
            "0x00000000000000000000000005e73354cfdd6745c338b50bcfdfa3aa6fa03408",
            "0x000000000000000000000000a6b3d200cd34ca14d7579dac8b054bf50a62c37c"
          ],
          "data": "0x000000000000000000000000000000000000000000000000000000003bad5554",
          "blockHash": "0x9c1dd3b08db1b0c2d581326f374d09fa3eba193499375934b596d87efd34bff8",
          "blockNumber": "0x1876b49",
          "transactionHash": "0xbab62947df4b8d123c75d95e2a0cccf4b4ecaecc820223837cbfd6be8955bc0e",
          "transactionIndex": "0x38",
          "logIndex": "0xbb",
          "removed": false
        }
      ],
      "logsBloom": "0x00000000000000000000808400010000000000000000000002000110000000000004000100000000000000000000000000000000040000000004000001000000000000000014400081000018200000000000000000900020000000000000000000600000000008000000000c00000000000010000002080000000010000001000001000004000000000100000000000800000000000000000000000000000100000000000000000100000000000840000000000080000000000001400000000010800042021000000000020000000000000200003000000400010000040000000000002000000001004000000800000000000000000000000000001000100000",
      "type": "0x2",
      "transactionHash": "0xbab62947df4b8d123c75d95e2a0cccf4b4ecaecc820223837cbfd6be8955bc0e",
      "transactionIndex": "0x38",
      "blockHash": "0x9c1dd3b08db1b0c2d581326f374d09fa3eba193499375934b596d87efd34bff8",
      "blockNumber": "0x1876b49",
      "gasUsed": "0x40d54",
      "effectiveGasPrice": "0xececd",
      "from": "0xa6b3d200cd34ca14d7579dac8b054bf50a62c37c",
      "to": "0x8b5bcc363dde2614281ad875bad385e0a785d3b9",
      "contractAddress": null,
      "l1BaseFeeScalar": "0x44d",
      "l1BlobBaseFee": "0x1",
      "l1BlobBaseFeeScalar": "0xa118b",
      "l1Fee": "0xae",
      "l1GasPrice": "0x15",
      "l1GasUsed": "0xa9e"
    }
  ],
  "libraries": [],
  "pending": [],
  "returns": {},
  "timestamp": 1747072372,
  "chain": 84532,
  "commit": "5feb4f2"
}