{
  "transactions": [
    {
      "hash": "0xaa73ce19547d7cbaabcf4154f2dd35dfd3270d0bc21f702d5d4f8994625f830c",
      "transactionType": "CALL",
      "contractName": null,
      "contractAddress": "0xd16ee99c7ea2b30c13c3dc298eadee00b870bbcc",
      "function": "approve(address,uint256)",
      "arguments": [
        "0x8B5bcC363ddE2614281aD875bad385E0A785D3B9",
        "115792089237316195423570985008687907853269984665640564039457584007913129639935"
      ],
      "transaction": {
        "from": "0xa6b3d200cd34ca14d7579dac8b054bf50a62c37c",
        "to": "0xd16ee99c7ea2b30c13c3dc298eadee00b870bbcc",
        "gas": "0xf983",
        "value": "0x0",
        "input": "0x095ea7b30000000000000000000000008b5bcc363dde2614281ad875bad385e0a785d3b9ffffffffffffffffffffffffffffffffffffffffffffffffffffffffffffffff",
        "nonce": "0x60",
        "chainId": "0x14a34"
      },
      "additionalContracts": [],
      "isFixedGasLimit": false
    },
    {
      "hash": "0xa0b205a8bd384eab3a622539e465effa0e6b7aebf224b868a11b1dd17ef42373",
      "transactionType": "CALL",
      "contractName": "PoolSwapTest",
      "contractAddress": "0x8b5bcc363dde2614281ad875bad385e0a785d3b9",
      "function": "swap((address,address,uint24,int24,address),(bool,int256,uint160),(bool,bool),bytes)",
      "arguments": [
        "(0xd16Ee99c7EA2B30c13c3dC298EADEE00B870BBCC, 0xE7a4113a8a497DD72D29F35E188eEd7403e8B2E8, 3000, 60, 0x866bf94370e8A7C9cDeAFb592C2ac62903e30040)",
        "(true, 49000000000, 4295128740)",
        "(false, false)",
        "0x"
      ],
      "transaction": {
        "from": "0xa6b3d200cd34ca14d7579dac8b054bf50a62c37c",
        "to": "0x8b5bcc363dde2614281ad875bad385e0a785d3b9",
        "gas": "0x96d1c",
        "value": "0x0",
        "input": "0x2229d0b4000000000000000000000000d16ee99c7ea2b30c13c3dc298eadee00b870bbcc000000000000000000000000e7a4113a8a497dd72d29f35e188eed7403e8b2e80000000000000000000000000000000000000000000000000000000000000bb8000000000000000000000000000000000000000000000000000000000000003c000000000000000000000000866bf94370e8a7c9cdeafb592c2ac62903e3004000000000000000000000000000000000000000000000000000000000000000010000000000000000000000000000000000000000000000000000000b68a0aa0000000000000000000000000000000000000000000000000000000001000276a40000000000000000000000000000000000000000000000000000000000000000000000000000000000000000000000000000000000000000000000000000000000000000000000000000000000000000000000000000000000000000000001600000000000000000000000000000000000000000000000000000000000000000",
        "nonce": "0x61",
        "chainId": "0x14a34"
      },
      "additionalContracts": [],
      "isFixedGasLimit": false
    }
  ],
  "receipts": [
    {
      "status": "0x1",
      "cumulativeGasUsed": "0x2316de",
      "logs": [
        {
          "address": "0xd16ee99c7ea2b30c13c3dc298eadee00b870bbcc",
          "topics": [
            "0x8c5be1e5ebec7d5bd14f71427d1e84f3dd0314c0f7b2291e5b200ac8c7c3b925",
            "0x000000000000000000000000a6b3d200cd34ca14d7579dac8b054bf50a62c37c",
            "0x0000000000000000000000008b5bcc363dde2614281ad875bad385e0a785d3b9"
          ],
          "data": "0xffffffffffffffffffffffffffffffffffffffffffffffffffffffffffffffff",
          "blockHash": "0xa1f02597a74400bd680b5eaaad87c5456f0ba0b7c8c81c3bb81c061b5e06a6a7",
          "blockNumber": "0x1867275",
          "transactionHash": "0xaa73ce19547d7cbaabcf4154f2dd35dfd3270d0bc21f702d5d4f8994625f830c",
          "transactionIndex": "0x13",
          "logIndex": "0x49",
          "removed": false
        }
      ],
      "logsBloom": "0x00000000040000000000000400000000000000000000000002000010000000000004000000000000000000000000000000000000000000000000000000200000000000000000000000000000000000000000000000000000000000000000000000000000000000000000000000000000000000000000000000000000000000000000000000000000000000000000000000000000000000000000000000000000020004000000000000000000000000000000000000000000000000000000000000000040000000000000000000000000000000000000000000000000000000000010000000000000000000000000000000000000000000008000001000000000",
      "type": "0x2",
      "transactionHash": "0xaa73ce19547d7cbaabcf4154f2dd35dfd3270d0bc21f702d5d4f8994625f830c",
      "transactionIndex": "0x13",
      "blockHash": "0xa1f02597a74400bd680b5eaaad87c5456f0ba0b7c8c81c3bb81c061b5e06a6a7",
      "blockNumber": "0x1867275",
      "gasUsed": "0xb4a5",
      "effectiveGasPrice": "0xf43b2",
      "from": "0xa6b3d200cd34ca14d7579dac8b054bf50a62c37c",
      "to": "0xd16ee99c7ea2b30c13c3dc298eadee00b870bbcc",
      "contractAddress": null,
      "l1BaseFeeScalar": "0x44d",
      "l1BlobBaseFee": "0x1",
      "l1BlobBaseFeeScalar": "0xa118b",
      "l1Fee": "0x3a83",
      "l1GasPrice": "0x2112",
      "l1GasUsed": "0x640"
    },
    {
      "status": "0x1",
      "cumulativeGasUsed": "0x29e9eb",
      "logs": [
        {
          "address": "0x05e73354cfdd6745c338b50bcfdfa3aa6fa03408",
          "topics": [
            "0x40e9cecb9f5f1f1c5b9c97dec2917b7ee92e57ba5563708daca94dd84ad7112f",
            "0x13a37c417a218478aaebb839a88a9a73df52cb93399077f2b73fc1b934f6963c",
            "0x0000000000000000000000008b5bcc363dde2614281ad875bad385e0a785d3b9"
          ],
          "data": "0xffffffffffffffffffffffffffffffffffffffffffffffffffffce8580d17bbf00000000000000000000000000000000000000000000000000000002540be3ff00000000000000000000000000000000000000000000000000000001000276a40000000000000000000000000000000000000000000000000000000000000000fffffffffffffffffffffffffffffffffffffffffffffffffffffffffff276180000000000000000000000000000000000000000000000000000000000000bb8",
          "blockHash": "0xa1f02597a74400bd680b5eaaad87c5456f0ba0b7c8c81c3bb81c061b5e06a6a7",
          "blockNumber": "0x1867275",
          "transactionHash": "0xa0b205a8bd384eab3a622539e465effa0e6b7aebf224b868a11b1dd17ef42373",
          "transactionIndex": "0x14",
          "logIndex": "0x4a",
          "removed": false
        },
        {
          "address": "0xd16ee99c7ea2b30c13c3dc298eadee00b870bbcc",
          "topics": [
            "0xddf252ad1be2c89b69c2b068fc378daa952ba7f163c4a11628f55a4df523b3ef",
            "0x000000000000000000000000a6b3d200cd34ca14d7579dac8b054bf50a62c37c",
            "0x00000000000000000000000005e73354cfdd6745c338b50bcfdfa3aa6fa03408"
          ],
          "data": "0x0000000000000000000000000000000000000000000000000000317a7f2e8441",
          "blockHash": "0xa1f02597a74400bd680b5eaaad87c5456f0ba0b7c8c81c3bb81c061b5e06a6a7",
          "blockNumber": "0x1867275",
          "transactionHash": "0xa0b205a8bd384eab3a622539e465effa0e6b7aebf224b868a11b1dd17ef42373",
          "transactionIndex": "0x14",
          "logIndex": "0x4b",
          "removed": false
        },
        {
          "address": "0xe7a4113a8a497dd72d29f35e188eed7403e8b2e8",
          "topics": [
            "0xddf252ad1be2c89b69c2b068fc378daa952ba7f163c4a11628f55a4df523b3ef",
            "0x00000000000000000000000005e73354cfdd6745c338b50bcfdfa3aa6fa03408",
            "0x000000000000000000000000a6b3d200cd34ca14d7579dac8b054bf50a62c37c"
          ],
          "data": "0x00000000000000000000000000000000000000000000000000000002540be3ff",
          "blockHash": "0xa1f02597a74400bd680b5eaaad87c5456f0ba0b7c8c81c3bb81c061b5e06a6a7",
          "blockNumber": "0x1867275",
          "transactionHash": "0xa0b205a8bd384eab3a622539e465effa0e6b7aebf224b868a11b1dd17ef42373",
          "transactionIndex": "0x14",
          "logIndex": "0x4c",
          "removed": false
        }
      ],
      "logsBloom": "0x00000000040000000000000400000000000000000000000002000010000000000004000100000000000000000000000000000000040000000000000000000000000000000010000000000008000000000000000000100020000000000000000000000000000000000000000000000000000000000080000000000010000010200000000004000000001000000000000000000000000000000000000000000000000004000000000000000000080000000000000000000000000000000000000000000042001000000000000000000000000000000000000000000000000000000000000000000000004000000800000000000000000000008000001000000040",
      "type": "0x2",
      "transactionHash": "0xa0b205a8bd384eab3a622539e465effa0e6b7aebf224b868a11b1dd17ef42373",
      "transactionIndex": "0x14",
      "blockHash": "0xa1f02597a74400bd680b5eaaad87c5456f0ba0b7c8c81c3bb81c061b5e06a6a7",
      "blockNumber": "0x1867275",
      "gasUsed": "0x6d30d",
      "effectiveGasPrice": "0xf43b2",
      "from": "0xa6b3d200cd34ca14d7579dac8b054bf50a62c37c",
      "to": "0x8b5bcc363dde2614281ad875bad385e0a785d3b9",
      "contractAddress": null,
      "l1BaseFeeScalar": "0x44d",
      "l1BlobBaseFee": "0x1",
      "l1BlobBaseFeeScalar": "0xa118b",
      "l1Fee": "0x62eb",
      "l1GasPrice": "0x2112",
      "l1GasUsed": "0xa90"
    }
  ],
  "libraries": [],
  "pending": [],
  "returns": {},
  "timestamp": 1746944972,
  "chain": 84532,
  "commit": "8a23f24"
}