{
  "transactions": [
    {
      "hash": "0xd83b430bd0c28a8d645c99ce45322c2065de1427ffdab254279bd70d2a2bfef1",
      "transactionType": "CALL",
      "contractName": null,
      "contractAddress": "0xdcd12d26ae3e3e1985f8caec1548b29bd649567e",
      "function": "approve(address,uint256)",
      "arguments": [
        "0x8B5bcC363ddE2614281aD875bad385E0A785D3B9",
        "115792089237316195423570985008687907853269984665640564039457584007913129639935"
      ],
      "transaction": {
        "from": "0xa6b3d200cd34ca14d7579dac8b054bf50a62c37c",
        "to": "0xdcd12d26ae3e3e1985f8caec1548b29bd649567e",
        "gas": "0x96a4",
        "value": "0x0",
        "input": "0x095ea7b30000000000000000000000008b5bcc363dde2614281ad875bad385e0a785d3b9ffffffffffffffffffffffffffffffffffffffffffffffffffffffffffffffff",
        "nonce": "0x1f4",
        "chainId": "0x14a34"
      },
      "additionalContracts": [],
      "isFixedGasLimit": false
    },
    {
      "hash": "0xf45c3bb17025c800d814c61d8e93ab6a11dd348e155a90086eb8b0e2a145cea3",
      "transactionType": "CALL",
      "contractName": "PoolSwapTest",
      "contractAddress": "0x8b5bcc363dde2614281ad875bad385e0a785d3b9",
      "function": "swap((address,address,uint24,int24,address),(bool,int256,uint160),(bool,bool),bytes)",
      "arguments": [
        "(0x736830eBa7754e5b05242eca783Fd4b6BA6d77Ad, 0xDcD12D26aE3E3e1985F8cAeC1548B29bd649567E, 3000, 60, 0x2499b757519Bb317E80d9006761e4eaA7A468040)",
        "(false, -1000000000, 1461446703485210103287273052203988822378723970341)",
        "(false, false)",
        "0x"
      ],
      "transaction": {
        "from": "0xa6b3d200cd34ca14d7579dac8b054bf50a62c37c",
        "to": "0x8b5bcc363dde2614281ad875bad385e0a785d3b9",
        "gas": "0x312bb",
        "value": "0x0",
        "input": "0x2229d0b4000000000000000000000000736830eba7754e5b05242eca783fd4b6ba6d77ad000000000000000000000000dcd12d26ae3e3e1985f8caec1548b29bd649567e0000000000000000000000000000000000000000000000000000000000000bb8000000000000000000000000000000000000000000000000000000000000003c0000000000000000000000002499b757519bb317e80d9006761e4eaa7a4680400000000000000000000000000000000000000000000000000000000000000000ffffffffffffffffffffffffffffffffffffffffffffffffffffffffc4653600000000000000000000000000fffd8963efd1fc6a506488495d951d5263988d250000000000000000000000000000000000000000000000000000000000000000000000000000000000000000000000000000000000000000000000000000000000000000000000000000000000000000000000000000000000000000000001600000000000000000000000000000000000000000000000000000000000000000",
        "nonce": "0x1f5",
        "chainId": "0x14a34"
      },
      "additionalContracts": [],
      "isFixedGasLimit": false
    }
  ],
  "receipts": [
    {
      "status": "0x1",
      "cumulativeGasUsed": "0x4dc791",
      "logs": [
        {
          "address": "0xdcd12d26ae3e3e1985f8caec1548b29bd649567e",
          "topics": [
            "0x8c5be1e5ebec7d5bd14f71427d1e84f3dd0314c0f7b2291e5b200ac8c7c3b925",
            "0x000000000000000000000000a6b3d200cd34ca14d7579dac8b054bf50a62c37c",
            "0x0000000000000000000000008b5bcc363dde2614281ad875bad385e0a785d3b9"
          ],
          "data": "0xffffffffffffffffffffffffffffffffffffffffffffffffffffffffffffffff",
          "blockHash": "0x97577ed036fa7d52de8837fc960627da062955c11056f833195aa44457e12f79",
          "blockNumber": "0x1876a88",
          "transactionHash": "0xd83b430bd0c28a8d645c99ce45322c2065de1427ffdab254279bd70d2a2bfef1",
          "transactionIndex": "0x23",
          "logIndex": "0x51",
          "removed": false
        }
      ],
      "logsBloom": "0x00000000000000000000000400000000000000000000000002000010000000000004000000000000000000000000000000000000000000000000000000200000000000000000000000000000000000000000000000000000000000000000000000000000000000000000000000000000000000000002080000000000000000000000000000000000000000000000000000000000000000000000000000000100020000000000000000000000000000000000000000000000000000000000000000000040000000000000000000000000000000000000000000000000000000000010000000000000000000000000000000000000000000000000001000000000",
      "type": "0x2",
      "transactionHash": "0xd83b430bd0c28a8d645c99ce45322c2065de1427ffdab254279bd70d2a2bfef1",
      "transactionIndex": "0x23",
      "blockHash": "0x97577ed036fa7d52de8837fc960627da062955c11056f833195aa44457e12f79",
      "blockNumber": "0x1876a88",
      "gasUsed": "0x6701",
      "effectiveGasPrice": "0xf4410",
      "from": "0xa6b3d200cd34ca14d7579dac8b054bf50a62c37c",
      "to": "0xdcd12d26ae3e3e1985f8caec1548b29bd649567e",
      "contractAddress": null,
      "l1BaseFeeScalar": "0x44d",
      "l1BlobBaseFee": "0x1",
      "l1BlobBaseFeeScalar": "0xa118b",
      "l1Fee": "0x63",
      "l1GasPrice": "0x13",
      "l1GasUsed": "0x640"
    }
  ],
  "libraries": [],
  "pending": [],
  "returns": {},
  "timestamp": 1747071986,
  "chain": 84532,
  "commit": "5feb4f2"
}