{
  "transactions": [
    {
      "hash": "0x876ce3ab46134d5a6237aadf6a26dea02095093720d8364e9a6428066857b41e",
      "transactionType": "CALL",
      "contractName": null,
      "contractAddress": "0x451cfc39fd0ed23f36d76ae6d53df35d1457e756",
      "function": "approve(address,uint256)",
      "arguments": [
        "0x8B5bcC363ddE2614281aD875bad385E0A785D3B9",
        "115792089237316195423570985008687907853269984665640564039457584007913129639935"
      ],
      "transaction": {
        "from": "0xa6b3d200cd34ca14d7579dac8b054bf50a62c37c",
        "to": "0x451cfc39fd0ed23f36d76ae6d53df35d1457e756",
        "gas": "0xf9a4",
        "value": "0x0",
        "input": "0x095ea7b30000000000000000000000008b5bcc363dde2614281ad875bad385e0a785d3b9ffffffffffffffffffffffffffffffffffffffffffffffffffffffffffffffff",
        "nonce": "0xdd",
        "chainId": "0x14a34"
      },
      "additionalContracts": [],
      "isFixedGasLimit": false
    },
    {
      "hash": "0x6853f5ca3cc6eb184b1c0ca7ee7b211d2338b7b2efb83a963ffd46a9fa68000c",
      "transactionType": "CALL",
      "contractName": "PoolSwapTest",
      "contractAddress": "0x8b5bcc363dde2614281ad875bad385e0a785d3b9",
      "function": "swap((address,address,uint24,int24,address),(bool,int256,uint160),(bool,bool),bytes)",
      "arguments": [
        "(0x426cE1ddcf18BA757f919632a32dC9Bfe8307f2d, 0x451CfC39fd0ED23F36D76AE6D53dF35D1457e756, 3000, 60, 0x776C291474ea3847323ABBb41C32d11054940040)",
        "(false, -100000000, 1461446703485210103287273052203988822378723970341)",
        "(false, false)",
        "0x"
      ],
      "transaction": {
        "from": "0xa6b3d200cd34ca14d7579dac8b054bf50a62c37c",
        "to": "0x8b5bcc363dde2614281ad875bad385e0a785d3b9",
        "gas": "0x36e96",
        "value": "0x0",
        "input": "0x2229d0b4000000000000000000000000426ce1ddcf18ba757f919632a32dc9bfe8307f2d000000000000000000000000451cfc39fd0ed23f36d76ae6d53df35d1457e7560000000000000000000000000000000000000000000000000000000000000bb8000000000000000000000000000000000000000000000000000000000000003c000000000000000000000000776c291474ea3847323abbb41c32d110549400400000000000000000000000000000000000000000000000000000000000000000fffffffffffffffffffffffffffffffffffffffffffffffffffffffffa0a1f00000000000000000000000000fffd8963efd1fc6a506488495d951d5263988d250000000000000000000000000000000000000000000000000000000000000000000000000000000000000000000000000000000000000000000000000000000000000000000000000000000000000000000000000000000000000000000001600000000000000000000000000000000000000000000000000000000000000000",
        "nonce": "0xde",
        "chainId": "0x14a34"
      },
      "additionalContracts": [],
      "isFixedGasLimit": false
    }
  ],
  "receipts": [
    {
      "status": "0x1",
      "cumulativeGasUsed": "0x11ff271",
      "logs": [
        {
          "address": "0x451cfc39fd0ed23f36d76ae6d53df35d1457e756",
          "topics": [
            "0x8c5be1e5ebec7d5bd14f71427d1e84f3dd0314c0f7b2291e5b200ac8c7c3b925",
            "0x000000000000000000000000a6b3d200cd34ca14d7579dac8b054bf50a62c37c",
            "0x0000000000000000000000008b5bcc363dde2614281ad875bad385e0a785d3b9"
          ],
          "data": "0xffffffffffffffffffffffffffffffffffffffffffffffffffffffffffffffff",
          "blockHash": "0xe3d325d2227aeb88ef7cdbe96324fdcbe961fc02c585f9f9c3f38d587a860c7a",
          "blockNumber": "0x1870449",
          "transactionHash": "0x876ce3ab46134d5a6237aadf6a26dea02095093720d8364e9a6428066857b41e",
          "transactionIndex": "0x27",
          "logIndex": "0x14e",
          "removed": false
        }
      ],
      "logsBloom": "0x00000000000000000000000400000000000000000000000002000010000000000004000000000000000000000000000000000000000000000000000000200000000000000000000000000000000000000000000000000000000000000000000000000000000000000000000000000000000000000000000000000000000000000000000000000000000000000000000000000000000000000000000000000020020000000000000000000000000000000000000000000000000000000000000000000040000000000000000000000000000000000000000000000000080000000010000000000000000000000000000000000000000000000000001000000002",
      "type": "0x2",
      "transactionHash": "0x876ce3ab46134d5a6237aadf6a26dea02095093720d8364e9a6428066857b41e",
      "transactionIndex": "0x27",
      "blockHash": "0xe3d325d2227aeb88ef7cdbe96324fdcbe961fc02c585f9f9c3f38d587a860c7a",
      "blockNumber": "0x1870449",
      "gasUsed": "0xb4bd",
      "effectiveGasPrice": "0xf43d0",
      "from": "0xa6b3d200cd34ca14d7579dac8b054bf50a62c37c",
      "to": "0x451cfc39fd0ed23f36d76ae6d53df35d1457e756",
      "contractAddress": null,
      "l1BaseFeeScalar": "0x44d",
      "l1BlobBaseFee": "0x1",
      "l1BlobBaseFeeScalar": "0xa118b",
      "l1Fee": "0xb4",
      "l1GasPrice": "0x41",
      "l1GasUsed": "0x640"
    },
    {
      "status": "0x1",
      "cumulativeGasUsed": "0x1226e86",
      "logs": [
        {
          "address": "0x05e73354cfdd6745c338b50bcfdfa3aa6fa03408",
          "topics": [
            "0x40e9cecb9f5f1f1c5b9c97dec2917b7ee92e57ba5563708daca94dd84ad7112f",
            "0x19f0cc554548dacbffb1a4e45962eab9b2da82a07d3d016e8307da19fdcde832",
            "0x0000000000000000000000008b5bcc363dde2614281ad875bad385e0a785d3b9"
          ],
          "data": "0x0000000000000000000000000000000000000000000000000000005d581e4530fffffffffffffffffffffffffffffffffffffffffffffffffffffffffa0a1f00000000000000000000000000000000000000000004099e0fe26417d5383253d800000000000000000000000000000000000000000000000000001651dda27472fffffffffffffffffffffffffffffffffffffffffffffffffffffffffffebbcd0000000000000000000000000000000000000000000000000000000000000bb8",
          "blockHash": "0xe3d325d2227aeb88ef7cdbe96324fdcbe961fc02c585f9f9c3f38d587a860c7a",
          "blockNumber": "0x1870449",
          "transactionHash": "0x6853f5ca3cc6eb184b1c0ca7ee7b211d2338b7b2efb83a963ffd46a9fa68000c",
          "transactionIndex": "0x28",
          "logIndex": "0x14f",
          "removed": false
        },
        {
          "address": "0x776c291474ea3847323abbb41c32d11054940040",
          "topics": [
            "0xe94fd6ffbea861e602dda2012df60a3e042352b8e6e2f2a987f05990c4287196"
          ],
          "data": "0x0000000000000000000000008b5bcc363dde2614281ad875bad385e0a785d3b919f0cc554548dacbffb1a4e45962eab9b2da82a07d3d016e8307da19fdcde832",
          "blockHash": "0xe3d325d2227aeb88ef7cdbe96324fdcbe961fc02c585f9f9c3f38d587a860c7a",
          "blockNumber": "0x1870449",
          "transactionHash": "0x6853f5ca3cc6eb184b1c0ca7ee7b211d2338b7b2efb83a963ffd46a9fa68000c",
          "transactionIndex": "0x28",
          "logIndex": "0x150",
          "removed": false
        },
        {
          "address": "0x776c291474ea3847323abbb41c32d11054940040",
          "topics": [
            "0xb1ea69d247feed513ceedec202946186146dc8f88adde997c8f6dbdd61698ec8"
          ],
          "data": "0x19f0cc554548dacbffb1a4e45962eab9b2da82a07d3d016e8307da19fdcde8320000000000000000000000000000000000000000000000000000000000000001",
          "blockHash": "0xe3d325d2227aeb88ef7cdbe96324fdcbe961fc02c585f9f9c3f38d587a860c7a",
          "blockNumber": "0x1870449",
          "transactionHash": "0x6853f5ca3cc6eb184b1c0ca7ee7b211d2338b7b2efb83a963ffd46a9fa68000c",
          "transactionIndex": "0x28",
          "logIndex": "0x151",
          "removed": false
        },
        {
          "address": "0x776c291474ea3847323abbb41c32d11054940040",
          "topics": [
            "0x9a8eb31960851ae244c135ec92d6f3a8955580cc40662ecdc9c786bc42722700"
          ],
          "data": "0x00000000000000000000000000000000000000000000000000000000682167720000000000000000000000000000000000000000000000000000000068215e220000000000000000000000000000000000000000000000000000000000000e100000000000000000000000000000000000000000000000000000000000000000",
          "blockHash": "0xe3d325d2227aeb88ef7cdbe96324fdcbe961fc02c585f9f9c3f38d587a860c7a",
          "blockNumber": "0x1870449",
          "transactionHash": "0x6853f5ca3cc6eb184b1c0ca7ee7b211d2338b7b2efb83a963ffd46a9fa68000c",
          "transactionIndex": "0x28",
          "logIndex": "0x152",
          "removed": false
        },
        {
          "address": "0x451cfc39fd0ed23f36d76ae6d53df35d1457e756",
          "topics": [
            "0xddf252ad1be2c89b69c2b068fc378daa952ba7f163c4a11628f55a4df523b3ef",
            "0x000000000000000000000000a6b3d200cd34ca14d7579dac8b054bf50a62c37c",
            "0x00000000000000000000000005e73354cfdd6745c338b50bcfdfa3aa6fa03408"
          ],
          "data": "0x0000000000000000000000000000000000000000000000000000000005f5e100",
          "blockHash": "0xe3d325d2227aeb88ef7cdbe96324fdcbe961fc02c585f9f9c3f38d587a860c7a",
          "blockNumber": "0x1870449",
          "transactionHash": "0x6853f5ca3cc6eb184b1c0ca7ee7b211d2338b7b2efb83a963ffd46a9fa68000c",
          "transactionIndex": "0x28",
          "logIndex": "0x153",
          "removed": false
        },
        {
          "address": "0x426ce1ddcf18ba757f919632a32dc9bfe8307f2d",
          "topics": [
            "0xddf252ad1be2c89b69c2b068fc378daa952ba7f163c4a11628f55a4df523b3ef",
            "0x00000000000000000000000005e73354cfdd6745c338b50bcfdfa3aa6fa03408",
            "0x000000000000000000000000a6b3d200cd34ca14d7579dac8b054bf50a62c37c"
          ],
          "data": "0x0000000000000000000000000000000000000000000000000000005d581e4530",
          "blockHash": "0xe3d325d2227aeb88ef7cdbe96324fdcbe961fc02c585f9f9c3f38d587a860c7a",
          "blockNumber": "0x1870449",
          "transactionHash": "0x6853f5ca3cc6eb184b1c0ca7ee7b211d2338b7b2efb83a963ffd46a9fa68000c",
          "transactionIndex": "0x28",
          "logIndex": "0x154",
          "removed": false
        }
      ],
      "logsBloom": "0x00000000000000000000000400010000000000000000000002000010000000000004002100000000000000010000000000000000040000000000000000000400000000000010000001000008000000000000000000900020000000000000000000000002000008000000000000000000000010000000000000000010000011000000000004000000000000000000040000000000000000000020000000000020000000000000000000000000000800000000000000000000000001400000000000000042001000000000000000000000000000000000000000000000080000000000000000000001004000004800000000000000000000000000001000000002",
      "type": "0x2",
      "transactionHash": "0x6853f5ca3cc6eb184b1c0ca7ee7b211d2338b7b2efb83a963ffd46a9fa68000c",
      "transactionIndex": "0x28",
      "blockHash": "0xe3d325d2227aeb88ef7cdbe96324fdcbe961fc02c585f9f9c3f38d587a860c7a",
      "blockNumber": "0x1870449",
      "gasUsed": "0x27c15",
      "effectiveGasPrice": "0xf43d0",
      "from": "0xa6b3d200cd34ca14d7579dac8b054bf50a62c37c",
      "to": "0x8b5bcc363dde2614281ad875bad385e0a785d3b9",
      "contractAddress": null,
      "l1BaseFeeScalar": "0x44d",
      "l1BlobBaseFee": "0x1",
      "l1BlobBaseFeeScalar": "0xa118b",
      "l1Fee": "0x141",
      "l1GasPrice": "0x41",
      "l1GasUsed": "0xb24"
    }
  ],
  "libraries": [],
  "pending": [],
  "returns": {},
  "timestamp": 1747019636,
  "chain": 84532,
  "commit": "c98ea0d"
}