{
  "transactions": [
    {
      "hash": "0xbc0427b11112a7306ed0831c7b9ea0f0fcc3c0a3b47d471182355fd6e56be7e5",
      "transactionType": "CALL",
      "contractName": null,
      "contractAddress": "0xe7a4113a8a497dd72d29f35e188eed7403e8b2e8",
      "function": "approve(address,uint256)",
      "arguments": [
        "0x8B5bcC363ddE2614281aD875bad385E0A785D3B9",
        "115792089237316195423570985008687907853269984665640564039457584007913129639935"
      ],
      "transaction": {
        "from": "0xa6b3d200cd34ca14d7579dac8b054bf50a62c37c",
        "to": "0xe7a4113a8a497dd72d29f35e188eed7403e8b2e8",
        "gas": "0x96a4",
        "value": "0x0",
        "input": "0x095ea7b30000000000000000000000008b5bcc363dde2614281ad875bad385e0a785d3b9ffffffffffffffffffffffffffffffffffffffffffffffffffffffffffffffff",
        "nonce": "0x68",
        "chainId": "0x14a34"
      },
      "additionalContracts": [],
      "isFixedGasLimit": false
    },
    {
      "hash": "0xb500e1f6f378c2282e068f67c30fedd7f68254b11d9416504717ebb3b71f5fdc",
      "transactionType": "CALL",
      "contractName": "PoolSwapTest",
      "contractAddress": "0x8b5bcc363dde2614281ad875bad385e0a785d3b9",
      "function": "swap((address,address,uint24,int24,address),(bool,int256,uint160),(bool,bool),bytes)",
      "arguments": [
        "(0xd16Ee99c7EA2B30c13c3dC298EADEE00B870BBCC, 0xE7a4113a8a497DD72D29F35E188eEd7403e8B2E8, 3000, 60, 0x866bf94370e8A7C9cDeAFb592C2ac62903e30040)",
        "(false, -100000000, 1461446703485210103287273052203988822378723970341)",
        "(false, false)",
        "0x"
      ],
      "transaction": {
        "from": "0xa6b3d200cd34ca14d7579dac8b054bf50a62c37c",
        "to": "0x8b5bcc363dde2614281ad875bad385e0a785d3b9",
        "gas": "0x2c691",
        "value": "0x0",
        "input": "0x2229d0b4000000000000000000000000d16ee99c7ea2b30c13c3dc298eadee00b870bbcc000000000000000000000000e7a4113a8a497dd72d29f35e188eed7403e8b2e80000000000000000000000000000000000000000000000000000000000000bb8000000000000000000000000000000000000000000000000000000000000003c000000000000000000000000866bf94370e8a7c9cdeafb592c2ac62903e300400000000000000000000000000000000000000000000000000000000000000000fffffffffffffffffffffffffffffffffffffffffffffffffffffffffa0a1f00000000000000000000000000fffd8963efd1fc6a506488495d951d5263988d250000000000000000000000000000000000000000000000000000000000000000000000000000000000000000000000000000000000000000000000000000000000000000000000000000000000000000000000000000000000000000000001600000000000000000000000000000000000000000000000000000000000000000",
        "nonce": "0x69",
        "chainId": "0x14a34"
      },
      "additionalContracts": [],
      "isFixedGasLimit": false
    }
  ],
  "receipts": [
    {
      "status": "0x1",
      "cumulativeGasUsed": "0x46e6d5",
      "logs": [
        {
          "address": "0xe7a4113a8a497dd72d29f35e188eed7403e8b2e8",
          "topics": [
            "0x8c5be1e5ebec7d5bd14f71427d1e84f3dd0314c0f7b2291e5b200ac8c7c3b925",
            "0x000000000000000000000000a6b3d200cd34ca14d7579dac8b054bf50a62c37c",
            "0x0000000000000000000000008b5bcc363dde2614281ad875bad385e0a785d3b9"
          ],
          "data": "0xffffffffffffffffffffffffffffffffffffffffffffffffffffffffffffffff",
          "blockHash": "0xb3813e62bd007f640cff66a1197a6c271878e4ad11a2ae2d44d2dec80c608c27",
          "blockNumber": "0x186bd96",
          "transactionHash": "0xbc0427b11112a7306ed0831c7b9ea0f0fcc3c0a3b47d471182355fd6e56be7e5",
          "transactionIndex": "0x12",
          "logIndex": "0x93",
          "removed": false
        }
      ],
      "logsBloom": "0x00000000000000000000000400000000000000000000000002000010000000000004000000000000000000000000000000000000000000000000000000200000000000000000000000000000000000000000000000000000000000000000000000000000000000000000000000000000000000000000000000000000000000200000000000000000001000000000000000000000000000000000000000000000020000000000000000000000000000000000000000000000000000000000000000000040000000000000000000000000000000000000000000000000000000000010000000000000000000000000000000000000000000000000001000000040",
      "type": "0x0",
      "transactionHash": "0xbc0427b11112a7306ed0831c7b9ea0f0fcc3c0a3b47d471182355fd6e56be7e5",
      "transactionIndex": "0x12",
      "blockHash": "0xb3813e62bd007f640cff66a1197a6c271878e4ad11a2ae2d44d2dec80c608c27",
      "blockNumber": "0x186bd96",
      "gasUsed": "0x6701",
      "effectiveGasPrice": "0xf43de",
      "from": "0xa6b3d200cd34ca14d7579dac8b054bf50a62c37c",
      "to": "0xe7a4113a8a497dd72d29f35e188eed7403e8b2e8",
      "contractAddress": null,
      "l1BaseFeeScalar": "0x44d",
      "l1BlobBaseFee": "0x1",
      "l1BlobBaseFeeScalar": "0xa118b",
      "l1Fee": "0x5e",
      "l1GasPrice": "0x10",
      "l1GasUsed": "0x640"
    },
    {
      "status": "0x1",
      "cumulativeGasUsed": "0x48e945",
      "logs": [
        {
          "address": "0x05e73354cfdd6745c338b50bcfdfa3aa6fa03408",
          "topics": [
            "0x40e9cecb9f5f1f1c5b9c97dec2917b7ee92e57ba5563708daca94dd84ad7112f",
            "0x13a37c417a218478aaebb839a88a9a73df52cb93399077f2b73fc1b934f6963c",
            "0x0000000000000000000000008b5bcc363dde2614281ad875bad385e0a785d3b9"
          ],
          "data": "0x000000000000000000000000000000000000000000000000000000a5ba76ae4bfffffffffffffffffffffffffffffffffffffffffffffffffffffffffa0a1f0000000000000000000000000000000000000000000308f3e0310f7cea76da05ef0000000000000000000000000000000000000000000000000000023b62f6a53efffffffffffffffffffffffffffffffffffffffffffffffffffffffffffea5800000000000000000000000000000000000000000000000000000000000000bb8",
          "blockHash": "0xb3813e62bd007f640cff66a1197a6c271878e4ad11a2ae2d44d2dec80c608c27",
          "blockNumber": "0x186bd96",
          "transactionHash": "0xb500e1f6f378c2282e068f67c30fedd7f68254b11d9416504717ebb3b71f5fdc",
          "transactionIndex": "0x13",
          "logIndex": "0x94",
          "removed": false
        },
        {
          "address": "0xe7a4113a8a497dd72d29f35e188eed7403e8b2e8",
          "topics": [
            "0xddf252ad1be2c89b69c2b068fc378daa952ba7f163c4a11628f55a4df523b3ef",
            "0x000000000000000000000000a6b3d200cd34ca14d7579dac8b054bf50a62c37c",
            "0x00000000000000000000000005e73354cfdd6745c338b50bcfdfa3aa6fa03408"
          ],
          "data": "0x0000000000000000000000000000000000000000000000000000000005f5e100",
          "blockHash": "0xb3813e62bd007f640cff66a1197a6c271878e4ad11a2ae2d44d2dec80c608c27",
          "blockNumber": "0x186bd96",
          "transactionHash": "0xb500e1f6f378c2282e068f67c30fedd7f68254b11d9416504717ebb3b71f5fdc",
          "transactionIndex": "0x13",
          "logIndex": "0x95",
          "removed": false
        },
        {
          "address": "0xd16ee99c7ea2b30c13c3dc298eadee00b870bbcc",
          "topics": [
            "0xddf252ad1be2c89b69c2b068fc378daa952ba7f163c4a11628f55a4df523b3ef",
            "0x00000000000000000000000005e73354cfdd6745c338b50bcfdfa3aa6fa03408",
            "0x000000000000000000000000a6b3d200cd34ca14d7579dac8b054bf50a62c37c"
          ],
          "data": "0x000000000000000000000000000000000000000000000000000000a5ba76ae4b",
          "blockHash": "0xb3813e62bd007f640cff66a1197a6c271878e4ad11a2ae2d44d2dec80c608c27",
          "blockNumber": "0x186bd96",
          "transactionHash": "0xb500e1f6f378c2282e068f67c30fedd7f68254b11d9416504717ebb3b71f5fdc",
          "transactionIndex": "0x13",
          "logIndex": "0x96",
          "removed": false
        }
      ],
      "logsBloom": "0x00000000040000000000000400000000000000000000000002000010000000000004000100000000000000000000000000000000040000000000000000000000000000000010000000000008000000000000000000100020000000000000000000000000000000000000000000000000000000000080000000000010000010200000000004000000001000000000000000000000000000000000000000000000000004000000000000000000080000000000000000000000000000000000000000000042001000000000000000000000000000000000000000000000000000000000000000000000004000000800000000000000000000008000001000000040",
      "type": "0x0",
      "transactionHash": "0xb500e1f6f378c2282e068f67c30fedd7f68254b11d9416504717ebb3b71f5fdc",
      "transactionIndex": "0x13",
      "blockHash": "0xb3813e62bd007f640cff66a1197a6c271878e4ad11a2ae2d44d2dec80c608c27",
      "blockNumber": "0x186bd96",
      "gasUsed": "0x20270",
      "effectiveGasPrice": "0xf43de",
      "from": "0xa6b3d200cd34ca14d7579dac8b054bf50a62c37c",
      "to": "0x8b5bcc363dde2614281ad875bad385e0a785d3b9",
      "contractAddress": null,
      "l1BaseFeeScalar": "0x44d",
      "l1BlobBaseFee": "0x1",
      "l1BlobBaseFeeScalar": "0xa118b",
      "l1Fee": "0xa1",
      "l1GasPrice": "0x10",
      "l1GasUsed": "0xab8"
    }
  ],
  "libraries": [],
  "pending": [],
  "returns": {},
  "timestamp": 1746983438,
  "chain": 84532,
  "commit": "217be5c"
}