{
  "transactions": [
    {
      "hash": "0xe27d5fc509465a74254e2d470ab33d5f5bd5ec67f91633286fd7e849ea95946d",
      "transactionType": "CALL",
      "contractName": null,
      "contractAddress": "0x426ce1ddcf18ba757f919632a32dc9bfe8307f2d",
      "function": "approve(address,uint256)",
      "arguments": [
        "0x8B5bcC363ddE2614281aD875bad385E0A785D3B9",
        "115792089237316195423570985008687907853269984665640564039457584007913129639935"
      ],
      "transaction": {
        "from": "0xa6b3d200cd34ca14d7579dac8b054bf50a62c37c",
        "to": "0x426ce1ddcf18ba757f919632a32dc9bfe8307f2d",
        "gas": "0xa680",
        "value": "0x0",
        "input": "0x095ea7b30000000000000000000000008b5bcc363dde2614281ad875bad385e0a785d3b9ffffffffffffffffffffffffffffffffffffffffffffffffffffffffffffffff",
        "nonce": "0xf2",
        "chainId": "0x14a34"
      },
      "additionalContracts": [],
      "isFixedGasLimit": false
    },
    {
      "hash": "0xb769e0db1eaeea7a0f50562240d9c76bc94e58713d66068c32e74388123d8439",
      "transactionType": "CALL",
      "contractName": "PoolSwapTest",
      "contractAddress": "0x8b5bcc363dde2614281ad875bad385e0a785d3b9",
      "function": "swap((address,address,uint24,int24,address),(bool,int256,uint160),(bool,bool),bytes)",
      "arguments": [
        "(0x426cE1ddcf18BA757f919632a32dC9Bfe8307f2d, 0x451CfC39fd0ED23F36D76AE6D53dF35D1457e756, 3000, 60, 0x776C291474ea3847323ABBb41C32d11054940040)",
        "(true, -4000000000000, 4295128740)",
        "(false, false)",
        "0x"
      ],
      "transaction": {
        "from": "0xa6b3d200cd34ca14d7579dac8b054bf50a62c37c",
        "to": "0x8b5bcc363dde2614281ad875bad385e0a785d3b9",
        "gas": "0x35064",
        "value": "0x0",
        "input": "0x2229d0b4000000000000000000000000426ce1ddcf18ba757f919632a32dc9bfe8307f2d000000000000000000000000451cfc39fd0ed23f36d76ae6d53df35d1457e7560000000000000000000000000000000000000000000000000000000000000bb8000000000000000000000000000000000000000000000000000000000000003c000000000000000000000000776c291474ea3847323abbb41c32d110549400400000000000000000000000000000000000000000000000000000000000000001fffffffffffffffffffffffffffffffffffffffffffffffffffffc5cad6bc00000000000000000000000000000000000000000000000000000000001000276a40000000000000000000000000000000000000000000000000000000000000000000000000000000000000000000000000000000000000000000000000000000000000000000000000000000000000000000000000000000000000000000001600000000000000000000000000000000000000000000000000000000000000000",
        "nonce": "0xf3",
        "chainId": "0x14a34"
      },
      "additionalContracts": [],
      "isFixedGasLimit": false
    }
  ],
  "receipts": [
    {
      "status": "0x1",
      "cumulativeGasUsed": "0x9bf1e3",
      "logs": [
        {
          "address": "0x426ce1ddcf18ba757f919632a32dc9bfe8307f2d",
          "topics": [
            "0x8c5be1e5ebec7d5bd14f71427d1e84f3dd0314c0f7b2291e5b200ac8c7c3b925",
            "0x000000000000000000000000a6b3d200cd34ca14d7579dac8b054bf50a62c37c",
            "0x0000000000000000000000008b5bcc363dde2614281ad875bad385e0a785d3b9"
          ],
          "data": "0xffffffffffffffffffffffffffffffffffffffffffffffffffffffffffffffff",
          "blockHash": "0xecfe75c1a6d019d2cd9bc2976f748aad5abc08ee89f3dffbcce24f5d84818879",
          "blockNumber": "0x1870635",
          "transactionHash": "0xe27d5fc509465a74254e2d470ab33d5f5bd5ec67f91633286fd7e849ea95946d",
          "transactionIndex": "0x2f",
          "logIndex": "0xa6",
          "removed": false
        }
      ],
      "logsBloom": "0x00000000000000000000000400000000000000000000000002000010000000000004002000000000000000000000000000000000000000000000000000200400000000000000000000000000000000000000000000000000000000000000000000000002000000000000000000000000000000000000000000000000000000000000000000000000000000000000000000000000000000000000000000000000020000000000000000000000000000000000000000000000000000000000000000000040000000000000000000000000000000000000000000000000000000000010000000000000000000000000000000000000000000000000001000000000",
      "type": "0x2",
      "transactionHash": "0xe27d5fc509465a74254e2d470ab33d5f5bd5ec67f91633286fd7e849ea95946d",
      "transactionIndex": "0x2f",
      "blockHash": "0xecfe75c1a6d019d2cd9bc2976f748aad5abc08ee89f3dffbcce24f5d84818879",
      "blockNumber": "0x1870635",
      "gasUsed": "0x71d9",
      "effectiveGasPrice": "0xf43d4",
      "from": "0xa6b3d200cd34ca14d7579dac8b054bf50a62c37c",
      "to": "0x426ce1ddcf18ba757f919632a32dc9bfe8307f2d",
      "contractAddress": null,
      "l1BaseFeeScalar": "0x44d",
      "l1BlobBaseFee": "0x1",
      "l1BlobBaseFeeScalar": "0xa118b",
      "l1Fee": "0x20d",
      "l1GasPrice": "0x105",
      "l1GasUsed": "0x640"
    },
    {
      "status": "0x1",
      "cumulativeGasUsed": "0x9e35fc",
      "logs": [
        {
          "address": "0x05e73354cfdd6745c338b50bcfdfa3aa6fa03408",
          "topics": [
            "0x40e9cecb9f5f1f1c5b9c97dec2917b7ee92e57ba5563708daca94dd84ad7112f",
            "0x19f0cc554548dacbffb1a4e45962eab9b2da82a07d3d016e8307da19fdcde832",
            "0x0000000000000000000000008b5bcc363dde2614281ad875bad385e0a785d3b9"
          ],
          "data": "0xfffffffffffffffffffffffffffffffffffffffffffffffffffffc5cad6bc00000000000000000000000000000000000000000000000000000000000399ce35a000000000000000000000000000000000000000003faff0bc7435f62dba3db0400000000000000000000000000000000000000000000000000001651dda27472fffffffffffffffffffffffffffffffffffffffffffffffffffffffffffebab00000000000000000000000000000000000000000000000000000000000000bb8",
          "blockHash": "0xecfe75c1a6d019d2cd9bc2976f748aad5abc08ee89f3dffbcce24f5d84818879",
          "blockNumber": "0x1870635",
          "transactionHash": "0xb769e0db1eaeea7a0f50562240d9c76bc94e58713d66068c32e74388123d8439",
          "transactionIndex": "0x30",
          "logIndex": "0xa7",
          "removed": false
        },
        {
          "address": "0x776c291474ea3847323abbb41c32d11054940040",
          "topics": [
            "0xe94fd6ffbea861e602dda2012df60a3e042352b8e6e2f2a987f05990c4287196"
          ],
          "data": "0x0000000000000000000000008b5bcc363dde2614281ad875bad385e0a785d3b919f0cc554548dacbffb1a4e45962eab9b2da82a07d3d016e8307da19fdcde832",
          "blockHash": "0xecfe75c1a6d019d2cd9bc2976f748aad5abc08ee89f3dffbcce24f5d84818879",
          "blockNumber": "0x1870635",
          "transactionHash": "0xb769e0db1eaeea7a0f50562240d9c76bc94e58713d66068c32e74388123d8439",
          "transactionIndex": "0x30",
          "logIndex": "0xa8",
          "removed": false
        },
        {
          "address": "0x776c291474ea3847323abbb41c32d11054940040",
          "topics": [
            "0xb1ea69d247feed513ceedec202946186146dc8f88adde997c8f6dbdd61698ec8"
          ],
          "data": "0x19f0cc554548dacbffb1a4e45962eab9b2da82a07d3d016e8307da19fdcde8320000000000000000000000000000000000000000000000000000000000000001",
          "blockHash": "0xecfe75c1a6d019d2cd9bc2976f748aad5abc08ee89f3dffbcce24f5d84818879",
          "blockNumber": "0x1870635",
          "transactionHash": "0xb769e0db1eaeea7a0f50562240d9c76bc94e58713d66068c32e74388123d8439",
          "transactionIndex": "0x30",
          "logIndex": "0xa9",
          "removed": false
        },
        {
          "address": "0x776c291474ea3847323abbb41c32d11054940040",
          "topics": [
            "0x9a8eb31960851ae244c135ec92d6f3a8955580cc40662ecdc9c786bc42722700"
          ],
          "data": "0x0000000000000000000000000000000000000000000000000000000068216b4a0000000000000000000000000000000000000000000000000000000068216b32000000000000000000000000000000000000000000000000000000000000001e0000000000000000000000000000000000000000000000000000000000000000",
          "blockHash": "0xecfe75c1a6d019d2cd9bc2976f748aad5abc08ee89f3dffbcce24f5d84818879",
          "blockNumber": "0x1870635",
          "transactionHash": "0xb769e0db1eaeea7a0f50562240d9c76bc94e58713d66068c32e74388123d8439",
          "transactionIndex": "0x30",
          "logIndex": "0xaa",
          "removed": false
        },
        {
          "address": "0x426ce1ddcf18ba757f919632a32dc9bfe8307f2d",
          "topics": [
            "0xddf252ad1be2c89b69c2b068fc378daa952ba7f163c4a11628f55a4df523b3ef",
            "0x000000000000000000000000a6b3d200cd34ca14d7579dac8b054bf50a62c37c",
            "0x00000000000000000000000005e73354cfdd6745c338b50bcfdfa3aa6fa03408"
          ],
          "data": "0x000000000000000000000000000000000000000000000000000003a352944000",
          "blockHash": "0xecfe75c1a6d019d2cd9bc2976f748aad5abc08ee89f3dffbcce24f5d84818879",
          "blockNumber": "0x1870635",
          "transactionHash": "0xb769e0db1eaeea7a0f50562240d9c76bc94e58713d66068c32e74388123d8439",
          "transactionIndex": "0x30",
          "logIndex": "0xab",
          "removed": false
        },
        {
          "address": "0x451cfc39fd0ed23f36d76ae6d53df35d1457e756",
          "topics": [
            "0xddf252ad1be2c89b69c2b068fc378daa952ba7f163c4a11628f55a4df523b3ef",
            "0x00000000000000000000000005e73354cfdd6745c338b50bcfdfa3aa6fa03408",
            "0x000000000000000000000000a6b3d200cd34ca14d7579dac8b054bf50a62c37c"
          ],
          "data": "0x00000000000000000000000000000000000000000000000000000000399ce35a",
          "blockHash": "0xecfe75c1a6d019d2cd9bc2976f748aad5abc08ee89f3dffbcce24f5d84818879",
          "blockNumber": "0x1870635",
          "transactionHash": "0xb769e0db1eaeea7a0f50562240d9c76bc94e58713d66068c32e74388123d8439",
          "transactionIndex": "0x30",
          "logIndex": "0xac",
          "removed": false
        }
      ],
      "logsBloom": "0x00000000000000000000000400010000000000000000000002000010000000000004002100000000000000010000000000000000040000000000000000000400000000000010000001000008000000000000000000900020000000000000000000000002000008000000000000000000000010000000000000000010000011000000000004000000000000000000040000000000000000000020000000000020000000000000000000000000000800000000000000000000000001400000000000000042001000000000000000000000000000000000000000000000080000000000000000000001004000004800000000000000000000000000001000000002",
      "type": "0x2",
      "transactionHash": "0xb769e0db1eaeea7a0f50562240d9c76bc94e58713d66068c32e74388123d8439",
      "transactionIndex": "0x30",
      "blockHash": "0xecfe75c1a6d019d2cd9bc2976f748aad5abc08ee89f3dffbcce24f5d84818879",
      "blockNumber": "0x1870635",
      "gasUsed": "0x24419",
      "effectiveGasPrice": "0xf43d4",
      "from": "0xa6b3d200cd34ca14d7579dac8b054bf50a62c37c",
      "to": "0x8b5bcc363dde2614281ad875bad385e0a785d3b9",
      "contractAddress": null,
      "l1BaseFeeScalar": "0x44d",
      "l1BlobBaseFee": "0x1",
      "l1BlobBaseFeeScalar": "0xa118b",
      "l1Fee": "0x378",
      "l1GasPrice": "0x105",
      "l1GasUsed": "0xa90"
    }
  ],
  "libraries": [],
  "pending": [],
  "returns": {},
  "timestamp": 1747020619,
  "chain": 84532,
  "commit": "c98ea0d"
}