{
  "transactions": [
    {
      "hash": "0x3456103200d4941ff9c04beec4fdf9182cf52e8c25876e14348138b24aeb374b",
      "transactionType": "CALL",
      "contractName": null,
      "contractAddress": "0x736830eba7754e5b05242eca783fd4b6ba6d77ad",
      "function": "approve(address,uint256)",
      "arguments": [
        "0x8B5bcC363ddE2614281aD875bad385E0A785D3B9",
        "115792089237316195423570985008687907853269984665640564039457584007913129639935"
      ],
      "transaction": {
        "from": "0xa6b3d200cd34ca14d7579dac8b054bf50a62c37c",
        "to": "0x736830eba7754e5b05242eca783fd4b6ba6d77ad",
        "gas": "0xa680",
        "value": "0x0",
        "input": "0x095ea7b30000000000000000000000008b5bcc363dde2614281ad875bad385e0a785d3b9ffffffffffffffffffffffffffffffffffffffffffffffffffffffffffffffff",
        "nonce": "0x20c",
        "chainId": "0x14a34"
      },
      "additionalContracts": [],
      "isFixedGasLimit": false
    },
    {
      "hash": "0x375a3ad478e674bb79de165a25b6e0bfe7f8a61c71e7fe29bade702d0d913e34",
      "transactionType": "CALL",
      "contractName": "PoolSwapTest",
      "contractAddress": "0x8b5bcc363dde2614281ad875bad385e0a785d3b9",
      "function": "swap((address,address,uint24,int24,address),(bool,int256,uint160),(bool,bool),bytes)",
      "arguments": [
        "(0x736830eBa7754e5b05242eca783Fd4b6BA6d77Ad, 0xDcD12D26aE3E3e1985F8cAeC1548B29bd649567E, 3000, 60, 0x2499b757519Bb317E80d9006761e4eaA7A468040)",
        "(true, -4000000000000, 4295128740)",
        "(false, false)",
        "0x"
      ],
      "transaction": {
        "from": "0xa6b3d200cd34ca14d7579dac8b054bf50a62c37c",
        "to": "0x8b5bcc363dde2614281ad875bad385e0a785d3b9",
        "gas": "0x325fd",
        "value": "0x0",
        "input": "0x2229d0b4000000000000000000000000736830eba7754e5b05242eca783fd4b6ba6d77ad000000000000000000000000dcd12d26ae3e3e1985f8caec1548b29bd649567e0000000000000000000000000000000000000000000000000000000000000bb8000000000000000000000000000000000000000000000000000000000000003c0000000000000000000000002499b757519bb317e80d9006761e4eaa7a4680400000000000000000000000000000000000000000000000000000000000000001fffffffffffffffffffffffffffffffffffffffffffffffffffffc5cad6bc00000000000000000000000000000000000000000000000000000000001000276a40000000000000000000000000000000000000000000000000000000000000000000000000000000000000000000000000000000000000000000000000000000000000000000000000000000000000000000000000000000000000000000001600000000000000000000000000000000000000000000000000000000000000000",
        "nonce": "0x20d",
        "chainId": "0x14a34"
      },
      "additionalContracts": [],
      "isFixedGasLimit": false
    }
  ],
  "receipts": [
    {
      "status": "0x1",
      "cumulativeGasUsed": "0x6214e8",
      "logs": [
        {
          "address": "0x736830eba7754e5b05242eca783fd4b6ba6d77ad",
          "topics": [
            "0x8c5be1e5ebec7d5bd14f71427d1e84f3dd0314c0f7b2291e5b200ac8c7c3b925",
            "0x000000000000000000000000a6b3d200cd34ca14d7579dac8b054bf50a62c37c",
            "0x0000000000000000000000008b5bcc363dde2614281ad875bad385e0a785d3b9"
          ],
          "data": "0xffffffffffffffffffffffffffffffffffffffffffffffffffffffffffffffff",
          "blockHash": "0x5bfcba3d24e2d670bdd226b4732dd5654ce3ed08c9ed14ae185be47dd7474b6a",
          "blockNumber": "0x1876c79",
          "transactionHash": "0x3456103200d4941ff9c04beec4fdf9182cf52e8c25876e14348138b24aeb374b",
          "transactionIndex": "0x26",
          "logIndex": "0x7e",
          "removed": false
        }
      ],
      "logsBloom": "0x00000000000000000000000400000000000000000000000002000010000000000004000000000000000000000000000000000000000000000000000000200000000000000000000000000000000000000000000000000000000000000000000000200000000000000000000000000000000000000000000000000000000000000000000000000000000000000000000000000000000000000000000000000000020000000000000100000000000000000000000000000000000000000000000000000040020000000000000000000000000000000000000000000000000000000010000000000000000000000000000000000000000000000000001000000000",
      "type": "0x2",
      "transactionHash": "0x3456103200d4941ff9c04beec4fdf9182cf52e8c25876e14348138b24aeb374b",
      "transactionIndex": "0x26",
      "blockHash": "0x5bfcba3d24e2d670bdd226b4732dd5654ce3ed08c9ed14ae185be47dd7474b6a",
      "blockNumber": "0x1876c79",
      "gasUsed": "0x71d9",
      "effectiveGasPrice": "0xf43e5",
      "from": "0xa6b3d200cd34ca14d7579dac8b054bf50a62c37c",
      "to": "0x736830eba7754e5b05242eca783fd4b6ba6d77ad",
      "contractAddress": null,
      "l1BaseFeeScalar": "0x44d",
      "l1BlobBaseFee": "0x1",
      "l1BlobBaseFeeScalar": "0xa118b",
      "l1Fee": "0x73",
      "l1GasPrice": "0x1c",
      "l1GasUsed": "0x640"
    },
    {
      "status": "0x1",
      "cumulativeGasUsed": "0x645c6e",
      "logs": [
        {
          "address": "0x05e73354cfdd6745c338b50bcfdfa3aa6fa03408",
          "topics": [
            "0x40e9cecb9f5f1f1c5b9c97dec2917b7ee92e57ba5563708daca94dd84ad7112f",
            "0x4f18bff5011ef80327d814cdd03b23808be728d793d44c4efd3e635083c8c6bd",
            "0x0000000000000000000000008b5bcc363dde2614281ad875bad385e0a785d3b9"
          ],
          "data": "0xfffffffffffffffffffffffffffffffffffffffffffffffffffffc5cad6bc00000000000000000000000000000000000000000000000000000000000398db3f0000000000000000000000000000000000000000003fa78e420fbfe215fd4401600000000000000000000000000000000000000000000000000001651dda27472fffffffffffffffffffffffffffffffffffffffffffffffffffffffffffebaa50000000000000000000000000000000000000000000000000000000000000bb8",
          "blockHash": "0x5bfcba3d24e2d670bdd226b4732dd5654ce3ed08c9ed14ae185be47dd7474b6a",
          "blockNumber": "0x1876c79",
          "transactionHash": "0x375a3ad478e674bb79de165a25b6e0bfe7f8a61c71e7fe29bade702d0d913e34",
          "transactionIndex": "0x27",
          "logIndex": "0x7f",
          "removed": false
        },
        {
          "address": "0x2499b757519bb317e80d9006761e4eaa7a468040",
          "topics": [
            "0xe94fd6ffbea861e602dda2012df60a3e042352b8e6e2f2a987f05990c4287196"
          ],
          "data": "0x0000000000000000000000008b5bcc363dde2614281ad875bad385e0a785d3b94f18bff5011ef80327d814cdd03b23808be728d793d44c4efd3e635083c8c6bd",
          "blockHash": "0x5bfcba3d24e2d670bdd226b4732dd5654ce3ed08c9ed14ae185be47dd7474b6a",
          "blockNumber": "0x1876c79",
          "transactionHash": "0x375a3ad478e674bb79de165a25b6e0bfe7f8a61c71e7fe29bade702d0d913e34",
          "transactionIndex": "0x27",
          "logIndex": "0x80",
          "removed": false
        },
        {
          "address": "0x2499b757519bb317e80d9006761e4eaa7a468040",
          "topics": [
            "0xb1ea69d247feed513ceedec202946186146dc8f88adde997c8f6dbdd61698ec8"
          ],
          "data": "0x4f18bff5011ef80327d814cdd03b23808be728d793d44c4efd3e635083c8c6bd0000000000000000000000000000000000000000000000000000000000000001",
          "blockHash": "0x5bfcba3d24e2d670bdd226b4732dd5654ce3ed08c9ed14ae185be47dd7474b6a",
          "blockNumber": "0x1876c79",
          "transactionHash": "0x375a3ad478e674bb79de165a25b6e0bfe7f8a61c71e7fe29bade702d0d913e34",
          "transactionIndex": "0x27",
          "logIndex": "0x81",
          "removed": false
        },
        {
          "address": "0x2499b757519bb317e80d9006761e4eaa7a468040",
          "topics": [
            "0x9a8eb31960851ae244c135ec92d6f3a8955580cc40662ecdc9c786bc42722700"
          ],
          "data": "0x00000000000000000000000000000000000000000000000000000000682237d200000000000000000000000000000000000000000000000000000000682237bc000000000000000000000000000000000000000000000000000000000000001e0000000000000000000000000000000000000000000000000000000000000000",
          "blockHash": "0x5bfcba3d24e2d670bdd226b4732dd5654ce3ed08c9ed14ae185be47dd7474b6a",
          "blockNumber": "0x1876c79",
          "transactionHash": "0x375a3ad478e674bb79de165a25b6e0bfe7f8a61c71e7fe29bade702d0d913e34",
          "transactionIndex": "0x27",
          "logIndex": "0x82",
          "removed": false
        },
        {
          "address": "0x736830eba7754e5b05242eca783fd4b6ba6d77ad",
          "topics": [
            "0xddf252ad1be2c89b69c2b068fc378daa952ba7f163c4a11628f55a4df523b3ef",
            "0x000000000000000000000000a6b3d200cd34ca14d7579dac8b054bf50a62c37c",
            "0x00000000000000000000000005e73354cfdd6745c338b50bcfdfa3aa6fa03408"
          ],
          "data": "0x000000000000000000000000000000000000000000000000000003a352944000",
          "blockHash": "0x5bfcba3d24e2d670bdd226b4732dd5654ce3ed08c9ed14ae185be47dd7474b6a",
          "blockNumber": "0x1876c79",
          "transactionHash": "0x375a3ad478e674bb79de165a25b6e0bfe7f8a61c71e7fe29bade702d0d913e34",
          "transactionIndex": "0x27",
          "logIndex": "0x83",
          "removed": false
        },
        {
          "address": "0xdcd12d26ae3e3e1985f8caec1548b29bd649567e",
          "topics": [
            "0xddf252ad1be2c89b69c2b068fc378daa952ba7f163c4a11628f55a4df523b3ef",
            "0x00000000000000000000000005e73354cfdd6745c338b50bcfdfa3aa6fa03408",
            "0x000000000000000000000000a6b3d200cd34ca14d7579dac8b054bf50a62c37c"
          ],
          "data": "0x00000000000000000000000000000000000000000000000000000000398db3f0",
          "blockHash": "0x5bfcba3d24e2d670bdd226b4732dd5654ce3ed08c9ed14ae185be47dd7474b6a",
          "blockNumber": "0x1876c79",
          "transactionHash": "0x375a3ad478e674bb79de165a25b6e0bfe7f8a61c71e7fe29bade702d0d913e34",
          "transactionIndex": "0x27",
          "logIndex": "0x84",
          "removed": false
        }
      ],
      "logsBloom": "0x00000000000000000000000400010000000000000000000002000010000000000004000100000000000000000000000000000000040000000000000000000000000000000014000001000018200000000000000000900020000000000000000000200000000000000000000000000000000010000002080000000010000001000000000004000000000000000000000000000000000000000000000000000100000000000000000100000000000800000000000000000000000001400000000000800042021000000000000000000000000000002000000000000000040000000000000000000001004000000800000000000000000000000000001000000000",
      "type": "0x2",
      "transactionHash": "0x375a3ad478e674bb79de165a25b6e0bfe7f8a61c71e7fe29bade702d0d913e34",
      "transactionIndex": "0x27",
      "blockHash": "0x5bfcba3d24e2d670bdd226b4732dd5654ce3ed08c9ed14ae185be47dd7474b6a",
      "blockNumber": "0x1876c79",
      "gasUsed": "0x24786",
      "effectiveGasPrice": "0xf43e5",
      "from": "0xa6b3d200cd34ca14d7579dac8b054bf50a62c37c",
      "to": "0x8b5bcc363dde2614281ad875bad385e0a785d3b9",
      "contractAddress": null,
      "l1BaseFeeScalar": "0x44d",
      "l1BlobBaseFee": "0x1",
      "l1BlobBaseFeeScalar": "0xa118b",
      "l1Fee": "0xc3",
      "l1GasPrice": "0x1c",
      "l1GasUsed": "0xa9e"
    }
  ],
  "libraries": [],
  "pending": [],
  "returns": {},
  "timestamp": 1747072979,
  "chain": 84532,
  "commit": "5feb4f2"
}