{
  "transactions": [
    {
      "hash": "0x2adee92fd38fe5c5b5339fc8a1dc6a3513021faae9af9922794c7daef4ee36bb",
      "transactionType": "CALL",
      "contractName": null,
      "contractAddress": "0xc30ae597ea9d1c917d227c563c3a62e238d2fd40",
      "function": "approve(address,uint256)",
      "arguments": [
        "0x8B5bcC363ddE2614281aD875bad385E0A785D3B9",
        "115792089237316195423570985008687907853269984665640564039457584007913129639935"
      ],
      "transaction": {
        "from": "0xa6b3d200cd34ca14d7579dac8b054bf50a62c37c",
        "to": "0xc30ae597ea9d1c917d227c563c3a62e238d2fd40",
        "gas": "0xf9a4",
        "value": "0x0",
        "input": "0x095ea7b30000000000000000000000008b5bcc363dde2614281ad875bad385e0a785d3b9ffffffffffffffffffffffffffffffffffffffffffffffffffffffffffffffff",
        "nonce": "0x11e",
        "chainId": "0x14a34"
      },
      "additionalContracts": [],
      "isFixedGasLimit": false
    },
    {
      "hash": "0x29c0143b0f173180c54c974a62c48039d144f098755fd7a0ebd8c0c90c8456b3",
      "transactionType": "CALL",
      "contractName": "PoolSwapTest",
      "contractAddress": "0x8b5bcc363dde2614281ad875bad385e0a785d3b9",
      "function": "swap((address,address,uint24,int24,address),(bool,int256,uint160),(bool,bool),bytes)",
      "arguments": [
        "(0x23d4741bFcd9F7560ac37ACeECddfCdC35A1994f, 0xC30ae597EA9d1C917D227C563C3a62E238D2fD40, 3000, 60, 0x90C2ab6887ae73f481E442b2B2Da1F0C54760040)",
        "(false, -100000000, 1461446703485210103287273052203988822378723970341)",
        "(false, false)",
        "0x"
      ],
      "transaction": {
        "from": "0xa6b3d200cd34ca14d7579dac8b054bf50a62c37c",
        "to": "0x8b5bcc363dde2614281ad875bad385e0a785d3b9",
        "gas": "0x36e96",
        "value": "0x0",
        "input": "0x2229d0b400000000000000000000000023d4741bfcd9f7560ac37aceecddfcdc35a1994f000000000000000000000000c30ae597ea9d1c917d227c563c3a62e238d2fd400000000000000000000000000000000000000000000000000000000000000bb8000000000000000000000000000000000000000000000000000000000000003c00000000000000000000000090c2ab6887ae73f481e442b2b2da1f0c547600400000000000000000000000000000000000000000000000000000000000000000fffffffffffffffffffffffffffffffffffffffffffffffffffffffffa0a1f00000000000000000000000000fffd8963efd1fc6a506488495d951d5263988d250000000000000000000000000000000000000000000000000000000000000000000000000000000000000000000000000000000000000000000000000000000000000000000000000000000000000000000000000000000000000000000001600000000000000000000000000000000000000000000000000000000000000000",
        "nonce": "0x11f",
        "chainId": "0x14a34"
      },
      "additionalContracts": [],
      "isFixedGasLimit": false
    }
  ],
  "receipts": [
    {
      "status": "0x1",
      "cumulativeGasUsed": "0x1a2873b",
      "logs": [
        {
          "address": "0xc30ae597ea9d1c917d227c563c3a62e238d2fd40",
          "topics": [
            "0x8c5be1e5ebec7d5bd14f71427d1e84f3dd0314c0f7b2291e5b200ac8c7c3b925",
            "0x000000000000000000000000a6b3d200cd34ca14d7579dac8b054bf50a62c37c",
            "0x0000000000000000000000008b5bcc363dde2614281ad875bad385e0a785d3b9"
          ],
          "data": "0xffffffffffffffffffffffffffffffffffffffffffffffffffffffffffffffff",
          "blockHash": "0x463e4950e04bc68c78dab5a8b7f27978542e27f0d71a522870e8f97886098677",
          "blockNumber": "0x1870c62",
          "transactionHash": "0x2adee92fd38fe5c5b5339fc8a1dc6a3513021faae9af9922794c7daef4ee36bb",
          "transactionIndex": "0x36",
          "logIndex": "0x178",
          "removed": false
        }
      ],
      "logsBloom": "0x00000000000000000000000400000000000000008000000002000010000000000004000000000000000000000000000000000000000000000000000000200000000000000000000000000000000000000000000000000000000000000000000000000000000000000000000000000010000000000000000000000000000000000000000000000010000000000000000000000000000000000000000000000000020000000000000000000000000000000000000000000000000000000000000000000040000000000000000000000000000000000000000000000000000000000010000000000000000000000000000000000000000000000000001000000000",
      "type": "0x2",
      "transactionHash": "0x2adee92fd38fe5c5b5339fc8a1dc6a3513021faae9af9922794c7daef4ee36bb",
      "transactionIndex": "0x36",
      "blockHash": "0x463e4950e04bc68c78dab5a8b7f27978542e27f0d71a522870e8f97886098677",
      "blockNumber": "0x1870c62",
      "gasUsed": "0xb4bd",
      "effectiveGasPrice": "0xf0932",
      "from": "0xa6b3d200cd34ca14d7579dac8b054bf50a62c37c",
      "to": "0xc30ae597ea9d1c917d227c563c3a62e238d2fd40",
      "contractAddress": null,
      "l1BaseFeeScalar": "0x44d",
      "l1BlobBaseFee": "0x1",
      "l1BlobBaseFeeScalar": "0xa118b",
      "l1Fee": "0x9bf",
      "l1GasPrice": "0x563",
      "l1GasUsed": "0x640"
    },
    {
      "status": "0x1",
      "cumulativeGasUsed": "0x1a50350",
      "logs": [
        {
          "address": "0x05e73354cfdd6745c338b50bcfdfa3aa6fa03408",
          "topics": [
            "0x40e9cecb9f5f1f1c5b9c97dec2917b7ee92e57ba5563708daca94dd84ad7112f",
            "0xa3f07252a31c357d5d49edb65304c92efa5ea02e4e01e8ceb8906983a1a5662a",
            "0x0000000000000000000000008b5bcc363dde2614281ad875bad385e0a785d3b9"
          ],
          "data": "0x0000000000000000000000000000000000000000000000000000005d581e4530fffffffffffffffffffffffffffffffffffffffffffffffffffffffffa0a1f00000000000000000000000000000000000000000004099e0fe26417d5383253d800000000000000000000000000000000000000000000000000001651dda27472fffffffffffffffffffffffffffffffffffffffffffffffffffffffffffebbcd0000000000000000000000000000000000000000000000000000000000000bb8",
          "blockHash": "0x463e4950e04bc68c78dab5a8b7f27978542e27f0d71a522870e8f97886098677",
          "blockNumber": "0x1870c62",
          "transactionHash": "0x29c0143b0f173180c54c974a62c48039d144f098755fd7a0ebd8c0c90c8456b3",
          "transactionIndex": "0x37",
          "logIndex": "0x179",
          "removed": false
        },
        {
          "address": "0x90c2ab6887ae73f481e442b2b2da1f0c54760040",
          "topics": [
            "0xe94fd6ffbea861e602dda2012df60a3e042352b8e6e2f2a987f05990c4287196"
          ],
          "data": "0x0000000000000000000000008b5bcc363dde2614281ad875bad385e0a785d3b9a3f07252a31c357d5d49edb65304c92efa5ea02e4e01e8ceb8906983a1a5662a",
          "blockHash": "0x463e4950e04bc68c78dab5a8b7f27978542e27f0d71a522870e8f97886098677",
          "blockNumber": "0x1870c62",
          "transactionHash": "0x29c0143b0f173180c54c974a62c48039d144f098755fd7a0ebd8c0c90c8456b3",
          "transactionIndex": "0x37",
          "logIndex": "0x17a",
          "removed": false
        },
        {
          "address": "0x90c2ab6887ae73f481e442b2b2da1f0c54760040",
          "topics": [
            "0xb1ea69d247feed513ceedec202946186146dc8f88adde997c8f6dbdd61698ec8"
          ],
          "data": "0xa3f07252a31c357d5d49edb65304c92efa5ea02e4e01e8ceb8906983a1a5662a0000000000000000000000000000000000000000000000000000000000000001",
          "blockHash": "0x463e4950e04bc68c78dab5a8b7f27978542e27f0d71a522870e8f97886098677",
          "blockNumber": "0x1870c62",
          "transactionHash": "0x29c0143b0f173180c54c974a62c48039d144f098755fd7a0ebd8c0c90c8456b3",
          "transactionIndex": "0x37",
          "logIndex": "0x17b",
          "removed": false
        },
        {
          "address": "0x90c2ab6887ae73f481e442b2b2da1f0c54760040",
          "topics": [
            "0x9a8eb31960851ae244c135ec92d6f3a8955580cc40662ecdc9c786bc42722700"
          ],
          "data": "0x00000000000000000000000000000000000000000000000000000000682177a400000000000000000000000000000000000000000000000000000000682176320000000000000000000000000000000000000000000000000000000000000e100000000000000000000000000000000000000000000000000000000000000000",
          "blockHash": "0x463e4950e04bc68c78dab5a8b7f27978542e27f0d71a522870e8f97886098677",
          "blockNumber": "0x1870c62",
          "transactionHash": "0x29c0143b0f173180c54c974a62c48039d144f098755fd7a0ebd8c0c90c8456b3",
          "transactionIndex": "0x37",
          "logIndex": "0x17c",
          "removed": false
        },
        {
          "address": "0xc30ae597ea9d1c917d227c563c3a62e238d2fd40",
          "topics": [
            "0xddf252ad1be2c89b69c2b068fc378daa952ba7f163c4a11628f55a4df523b3ef",
            "0x000000000000000000000000a6b3d200cd34ca14d7579dac8b054bf50a62c37c",
            "0x00000000000000000000000005e73354cfdd6745c338b50bcfdfa3aa6fa03408"
          ],
          "data": "0x0000000000000000000000000000000000000000000000000000000005f5e100",
          "blockHash": "0x463e4950e04bc68c78dab5a8b7f27978542e27f0d71a522870e8f97886098677",
          "blockNumber": "0x1870c62",
          "transactionHash": "0x29c0143b0f173180c54c974a62c48039d144f098755fd7a0ebd8c0c90c8456b3",
          "transactionIndex": "0x37",
          "logIndex": "0x17d",
          "removed": false
        },
        {
          "address": "0x23d4741bfcd9f7560ac37aceecddfcdc35a1994f",
          "topics": [
            "0xddf252ad1be2c89b69c2b068fc378daa952ba7f163c4a11628f55a4df523b3ef",
            "0x00000000000000000000000005e73354cfdd6745c338b50bcfdfa3aa6fa03408",
            "0x000000000000000000000000a6b3d200cd34ca14d7579dac8b054bf50a62c37c"
          ],
          "data": "0x0000000000000000000000000000000000000000000000000000005d581e4530",
          "blockHash": "0x463e4950e04bc68c78dab5a8b7f27978542e27f0d71a522870e8f97886098677",
          "blockNumber": "0x1870c62",
          "transactionHash": "0x29c0143b0f173180c54c974a62c48039d144f098755fd7a0ebd8c0c90c8456b3",
          "transactionIndex": "0x37",
          "logIndex": "0x17e",
          "removed": false
        }
      ],
      "logsBloom": "0x00000000001000000000000400010000000020008000000002000830000000000004000100008000000000000000000000000000040000000000000000000000020000000010000001000008000000000000000000900020000000000000000000000000000000000000000000000010000010000000000000000010000001000000000004000010000000000000000000000000000000000000000000000000000000000000000000000200004800000000000000000000000001400000000000000042001001000000000000000000000000000000000000000000000000000000000000000001004000000800000000000000000000000000001000000000",
      "type": "0x2",
      "transactionHash": "0x29c0143b0f173180c54c974a62c48039d144f098755fd7a0ebd8c0c90c8456b3",
      "transactionIndex": "0x37",
      "blockHash": "0x463e4950e04bc68c78dab5a8b7f27978542e27f0d71a522870e8f97886098677",
      "blockNumber": "0x1870c62",
      "gasUsed": "0x27c15",
      "effectiveGasPrice": "0xf0932",
      "from": "0xa6b3d200cd34ca14d7579dac8b054bf50a62c37c",
      "to": "0x8b5bcc363dde2614281ad875bad385e0a785d3b9",
      "contractAddress": null,
      "l1BaseFeeScalar": "0x44d",
      "l1BlobBaseFee": "0x1",
      "l1BlobBaseFeeScalar": "0xa118b",
      "l1Fee": "0x1189",
      "l1GasPrice": "0x563",
      "l1GasUsed": "0xb3e"
    }
  ],
  "libraries": [],
  "pending": [],
  "returns": {},
  "timestamp": 1747023783,
  "chain": 84532,
  "commit": "c98ea0d"
}