{
  "transactions": [
    {
      "hash": "0x9bfd5fcb958b78444aebe0d75e077bc2d2fded7071e8d31e81f20c6c2895d4f9",
      "transactionType": "CALL",
      "contractName": null,
      "contractAddress": "0xdcd12d26ae3e3e1985f8caec1548b29bd649567e",
      "function": "approve(address,uint256)",
      "arguments": [
        "0x8B5bcC363ddE2614281aD875bad385E0A785D3B9",
        "115792089237316195423570985008687907853269984665640564039457584007913129639935"
      ],
      "transaction": {
        "from": "0xa6b3d200cd34ca14d7579dac8b054bf50a62c37c",
        "to": "0xdcd12d26ae3e3e1985f8caec1548b29bd649567e",
        "gas": "0x96a4",
        "value": "0x0",
        "input": "0x095ea7b30000000000000000000000008b5bcc363dde2614281ad875bad385e0a785d3b9ffffffffffffffffffffffffffffffffffffffffffffffffffffffffffffffff",
        "nonce": "0x1f2",
        "chainId": "0x14a34"
      },
      "additionalContracts": [],
      "isFixedGasLimit": false
    },
    {
      "hash": "0x706258a35f6ec0a5080e481603ac25a9ddfc2cc8351bc9a3341104df980ad951",
      "transactionType": "CALL",
      "contractName": "PoolSwapTest",
      "contractAddress": "0x8b5bcc363dde2614281ad875bad385e0a785d3b9",
      "function": "swap((address,address,uint24,int24,address),(bool,int256,uint160),(bool,bool),bytes)",
      "arguments": [
        "(0x736830eBa7754e5b05242eca783Fd4b6BA6d77Ad, 0xDcD12D26aE3E3e1985F8cAeC1548B29bd649567E, 3000, 60, 0x2499b757519Bb317E80d9006761e4eaA7A468040)",
        "(false, -100000000, 1461446703485210103287273052203988822378723970341)",
        "(false, false)",
        "0x"
      ],
      "transaction": {
        "from": "0xa6b3d200cd34ca14d7579dac8b054bf50a62c37c",
        "to": "0x8b5bcc363dde2614281ad875bad385e0a785d3b9",
        "gas": "0x50040",
        "value": "0x0",
        "input": "0x2229d0b4000000000000000000000000736830eba7754e5b05242eca783fd4b6ba6d77ad000000000000000000000000dcd12d26ae3e3e1985f8caec1548b29bd649567e0000000000000000000000000000000000000000000000000000000000000bb8000000000000000000000000000000000000000000000000000000000000003c0000000000000000000000002499b757519bb317e80d9006761e4eaa7a4680400000000000000000000000000000000000000000000000000000000000000000fffffffffffffffffffffffffffffffffffffffffffffffffffffffffa0a1f00000000000000000000000000fffd8963efd1fc6a506488495d951d5263988d250000000000000000000000000000000000000000000000000000000000000000000000000000000000000000000000000000000000000000000000000000000000000000000000000000000000000000000000000000000000000000000001600000000000000000000000000000000000000000000000000000000000000000",
        "nonce": "0x1f3",
        "chainId": "0x14a34"
      },
      "additionalContracts": [],
      "isFixedGasLimit": false
    }
  ],
  "receipts": [
    {
      "status": "0x1",
      "cumulativeGasUsed": "0x18ae16e",
      "logs": [
        {
          "address": "0xdcd12d26ae3e3e1985f8caec1548b29bd649567e",
          "topics": [
            "0x8c5be1e5ebec7d5bd14f71427d1e84f3dd0314c0f7b2291e5b200ac8c7c3b925",
            "0x000000000000000000000000a6b3d200cd34ca14d7579dac8b054bf50a62c37c",
            "0x0000000000000000000000008b5bcc363dde2614281ad875bad385e0a785d3b9"
          ],
          "data": "0xffffffffffffffffffffffffffffffffffffffffffffffffffffffffffffffff",
          "blockHash": "0xd68179e3025e6f1f974cdbf03a26f6a04a105946a4eae635f8ff664c0caa6984",
          "blockNumber": "0x1876a79",
          "transactionHash": "0x9bfd5fcb958b78444aebe0d75e077bc2d2fded7071e8d31e81f20c6c2895d4f9",
          "transactionIndex": "0x27",
          "logIndex": "0x21b",
          "removed": false
        }
      ],
      "logsBloom": "0x00000000000000000000000400000000000000000000000002000010000000000004000000000000000000000000000000000000000000000000000000200000000000000000000000000000000000000000000000000000000000000000000000000000000000000000000000000000000000000002080000000000000000000000000000000000000000000000000000000000000000000000000000000100020000000000000000000000000000000000000000000000000000000000000000000040000000000000000000000000000000000000000000000000000000000010000000000000000000000000000000000000000000000000001000000000",
      "type": "0x2",
      "transactionHash": "0x9bfd5fcb958b78444aebe0d75e077bc2d2fded7071e8d31e81f20c6c2895d4f9",
      "transactionIndex": "0x27",
      "blockHash": "0xd68179e3025e6f1f974cdbf03a26f6a04a105946a4eae635f8ff664c0caa6984",
      "blockNumber": "0x1876a79",
      "gasUsed": "0x6701",
      "effectiveGasPrice": "0xf4414",
      "from": "0xa6b3d200cd34ca14d7579dac8b054bf50a62c37c",
      "to": "0xdcd12d26ae3e3e1985f8caec1548b29bd649567e",
      "contractAddress": null,
      "l1BaseFeeScalar": "0x44d",
      "l1BlobBaseFee": "0x1",
      "l1BlobBaseFeeScalar": "0xa118b",
      "l1Fee": "0x61",
      "l1GasPrice": "0x12",
      "l1GasUsed": "0x640"
    },
    {
      "status": "0x1",
      "cumulativeGasUsed": "0x18e4cd1",
      "logs": [
        {
          "address": "0x05e73354cfdd6745c338b50bcfdfa3aa6fa03408",
          "topics": [
            "0x40e9cecb9f5f1f1c5b9c97dec2917b7ee92e57ba5563708daca94dd84ad7112f",
            "0x4f18bff5011ef80327d814cdd03b23808be728d793d44c4efd3e635083c8c6bd",
            "0x0000000000000000000000008b5bcc363dde2614281ad875bad385e0a785d3b9"
          ],
          "data": "0x0000000000000000000000000000000000000000000000000000005d333962d0fffffffffffffffffffffffffffffffffffffffffffffffffffffffffa0a1f000000000000000000000000000000000000000000040a6a8a3b3b7d4c4bd0db7700000000000000000000000000000000000000000000000000001651dda27472fffffffffffffffffffffffffffffffffffffffffffffffffffffffffffebbdc0000000000000000000000000000000000000000000000000000000000000bb8",
          "blockHash": "0xd68179e3025e6f1f974cdbf03a26f6a04a105946a4eae635f8ff664c0caa6984",
          "blockNumber": "0x1876a79",
          "transactionHash": "0x706258a35f6ec0a5080e481603ac25a9ddfc2cc8351bc9a3341104df980ad951",
          "transactionIndex": "0x28",
          "logIndex": "0x21c",
          "removed": false
        },
        {
          "address": "0x2499b757519bb317e80d9006761e4eaa7a468040",
          "topics": [
            "0xe94fd6ffbea861e602dda2012df60a3e042352b8e6e2f2a987f05990c4287196"
          ],
          "data": "0x0000000000000000000000008b5bcc363dde2614281ad875bad385e0a785d3b94f18bff5011ef80327d814cdd03b23808be728d793d44c4efd3e635083c8c6bd",
          "blockHash": "0xd68179e3025e6f1f974cdbf03a26f6a04a105946a4eae635f8ff664c0caa6984",
          "blockNumber": "0x1876a79",
          "transactionHash": "0x706258a35f6ec0a5080e481603ac25a9ddfc2cc8351bc9a3341104df980ad951",
          "transactionIndex": "0x28",
          "logIndex": "0x21d",
          "removed": false
        },
        {
          "address": "0x2499b757519bb317e80d9006761e4eaa7a468040",
          "topics": [
            "0xb1ea69d247feed513ceedec202946186146dc8f88adde997c8f6dbdd61698ec8"
          ],
          "data": "0x4f18bff5011ef80327d814cdd03b23808be728d793d44c4efd3e635083c8c6bd0000000000000000000000000000000000000000000000000000000000000001",
          "blockHash": "0xd68179e3025e6f1f974cdbf03a26f6a04a105946a4eae635f8ff664c0caa6984",
          "blockNumber": "0x1876a79",
          "transactionHash": "0x706258a35f6ec0a5080e481603ac25a9ddfc2cc8351bc9a3341104df980ad951",
          "transactionIndex": "0x28",
          "logIndex": "0x21e",
          "removed": false
        },
        {
          "address": "0x2499b757519bb317e80d9006761e4eaa7a468040",
          "topics": [
            "0x9a8eb31960851ae244c135ec92d6f3a8955580cc40662ecdc9c786bc42722700"
          ],
          "data": "0x00000000000000000000000000000000000000000000000000000000682233d200000000000000000000000000000000000000000000000000000000682233a8000000000000000000000000000000000000000000000000000000000000001e0000000000000000000000000000000000000000000000000000000000000001",
          "blockHash": "0xd68179e3025e6f1f974cdbf03a26f6a04a105946a4eae635f8ff664c0caa6984",
          "blockNumber": "0x1876a79",
          "transactionHash": "0x706258a35f6ec0a5080e481603ac25a9ddfc2cc8351bc9a3341104df980ad951",
          "transactionIndex": "0x28",
          "logIndex": "0x21f",
          "removed": false
        },
        {
          "address": "0x00cc0a1f3e618dfb177c701781db39afd53ce7af",
          "topics": [
            "0x6c633f26d0fb1eb6a531e13c7f2a11a74ba1fc476f54ce9649ed9c0d502ba9cd"
          ],
          "data": "0x00000000000000000000000000000000000000000000000000000000000ff53a00000000000000000000000000000000000000000000000000000000000ff755",
          "blockHash": "0xd68179e3025e6f1f974cdbf03a26f6a04a105946a4eae635f8ff664c0caa6984",
          "blockNumber": "0x1876a79",
          "transactionHash": "0x706258a35f6ec0a5080e481603ac25a9ddfc2cc8351bc9a3341104df980ad951",
          "transactionIndex": "0x28",
          "logIndex": "0x220",
          "removed": false
        },
        {
          "address": "0x00cc0a1f3e618dfb177c701781db39afd53ce7af",
          "topics": [
            "0xf77ee0047b07d500bcb5dc409382d7f02612a6ea259f6bb70255b7511ce7e740"
          ],
          "data": "0x0000000000000000000000002499b757519bb317e80d9006761e4eaa7a4680400000000000000000000000000000000000000000000000000000000000000040000000000000000000000000000000000000000000000000000000000000000856434f502f434f50000000000000000000000000000000000000000000000000",
          "blockHash": "0xd68179e3025e6f1f974cdbf03a26f6a04a105946a4eae635f8ff664c0caa6984",
          "blockNumber": "0x1876a79",
          "transactionHash": "0x706258a35f6ec0a5080e481603ac25a9ddfc2cc8351bc9a3341104df980ad951",
          "transactionIndex": "0x28",
          "logIndex": "0x221",
          "removed": false
        },
        {
          "address": "0x00cc0a1f3e618dfb177c701781db39afd53ce7af",
          "topics": [
            "0x3f677077d8e6673cad47ce93ec074f228deefae585474297b54b1bf1dd46b287"
          ],
          "data": "0x0000000000000000000000002499b757519bb317e80d9006761e4eaa7a468040000000000000000000000000000000000000000000000000000000000000006000000000000000000000000000000000000000000000000000000000000ff755000000000000000000000000000000000000000000000000000000000000000856434f502f434f50000000000000000000000000000000000000000000000000",
          "blockHash": "0xd68179e3025e6f1f974cdbf03a26f6a04a105946a4eae635f8ff664c0caa6984",
          "blockNumber": "0x1876a79",
          "transactionHash": "0x706258a35f6ec0a5080e481603ac25a9ddfc2cc8351bc9a3341104df980ad951",
          "transactionIndex": "0x28",
          "logIndex": "0x222",
          "removed": false
        },
        {
          "address": "0x736830eba7754e5b05242eca783fd4b6ba6d77ad",
          "topics": [
            "0xf2771607920bd37d2d6f4c8518e7a4af63952de953ffbce440fcb2996a08ecc6"
          ],
          "data": "0x0000000000000000000000002499b757519bb317e80d9006761e4eaa7a46804000000000000000000000000000000000000000000000000000000000000ff755",
          "blockHash": "0xd68179e3025e6f1f974cdbf03a26f6a04a105946a4eae635f8ff664c0caa6984",
          "blockNumber": "0x1876a79",
          "transactionHash": "0x706258a35f6ec0a5080e481603ac25a9ddfc2cc8351bc9a3341104df980ad951",
          "transactionIndex": "0x28",
          "logIndex": "0x223",
          "removed": false
        },
        {
          "address": "0x736830eba7754e5b05242eca783fd4b6ba6d77ad",
          "topics": [
            "0x544a3996eeac82c4411bd7c38dbac1c4a08efdc08d081d76b38a0ff7751792a8"
          ],
          "data": "0x00000000000000000000000000000000000000000000000000000000000ff755000000000000000000000000000000000000000000000000000000000010059000000000000000000000000000000000000000000000000000000000000e7ef0",
          "blockHash": "0xd68179e3025e6f1f974cdbf03a26f6a04a105946a4eae635f8ff664c0caa6984",
          "blockNumber": "0x1876a79",
          "transactionHash": "0x706258a35f6ec0a5080e481603ac25a9ddfc2cc8351bc9a3341104df980ad951",
          "transactionIndex": "0x28",
          "logIndex": "0x224",
          "removed": false
        },
        {
          "address": "0x2499b757519bb317e80d9006761e4eaa7a468040",
          "topics": [
            "0x54f7dca807c3be86ecb9fe87d9d880e638b8c2b47050de03f7e9cb676afa7602"
          ],
          "data": "0x00000000000000000000000000000000000000000000000000000000000ff75500000000000000000000000000000000000000000000000000038d7ea4c68000",
          "blockHash": "0xd68179e3025e6f1f974cdbf03a26f6a04a105946a4eae635f8ff664c0caa6984",
          "blockNumber": "0x1876a79",
          "transactionHash": "0x706258a35f6ec0a5080e481603ac25a9ddfc2cc8351bc9a3341104df980ad951",
          "transactionIndex": "0x28",
          "logIndex": "0x225",
          "removed": false
        },
        {
          "address": "0xdcd12d26ae3e3e1985f8caec1548b29bd649567e",
          "topics": [
            "0xddf252ad1be2c89b69c2b068fc378daa952ba7f163c4a11628f55a4df523b3ef",
            "0x000000000000000000000000a6b3d200cd34ca14d7579dac8b054bf50a62c37c",
            "0x00000000000000000000000005e73354cfdd6745c338b50bcfdfa3aa6fa03408"
          ],
          "data": "0x0000000000000000000000000000000000000000000000000000000005f5e100",
          "blockHash": "0xd68179e3025e6f1f974cdbf03a26f6a04a105946a4eae635f8ff664c0caa6984",
          "blockNumber": "0x1876a79",
          "transactionHash": "0x706258a35f6ec0a5080e481603ac25a9ddfc2cc8351bc9a3341104df980ad951",
          "transactionIndex": "0x28",
          "logIndex": "0x226",
          "removed": false
        },
        {
          "address": "0x736830eba7754e5b05242eca783fd4b6ba6d77ad",
          "topics": [
            "0xddf252ad1be2c89b69c2b068fc378daa952ba7f163c4a11628f55a4df523b3ef",
            "0x00000000000000000000000005e73354cfdd6745c338b50bcfdfa3aa6fa03408",
            "0x000000000000000000000000a6b3d200cd34ca14d7579dac8b054bf50a62c37c"
          ],
          "data": "0x0000000000000000000000000000000000000000000000000000005d333962d0",
          "blockHash": "0xd68179e3025e6f1f974cdbf03a26f6a04a105946a4eae635f8ff664c0caa6984",
          "blockNumber": "0x1876a79",
          "transactionHash": "0x706258a35f6ec0a5080e481603ac25a9ddfc2cc8351bc9a3341104df980ad951",
          "transactionIndex": "0x28",
          "logIndex": "0x227",
          "removed": false
        }
      ],
      "logsBloom": "0x00000000000000000000808400010000000000000000000002000110000000000004000100000000000000000000000000000000040000000100000001000004000000000014400081000018200000000000000000900020000000000000000000600000000008000000000400000000000010000002080000000010000001000001000004000000000100000000000800000000000000000000000000000100000000000000000100000000000840000000000000000000000001400000000010800042021000000000020000000000000000003000000400010000040000000000000000000001004000000800000000000000000000000000001000000000",
      "type": "0x2",
      "transactionHash": "0x706258a35f6ec0a5080e481603ac25a9ddfc2cc8351bc9a3341104df980ad951",
      "transactionIndex": "0x28",
      "blockHash": "0xd68179e3025e6f1f974cdbf03a26f6a04a105946a4eae635f8ff664c0caa6984",
      "blockNumber": "0x1876a79",
      "gasUsed": "0x36b63",
      "effectiveGasPrice": "0xf4414",
      "from": "0xa6b3d200cd34ca14d7579dac8b054bf50a62c37c",
      "to": "0x8b5bcc363dde2614281ad875bad385e0a785d3b9",
      "contractAddress": null,
      "l1BaseFeeScalar": "0x44d",
      "l1BlobBaseFee": "0x1",
      "l1BlobBaseFeeScalar": "0xa118b",
      "l1Fee": "0xae",
      "l1GasPrice": "0x12",
      "l1GasUsed": "0xb31"
    }
  ],
  "libraries": [],
  "pending": [],
  "returns": {},
  "timestamp": 1747071956,
  "chain": 84532,
  "commit": "5feb4f2"
}