{
  "transactions": [
    {
      "hash": "0x64de7aafdbcac7d2da1b4f37a1691cb224cd928c85d7735b33e98064181368a0",
      "transactionType": "CALL",
      "contractName": null,
      "contractAddress": "0xe7a4113a8a497dd72d29f35e188eed7403e8b2e8",
      "function": "approve(address,uint256)",
      "arguments": [
        "0x8B5bcC363ddE2614281aD875bad385E0A785D3B9",
        "115792089237316195423570985008687907853269984665640564039457584007913129639935"
      ],
      "transaction": {
        "from": "0xa6b3d200cd34ca14d7579dac8b054bf50a62c37c",
        "to": "0xe7a4113a8a497dd72d29f35e188eed7403e8b2e8",
        "gas": "0x96a4",
        "value": "0x0",
        "input": "0x095ea7b30000000000000000000000008b5bcc363dde2614281ad875bad385e0a785d3b9ffffffffffffffffffffffffffffffffffffffffffffffffffffffffffffffff",
        "nonce": "0x71",
        "chainId": "0x14a34"
      },
      "additionalContracts": [],
      "isFixedGasLimit": false
    },
    {
      "hash": "0x8b28c53af9cf29b582424da686d33ca989d6712764308bd7828e4a97e64d038a",
      "transactionType": "CALL",
      "contractName": "PoolSwapTest",
      "contractAddress": "0x8b5bcc363dde2614281ad875bad385e0a785d3b9",
      "function": "swap((address,address,uint24,int24,address),(bool,int256,uint160),(bool,bool),bytes)",
      "arguments": [
        "(0xd16Ee99c7EA2B30c13c3dC298EADEE00B870BBCC, 0xE7a4113a8a497DD72D29F35E188eEd7403e8B2E8, 3000, 60, 0x866bf94370e8A7C9cDeAFb592C2ac62903e30040)",
        "(false, 1000000000, 1461446703485210103287273052203988822378723970341)",
        "(false, false)",
        "0x"
      ],
      "transaction": {
        "from": "0xa6b3d200cd34ca14d7579dac8b054bf50a62c37c",
        "to": "0x8b5bcc363dde2614281ad875bad385e0a785d3b9",
        "gas": "0x9339e",
        "value": "0x0",
        "input": "0x2229d0b4000000000000000000000000d16ee99c7ea2b30c13c3dc298eadee00b870bbcc000000000000000000000000e7a4113a8a497dd72d29f35e188eed7403e8b2e80000000000000000000000000000000000000000000000000000000000000bb8000000000000000000000000000000000000000000000000000000000000003c000000000000000000000000866bf94370e8a7c9cdeafb592c2ac62903e300400000000000000000000000000000000000000000000000000000000000000000000000000000000000000000000000000000000000000000000000003b9aca00000000000000000000000000fffd8963efd1fc6a506488495d951d5263988d250000000000000000000000000000000000000000000000000000000000000000000000000000000000000000000000000000000000000000000000000000000000000000000000000000000000000000000000000000000000000000000001600000000000000000000000000000000000000000000000000000000000000000",
        "nonce": "0x72",
        "chainId": "0x14a34"
      },
      "additionalContracts": [],
      "isFixedGasLimit": false
    }
  ],
  "receipts": [
    {
      "status": "0x1",
      "cumulativeGasUsed": "0x4c6933",
      "logs": [
        {
          "address": "0xe7a4113a8a497dd72d29f35e188eed7403e8b2e8",
          "topics": [
            "0x8c5be1e5ebec7d5bd14f71427d1e84f3dd0314c0f7b2291e5b200ac8c7c3b925",
            "0x000000000000000000000000a6b3d200cd34ca14d7579dac8b054bf50a62c37c",
            "0x0000000000000000000000008b5bcc363dde2614281ad875bad385e0a785d3b9"
          ],
          "data": "0xffffffffffffffffffffffffffffffffffffffffffffffffffffffffffffffff",
          "blockHash": "0x41cd341b5901ff3050c26bf2f2400c7a2f9299999dbd31b244b7551d93f8aa2d",
          "blockNumber": "0x186c862",
          "transactionHash": "0x64de7aafdbcac7d2da1b4f37a1691cb224cd928c85d7735b33e98064181368a0",
          "transactionIndex": "0xc",
          "logIndex": "0x35",
          "removed": false
        }
      ],
      "logsBloom": "0x00000000000000000000000400000000000000000000000002000010000000000004000000000000000000000000000000000000000000000000000000200000000000000000000000000000000000000000000000000000000000000000000000000000000000000000000000000000000000000000000000000000000000200000000000000000001000000000000000000000000000000000000000000000020000000000000000000000000000000000000000000000000000000000000000000040000000000000000000000000000000000000000000000000000000000010000000000000000000000000000000000000000000000000001000000040",
      "type": "0x0",
      "transactionHash": "0x64de7aafdbcac7d2da1b4f37a1691cb224cd928c85d7735b33e98064181368a0",
      "transactionIndex": "0xc",
      "blockHash": "0x41cd341b5901ff3050c26bf2f2400c7a2f9299999dbd31b244b7551d93f8aa2d",
      "blockNumber": "0x186c862",
      "gasUsed": "0x6701",
      "effectiveGasPrice": "0xf43bd",
      "from": "0xa6b3d200cd34ca14d7579dac8b054bf50a62c37c",
      "to": "0xe7a4113a8a497dd72d29f35e188eed7403e8b2e8",
      "contractAddress": null,
      "l1BaseFeeScalar": "0x44d",
      "l1BlobBaseFee": "0x1",
      "l1BlobBaseFeeScalar": "0xa118b",
      "l1Fee": "0x5c",
      "l1GasPrice": "0xf",
      "l1GasUsed": "0x640"
    },
    {
      "status": "0x1",
      "cumulativeGasUsed": "0x5312a1",
      "logs": [
        {
          "address": "0x05e73354cfdd6745c338b50bcfdfa3aa6fa03408",
          "topics": [
            "0x40e9cecb9f5f1f1c5b9c97dec2917b7ee92e57ba5563708daca94dd84ad7112f",
            "0x13a37c417a218478aaebb839a88a9a73df52cb93399077f2b73fc1b934f6963c",
            "0x0000000000000000000000008b5bcc363dde2614281ad875bad385e0a785d3b9"
          ],
          "data": "0x000000000000000000000000000000000000000000000000000000003b9aca00fffffffffffffffffffffffffffffffffffffffffffffffffffffffffffde850000000000000000000000000000000000000000002fe4e702e71ca26fc14c6010000000000000000000000000000000000000000000000000000023b62f6a53efffffffffffffffffffffffffffffffffffffffffffffffffffffffffffea46c0000000000000000000000000000000000000000000000000000000000000bb8",
          "blockHash": "0x41cd341b5901ff3050c26bf2f2400c7a2f9299999dbd31b244b7551d93f8aa2d",
          "blockNumber": "0x186c862",
          "transactionHash": "0x8b28c53af9cf29b582424da686d33ca989d6712764308bd7828e4a97e64d038a",
          "transactionIndex": "0xd",
          "logIndex": "0x36",
          "removed": false
        },
        {
          "address": "0xe7a4113a8a497dd72d29f35e188eed7403e8b2e8",
          "topics": [
            "0xddf252ad1be2c89b69c2b068fc378daa952ba7f163c4a11628f55a4df523b3ef",
            "0x000000000000000000000000a6b3d200cd34ca14d7579dac8b054bf50a62c37c",
            "0x00000000000000000000000005e73354cfdd6745c338b50bcfdfa3aa6fa03408"
          ],
          "data": "0x00000000000000000000000000000000000000000000000000000000000217b0",
          "blockHash": "0x41cd341b5901ff3050c26bf2f2400c7a2f9299999dbd31b244b7551d93f8aa2d",
          "blockNumber": "0x186c862",
          "transactionHash": "0x8b28c53af9cf29b582424da686d33ca989d6712764308bd7828e4a97e64d038a",
          "transactionIndex": "0xd",
          "logIndex": "0x37",
          "removed": false
        },
        {
          "address": "0xd16ee99c7ea2b30c13c3dc298eadee00b870bbcc",
          "topics": [
            "0xddf252ad1be2c89b69c2b068fc378daa952ba7f163c4a11628f55a4df523b3ef",
            "0x00000000000000000000000005e73354cfdd6745c338b50bcfdfa3aa6fa03408",
            "0x000000000000000000000000a6b3d200cd34ca14d7579dac8b054bf50a62c37c"
          ],
          "data": "0x000000000000000000000000000000000000000000000000000000003b9aca00",
          "blockHash": "0x41cd341b5901ff3050c26bf2f2400c7a2f9299999dbd31b244b7551d93f8aa2d",
          "blockNumber": "0x186c862",
          "transactionHash": "0x8b28c53af9cf29b582424da686d33ca989d6712764308bd7828e4a97e64d038a",
          "transactionIndex": "0xd",
          "logIndex": "0x38",
          "removed": false
        }
      ],
      "logsBloom": "0x00000000040000000000000400000000000000000000000002000010000000000004000100000000000000000000000000000000040000000000000000000000000000000010000000000008000000000000000000100020000000000000000000000000000000000000000000000000000000000080000000000010000010200000000004000000001000000000000000000000000000000000000000000000000004000000000000000000080000000000000000000000000000000000000000000042001000000000000000000000000000000000000000000000000000000000000000000000004000000800000000000000000000008000001000000040",
      "type": "0x0",
      "transactionHash": "0x8b28c53af9cf29b582424da686d33ca989d6712764308bd7828e4a97e64d038a",
      "transactionIndex": "0xd",
      "blockHash": "0x41cd341b5901ff3050c26bf2f2400c7a2f9299999dbd31b244b7551d93f8aa2d",
      "blockNumber": "0x186c862",
      "gasUsed": "0x6a96e",
      "effectiveGasPrice": "0xf43bd",
      "from": "0xa6b3d200cd34ca14d7579dac8b054bf50a62c37c",
      "to": "0x8b5bcc363dde2614281ad875bad385e0a785d3b9",
      "contractAddress": null,
      "l1BaseFeeScalar": "0x44d",
      "l1BlobBaseFee": "0x1",
      "l1BlobBaseFeeScalar": "0xa118b",
      "l1Fee": "0x9a",
      "l1GasPrice": "0xf",
      "l1GasUsed": "0xa76"
    }
  ],
  "libraries": [],
  "pending": [],
  "returns": {},
  "timestamp": 1746988965,
  "chain": 84532,
  "commit": "217be5c"
}