{
  "transactions": [
    {
      "hash": "0x598125ae15f6a8c5d0ff0c337343786aac942b79e8d0f52264ec70938cad4e43",
      "transactionType": "CALL",
      "contractName": null,
      "contractAddress": "0x736830eba7754e5b05242eca783fd4b6ba6d77ad",
      "function": "approve(address,uint256)",
      "arguments": [
        "0x8B5bcC363ddE2614281aD875bad385E0A785D3B9",
        "115792089237316195423570985008687907853269984665640564039457584007913129639935"
      ],
      "transaction": {
        "from": "0xa6b3d200cd34ca14d7579dac8b054bf50a62c37c",
        "to": "0x736830eba7754e5b05242eca783fd4b6ba6d77ad",
        "gas": "0xa680",
        "value": "0x0",
        "input": "0x095ea7b30000000000000000000000008b5bcc363dde2614281ad875bad385e0a785d3b9ffffffffffffffffffffffffffffffffffffffffffffffffffffffffffffffff",
        "nonce": "0x216",
        "chainId": "0x14a34"
      },
      "additionalContracts": [],
      "isFixedGasLimit": false
    },
    {
      "hash": "0x0cadccff8b91488b6308d63548512a88e26b6e0fe2918a572953c35b982d4924",
      "transactionType": "CALL",
      "contractName": "PoolSwapTest",
      "contractAddress": "0x8b5bcc363dde2614281ad875bad385e0a785d3b9",
      "function": "swap((address,address,uint24,int24,address),(bool,int256,uint160),(bool,bool),bytes)",
      "arguments": [
        "(0x736830eBa7754e5b05242eca783Fd4b6BA6d77Ad, 0xDcD12D26aE3E3e1985F8cAeC1548B29bd649567E, 3000, 60, 0x2499b757519Bb317E80d9006761e4eaA7A468040)",
        "(true, -4000000000000, 4295128740)",
        "(false, false)",
        "0x"
      ],
      "transaction": {
        "from": "0xa6b3d200cd34ca14d7579dac8b054bf50a62c37c",
        "to": "0x8b5bcc363dde2614281ad875bad385e0a785d3b9",
        "gas": "0x325d1",
        "value": "0x0",
        "input": "0x2229d0b4000000000000000000000000736830eba7754e5b05242eca783fd4b6ba6d77ad000000000000000000000000dcd12d26ae3e3e1985f8caec1548b29bd649567e0000000000000000000000000000000000000000000000000000000000000bb8000000000000000000000000000000000000000000000000000000000000003c0000000000000000000000002499b757519bb317e80d9006761e4eaa7a4680400000000000000000000000000000000000000000000000000000000000000001fffffffffffffffffffffffffffffffffffffffffffffffffffffc5cad6bc00000000000000000000000000000000000000000000000000000000001000276a40000000000000000000000000000000000000000000000000000000000000000000000000000000000000000000000000000000000000000000000000000000000000000000000000000000000000000000000000000000000000000000001600000000000000000000000000000000000000000000000000000000000000000",
        "nonce": "0x217",
        "chainId": "0x14a34"
      },
      "additionalContracts": [],
      "isFixedGasLimit": false
    }
  ],
  "receipts": [
    {
      "status": "0x1",
      "cumulativeGasUsed": "0x4de864",
      "logs": [
        {
          "address": "0x736830eba7754e5b05242eca783fd4b6ba6d77ad",
          "topics": [
            "0x8c5be1e5ebec7d5bd14f71427d1e84f3dd0314c0f7b2291e5b200ac8c7c3b925",
            "0x000000000000000000000000a6b3d200cd34ca14d7579dac8b054bf50a62c37c",
            "0x0000000000000000000000008b5bcc363dde2614281ad875bad385e0a785d3b9"
          ],
          "data": "0xffffffffffffffffffffffffffffffffffffffffffffffffffffffffffffffff",
          "blockHash": "0x71f2e0234a090b299a75d536390c8935ee55c30e2e88932d22db31b2560bd77c",
          "blockNumber": "0x1876cac",
          "transactionHash": "0x598125ae15f6a8c5d0ff0c337343786aac942b79e8d0f52264ec70938cad4e43",
          "transactionIndex": "0x23",
          "logIndex": "0x59",
          "removed": false
        }
      ],
      "logsBloom": "0x00000000000000000000000400000000000000000000000002000010000000000004000000000000000000000000000000000000000000000000000000200000000000000000000000000000000000000000000000000000000000000000000000200000000000000000000000000000000000000000000000000000000000000000000000000000000000000000000000000000000000000000000000000000020000000000000100000000000000000000000000000000000000000000000000000040020000000000000000000000000000000000000000000000000000000010000000000000000000000000000000000000000000000000001000000000",
      "type": "0x2",
      "transactionHash": "0x598125ae15f6a8c5d0ff0c337343786aac942b79e8d0f52264ec70938cad4e43",
      "transactionIndex": "0x23",
      "blockHash": "0x71f2e0234a090b299a75d536390c8935ee55c30e2e88932d22db31b2560bd77c",
      "blockNumber": "0x1876cac",
      "gasUsed": "0x71d9",
      "effectiveGasPrice": "0xeceb5",
      "from": "0xa6b3d200cd34ca14d7579dac8b054bf50a62c37c",
      "to": "0x736830eba7754e5b05242eca783fd4b6ba6d77ad",
      "contractAddress": null,
      "l1BaseFeeScalar": "0x44d",
      "l1BlobBaseFee": "0x1",
      "l1BlobBaseFeeScalar": "0xa118b",
      "l1Fee": "0x78",
      "l1GasPrice": "0x1f",
      "l1GasUsed": "0x640"
    },
    {
      "status": "0x1",
      "cumulativeGasUsed": "0x502fca",
      "logs": [
        {
          "address": "0x05e73354cfdd6745c338b50bcfdfa3aa6fa03408",
          "topics": [
            "0x40e9cecb9f5f1f1c5b9c97dec2917b7ee92e57ba5563708daca94dd84ad7112f",
            "0x4f18bff5011ef80327d814cdd03b23808be728d793d44c4efd3e635083c8c6bd",
            "0x0000000000000000000000008b5bcc363dde2614281ad875bad385e0a785d3b9"
          ],
          "data": "0xfffffffffffffffffffffffffffffffffffffffffffffffffffffc5cad6bc0000000000000000000000000000000000000000000000000000000000038201767000000000000000000000000000000000000000003edc5b018077fd166a4027e00000000000000000000000000000000000000000000000000001651dda27472fffffffffffffffffffffffffffffffffffffffffffffffffffffffffffeb9aa0000000000000000000000000000000000000000000000000000000000000bb8",
          "blockHash": "0x71f2e0234a090b299a75d536390c8935ee55c30e2e88932d22db31b2560bd77c",
          "blockNumber": "0x1876cac",
          "transactionHash": "0x0cadccff8b91488b6308d63548512a88e26b6e0fe2918a572953c35b982d4924",
          "transactionIndex": "0x24",
          "logIndex": "0x5a",
          "removed": false
        },
        {
          "address": "0x2499b757519bb317e80d9006761e4eaa7a468040",
          "topics": [
            "0xe94fd6ffbea861e602dda2012df60a3e042352b8e6e2f2a987f05990c4287196"
          ],
          "data": "0x0000000000000000000000008b5bcc363dde2614281ad875bad385e0a785d3b94f18bff5011ef80327d814cdd03b23808be728d793d44c4efd3e635083c8c6bd",
          "blockHash": "0x71f2e0234a090b299a75d536390c8935ee55c30e2e88932d22db31b2560bd77c",
          "blockNumber": "0x1876cac",
          "transactionHash": "0x0cadccff8b91488b6308d63548512a88e26b6e0fe2918a572953c35b982d4924",
          "transactionIndex": "0x24",
          "logIndex": "0x5b",
          "removed": false
        },
        {
          "address": "0x2499b757519bb317e80d9006761e4eaa7a468040",
          "topics": [
            "0xb1ea69d247feed513ceedec202946186146dc8f88adde997c8f6dbdd61698ec8"
          ],
          "data": "0x4f18bff5011ef80327d814cdd03b23808be728d793d44c4efd3e635083c8c6bd0000000000000000000000000000000000000000000000000000000000000001",
          "blockHash": "0x71f2e0234a090b299a75d536390c8935ee55c30e2e88932d22db31b2560bd77c",
          "blockNumber": "0x1876cac",
          "transactionHash": "0x0cadccff8b91488b6308d63548512a88e26b6e0fe2918a572953c35b982d4924",
          "transactionIndex": "0x24",
          "logIndex": "0x5c",
          "removed": false
        },
        {
          "address": "0x2499b757519bb317e80d9006761e4eaa7a468040",
          "topics": [
            "0x9a8eb31960851ae244c135ec92d6f3a8955580cc40662ecdc9c786bc42722700"
          ],
          "data": "0x00000000000000000000000000000000000000000000000000000000682238380000000000000000000000000000000000000000000000000000000068223820000000000000000000000000000000000000000000000000000000000000001e0000000000000000000000000000000000000000000000000000000000000000",
          "blockHash": "0x71f2e0234a090b299a75d536390c8935ee55c30e2e88932d22db31b2560bd77c",
          "blockNumber": "0x1876cac",
          "transactionHash": "0x0cadccff8b91488b6308d63548512a88e26b6e0fe2918a572953c35b982d4924",
          "transactionIndex": "0x24",
          "logIndex": "0x5d",
          "removed": false
        },
        {
          "address": "0x736830eba7754e5b05242eca783fd4b6ba6d77ad",
          "topics": [
            "0xddf252ad1be2c89b69c2b068fc378daa952ba7f163c4a11628f55a4df523b3ef",
            "0x000000000000000000000000a6b3d200cd34ca14d7579dac8b054bf50a62c37c",
            "0x00000000000000000000000005e73354cfdd6745c338b50bcfdfa3aa6fa03408"
          ],
          "data": "0x000000000000000000000000000000000000000000000000000003a352944000",
          "blockHash": "0x71f2e0234a090b299a75d536390c8935ee55c30e2e88932d22db31b2560bd77c",
          "blockNumber": "0x1876cac",
          "transactionHash": "0x0cadccff8b91488b6308d63548512a88e26b6e0fe2918a572953c35b982d4924",
          "transactionIndex": "0x24",
          "logIndex": "0x5e",
          "removed": false
        },
        {
          "address": "0xdcd12d26ae3e3e1985f8caec1548b29bd649567e",
          "topics": [
            "0xddf252ad1be2c89b69c2b068fc378daa952ba7f163c4a11628f55a4df523b3ef",
            "0x00000000000000000000000005e73354cfdd6745c338b50bcfdfa3aa6fa03408",
            "0x000000000000000000000000a6b3d200cd34ca14d7579dac8b054bf50a62c37c"
          ],
          "data": "0x0000000000000000000000000000000000000000000000000000000038201767",
          "blockHash": "0x71f2e0234a090b299a75d536390c8935ee55c30e2e88932d22db31b2560bd77c",
          "blockNumber": "0x1876cac",
          "transactionHash": "0x0cadccff8b91488b6308d63548512a88e26b6e0fe2918a572953c35b982d4924",
          "transactionIndex": "0x24",
          "logIndex": "0x5f",
          "removed": false
        }
      ],
      "logsBloom": "0x00000000000000000000000400010000000000000000000002000010000000000004000100000000000000000000000000000000040000000000000000000000000000000014000001000018200000000000000000900020000000000000000000200000000000000000000000000000000010000002080000000010000001000000000004000000000000000000000000000000000000000000000000000100000000000000000100000000000800000000000000000000000001400000000000800042021000000000000000000000000000002000000000000000040000000000000000000001004000000800000000000000000000000000001000000000",
      "type": "0x2",
      "transactionHash": "0x0cadccff8b91488b6308d63548512a88e26b6e0fe2918a572953c35b982d4924",
      "transactionIndex": "0x24",
      "blockHash": "0x71f2e0234a090b299a75d536390c8935ee55c30e2e88932d22db31b2560bd77c",
      "blockNumber": "0x1876cac",
      "gasUsed": "0x24766",
      "effectiveGasPrice": "0xeceb5",
      "from": "0xa6b3d200cd34ca14d7579dac8b054bf50a62c37c",
      "to": "0x8b5bcc363dde2614281ad875bad385e0a785d3b9",
      "contractAddress": null,
      "l1BaseFeeScalar": "0x44d",
      "l1BlobBaseFee": "0x1",
      "l1BlobBaseFeeScalar": "0xa118b",
      "l1Fee": "0xcc",
      "l1GasPrice": "0x1f",
      "l1GasUsed": "0xa9e"
    }
  ],
  "libraries": [],
  "pending": [],
  "returns": {},
  "timestamp": 1747073082,
  "chain": 84532,
  "commit": "5feb4f2"
}