{
  "transactions": [
    {
      "hash": "0x521eb838b35cc76f602e00dd20fa6177a9bfef9e7ae3d397d5d0688215890ec4",
      "transactionType": "CALL",
      "contractName": null,
      "contractAddress": "0xae919425e485c6101e391091350e3f0304749574",
      "function": "approve(address,uint256)",
      "arguments": [
        "0x8B5bcC363ddE2614281aD875bad385E0A785D3B9",
        "115792089237316195423570985008687907853269984665640564039457584007913129639935"
      ],
      "transaction": {
        "from": "0xa6b3d200cd34ca14d7579dac8b054bf50a62c37c",
        "to": "0xae919425e485c6101e391091350e3f0304749574",
        "gas": "0x96a4",
        "value": "0x0",
        "input": "0x095ea7b30000000000000000000000008b5bcc363dde2614281ad875bad385e0a785d3b9ffffffffffffffffffffffffffffffffffffffffffffffffffffffffffffffff",
        "nonce": "0xb9",
        "chainId": "0x14a34"
      },
      "additionalContracts": [],
      "isFixedGasLimit": false
    },
    {
      "hash": "0x1a681928426e98eed900d6e0428e12a87c6033805422420b994b0adc29f59985",
      "transactionType": "CALL",
      "contractName": "PoolSwapTest",
      "contractAddress": "0x8b5bcc363dde2614281ad875bad385e0a785d3b9",
      "function": "swap((address,address,uint24,int24,address),(bool,int256,uint160),(bool,bool),bytes)",
      "arguments": [
        "(0x70370F8507f0c40D5Ed3222F669B0727FFF8C12c, 0xAE919425E485C6101E391091350E3f0304749574, 3000, 60, 0x1E70FbbF7A9ADcD550BaeE80E58B244EcdFF0040)",
        "(false, -100000000, 1461446703485210103287273052203988822378723970341)",
        "(false, false)",
        "0x"
      ],
      "transaction": {
        "from": "0xa6b3d200cd34ca14d7579dac8b054bf50a62c37c",
        "to": "0x8b5bcc363dde2614281ad875bad385e0a785d3b9",
        "gas": "0x3d9d1",
        "value": "0x0",
        "input": "0x2229d0b400000000000000000000000070370f8507f0c40d5ed3222f669b0727fff8c12c000000000000000000000000ae919425e485c6101e391091350e3f03047495740000000000000000000000000000000000000000000000000000000000000bb8000000000000000000000000000000000000000000000000000000000000003c0000000000000000000000001e70fbbf7a9adcd550baee80e58b244ecdff00400000000000000000000000000000000000000000000000000000000000000000fffffffffffffffffffffffffffffffffffffffffffffffffffffffffa0a1f00000000000000000000000000fffd8963efd1fc6a506488495d951d5263988d250000000000000000000000000000000000000000000000000000000000000000000000000000000000000000000000000000000000000000000000000000000000000000000000000000000000000000000000000000000000000000000001600000000000000000000000000000000000000000000000000000000000000000",
        "nonce": "0xba",
        "chainId": "0x14a34"
      },
      "additionalContracts": [],
      "isFixedGasLimit": false
    }
  ],
  "receipts": [
    {
      "status": "0x1",
      "cumulativeGasUsed": "0x16e612",
      "logs": [
        {
          "address": "0xae919425e485c6101e391091350e3f0304749574",
          "topics": [
            "0x8c5be1e5ebec7d5bd14f71427d1e84f3dd0314c0f7b2291e5b200ac8c7c3b925",
            "0x000000000000000000000000a6b3d200cd34ca14d7579dac8b054bf50a62c37c",
            "0x0000000000000000000000008b5bcc363dde2614281ad875bad385e0a785d3b9"
          ],
          "data": "0xffffffffffffffffffffffffffffffffffffffffffffffffffffffffffffffff",
          "blockHash": "0xbdec55db693f304bc2963688e14c3f5c2208444fcedfae7dcd00c271a713664b",
          "blockNumber": "0x186e969",
          "transactionHash": "0x521eb838b35cc76f602e00dd20fa6177a9bfef9e7ae3d397d5d0688215890ec4",
          "transactionIndex": "0xe",
          "logIndex": "0x35",
          "removed": false
        }
      ],
      "logsBloom": "0x00000000000000000000000400000000000000000000000002000010000000000004000000000000000000080000000000000000000000000000000000200000000000000000000000000000000000000000000000000000000000000020000000000000000000000000000000000000000000000000000000000000000000000000000000000000000000000000000000000000000000000000000000000000020000000000000000000000000000000000000000000000000000000000000000000040000000000000000000001000000000000000000000000000000000000010000000000000000000000000000000000000000000000000001000000000",
      "type": "0x0",
      "transactionHash": "0x521eb838b35cc76f602e00dd20fa6177a9bfef9e7ae3d397d5d0688215890ec4",
      "transactionIndex": "0xe",
      "blockHash": "0xbdec55db693f304bc2963688e14c3f5c2208444fcedfae7dcd00c271a713664b",
      "blockNumber": "0x186e969",
      "gasUsed": "0x6701",
      "effectiveGasPrice": "0xf43ba",
      "from": "0xa6b3d200cd34ca14d7579dac8b054bf50a62c37c",
      "to": "0xae919425e485c6101e391091350e3f0304749574",
      "contractAddress": null,
      "l1BaseFeeScalar": "0x44d",
      "l1BlobBaseFee": "0x1",
      "l1BlobBaseFeeScalar": "0xa118b",
      "l1Fee": "0x58",
      "l1GasPrice": "0xd",
      "l1GasUsed": "0x640"
    },
    {
      "status": "0x1",
      "cumulativeGasUsed": "0x19afc9",
      "logs": [
        {
          "address": "0x05e73354cfdd6745c338b50bcfdfa3aa6fa03408",
          "topics": [
            "0x40e9cecb9f5f1f1c5b9c97dec2917b7ee92e57ba5563708daca94dd84ad7112f",
            "0x94a20c4e65670f35fc98fcf073c50246eaed79a9f1e8e5765e9c6b53dc9f95c6",
            "0x0000000000000000000000008b5bcc363dde2614281ad875bad385e0a785d3b9"
          ],
          "data": "0x0000000000000000000000000000000000000000000000000000005a62ed7c62fffffffffffffffffffffffffffffffffffffffffffffffffffffffffa0a1f000000000000000000000000000000000000000000041a64192c0f6a99d43373e300000000000000000000000000000000000000000000000000001651dda27472fffffffffffffffffffffffffffffffffffffffffffffffffffffffffffebd0f0000000000000000000000000000000000000000000000000000000000000bb8",
          "blockHash": "0xbdec55db693f304bc2963688e14c3f5c2208444fcedfae7dcd00c271a713664b",
          "blockNumber": "0x186e969",
          "transactionHash": "0x1a681928426e98eed900d6e0428e12a87c6033805422420b994b0adc29f59985",
          "transactionIndex": "0xf",
          "logIndex": "0x36",
          "removed": false
        },
        {
          "address": "0x1e70fbbf7a9adcd550baee80e58b244ecdff0040",
          "topics": [
            "0xe94fd6ffbea861e602dda2012df60a3e042352b8e6e2f2a987f05990c4287196"
          ],
          "data": "0x0000000000000000000000008b5bcc363dde2614281ad875bad385e0a785d3b994a20c4e65670f35fc98fcf073c50246eaed79a9f1e8e5765e9c6b53dc9f95c6",
          "blockHash": "0xbdec55db693f304bc2963688e14c3f5c2208444fcedfae7dcd00c271a713664b",
          "blockNumber": "0x186e969",
          "transactionHash": "0x1a681928426e98eed900d6e0428e12a87c6033805422420b994b0adc29f59985",
          "transactionIndex": "0xf",
          "logIndex": "0x37",
          "removed": false
        },
        {
          "address": "0x1e70fbbf7a9adcd550baee80e58b244ecdff0040",
          "topics": [
            "0xb1ea69d247feed513ceedec202946186146dc8f88adde997c8f6dbdd61698ec8"
          ],
          "data": "0x94a20c4e65670f35fc98fcf073c50246eaed79a9f1e8e5765e9c6b53dc9f95c60000000000000000000000000000000000000000000000000000000000000001",
          "blockHash": "0xbdec55db693f304bc2963688e14c3f5c2208444fcedfae7dcd00c271a713664b",
          "blockNumber": "0x186e969",
          "transactionHash": "0x1a681928426e98eed900d6e0428e12a87c6033805422420b994b0adc29f59985",
          "transactionIndex": "0xf",
          "logIndex": "0x38",
          "removed": false
        },
        {
          "address": "0x1e70fbbf7a9adcd550baee80e58b244ecdff0040",
          "topics": [
            "0x9a8eb31960851ae244c135ec92d6f3a8955580cc40662ecdc9c786bc42722700"
          ],
          "data": "0x00000000000000000000000000000000000000000000000000000000682131b2000000000000000000000000000000000000000000000000000000006821315e000000000000000000000000000000000000000000000000000000000000001e0000000000000000000000000000000000000000000000000000000000000001",
          "blockHash": "0xbdec55db693f304bc2963688e14c3f5c2208444fcedfae7dcd00c271a713664b",
          "blockNumber": "0x186e969",
          "transactionHash": "0x1a681928426e98eed900d6e0428e12a87c6033805422420b994b0adc29f59985",
          "transactionIndex": "0xf",
          "logIndex": "0x39",
          "removed": false
        },
        {
          "address": "0x94a6787725b17fa278b622de17949bc146e80fc5",
          "topics": [
            "0xf77ee0047b07d500bcb5dc409382d7f02612a6ea259f6bb70255b7511ce7e740"
          ],
          "data": "0x0000000000000000000000001e70fbbf7a9adcd550baee80e58b244ecdff00400000000000000000000000000000000000000000000000000000000000000040000000000000000000000000000000000000000000000000000000000000000856434f502f434f50000000000000000000000000000000000000000000000000",
          "blockHash": "0xbdec55db693f304bc2963688e14c3f5c2208444fcedfae7dcd00c271a713664b",
          "blockNumber": "0x186e969",
          "transactionHash": "0x1a681928426e98eed900d6e0428e12a87c6033805422420b994b0adc29f59985",
          "transactionIndex": "0xf",
          "logIndex": "0x3a",
          "removed": false
        },
        {
          "address": "0x94a6787725b17fa278b622de17949bc146e80fc5",
          "topics": [
            "0x3f677077d8e6673cad47ce93ec074f228deefae585474297b54b1bf1dd46b287"
          ],
          "data": "0x0000000000000000000000001e70fbbf7a9adcd550baee80e58b244ecdff0040000000000000000000000000000000000000000000000000000000000000006000000000000000000000000000000000000000000000000000000000000f4240000000000000000000000000000000000000000000000000000000000000000856434f502f434f50000000000000000000000000000000000000000000000000",
          "blockHash": "0xbdec55db693f304bc2963688e14c3f5c2208444fcedfae7dcd00c271a713664b",
          "blockNumber": "0x186e969",
          "transactionHash": "0x1a681928426e98eed900d6e0428e12a87c6033805422420b994b0adc29f59985",
          "transactionIndex": "0xf",
          "logIndex": "0x3b",
          "removed": false
        },
        {
          "address": "0x70370f8507f0c40d5ed3222f669b0727fff8c12c",
          "topics": [
            "0xf2771607920bd37d2d6f4c8518e7a4af63952de953ffbce440fcb2996a08ecc6"
          ],
          "data": "0x0000000000000000000000001e70fbbf7a9adcd550baee80e58b244ecdff004000000000000000000000000000000000000000000000000000000000000f4240",
          "blockHash": "0xbdec55db693f304bc2963688e14c3f5c2208444fcedfae7dcd00c271a713664b",
          "blockNumber": "0x186e969",
          "transactionHash": "0x1a681928426e98eed900d6e0428e12a87c6033805422420b994b0adc29f59985",
          "transactionIndex": "0xf",
          "logIndex": "0x3c",
          "removed": false
        },
        {
          "address": "0x70370f8507f0c40d5ed3222f669b0727fff8c12c",
          "topics": [
            "0x544a3996eeac82c4411bd7c38dbac1c4a08efdc08d081d76b38a0ff7751792a8"
          ],
          "data": "0x00000000000000000000000000000000000000000000000000000000000f4240000000000000000000000000000000000000000000000000000000000010059000000000000000000000000000000000000000000000000000000000000e7ef0",
          "blockHash": "0xbdec55db693f304bc2963688e14c3f5c2208444fcedfae7dcd00c271a713664b",
          "blockNumber": "0x186e969",
          "transactionHash": "0x1a681928426e98eed900d6e0428e12a87c6033805422420b994b0adc29f59985",
          "transactionIndex": "0xf",
          "logIndex": "0x3d",
          "removed": false
        },
        {
          "address": "0x1e70fbbf7a9adcd550baee80e58b244ecdff0040",
          "topics": [
            "0x54f7dca807c3be86ecb9fe87d9d880e638b8c2b47050de03f7e9cb676afa7602"
          ],
          "data": "0x00000000000000000000000000000000000000000000000000000000000f424000000000000000000000000000000000000000000000000000038d7ea4c68000",
          "blockHash": "0xbdec55db693f304bc2963688e14c3f5c2208444fcedfae7dcd00c271a713664b",
          "blockNumber": "0x186e969",
          "transactionHash": "0x1a681928426e98eed900d6e0428e12a87c6033805422420b994b0adc29f59985",
          "transactionIndex": "0xf",
          "logIndex": "0x3e",
          "removed": false
        },
        {
          "address": "0xae919425e485c6101e391091350e3f0304749574",
          "topics": [
            "0xddf252ad1be2c89b69c2b068fc378daa952ba7f163c4a11628f55a4df523b3ef",
            "0x000000000000000000000000a6b3d200cd34ca14d7579dac8b054bf50a62c37c",
            "0x00000000000000000000000005e73354cfdd6745c338b50bcfdfa3aa6fa03408"
          ],
          "data": "0x0000000000000000000000000000000000000000000000000000000005f5e100",
          "blockHash": "0xbdec55db693f304bc2963688e14c3f5c2208444fcedfae7dcd00c271a713664b",
          "blockNumber": "0x186e969",
          "transactionHash": "0x1a681928426e98eed900d6e0428e12a87c6033805422420b994b0adc29f59985",
          "transactionIndex": "0xf",
          "logIndex": "0x3f",
          "removed": false
        },
        {
          "address": "0x70370f8507f0c40d5ed3222f669b0727fff8c12c",
          "topics": [
            "0xddf252ad1be2c89b69c2b068fc378daa952ba7f163c4a11628f55a4df523b3ef",
            "0x00000000000000000000000005e73354cfdd6745c338b50bcfdfa3aa6fa03408",
            "0x000000000000000000000000a6b3d200cd34ca14d7579dac8b054bf50a62c37c"
          ],
          "data": "0x0000000000000000000000000000000000000000000000000000005a62ed7c62",
          "blockHash": "0xbdec55db693f304bc2963688e14c3f5c2208444fcedfae7dcd00c271a713664b",
          "blockNumber": "0x186e969",
          "transactionHash": "0x1a681928426e98eed900d6e0428e12a87c6033805422420b994b0adc29f59985",
          "transactionIndex": "0xf",
          "logIndex": "0x40",
          "removed": false
        }
      ],
      "logsBloom": "0x000000000000000000028084000100000000000000000000020001100000000000040001080000000000000a0000000000000000040000000100000000000004000000000010600081000008000000002000000000900020000000000020000000000000000000000000000400000000000010000000000000000010000003000001000004000000000000000000000800000000000080000000000000000000000000080000000000000000000840000000000000000000000001400000000010000042001000010000000000001200000000000000000400010000000000000000000000000201004000000800000000000800000000000000001000000000",
      "type": "0x0",
      "transactionHash": "0x1a681928426e98eed900d6e0428e12a87c6033805422420b994b0adc29f59985",
      "transactionIndex": "0xf",
      "blockHash": "0xbdec55db693f304bc2963688e14c3f5c2208444fcedfae7dcd00c271a713664b",
      "blockNumber": "0x186e969",
      "gasUsed": "0x2c9b7",
      "effectiveGasPrice": "0xf43ba",
      "from": "0xa6b3d200cd34ca14d7579dac8b054bf50a62c37c",
      "to": "0x8b5bcc363dde2614281ad875bad385e0a785d3b9",
      "contractAddress": null,
      "l1BaseFeeScalar": "0x44d",
      "l1BlobBaseFee": "0x1",
      "l1BlobBaseFeeScalar": "0xa118b",
      "l1Fee": "0x99",
      "l1GasPrice": "0xd",
      "l1GasUsed": "0xac6"
    }
  ],
  "libraries": [],
  "pending": [],
  "returns": {},
  "timestamp": 1747005876,
  "chain": 84532,
  "commit": "39b00b6"
}