{
  "transactions": [
    {
      "hash": "0x37a0c4c21f303625ea62dc5ac1bfbb037082f5130dd4dc0f6c19df1ba0f394c2",
      "transactionType": "CALL",
      "contractName": null,
      "contractAddress": "0x5405e3a584014c8659ba10591c1b7d55cb1cfc0d",
      "function": "approve(address,uint256)",
      "arguments": [
        "0x8f17E2128a4F917ec4147c15FC90bADd79E7F090",
        "115792089237316195423570985008687907853269984665640564039457584007913129639935"
      ],
      "transaction": {
        "from": "0xa6b3d200cd34ca14d7579dac8b054bf50a62c37c",
        "to": "0x5405e3a584014c8659ba10591c1b7d55cb1cfc0d",
        "gas": "0xf9a4",
        "value": "0x0",
        "input": "0x095ea7b30000000000000000000000008f17e2128a4f917ec4147c15fc90badd79e7f090ffffffffffffffffffffffffffffffffffffffffffffffffffffffffffffffff",
        "nonce": "0x589",
        "chainId": "0x14a34"
      },
      "additionalContracts": [],
      "isFixedGasLimit": false
    },
    {
      "hash": "0x42f6be5a9c8e5b3d84953261504d72ba41a05bdfeef4ecc6a3ae04c5284d7e52",
      "transactionType": "CALL",
      "contractName": "VCOPCollateralManager",
      "contractAddress": "0x8f17e2128a4f917ec4147c15fc90badd79e7f090",
      "function": "createPosition(address,uint256,uint256)",
      "arguments": [
        "0x5405e3a584014c8659BA10591c1b7D55cB1cFc0d",
        "1000000000",
        "2240000000000"
      ],
      "transaction": {
        "from": "0xa6b3d200cd34ca14d7579dac8b054bf50a62c37c",
        "to": "0x8f17e2128a4f917ec4147c15fc90badd79e7f090",
        "gas": "0x37ebd",
        "value": "0x0",
        "input": "0x75a08cce0000000000000000000000005405e3a584014c8659ba10591c1b7d55cb1cfc0d000000000000000000000000000000000000000000000000000000003b9aca00000000000000000000000000000000000000000000000000000002098a678000",
        "nonce": "0x58a",
        "chainId": "0x14a34"
      },
      "additionalContracts": [],
      "isFixedGasLimit": false
    },
    {
      "hash": "0xc23d0f493dad50b8af8675fe7f5300292dc2e8948070792f09778afdfdf565c0",
      "transactionType": "CALL",
      "contractName": "VCOPCollateralManager",
      "contractAddress": "0x8f17e2128a4f917ec4147c15fc90badd79e7f090",
      "function": "addCollateral(uint256,uint256)",
      "arguments": [
        "17",
        "500000000"
      ],
      "transaction": {
        "from": "0xa6b3d200cd34ca14d7579dac8b054bf50a62c37c",
        "to": "0x8f17e2128a4f917ec4147c15fc90badd79e7f090",
        "gas": "0x119f3",
        "value": "0x0",
        "input": "0xa8f35adf0000000000000000000000000000000000000000000000000000000000000011000000000000000000000000000000000000000000000000000000001dcd6500",
        "nonce": "0x58b",
        "chainId": "0x14a34"
      },
      "additionalContracts": [],
      "isFixedGasLimit": false
    },
    {
      "hash": "0x3ed8baf44365d8d756184e33eae29c95ae9c26fb33ca241d98343496c5bf971e",
      "transactionType": "CALL",
      "contractName": "VCOPCollateralManager",
      "contractAddress": "0x8f17e2128a4f917ec4147c15fc90badd79e7f090",
      "function": "withdrawCollateral(uint256,uint256)",
      "arguments": [
        "17",
        "125000000"
      ],
      "transaction": {
        "from": "0xa6b3d200cd34ca14d7579dac8b054bf50a62c37c",
        "to": "0x8f17e2128a4f917ec4147c15fc90badd79e7f090",
        "gas": "0x1863a",
        "value": "0x0",
        "input": "0x767a7b0500000000000000000000000000000000000000000000000000000000000000110000000000000000000000000000000000000000000000000000000007735940",
        "nonce": "0x58c",
        "chainId": "0x14a34"
      },
      "additionalContracts": [],
      "isFixedGasLimit": false
    },
    {
      "hash": "0x83e26bad076eb7cb3ad6af891c44d2a8ad60b5e91d8b4638a4bab19b302b7179",
      "transactionType": "CALL",
      "contractName": "VCOPCollateralized",
      "contractAddress": "0x3d384beb1ba0197e6a87668e1d68267164c8b776",
      "function": "approve(address,uint256)",
      "arguments": [
        "0x8f17E2128a4F917ec4147c15FC90bADd79E7F090",
        "672000000000"
      ],
      "transaction": {
        "from": "0xa6b3d200cd34ca14d7579dac8b054bf50a62c37c",
        "to": "0x3d384beb1ba0197e6a87668e1d68267164c8b776",
        "gas": "0x9baf",
        "value": "0x0",
        "input": "0x095ea7b30000000000000000000000008f17e2128a4f917ec4147c15fc90badd79e7f0900000000000000000000000000000000000000000000000000000009c76524000",
        "nonce": "0x58d",
        "chainId": "0x14a34"
      },
      "additionalContracts": [],
      "isFixedGasLimit": false
    },
    {
      "hash": "0x24c906344d43cb6957362f5b0500af35f4b3a851d3d7427826959b6f8215dad6",
      "transactionType": "CALL",
      "contractName": "VCOPCollateralManager",
      "contractAddress": "0x8f17e2128a4f917ec4147c15fc90badd79e7f090",
      "function": "repayDebt(uint256,uint256)",
      "arguments": [
        "17",
        "672000000000"
      ],
      "transaction": {
        "from": "0xa6b3d200cd34ca14d7579dac8b054bf50a62c37c",
        "to": "0x8f17e2128a4f917ec4147c15fc90badd79e7f090",
        "gas": "0x18a4b",
        "value": "0x0",
        "input": "0x015cb0a500000000000000000000000000000000000000000000000000000000000000110000000000000000000000000000000000000000000000000000009c76524000",
        "nonce": "0x58e",
        "chainId": "0x14a34"
      },
      "additionalContracts": [],
      "isFixedGasLimit": false
    },
    {
      "hash": "0x530d9728386eb2f86608f496b62d83c172dc240f715e1b8b412f9de24e683423",
      "transactionType": "CALL",
      "contractName": "VCOPCollateralized",
      "contractAddress": "0x3d384beb1ba0197e6a87668e1d68267164c8b776",
      "function": "approve(address,uint256)",
      "arguments": [
        "0x8f17E2128a4F917ec4147c15FC90bADd79E7F090",
        "1568000000000"
      ],
      "transaction": {
        "from": "0xa6b3d200cd34ca14d7579dac8b054bf50a62c37c",
        "to": "0x3d384beb1ba0197e6a87668e1d68267164c8b776",
        "gas": "0xa4e9",
        "value": "0x0",
        "input": "0x095ea7b30000000000000000000000008f17e2128a4f917ec4147c15fc90badd79e7f0900000000000000000000000000000000000000000000000000000016d14154000",
        "nonce": "0x58f",
        "chainId": "0x14a34"
      },
      "additionalContracts": [],
      "isFixedGasLimit": false
    },
    {
      "hash": "0x197f57a36b1650aeff266fe7d6931322dcb33ca92a5c1545a6a55557e7fef9f6",
      "transactionType": "CALL",
      "contractName": "VCOPCollateralManager",
      "contractAddress": "0x8f17e2128a4f917ec4147c15fc90badd79e7f090",
      "function": "repayDebt(uint256,uint256)",
      "arguments": [
        "17",
        "1568000000000"
      ],
      "transaction": {
        "from": "0xa6b3d200cd34ca14d7579dac8b054bf50a62c37c",
        "to": "0x8f17e2128a4f917ec4147c15fc90badd79e7f090",
        "gas": "0x1e0c1",
        "value": "0x0",
        "input": "0x015cb0a500000000000000000000000000000000000000000000000000000000000000110000000000000000000000000000000000000000000000000000016d14154000",
        "nonce": "0x590",
        "chainId": "0x14a34"
      },
      "additionalContracts": [],
      "isFixedGasLimit": false
    }
  ],
  "receipts": [
    {
      "status": "0x1",
      "cumulativeGasUsed": "0x1068d97",
      "logs": [
        {
          "address": "0x5405e3a584014c8659ba10591c1b7d55cb1cfc0d",
          "topics": [
            "0x8c5be1e5ebec7d5bd14f71427d1e84f3dd0314c0f7b2291e5b200ac8c7c3b925",
            "0x000000000000000000000000a6b3d200cd34ca14d7579dac8b054bf50a62c37c",
            "0x0000000000000000000000008f17e2128a4f917ec4147c15fc90badd79e7f090"
          ],
          "data": "0xffffffffffffffffffffffffffffffffffffffffffffffffffffffffffffffff",
          "blockHash": "0xbc67efb1a3cfa34e740dee6f7c8b18c33539700e8b651cb9f830e68efcc73bb0",
          "blockNumber": "0x18a2217",
          "transactionHash": "0x37a0c4c21f303625ea62dc5ac1bfbb037082f5130dd4dc0f6c19df1ba0f394c2",
          "transactionIndex": "0x12",
          "logIndex": "0xbd",
          "removed": false
        }
      ],
      "logsBloom": "0x00000000000000000000000404000000000000000000000002000000000000000000080000000000000000000000000000000000000000000000000000200020000000000000000000000000000000000000000000000000000000000000000000000000000000000000000000000000000000000000000000000000000000000000000000000000000000000000000000000000000000000000000000000000020000000000000000000000000008000000000000000000000000000000000000000040000000000000000000000000000000000000000000000000000000000011000000000000000000000000000000000000000000000000800000000000",
      "type": "0x2",
      "transactionHash": "0x37a0c4c21f303625ea62dc5ac1bfbb037082f5130dd4dc0f6c19df1ba0f394c2",
      "transactionIndex": "0x12",
      "blockHash": "0xbc67efb1a3cfa34e740dee6f7c8b18c33539700e8b651cb9f830e68efcc73bb0",
      "blockNumber": "0x18a2217",
      "gasUsed": "0xb4bd",
      "effectiveGasPrice": "0xece8a",
      "from": "0xa6b3d200cd34ca14d7579dac8b054bf50a62c37c",
      "to": "0x5405e3a584014c8659ba10591c1b7d55cb1cfc0d",
      "contractAddress": null,
      "l1BaseFeeScalar": "0x44d",
      "l1BlobBaseFee": "0x3b8d",
      "l1BlobBaseFeeScalar": "0xa118b",
      "l1Fee": "0x14eaa9db8",
      "l1GasPrice": "0xbdf1d522",
      "l1GasUsed": "0x640"
    },
    {
      "status": "0x1",
      "cumulativeGasUsed": "0x109155e",
      "logs": [
        {
          "address": "0x5405e3a584014c8659ba10591c1b7d55cb1cfc0d",
          "topics": [
            "0xddf252ad1be2c89b69c2b068fc378daa952ba7f163c4a11628f55a4df523b3ef",
            "0x000000000000000000000000a6b3d200cd34ca14d7579dac8b054bf50a62c37c",
            "0x0000000000000000000000008f17e2128a4f917ec4147c15fc90badd79e7f090"
          ],
          "data": "0x000000000000000000000000000000000000000000000000000000003b9aca00",
          "blockHash": "0xbc67efb1a3cfa34e740dee6f7c8b18c33539700e8b651cb9f830e68efcc73bb0",
          "blockNumber": "0x18a2217",
          "transactionHash": "0x42f6be5a9c8e5b3d84953261504d72ba41a05bdfeef4ecc6a3ae04c5284d7e52",
          "transactionIndex": "0x13",
          "logIndex": "0xbe",
          "removed": false
        },
        {
          "address": "0x3d384beb1ba0197e6a87668e1d68267164c8b776",
          "topics": [
            "0xddf252ad1be2c89b69c2b068fc378daa952ba7f163c4a11628f55a4df523b3ef",
            "0x0000000000000000000000000000000000000000000000000000000000000000",
            "0x000000000000000000000000a6b3d200cd34ca14d7579dac8b054bf50a62c37c"
          ],
          "data": "0x0000000000000000000000000000000000000000000000000000020904e3d000",
          "blockHash": "0xbc67efb1a3cfa34e740dee6f7c8b18c33539700e8b651cb9f830e68efcc73bb0",
          "blockNumber": "0x18a2217",
          "transactionHash": "0x42f6be5a9c8e5b3d84953261504d72ba41a05bdfeef4ecc6a3ae04c5284d7e52",
          "transactionIndex": "0x13",
          "logIndex": "0xbf",
          "removed": false
        },
        {
          "address": "0x3d384beb1ba0197e6a87668e1d68267164c8b776",
          "topics": [
            "0xddf252ad1be2c89b69c2b068fc378daa952ba7f163c4a11628f55a4df523b3ef",
            "0x0000000000000000000000000000000000000000000000000000000000000000",
            "0x000000000000000000000000a6b3d200cd34ca14d7579dac8b054bf50a62c37c"
          ],
          "data": "0x000000000000000000000000000000000000000000000000000000008583b000",
          "blockHash": "0xbc67efb1a3cfa34e740dee6f7c8b18c33539700e8b651cb9f830e68efcc73bb0",
          "blockNumber": "0x18a2217",
          "transactionHash": "0x42f6be5a9c8e5b3d84953261504d72ba41a05bdfeef4ecc6a3ae04c5284d7e52",
          "transactionIndex": "0x13",
          "logIndex": "0xc0",
          "removed": false
        },
        {
          "address": "0x8f17e2128a4f917ec4147c15fc90badd79e7f090",
          "topics": [
            "0xafda9316e64488bba379a6614bcee4516ef1793ee3844298c937b46b2cae5829"
          ],
          "data": "0x000000000000000000000000a6b3d200cd34ca14d7579dac8b054bf50a62c37c00000000000000000000000000000000000000000000000000000000000000110000000000000000000000005405e3a584014c8659ba10591c1b7d55cb1cfc0d000000000000000000000000000000000000000000000000000000003b9aca00000000000000000000000000000000000000000000000000000002098a678000",
          "blockHash": "0xbc67efb1a3cfa34e740dee6f7c8b18c33539700e8b651cb9f830e68efcc73bb0",
          "blockNumber": "0x18a2217",
          "transactionHash": "0x42f6be5a9c8e5b3d84953261504d72ba41a05bdfeef4ecc6a3ae04c5284d7e52",
          "transactionIndex": "0x13",
          "logIndex": "0xc1",
          "removed": false
        },
        {
          "address": "0x8f17e2128a4f917ec4147c15fc90badd79e7f090",
          "topics": [
            "0xb8d0a675deb3f0103b7b5bfee7759ee667ec4a083833f9674ae14b688cb10551"
          ],
          "data": "0x000000000000000000000000a6b3d200cd34ca14d7579dac8b054bf50a62c37c0000000000000000000000000000000000000000000000000000020904e3d000",
          "blockHash": "0xbc67efb1a3cfa34e740dee6f7c8b18c33539700e8b651cb9f830e68efcc73bb0",
          "blockNumber": "0x18a2217",
          "transactionHash": "0x42f6be5a9c8e5b3d84953261504d72ba41a05bdfeef4ecc6a3ae04c5284d7e52",
          "transactionIndex": "0x13",
          "logIndex": "0xc2",
          "removed": false
        }
      ],
      "logsBloom": "0x00000000002000000000000404000000008000000000000002000000000000000000080000000000000000000000000000000000000000000000000000000020000000000000000000000008000000000000000000000000000000000400000000800000020000200000000000000800000000002000000000000010000000000000000000200000000000020000000000000000000000000000000000400000000000000000000000000000000008000000000000000000000000000000000000000042000000000000000000000000000000020000000000000000000020100001000000000400000000000000000000000000000000000000800000000000",
      "type": "0x2",
      "transactionHash": "0x42f6be5a9c8e5b3d84953261504d72ba41a05bdfeef4ecc6a3ae04c5284d7e52",
      "transactionIndex": "0x13",
      "blockHash": "0xbc67efb1a3cfa34e740dee6f7c8b18c33539700e8b651cb9f830e68efcc73bb0",
      "blockNumber": "0x18a2217",
      "gasUsed": "0x287c7",
      "effectiveGasPrice": "0xece8a",
      "from": "0xa6b3d200cd34ca14d7579dac8b054bf50a62c37c",
      "to": "0x8f17e2128a4f917ec4147c15fc90badd79e7f090",
      "contractAddress": null,
      "l1BaseFeeScalar": "0x44d",
      "l1BlobBaseFee": "0x3b8d",
      "l1BlobBaseFeeScalar": "0xa118b",
      "l1Fee": "0x14eaa9db8",
      "l1GasPrice": "0xbdf1d522",
      "l1GasUsed": "0x640"
    },
    {
      "status": "0x1",
      "cumulativeGasUsed": "0x109d628",
      "logs": [
        {
          "address": "0x5405e3a584014c8659ba10591c1b7d55cb1cfc0d",
          "topics": [
            "0xddf252ad1be2c89b69c2b068fc378daa952ba7f163c4a11628f55a4df523b3ef",
            "0x000000000000000000000000a6b3d200cd34ca14d7579dac8b054bf50a62c37c",
            "0x0000000000000000000000008f17e2128a4f917ec4147c15fc90badd79e7f090"
          ],
          "data": "0x000000000000000000000000000000000000000000000000000000001dcd6500",
          "blockHash": "0xbc67efb1a3cfa34e740dee6f7c8b18c33539700e8b651cb9f830e68efcc73bb0",
          "blockNumber": "0x18a2217",
          "transactionHash": "0xc23d0f493dad50b8af8675fe7f5300292dc2e8948070792f09778afdfdf565c0",
          "transactionIndex": "0x14",
          "logIndex": "0xc3",
          "removed": false
        },
        {
          "address": "0x8f17e2128a4f917ec4147c15fc90badd79e7f090",
          "topics": [
            "0xf4d587c98d234ca4d147061e6b5167e7f41ee17f11562a9f0b49570abece859e"
          ],
          "data": "0x000000000000000000000000a6b3d200cd34ca14d7579dac8b054bf50a62c37c0000000000000000000000000000000000000000000000000000000000000011000000000000000000000000000000000000000000000000000000001dcd6500",
          "blockHash": "0xbc67efb1a3cfa34e740dee6f7c8b18c33539700e8b651cb9f830e68efcc73bb0",
          "blockNumber": "0x18a2217",
          "transactionHash": "0xc23d0f493dad50b8af8675fe7f5300292dc2e8948070792f09778afdfdf565c0",
          "transactionIndex": "0x14",
          "logIndex": "0xc4",
          "removed": false
        }
      ],
      "logsBloom": "0x00000000002020000000000404000000000000000000000002000000000000000000080000000000000000000000000000000000000000000000000000000020000000000000000000000008000000000000000000000000000000000400000000000000000000000000000000000000000000000000000000000010000000000000080000000000000000000000000400000000000000000000000000000000000000000000000000000000000008000000000000000000000000000000000000000042000000000000000000000000000000000000000000000000000000000001000000000400000000000000000000000000000000000000800000000000",
      "type": "0x2",
      "transactionHash": "0xc23d0f493dad50b8af8675fe7f5300292dc2e8948070792f09778afdfdf565c0",
      "transactionIndex": "0x14",
      "blockHash": "0xbc67efb1a3cfa34e740dee6f7c8b18c33539700e8b651cb9f830e68efcc73bb0",
      "blockNumber": "0x18a2217",
      "gasUsed": "0xc0ca",
      "effectiveGasPrice": "0xece8a",
      "from": "0xa6b3d200cd34ca14d7579dac8b054bf50a62c37c",
      "to": "0x8f17e2128a4f917ec4147c15fc90badd79e7f090",
      "contractAddress": null,
      "l1BaseFeeScalar": "0x44d",
      "l1BlobBaseFee": "0x3b8d",
      "l1BlobBaseFeeScalar": "0xa118b",
      "l1Fee": "0x14eaa9db8",
      "l1GasPrice": "0xbdf1d522",
      "l1GasUsed": "0x640"
    },
    {
      "status": "0x1",
      "cumulativeGasUsed": "0x10af0ad",
      "logs": [
        {
          "address": "0x5405e3a584014c8659ba10591c1b7d55cb1cfc0d",
          "topics": [
            "0xddf252ad1be2c89b69c2b068fc378daa952ba7f163c4a11628f55a4df523b3ef",
            "0x0000000000000000000000008f17e2128a4f917ec4147c15fc90badd79e7f090",
            "0x000000000000000000000000a6b3d200cd34ca14d7579dac8b054bf50a62c37c"
          ],
          "data": "0x0000000000000000000000000000000000000000000000000000000007735940",
          "blockHash": "0xbc67efb1a3cfa34e740dee6f7c8b18c33539700e8b651cb9f830e68efcc73bb0",
          "blockNumber": "0x18a2217",
          "transactionHash": "0x3ed8baf44365d8d756184e33eae29c95ae9c26fb33ca241d98343496c5bf971e",
          "transactionIndex": "0x15",
          "logIndex": "0xc5",
          "removed": false
        },
        {
          "address": "0x8f17e2128a4f917ec4147c15fc90badd79e7f090",
          "topics": [
            "0xdaed309a628faec6cab72194019e2a1a34e890ca9bf9be99788992dd54692819"
          ],
          "data": "0x000000000000000000000000a6b3d200cd34ca14d7579dac8b054bf50a62c37c00000000000000000000000000000000000000000000000000000000000000110000000000000000000000000000000000000000000000000000000007735940",
          "blockHash": "0xbc67efb1a3cfa34e740dee6f7c8b18c33539700e8b651cb9f830e68efcc73bb0",
          "blockNumber": "0x18a2217",
          "transactionHash": "0x3ed8baf44365d8d756184e33eae29c95ae9c26fb33ca241d98343496c5bf971e",
          "transactionIndex": "0x15",
          "logIndex": "0xc6",
          "removed": false
        }
      ],
      "logsBloom": "0x00000000002000000000000404000000000000000000000002000000000000000000080080000000000000000000000000000000000000000002000000000020000000000000000000000008000000000000000000000000000000000400000000000000000000000000000000000000000000000000000000000010000000000000000000000000000000000000000000000000000000000000000000000000000000000000000000000000000008000000000000000000000000000000000000000042000000000000000000000000000000000000000000000000000000000001000000000400000000000000000000000000000020000000800000000000",
      "type": "0x2",
      "transactionHash": "0x3ed8baf44365d8d756184e33eae29c95ae9c26fb33ca241d98343496c5bf971e",
      "transactionIndex": "0x15",
      "blockHash": "0xbc67efb1a3cfa34e740dee6f7c8b18c33539700e8b651cb9f830e68efcc73bb0",
      "blockNumber": "0x18a2217",
      "gasUsed": "0x11a85",
      "effectiveGasPrice": "0xece8a",
      "from": "0xa6b3d200cd34ca14d7579dac8b054bf50a62c37c",
      "to": "0x8f17e2128a4f917ec4147c15fc90badd79e7f090",
      "contractAddress": null,
      "l1BaseFeeScalar": "0x44d",
      "l1BlobBaseFee": "0x3b8d",
      "l1BlobBaseFeeScalar": "0xa118b",
      "l1Fee": "0x14eaa9db8",
      "l1GasPrice": "0xbdf1d522",
      "l1GasUsed": "0x640"
    },
    {
      "status": "0x1",
      "cumulativeGasUsed": "0x10b6164",
      "logs": [
        {
          "address": "0x3d384beb1ba0197e6a87668e1d68267164c8b776",
          "topics": [
            "0x8c5be1e5ebec7d5bd14f71427d1e84f3dd0314c0f7b2291e5b200ac8c7c3b925",
            "0x000000000000000000000000a6b3d200cd34ca14d7579dac8b054bf50a62c37c",
            "0x0000000000000000000000008f17e2128a4f917ec4147c15fc90badd79e7f090"
          ],
          "data": "0x0000000000000000000000000000000000000000000000000000009c76524000",
          "blockHash": "0xbc67efb1a3cfa34e740dee6f7c8b18c33539700e8b651cb9f830e68efcc73bb0",
          "blockNumber": "0x18a2217",
          "transactionHash": "0x83e26bad076eb7cb3ad6af891c44d2a8ad60b5e91d8b4638a4bab19b302b7179",
          "transactionIndex": "0x16",
          "logIndex": "0xc7",
          "removed": false
        }
      ],
      "logsBloom": "0x00000000000000000000000404000000008000000000000002000000000000000000000000000000000000000000000000000000000000000000000000200000000000000000000000000000000000000000000000000000000000000000000000000000000000000000000000000000000000002000000000000000000000000000000000000000000000020000000000000000000000000000000000000000020000000000000000000000000008000000000000000000000000000000000000000040000000000000000000000000000000000000000000000000000000000010000000000000000000000000000000000000000000000000800000000000",
      "type": "0x2",
      "transactionHash": "0x83e26bad076eb7cb3ad6af891c44d2a8ad60b5e91d8b4638a4bab19b302b7179",
      "transactionIndex": "0x16",
      "blockHash": "0xbc67efb1a3cfa34e740dee6f7c8b18c33539700e8b651cb9f830e68efcc73bb0",
      "blockNumber": "0x18a2217",
      "gasUsed": "0x70b7",
      "effectiveGasPrice": "0xece8a",
      "from": "0xa6b3d200cd34ca14d7579dac8b054bf50a62c37c",
      "to": "0x3d384beb1ba0197e6a87668e1d68267164c8b776",
      "contractAddress": null,
      "l1BaseFeeScalar": "0x44d",
      "l1BlobBaseFee": "0x3b8d",
      "l1BlobBaseFeeScalar": "0xa118b",
      "l1Fee": "0x14eaa9db8",
      "l1GasPrice": "0xbdf1d522",
      "l1GasUsed": "0x640"
    },
    {
      "status": "0x1",
      "cumulativeGasUsed": "0x10c7edb",
      "logs": [
        {
          "address": "0x3d384beb1ba0197e6a87668e1d68267164c8b776",
          "topics": [
            "0xddf252ad1be2c89b69c2b068fc378daa952ba7f163c4a11628f55a4df523b3ef",
            "0x000000000000000000000000a6b3d200cd34ca14d7579dac8b054bf50a62c37c",
            "0x0000000000000000000000000000000000000000000000000000000000000000"
          ],
          "data": "0x0000000000000000000000000000000000000000000000000000009c76524000",
          "blockHash": "0xbc67efb1a3cfa34e740dee6f7c8b18c33539700e8b651cb9f830e68efcc73bb0",
          "blockNumber": "0x18a2217",
          "transactionHash": "0x24c906344d43cb6957362f5b0500af35f4b3a851d3d7427826959b6f8215dad6",
          "transactionIndex": "0x17",
          "logIndex": "0xc8",
          "removed": false
        },
        {
          "address": "0x3d384beb1ba0197e6a87668e1d68267164c8b776",
          "topics": [
            "0xddf252ad1be2c89b69c2b068fc378daa952ba7f163c4a11628f55a4df523b3ef",
            "0x0000000000000000000000000000000000000000000000000000000000000000",
            "0x000000000000000000000000a6b3d200cd34ca14d7579dac8b054bf50a62c37c"
          ],
          "data": "0x00000000000000000000000000000000000000000000000000000000280de800",
          "blockHash": "0xbc67efb1a3cfa34e740dee6f7c8b18c33539700e8b651cb9f830e68efcc73bb0",
          "blockNumber": "0x18a2217",
          "transactionHash": "0x24c906344d43cb6957362f5b0500af35f4b3a851d3d7427826959b6f8215dad6",
          "transactionIndex": "0x17",
          "logIndex": "0xc9",
          "removed": false
        },
        {
          "address": "0x8f17e2128a4f917ec4147c15fc90badd79e7f090",
          "topics": [
            "0x73d7115a3106da3e0d40e7f29f2941645b2b6f2fd75328fa464692cf0e42a39f"
          ],
          "data": "0x000000000000000000000000a6b3d200cd34ca14d7579dac8b054bf50a62c37c0000000000000000000000000000000000000000000000000000009c76524000",
          "blockHash": "0xbc67efb1a3cfa34e740dee6f7c8b18c33539700e8b651cb9f830e68efcc73bb0",
          "blockNumber": "0x18a2217",
          "transactionHash": "0x24c906344d43cb6957362f5b0500af35f4b3a851d3d7427826959b6f8215dad6",
          "transactionIndex": "0x17",
          "logIndex": "0xca",
          "removed": false
        }
      ],
      "logsBloom": "0x00000000002000000000000400000000008000000000000002000000000000000000000000000000000000000000000000000000000000000000000000000000000000000000000000000008000000000000000000000000040000000400000000000000020000000000000000000800000000002000000000000010000000000000000000001000000000020000000000000000000000000000000000000000000000000000000000000000000000000000000000000000000000000000000000200042000000000000000000000000000000000000000000000000000020000000000000000400000000000000000000000000000000000000000000000000",
      "type": "0x2",
      "transactionHash": "0x24c906344d43cb6957362f5b0500af35f4b3a851d3d7427826959b6f8215dad6",
      "transactionIndex": "0x17",
      "blockHash": "0xbc67efb1a3cfa34e740dee6f7c8b18c33539700e8b651cb9f830e68efcc73bb0",
      "blockNumber": "0x18a2217",
      "gasUsed": "0x11d77",
      "effectiveGasPrice": "0xece8a",
      "from": "0xa6b3d200cd34ca14d7579dac8b054bf50a62c37c",
      "to": "0x8f17e2128a4f917ec4147c15fc90badd79e7f090",
      "contractAddress": null,
      "l1BaseFeeScalar": "0x44d",
      "l1BlobBaseFee": "0x3b8d",
      "l1BlobBaseFeeScalar": "0xa118b",
      "l1Fee": "0x14eaa9db8",
      "l1GasPrice": "0xbdf1d522",
      "l1GasUsed": "0x640"
    },
    {
      "status": "0x1",
      "cumulativeGasUsed": "0x10cef9e",
      "logs": [
        {
          "address": "0x3d384beb1ba0197e6a87668e1d68267164c8b776",
          "topics": [
            "0x8c5be1e5ebec7d5bd14f71427d1e84f3dd0314c0f7b2291e5b200ac8c7c3b925",
            "0x000000000000000000000000a6b3d200cd34ca14d7579dac8b054bf50a62c37c",
            "0x0000000000000000000000008f17e2128a4f917ec4147c15fc90badd79e7f090"
          ],
          "data": "0x0000000000000000000000000000000000000000000000000000016d14154000",
          "blockHash": "0xbc67efb1a3cfa34e740dee6f7c8b18c33539700e8b651cb9f830e68efcc73bb0",
          "blockNumber": "0x18a2217",
          "transactionHash": "0x530d9728386eb2f86608f496b62d83c172dc240f715e1b8b412f9de24e683423",
          "transactionIndex": "0x18",
          "logIndex": "0xcb",
          "removed": false
        }
      ],
      "logsBloom": "0x00000000000000000000000404000000008000000000000002000000000000000000000000000000000000000000000000000000000000000000000000200000000000000000000000000000000000000000000000000000000000000000000000000000000000000000000000000000000000002000000000000000000000000000000000000000000000020000000000000000000000000000000000000000020000000000000000000000000008000000000000000000000000000000000000000040000000000000000000000000000000000000000000000000000000000010000000000000000000000000000000000000000000000000800000000000",
      "type": "0x2",
      "transactionHash": "0x530d9728386eb2f86608f496b62d83c172dc240f715e1b8b412f9de24e683423",
      "transactionIndex": "0x18",
      "blockHash": "0xbc67efb1a3cfa34e740dee6f7c8b18c33539700e8b651cb9f830e68efcc73bb0",
      "blockNumber": "0x18a2217",
      "gasUsed": "0x70c3",
      "effectiveGasPrice": "0xece8a",
      "from": "0xa6b3d200cd34ca14d7579dac8b054bf50a62c37c",
      "to": "0x3d384beb1ba0197e6a87668e1d68267164c8b776",
      "contractAddress": null,
      "l1BaseFeeScalar": "0x44d",
      "l1BlobBaseFee": "0x3b8d",
      "l1BlobBaseFeeScalar": "0xa118b",
      "l1Fee": "0x14eaa9db8",
      "l1GasPrice": "0xbdf1d522",
      "l1GasUsed": "0x640"
    },
    {
      "status": "0x1",
      "cumulativeGasUsed": "0x10e3857",
      "logs": [
        {
          "address": "0x3d384beb1ba0197e6a87668e1d68267164c8b776",
          "topics": [
            "0xddf252ad1be2c89b69c2b068fc378daa952ba7f163c4a11628f55a4df523b3ef",
            "0x000000000000000000000000a6b3d200cd34ca14d7579dac8b054bf50a62c37c",
            "0x0000000000000000000000000000000000000000000000000000000000000000"
          ],
          "data": "0x0000000000000000000000000000000000000000000000000000016d14154000",
          "blockHash": "0xbc67efb1a3cfa34e740dee6f7c8b18c33539700e8b651cb9f830e68efcc73bb0",
          "blockNumber": "0x18a2217",
          "transactionHash": "0x197f57a36b1650aeff266fe7d6931322dcb33ca92a5c1545a6a55557e7fef9f6",
          "transactionIndex": "0x19",
          "logIndex": "0xcc",
          "removed": false
        },
        {
          "address": "0x3d384beb1ba0197e6a87668e1d68267164c8b776",
          "topics": [
            "0xddf252ad1be2c89b69c2b068fc378daa952ba7f163c4a11628f55a4df523b3ef",
            "0x0000000000000000000000000000000000000000000000000000000000000000",
            "0x000000000000000000000000a6b3d200cd34ca14d7579dac8b054bf50a62c37c"
          ],
          "data": "0x000000000000000000000000000000000000000000000000000000005d75c800",
          "blockHash": "0xbc67efb1a3cfa34e740dee6f7c8b18c33539700e8b651cb9f830e68efcc73bb0",
          "blockNumber": "0x18a2217",
          "transactionHash": "0x197f57a36b1650aeff266fe7d6931322dcb33ca92a5c1545a6a55557e7fef9f6",
          "transactionIndex": "0x19",
          "logIndex": "0xcd",
          "removed": false
        },
        {
          "address": "0x5405e3a584014c8659ba10591c1b7d55cb1cfc0d",
          "topics": [
            "0xddf252ad1be2c89b69c2b068fc378daa952ba7f163c4a11628f55a4df523b3ef",
            "0x0000000000000000000000008f17e2128a4f917ec4147c15fc90badd79e7f090",
            "0x000000000000000000000000a6b3d200cd34ca14d7579dac8b054bf50a62c37c"
          ],
          "data": "0x0000000000000000000000000000000000000000000000000000000051f4d5c0",
          "blockHash": "0xbc67efb1a3cfa34e740dee6f7c8b18c33539700e8b651cb9f830e68efcc73bb0",
          "blockNumber": "0x18a2217",
          "transactionHash": "0x197f57a36b1650aeff266fe7d6931322dcb33ca92a5c1545a6a55557e7fef9f6",
          "transactionIndex": "0x19",
          "logIndex": "0xce",
          "removed": false
        },
        {
          "address": "0x8f17e2128a4f917ec4147c15fc90badd79e7f090",
          "topics": [
            "0xdaed309a628faec6cab72194019e2a1a34e890ca9bf9be99788992dd54692819"
          ],
          "data": "0x000000000000000000000000a6b3d200cd34ca14d7579dac8b054bf50a62c37c00000000000000000000000000000000000000000000000000000000000000110000000000000000000000000000000000000000000000000000000051f4d5c0",
          "blockHash": "0xbc67efb1a3cfa34e740dee6f7c8b18c33539700e8b651cb9f830e68efcc73bb0",
          "blockNumber": "0x18a2217",
          "transactionHash": "0x197f57a36b1650aeff266fe7d6931322dcb33ca92a5c1545a6a55557e7fef9f6",
          "transactionIndex": "0x19",
          "logIndex": "0xcf",
          "removed": false
        },
        {
          "address": "0x8f17e2128a4f917ec4147c15fc90badd79e7f090",
          "topics": [
            "0x73d7115a3106da3e0d40e7f29f2941645b2b6f2fd75328fa464692cf0e42a39f"
          ],
          "data": "0x000000000000000000000000a6b3d200cd34ca14d7579dac8b054bf50a62c37c0000000000000000000000000000000000000000000000000000016d14154000",
          "blockHash": "0xbc67efb1a3cfa34e740dee6f7c8b18c33539700e8b651cb9f830e68efcc73bb0",
          "blockNumber": "0x18a2217",
          "transactionHash": "0x197f57a36b1650aeff266fe7d6931322dcb33ca92a5c1545a6a55557e7fef9f6",
          "transactionIndex": "0x19",
          "logIndex": "0xd0",
          "removed": false
        }
      ],
      "logsBloom": "0x00000000002000000000000404000000008000000000000002000000000000000000080080000000000000000000000000000000000000000002000000000020000000000000000000000008000000000000000000000000040000000400000000000000020000000000000000000800000000002000000000000010000000000000000000001000000000020000000000000000000000000000000000000000000000000000000000000000000008000000000000000000000000000000000000200042000000000000000000000000000000000000000000000000000020000001000000000400000000000000000000000000000020000000800000000000",
      "type": "0x2",
      "transactionHash": "0x197f57a36b1650aeff266fe7d6931322dcb33ca92a5c1545a6a55557e7fef9f6",
      "transactionIndex": "0x19",
      "blockHash": "0xbc67efb1a3cfa34e740dee6f7c8b18c33539700e8b651cb9f830e68efcc73bb0",
      "blockNumber": "0x18a2217",
      "gasUsed": "0x148b9",
      "effectiveGasPrice": "0xece8a",
      "from": "0xa6b3d200cd34ca14d7579dac8b054bf50a62c37c",
      "to": "0x8f17e2128a4f917ec4147c15fc90badd79e7f090",
      "contractAddress": null,
      "l1BaseFeeScalar": "0x44d",
      "l1BlobBaseFee": "0x3b8d",
      "l1BlobBaseFeeScalar": "0xa118b",
      "l1Fee": "0x14eaa9db8",
      "l1GasPrice": "0xbdf1d522",
      "l1GasUsed": "0x640"
    }
  ],
  "libraries": [],
  "pending": [],
  "returns": {},
  "timestamp": 1747428113,
  "chain": 84532,
  "commit": "96c4dcd"
}