{
  "transactions": [
    {
      "hash": "0xbff310cf4343978d35b79d79913c219ffac7d4e73dc4d9bd64e3e1a71023ee7e",
      "transactionType": "CALL",
      "contractName": null,
      "contractAddress": "0x5405e3a584014c8659ba10591c1b7d55cb1cfc0d",
      "function": "approve(address,uint256)",
      "arguments": [
        "0x8f17E2128a4F917ec4147c15FC90bADd79E7F090",
        "115792089237316195423570985008687907853269984665640564039457584007913129639935"
      ],
      "transaction": {
        "from": "0xa6b3d200cd34ca14d7579dac8b054bf50a62c37c",
        "to": "0x5405e3a584014c8659ba10591c1b7d55cb1cfc0d",
        "gas": "0xa6a3",
        "value": "0x0",
        "input": "0x095ea7b30000000000000000000000008f17e2128a4f917ec4147c15fc90badd79e7f090ffffffffffffffffffffffffffffffffffffffffffffffffffffffffffffffff",
        "nonce": "0x5a2",
        "chainId": "0x14a34"
      },
      "additionalContracts": [],
      "isFixedGasLimit": false
    },
    {
      "hash": "0x8560c7f42739db0dc84db2f10c5530b935e91d6669c8a12292d8dd77244d515b",
      "transactionType": "CALL",
      "contractName": "VCOPCollateralManager",
      "contractAddress": "0x8f17e2128a4f917ec4147c15fc90badd79e7f090",
      "function": "createPosition(address,uint256,uint256)",
      "arguments": [
        "0x5405e3a584014c8659BA10591c1b7D55cB1cFc0d",
        "1000000000",
        "2240000000000"
      ],
      "transaction": {
        "from": "0xa6b3d200cd34ca14d7579dac8b054bf50a62c37c",
        "to": "0x8f17e2128a4f917ec4147c15fc90badd79e7f090",
        "gas": "0x37ebd",
        "value": "0x0",
        "input": "0x75a08cce0000000000000000000000005405e3a584014c8659ba10591c1b7d55cb1cfc0d000000000000000000000000000000000000000000000000000000003b9aca00000000000000000000000000000000000000000000000000000002098a678000",
        "nonce": "0x5a3",
        "chainId": "0x14a34"
      },
      "additionalContracts": [],
      "isFixedGasLimit": false
    },
    {
      "hash": "0xa6edffc096aeccdba4fd19bf97b3734a885a8f1f0290a1f047d6833fa2e30024",
      "transactionType": "CALL",
      "contractName": "VCOPCollateralManager",
      "contractAddress": "0x8f17e2128a4f917ec4147c15fc90badd79e7f090",
      "function": "addCollateral(uint256,uint256)",
      "arguments": [
        "20",
        "500000000"
      ],
      "transaction": {
        "from": "0xa6b3d200cd34ca14d7579dac8b054bf50a62c37c",
        "to": "0x8f17e2128a4f917ec4147c15fc90badd79e7f090",
        "gas": "0x119f3",
        "value": "0x0",
        "input": "0xa8f35adf0000000000000000000000000000000000000000000000000000000000000014000000000000000000000000000000000000000000000000000000001dcd6500",
        "nonce": "0x5a4",
        "chainId": "0x14a34"
      },
      "additionalContracts": [],
      "isFixedGasLimit": false
    },
    {
      "hash": "0xe16a0127af7215490c4e5a4e31642199fceec95b0abe267a2223f5bba3aa4daf",
      "transactionType": "CALL",
      "contractName": "VCOPCollateralManager",
      "contractAddress": "0x8f17e2128a4f917ec4147c15fc90badd79e7f090",
      "function": "withdrawCollateral(uint256,uint256)",
      "arguments": [
        "20",
        "125000000"
      ],
      "transaction": {
        "from": "0xa6b3d200cd34ca14d7579dac8b054bf50a62c37c",
        "to": "0x8f17e2128a4f917ec4147c15fc90badd79e7f090",
        "gas": "0x1863a",
        "value": "0x0",
        "input": "0x767a7b0500000000000000000000000000000000000000000000000000000000000000140000000000000000000000000000000000000000000000000000000007735940",
        "nonce": "0x5a5",
        "chainId": "0x14a34"
      },
      "additionalContracts": [],
      "isFixedGasLimit": false
    },
    {
      "hash": "0x1b8987072db273d7eac7c440e5bdcd2d094c8e92fec4ae0ee1374c7a455f3d7c",
      "transactionType": "CALL",
      "contractName": "VCOPCollateralized",
      "contractAddress": "0x3d384beb1ba0197e6a87668e1d68267164c8b776",
      "function": "approve(address,uint256)",
      "arguments": [
        "0x8f17E2128a4F917ec4147c15FC90bADd79E7F090",
        "672000000000"
      ],
      "transaction": {
        "from": "0xa6b3d200cd34ca14d7579dac8b054bf50a62c37c",
        "to": "0x3d384beb1ba0197e6a87668e1d68267164c8b776",
        "gas": "0x9baf",
        "value": "0x0",
        "input": "0x095ea7b30000000000000000000000008f17e2128a4f917ec4147c15fc90badd79e7f0900000000000000000000000000000000000000000000000000000009c76524000",
        "nonce": "0x5a6",
        "chainId": "0x14a34"
      },
      "additionalContracts": [],
      "isFixedGasLimit": false
    },
    {
      "hash": "0x41119227a03a3120109d711b87b5e77c8bdea1845bd602f76744e9b9b9bc495c",
      "transactionType": "CALL",
      "contractName": "VCOPCollateralManager",
      "contractAddress": "0x8f17e2128a4f917ec4147c15fc90badd79e7f090",
      "function": "repayDebt(uint256,uint256)",
      "arguments": [
        "20",
        "672000000000"
      ],
      "transaction": {
        "from": "0xa6b3d200cd34ca14d7579dac8b054bf50a62c37c",
        "to": "0x8f17e2128a4f917ec4147c15fc90badd79e7f090",
        "gas": "0x18a4b",
        "value": "0x0",
        "input": "0x015cb0a500000000000000000000000000000000000000000000000000000000000000140000000000000000000000000000000000000000000000000000009c76524000",
        "nonce": "0x5a7",
        "chainId": "0x14a34"
      },
      "additionalContracts": [],
      "isFixedGasLimit": false
    },
    {
      "hash": "0xf7db337a43f4deb488f8270dd3200f139318681e146b2cb37a6b084da5ffa81e",
      "transactionType": "CALL",
      "contractName": "VCOPCollateralized",
      "contractAddress": "0x3d384beb1ba0197e6a87668e1d68267164c8b776",
      "function": "approve(address,uint256)",
      "arguments": [
        "0x8f17E2128a4F917ec4147c15FC90bADd79E7F090",
        "1568000000000"
      ],
      "transaction": {
        "from": "0xa6b3d200cd34ca14d7579dac8b054bf50a62c37c",
        "to": "0x3d384beb1ba0197e6a87668e1d68267164c8b776",
        "gas": "0xa4e9",
        "value": "0x0",
        "input": "0x095ea7b30000000000000000000000008f17e2128a4f917ec4147c15fc90badd79e7f0900000000000000000000000000000000000000000000000000000016d14154000",
        "nonce": "0x5a8",
        "chainId": "0x14a34"
      },
      "additionalContracts": [],
      "isFixedGasLimit": false
    },
    {
      "hash": "0xa2aa59b205b2e455352988443e371ca4981d0e70dfdb072b8e46faec56b72081",
      "transactionType": "CALL",
      "contractName": "VCOPCollateralManager",
      "contractAddress": "0x8f17e2128a4f917ec4147c15fc90badd79e7f090",
      "function": "repayDebt(uint256,uint256)",
      "arguments": [
        "20",
        "1568000000000"
      ],
      "transaction": {
        "from": "0xa6b3d200cd34ca14d7579dac8b054bf50a62c37c",
        "to": "0x8f17e2128a4f917ec4147c15fc90badd79e7f090",
        "gas": "0x1e0c1",
        "value": "0x0",
        "input": "0x015cb0a500000000000000000000000000000000000000000000000000000000000000140000000000000000000000000000000000000000000000000000016d14154000",
        "nonce": "0x5a9",
        "chainId": "0x14a34"
      },
      "additionalContracts": [],
      "isFixedGasLimit": false
    }
  ],
  "receipts": [
    {
      "status": "0x1",
      "cumulativeGasUsed": "0x11914d",
      "logs": [
        {
          "address": "0x5405e3a584014c8659ba10591c1b7d55cb1cfc0d",
          "topics": [
            "0x8c5be1e5ebec7d5bd14f71427d1e84f3dd0314c0f7b2291e5b200ac8c7c3b925",
            "0x000000000000000000000000a6b3d200cd34ca14d7579dac8b054bf50a62c37c",
            "0x0000000000000000000000008f17e2128a4f917ec4147c15fc90badd79e7f090"
          ],
          "data": "0xffffffffffffffffffffffffffffffffffffffffffffffffffffffffffffffff",
          "blockHash": "0x65be266eb89a4eba7aeea8ce3bb1055e5a8a4b615cd774495efce85ed164cb0b",
          "blockNumber": "0x18a2aac",
          "blockTimestamp": "0x6827b438",
          "transactionHash": "0xbff310cf4343978d35b79d79913c219ffac7d4e73dc4d9bd64e3e1a71023ee7e",
          "transactionIndex": "0xd",
          "logIndex": "0x10",
          "removed": false
        }
      ],
      "logsBloom": "0x00000000000000000000000404000000000000000000000002000000000000000000080000000000000000000000000000000000000000000000000000200020000000000000000000000000000000000000000000000000000000000000000000000000000000000000000000000000000000000000000000000000000000000000000000000000000000000000000000000000000000000000000000000000020000000000000000000000000008000000000000000000000000000000000000000040000000000000000000000000000000000000000000000000000000000011000000000000000000000000000000000000000000000000800000000000",
      "type": "0x2",
      "transactionHash": "0xbff310cf4343978d35b79d79913c219ffac7d4e73dc4d9bd64e3e1a71023ee7e",
      "transactionIndex": "0xd",
      "blockHash": "0x65be266eb89a4eba7aeea8ce3bb1055e5a8a4b615cd774495efce85ed164cb0b",
      "blockNumber": "0x18a2aac",
      "gasUsed": "0x71f1",
      "effectiveGasPrice": "0xf4594",
      "from": "0xa6b3d200cd34ca14d7579dac8b054bf50a62c37c",
      "to": "0x5405e3a584014c8659ba10591c1b7d55cb1cfc0d",
      "contractAddress": null,
      "l1BaseFeeScalar": "0x44d",
      "l1BlobBaseFee": "0x5adcf4",
      "l1BlobBaseFeeScalar": "0xa118b",
      "l1Fee": "0x630f164b",
      "l1GasPrice": "0x2aeffb89",
      "l1GasUsed": "0x640"
    },
    {
      "status": "0x1",
      "cumulativeGasUsed": "0x141914",
      "logs": [
        {
          "address": "0x5405e3a584014c8659ba10591c1b7d55cb1cfc0d",
          "topics": [
            "0xddf252ad1be2c89b69c2b068fc378daa952ba7f163c4a11628f55a4df523b3ef",
            "0x000000000000000000000000a6b3d200cd34ca14d7579dac8b054bf50a62c37c",
            "0x0000000000000000000000008f17e2128a4f917ec4147c15fc90badd79e7f090"
          ],
          "data": "0x000000000000000000000000000000000000000000000000000000003b9aca00",
          "blockHash": "0x65be266eb89a4eba7aeea8ce3bb1055e5a8a4b615cd774495efce85ed164cb0b",
          "blockNumber": "0x18a2aac",
          "blockTimestamp": "0x6827b438",
          "transactionHash": "0x8560c7f42739db0dc84db2f10c5530b935e91d6669c8a12292d8dd77244d515b",
          "transactionIndex": "0xe",
          "logIndex": "0x11",
          "removed": false
        },
        {
          "address": "0x3d384beb1ba0197e6a87668e1d68267164c8b776",
          "topics": [
            "0xddf252ad1be2c89b69c2b068fc378daa952ba7f163c4a11628f55a4df523b3ef",
            "0x0000000000000000000000000000000000000000000000000000000000000000",
            "0x000000000000000000000000a6b3d200cd34ca14d7579dac8b054bf50a62c37c"
          ],
          "data": "0x0000000000000000000000000000000000000000000000000000020904e3d000",
          "blockHash": "0x65be266eb89a4eba7aeea8ce3bb1055e5a8a4b615cd774495efce85ed164cb0b",
          "blockNumber": "0x18a2aac",
          "blockTimestamp": "0x6827b438",
          "transactionHash": "0x8560c7f42739db0dc84db2f10c5530b935e91d6669c8a12292d8dd77244d515b",
          "transactionIndex": "0xe",
          "logIndex": "0x12",
          "removed": false
        },
        {
          "address": "0x3d384beb1ba0197e6a87668e1d68267164c8b776",
          "topics": [
            "0xddf252ad1be2c89b69c2b068fc378daa952ba7f163c4a11628f55a4df523b3ef",
            "0x0000000000000000000000000000000000000000000000000000000000000000",
            "0x000000000000000000000000a6b3d200cd34ca14d7579dac8b054bf50a62c37c"
          ],
          "data": "0x000000000000000000000000000000000000000000000000000000008583b000",
          "blockHash": "0x65be266eb89a4eba7aeea8ce3bb1055e5a8a4b615cd774495efce85ed164cb0b",
          "blockNumber": "0x18a2aac",
          "blockTimestamp": "0x6827b438",
          "transactionHash": "0x8560c7f42739db0dc84db2f10c5530b935e91d6669c8a12292d8dd77244d515b",
          "transactionIndex": "0xe",
          "logIndex": "0x13",
          "removed": false
        },
        {
          "address": "0x8f17e2128a4f917ec4147c15fc90badd79e7f090",
          "topics": [
            "0xafda9316e64488bba379a6614bcee4516ef1793ee3844298c937b46b2cae5829"
          ],
          "data": "0x000000000000000000000000a6b3d200cd34ca14d7579dac8b054bf50a62c37c00000000000000000000000000000000000000000000000000000000000000140000000000000000000000005405e3a584014c8659ba10591c1b7d55cb1cfc0d000000000000000000000000000000000000000000000000000000003b9aca00000000000000000000000000000000000000000000000000000002098a678000",
          "blockHash": "0x65be266eb89a4eba7aeea8ce3bb1055e5a8a4b615cd774495efce85ed164cb0b",
          "blockNumber": "0x18a2aac",
          "blockTimestamp": "0x6827b438",
          "transactionHash": "0x8560c7f42739db0dc84db2f10c5530b935e91d6669c8a12292d8dd77244d515b",
          "transactionIndex": "0xe",
          "logIndex": "0x14",
          "removed": false
        },
        {
          "address": "0x8f17e2128a4f917ec4147c15fc90badd79e7f090",
          "topics": [
            "0xb8d0a675deb3f0103b7b5bfee7759ee667ec4a083833f9674ae14b688cb10551"
          ],
          "data": "0x000000000000000000000000a6b3d200cd34ca14d7579dac8b054bf50a62c37c0000000000000000000000000000000000000000000000000000020904e3d000",
          "blockHash": "0x65be266eb89a4eba7aeea8ce3bb1055e5a8a4b615cd774495efce85ed164cb0b",
          "blockNumber": "0x18a2aac",
          "blockTimestamp": "0x6827b438",
          "transactionHash": "0x8560c7f42739db0dc84db2f10c5530b935e91d6669c8a12292d8dd77244d515b",
          "transactionIndex": "0xe",
          "logIndex": "0x15",
          "removed": false
        }
      ],
      "logsBloom": "0x00000000002000000000000404000000008000000000000002000000000000000000080000000000000000000000000000000000000000000000000000000020000000000000000000000008000000000000000000000000000000000400000000800000020000200000000000000800000000002000000000000010000000000000000000200000000000020000000000000000000000000000000000400000000000000000000000000000000008000000000000000000000000000000000000000042000000000000000000000000000000020000000000000000000020100001000000000400000000000000000000000000000000000000800000000000",
      "type": "0x2",
      "transactionHash": "0x8560c7f42739db0dc84db2f10c5530b935e91d6669c8a12292d8dd77244d515b",
      "transactionIndex": "0xe",
      "blockHash": "0x65be266eb89a4eba7aeea8ce3bb1055e5a8a4b615cd774495efce85ed164cb0b",
      "blockNumber": "0x18a2aac",
      "gasUsed": "0x287c7",
      "effectiveGasPrice": "0xf4594",
      "from": "0xa6b3d200cd34ca14d7579dac8b054bf50a62c37c",
      "to": "0x8f17e2128a4f917ec4147c15fc90badd79e7f090",
      "contractAddress": null,
      "l1BaseFeeScalar": "0x44d",
      "l1BlobBaseFee": "0x5adcf4",
      "l1BlobBaseFeeScalar": "0xa118b",
      "l1Fee": "0x630f164b",
      "l1GasPrice": "0x2aeffb89",
      "l1GasUsed": "0x640"
    },
    {
      "status": "0x1",
      "cumulativeGasUsed": "0x14d9de",
      "logs": [
        {
          "address": "0x5405e3a584014c8659ba10591c1b7d55cb1cfc0d",
          "topics": [
            "0xddf252ad1be2c89b69c2b068fc378daa952ba7f163c4a11628f55a4df523b3ef",
            "0x000000000000000000000000a6b3d200cd34ca14d7579dac8b054bf50a62c37c",
            "0x0000000000000000000000008f17e2128a4f917ec4147c15fc90badd79e7f090"
          ],
          "data": "0x000000000000000000000000000000000000000000000000000000001dcd6500",
          "blockHash": "0xd91524737782f09a3b1b4e4537b2c1c20e662de6e28cb16d188324d193dca76f",
          "blockNumber": "0x18a2aac",
          "blockTimestamp": "0x6827b438",
          "transactionHash": "0xa6edffc096aeccdba4fd19bf97b3734a885a8f1f0290a1f047d6833fa2e30024",
          "transactionIndex": "0xf",
          "logIndex": "0x16",
          "removed": false
        },
        {
          "address": "0x8f17e2128a4f917ec4147c15fc90badd79e7f090",
          "topics": [
            "0xf4d587c98d234ca4d147061e6b5167e7f41ee17f11562a9f0b49570abece859e"
          ],
          "data": "0x000000000000000000000000a6b3d200cd34ca14d7579dac8b054bf50a62c37c0000000000000000000000000000000000000000000000000000000000000014000000000000000000000000000000000000000000000000000000001dcd6500",
          "blockHash": "0xd91524737782f09a3b1b4e4537b2c1c20e662de6e28cb16d188324d193dca76f",
          "blockNumber": "0x18a2aac",
          "blockTimestamp": "0x6827b438",
          "transactionHash": "0xa6edffc096aeccdba4fd19bf97b3734a885a8f1f0290a1f047d6833fa2e30024",
          "transactionIndex": "0xf",
          "logIndex": "0x17",
          "removed": false
        }
      ],
      "logsBloom": "0x00000000002020000000000404000000000000000000000002000000000000000000080000000000000000000000000000000000000000000000000000000020000000000000000000000008000000000000000000000000000000000400000000000000000000000000000000000000000000000000000000000010000000000000080000000000000000000000000400000000000000000000000000000000000000000000000000000000000008000000000000000000000000000000000000000042000000000000000000000000000000000000000000000000000000000001000000000400000000000000000000000000000000000000800000000000",
      "type": "0x2",
      "transactionHash": "0xa6edffc096aeccdba4fd19bf97b3734a885a8f1f0290a1f047d6833fa2e30024",
      "transactionIndex": "0xf",
      "blockHash": "0xd91524737782f09a3b1b4e4537b2c1c20e662de6e28cb16d188324d193dca76f",
      "blockNumber": "0x18a2aac",
      "gasUsed": "0xc0ca",
      "effectiveGasPrice": "0xf4594",
      "from": "0xa6b3d200cd34ca14d7579dac8b054bf50a62c37c",
      "to": "0x8f17e2128a4f917ec4147c15fc90badd79e7f090",
      "contractAddress": null,
      "l1BaseFeeScalar": "0x44d",
      "l1BlobBaseFee": "0x5adcf4",
      "l1BlobBaseFeeScalar": "0xa118b",
      "l1Fee": "0x630f164b",
      "l1GasPrice": "0x2aeffb89",
      "l1GasUsed": "0x640"
    },
    {
      "status": "0x1",
      "cumulativeGasUsed": "0x185be3",
      "logs": [
        {
          "address": "0x5405e3a584014c8659ba10591c1b7d55cb1cfc0d",
          "topics": [
            "0xddf252ad1be2c89b69c2b068fc378daa952ba7f163c4a11628f55a4df523b3ef",
            "0x0000000000000000000000008f17e2128a4f917ec4147c15fc90badd79e7f090",
            "0x000000000000000000000000a6b3d200cd34ca14d7579dac8b054bf50a62c37c"
          ],
          "data": "0x0000000000000000000000000000000000000000000000000000000007735940",
          "blockHash": "0xd4949e2e3a8a1bbace4e63c333fc295e462e2e5985ecc673871f15af46738914",
          "blockNumber": "0x18a2aac",
          "transactionHash": "0xe16a0127af7215490c4e5a4e31642199fceec95b0abe267a2223f5bba3aa4daf",
          "transactionIndex": "0x12",
          "logIndex": "0x1b",
          "removed": false
        },
        {
          "address": "0x8f17e2128a4f917ec4147c15fc90badd79e7f090",
          "topics": [
            "0xdaed309a628faec6cab72194019e2a1a34e890ca9bf9be99788992dd54692819"
          ],
          "data": "0x000000000000000000000000a6b3d200cd34ca14d7579dac8b054bf50a62c37c00000000000000000000000000000000000000000000000000000000000000140000000000000000000000000000000000000000000000000000000007735940",
          "blockHash": "0xd4949e2e3a8a1bbace4e63c333fc295e462e2e5985ecc673871f15af46738914",
          "blockNumber": "0x18a2aac",
          "transactionHash": "0xe16a0127af7215490c4e5a4e31642199fceec95b0abe267a2223f5bba3aa4daf",
          "transactionIndex": "0x12",
          "logIndex": "0x1c",
          "removed": false
        }
      ],
      "logsBloom": "0x00000000002000000000000404000000000000000000000002000000000000000000080080000000000000000000000000000000000000000002000000000020000000000000000000000008000000000000000000000000000000000400000000000000000000000000000000000000000000000000000000000010000000000000000000000000000000000000000000000000000000000000000000000000000000000000000000000000000008000000000000000000000000000000000000000042000000000000000000000000000000000000000000000000000000000001000000000400000000000000000000000000000020000000800000000000",
      "type": "0x2",
      "transactionHash": "0xe16a0127af7215490c4e5a4e31642199fceec95b0abe267a2223f5bba3aa4daf",
      "transactionIndex": "0x12",
      "blockHash": "0xd4949e2e3a8a1bbace4e63c333fc295e462e2e5985ecc673871f15af46738914",
      "blockNumber": "0x18a2aac",
      "gasUsed": "0x11a85",
      "effectiveGasPrice": "0xf43ea",
      "from": "0xa6b3d200cd34ca14d7579dac8b054bf50a62c37c",
      "to": "0x8f17e2128a4f917ec4147c15fc90badd79e7f090",
      "contractAddress": null,
      "l1BaseFeeScalar": "0x44d",
      "l1BlobBaseFee": "0x5adcf4",
      "l1BlobBaseFeeScalar": "0xa118b",
      "l1Fee": "0x630f164b",
      "l1GasPrice": "0x2aeffb89",
      "l1GasUsed": "0x640"
    },
    {
      "status": "0x1",
      "cumulativeGasUsed": "0x18cc9a",
      "logs": [
        {
          "address": "0x3d384beb1ba0197e6a87668e1d68267164c8b776",
          "topics": [
            "0x8c5be1e5ebec7d5bd14f71427d1e84f3dd0314c0f7b2291e5b200ac8c7c3b925",
            "0x000000000000000000000000a6b3d200cd34ca14d7579dac8b054bf50a62c37c",
            "0x0000000000000000000000008f17e2128a4f917ec4147c15fc90badd79e7f090"
          ],
          "data": "0x0000000000000000000000000000000000000000000000000000009c76524000",
          "blockHash": "0xd4949e2e3a8a1bbace4e63c333fc295e462e2e5985ecc673871f15af46738914",
          "blockNumber": "0x18a2aac",
          "transactionHash": "0x1b8987072db273d7eac7c440e5bdcd2d094c8e92fec4ae0ee1374c7a455f3d7c",
          "transactionIndex": "0x13",
          "logIndex": "0x1d",
          "removed": false
        }
      ],
      "logsBloom": "0x00000000000000000000000404000000008000000000000002000000000000000000000000000000000000000000000000000000000000000000000000200000000000000000000000000000000000000000000000000000000000000000000000000000000000000000000000000000000000002000000000000000000000000000000000000000000000020000000000000000000000000000000000000000020000000000000000000000000008000000000000000000000000000000000000000040000000000000000000000000000000000000000000000000000000000010000000000000000000000000000000000000000000000000800000000000",
      "type": "0x2",
      "transactionHash": "0x1b8987072db273d7eac7c440e5bdcd2d094c8e92fec4ae0ee1374c7a455f3d7c",
      "transactionIndex": "0x13",
      "blockHash": "0xd4949e2e3a8a1bbace4e63c333fc295e462e2e5985ecc673871f15af46738914",
      "blockNumber": "0x18a2aac",
      "gasUsed": "0x70b7",
      "effectiveGasPrice": "0xf43ea",
      "from": "0xa6b3d200cd34ca14d7579dac8b054bf50a62c37c",
      "to": "0x3d384beb1ba0197e6a87668e1d68267164c8b776",
      "contractAddress": null,
      "l1BaseFeeScalar": "0x44d",
      "l1BlobBaseFee": "0x5adcf4",
      "l1BlobBaseFeeScalar": "0xa118b",
      "l1Fee": "0x630f164b",
      "l1GasPrice": "0x2aeffb89",
      "l1GasUsed": "0x640"
    },
    {
      "status": "0x1",
      "cumulativeGasUsed": "0x19ea11",
      "logs": [
        {
          "address": "0x3d384beb1ba0197e6a87668e1d68267164c8b776",
          "topics": [
            "0xddf252ad1be2c89b69c2b068fc378daa952ba7f163c4a11628f55a4df523b3ef",
            "0x000000000000000000000000a6b3d200cd34ca14d7579dac8b054bf50a62c37c",
            "0x0000000000000000000000000000000000000000000000000000000000000000"
          ],
          "data": "0x0000000000000000000000000000000000000000000000000000009c76524000",
          "blockHash": "0xd91524737782f09a3b1b4e4537b2c1c20e662de6e28cb16d188324d193dca76f",
          "blockNumber": "0x18a2aac",
          "blockTimestamp": "0x6827b438",
          "transactionHash": "0x41119227a03a3120109d711b87b5e77c8bdea1845bd602f76744e9b9b9bc495c",
          "transactionIndex": "0x14",
          "logIndex": "0x1e",
          "removed": false
        },
        {
          "address": "0x3d384beb1ba0197e6a87668e1d68267164c8b776",
          "topics": [
            "0xddf252ad1be2c89b69c2b068fc378daa952ba7f163c4a11628f55a4df523b3ef",
            "0x0000000000000000000000000000000000000000000000000000000000000000",
            "0x000000000000000000000000a6b3d200cd34ca14d7579dac8b054bf50a62c37c"
          ],
          "data": "0x00000000000000000000000000000000000000000000000000000000280de800",
          "blockHash": "0xd91524737782f09a3b1b4e4537b2c1c20e662de6e28cb16d188324d193dca76f",
          "blockNumber": "0x18a2aac",
          "blockTimestamp": "0x6827b438",
          "transactionHash": "0x41119227a03a3120109d711b87b5e77c8bdea1845bd602f76744e9b9b9bc495c",
          "transactionIndex": "0x14",
          "logIndex": "0x1f",
          "removed": false
        },
        {
          "address": "0x8f17e2128a4f917ec4147c15fc90badd79e7f090",
          "topics": [
            "0x73d7115a3106da3e0d40e7f29f2941645b2b6f2fd75328fa464692cf0e42a39f"
          ],
          "data": "0x000000000000000000000000a6b3d200cd34ca14d7579dac8b054bf50a62c37c0000000000000000000000000000000000000000000000000000009c76524000",
          "blockHash": "0xd91524737782f09a3b1b4e4537b2c1c20e662de6e28cb16d188324d193dca76f",
          "blockNumber": "0x18a2aac",
          "blockTimestamp": "0x6827b438",
          "transactionHash": "0x41119227a03a3120109d711b87b5e77c8bdea1845bd602f76744e9b9b9bc495c",
          "transactionIndex": "0x14",
          "logIndex": "0x20",
          "removed": false
        }
      ],
      "logsBloom": "0x00000000002000000000000400000000008000000000000002000000000000000000000000000000000000000000000000000000000000000000000000000000000000000000000000000008000000000000000000000000040000000400000000000000020000000000000000000800000000002000000000000010000000000000000000001000000000020000000000000000000000000000000000000000000000000000000000000000000000000000000000000000000000000000000000200042000000000000000000000000000000000000000000000000000020000000000000000400000000000000000000000000000000000000000000000000",
      "type": "0x2",
      "transactionHash": "0x41119227a03a3120109d711b87b5e77c8bdea1845bd602f76744e9b9b9bc495c",
      "transactionIndex": "0x14",
      "blockHash": "0xd91524737782f09a3b1b4e4537b2c1c20e662de6e28cb16d188324d193dca76f",
      "blockNumber": "0x18a2aac",
      "gasUsed": "0x11d77",
      "effectiveGasPrice": "0xf4594",
      "from": "0xa6b3d200cd34ca14d7579dac8b054bf50a62c37c",
      "to": "0x8f17e2128a4f917ec4147c15fc90badd79e7f090",
      "contractAddress": null,
      "l1BaseFeeScalar": "0x44d",
      "l1BlobBaseFee": "0x5adcf4",
      "l1BlobBaseFeeScalar": "0xa118b",
      "l1Fee": "0x630f164b",
      "l1GasPrice": "0x2aeffb89",
      "l1GasUsed": "0x640"
    },
    {
      "status": "0x1",
      "cumulativeGasUsed": "0x1a5ad4",
      "logs": [
        {
          "address": "0x3d384beb1ba0197e6a87668e1d68267164c8b776",
          "topics": [
            "0x8c5be1e5ebec7d5bd14f71427d1e84f3dd0314c0f7b2291e5b200ac8c7c3b925",
            "0x000000000000000000000000a6b3d200cd34ca14d7579dac8b054bf50a62c37c",
            "0x0000000000000000000000008f17e2128a4f917ec4147c15fc90badd79e7f090"
          ],
          "data": "0x0000000000000000000000000000000000000000000000000000016d14154000",
          "blockHash": "0x79517f4967b317d9a04226e354410e0d880591db6afdeb8311ace70806a892e9",
          "blockNumber": "0x18a2aac",
          "blockTimestamp": "0x6827b438",
          "transactionHash": "0xf7db337a43f4deb488f8270dd3200f139318681e146b2cb37a6b084da5ffa81e",
          "transactionIndex": "0x15",
          "logIndex": "0x21",
          "removed": false
        }
      ],
      "logsBloom": "0x00000000000000000000000404000000008000000000000002000000000000000000000000000000000000000000000000000000000000000000000000200000000000000000000000000000000000000000000000000000000000000000000000000000000000000000000000000000000000002000000000000000000000000000000000000000000000020000000000000000000000000000000000000000020000000000000000000000000008000000000000000000000000000000000000000040000000000000000000000000000000000000000000000000000000000010000000000000000000000000000000000000000000000000800000000000",
      "type": "0x2",
      "transactionHash": "0xf7db337a43f4deb488f8270dd3200f139318681e146b2cb37a6b084da5ffa81e",
      "transactionIndex": "0x15",
      "blockHash": "0x79517f4967b317d9a04226e354410e0d880591db6afdeb8311ace70806a892e9",
      "blockNumber": "0x18a2aac",
      "gasUsed": "0x70c3",
      "effectiveGasPrice": "0xf4594",
      "from": "0xa6b3d200cd34ca14d7579dac8b054bf50a62c37c",
      "to": "0x3d384beb1ba0197e6a87668e1d68267164c8b776",
      "contractAddress": null,
      "l1BaseFeeScalar": "0x44d",
      "l1BlobBaseFee": "0x5adcf4",
      "l1BlobBaseFeeScalar": "0xa118b",
      "l1Fee": "0x630f164b",
      "l1GasPrice": "0x2aeffb89",
      "l1GasUsed": "0x640"
    },
    {
      "status": "0x1",
      "cumulativeGasUsed": "0x1ba38d",
      "logs": [
        {
          "address": "0x3d384beb1ba0197e6a87668e1d68267164c8b776",
          "topics": [
            "0xddf252ad1be2c89b69c2b068fc378daa952ba7f163c4a11628f55a4df523b3ef",
            "0x000000000000000000000000a6b3d200cd34ca14d7579dac8b054bf50a62c37c",
            "0x0000000000000000000000000000000000000000000000000000000000000000"
          ],
          "data": "0x0000000000000000000000000000000000000000000000000000016d14154000",
          "blockHash": "0xd4949e2e3a8a1bbace4e63c333fc295e462e2e5985ecc673871f15af46738914",
          "blockNumber": "0x18a2aac",
          "transactionHash": "0xa2aa59b205b2e455352988443e371ca4981d0e70dfdb072b8e46faec56b72081",
          "transactionIndex": "0x16",
          "logIndex": "0x22",
          "removed": false
        },
        {
          "address": "0x3d384beb1ba0197e6a87668e1d68267164c8b776",
          "topics": [
            "0xddf252ad1be2c89b69c2b068fc378daa952ba7f163c4a11628f55a4df523b3ef",
            "0x0000000000000000000000000000000000000000000000000000000000000000",
            "0x000000000000000000000000a6b3d200cd34ca14d7579dac8b054bf50a62c37c"
          ],
          "data": "0x000000000000000000000000000000000000000000000000000000005d75c800",
          "blockHash": "0xd4949e2e3a8a1bbace4e63c333fc295e462e2e5985ecc673871f15af46738914",
          "blockNumber": "0x18a2aac",
          "transactionHash": "0xa2aa59b205b2e455352988443e371ca4981d0e70dfdb072b8e46faec56b72081",
          "transactionIndex": "0x16",
          "logIndex": "0x23",
          "removed": false
        },
        {
          "address": "0x5405e3a584014c8659ba10591c1b7d55cb1cfc0d",
          "topics": [
            "0xddf252ad1be2c89b69c2b068fc378daa952ba7f163c4a11628f55a4df523b3ef",
            "0x0000000000000000000000008f17e2128a4f917ec4147c15fc90badd79e7f090",
            "0x000000000000000000000000a6b3d200cd34ca14d7579dac8b054bf50a62c37c"
          ],
          "data": "0x0000000000000000000000000000000000000000000000000000000051f4d5c0",
          "blockHash": "0xd4949e2e3a8a1bbace4e63c333fc295e462e2e5985ecc673871f15af46738914",
          "blockNumber": "0x18a2aac",
          "transactionHash": "0xa2aa59b205b2e455352988443e371ca4981d0e70dfdb072b8e46faec56b72081",
          "transactionIndex": "0x16",
          "logIndex": "0x24",
          "removed": false
        },
        {
          "address": "0x8f17e2128a4f917ec4147c15fc90badd79e7f090",
          "topics": [
            "0xdaed309a628faec6cab72194019e2a1a34e890ca9bf9be99788992dd54692819"
          ],
          "data": "0x000000000000000000000000a6b3d200cd34ca14d7579dac8b054bf50a62c37c00000000000000000000000000000000000000000000000000000000000000140000000000000000000000000000000000000000000000000000000051f4d5c0",
          "blockHash": "0xd4949e2e3a8a1bbace4e63c333fc295e462e2e5985ecc673871f15af46738914",
          "blockNumber": "0x18a2aac",
          "transactionHash": "0xa2aa59b205b2e455352988443e371ca4981d0e70dfdb072b8e46faec56b72081",
          "transactionIndex": "0x16",
          "logIndex": "0x25",
          "removed": false
        },
        {
          "address": "0x8f17e2128a4f917ec4147c15fc90badd79e7f090",
          "topics": [
            "0x73d7115a3106da3e0d40e7f29f2941645b2b6f2fd75328fa464692cf0e42a39f"
          ],
          "data": "0x000000000000000000000000a6b3d200cd34ca14d7579dac8b054bf50a62c37c0000000000000000000000000000000000000000000000000000016d14154000",
          "blockHash": "0xd4949e2e3a8a1bbace4e63c333fc295e462e2e5985ecc673871f15af46738914",
          "blockNumber": "0x18a2aac",
          "transactionHash": "0xa2aa59b205b2e455352988443e371ca4981d0e70dfdb072b8e46faec56b72081",
          "transactionIndex": "0x16",
          "logIndex": "0x26",
          "removed": false
        }
      ],
      "logsBloom": "0x00000000002000000000000404000000008000000000000002000000000000000000080080000000000000000000000000000000000000000002000000000020000000000000000000000008000000000000000000000000040000000400000000000000020000000000000000000800000000002000000000000010000000000000000000001000000000020000000000000000000000000000000000000000000000000000000000000000000008000000000000000000000000000000000000200042000000000000000000000000000000000000000000000000000020000001000000000400000000000000000000000000000020000000800000000000",
      "type": "0x2",
      "transactionHash": "0xa2aa59b205b2e455352988443e371ca4981d0e70dfdb072b8e46faec56b72081",
      "transactionIndex": "0x16",
      "blockHash": "0xd4949e2e3a8a1bbace4e63c333fc295e462e2e5985ecc673871f15af46738914",
      "blockNumber": "0x18a2aac",
      "gasUsed": "0x148b9",
      "effectiveGasPrice": "0xf43ea",
      "from": "0xa6b3d200cd34ca14d7579dac8b054bf50a62c37c",
      "to": "0x8f17e2128a4f917ec4147c15fc90badd79e7f090",
      "contractAddress": null,
      "l1BaseFeeScalar": "0x44d",
      "l1BlobBaseFee": "0x5adcf4",
      "l1BlobBaseFeeScalar": "0xa118b",
      "l1Fee": "0x630f164b",
      "l1GasPrice": "0x2aeffb89",
      "l1GasUsed": "0x640"
    }
  ],
  "libraries": [],
  "pending": [],
  "returns": {},
  "timestamp": 1747432504,
  "chain": 84532,
  "commit": "96c4dcd"
}