{
  "transactions": [
    {
      "hash": "0xae2810e0861a88dcee6670869d832aaa570507f12e149380feb6638dc406c26b",
      "transactionType": "CALL",
      "contractName": null,
      "contractAddress": "0x5405e3a584014c8659ba10591c1b7d55cb1cfc0d",
      "function": "approve(address,uint256)",
      "arguments": [
        "0x8f17E2128a4F917ec4147c15FC90bADd79E7F090",
        "115792089237316195423570985008687907853269984665640564039457584007913129639935"
      ],
      "transaction": {
        "from": "0xa6b3d200cd34ca14d7579dac8b054bf50a62c37c",
        "to": "0x5405e3a584014c8659ba10591c1b7d55cb1cfc0d",
        "gas": "0xf9a4",
        "value": "0x0",
        "input": "0x095ea7b30000000000000000000000008f17e2128a4f917ec4147c15fc90badd79e7f090ffffffffffffffffffffffffffffffffffffffffffffffffffffffffffffffff",
        "nonce": "0x597",
        "chainId": "0x14a34"
      },
      "additionalContracts": [],
      "isFixedGasLimit": false
    },
    {
      "hash": "0xc7889c2b9131b3bf9a8aacba2beb89d5d0fe4f7947fee74935c1153a535c181a",
      "transactionType": "CALL",
      "contractName": "VCOPCollateralManager",
      "contractAddress": "0x8f17e2128a4f917ec4147c15fc90badd79e7f090",
      "function": "createPosition(address,uint256,uint256)",
      "arguments": [
        "0x5405e3a584014c8659BA10591c1b7D55cB1cFc0d",
        "1000000000",
        "2240000000000"
      ],
      "transaction": {
        "from": "0xa6b3d200cd34ca14d7579dac8b054bf50a62c37c",
        "to": "0x8f17e2128a4f917ec4147c15fc90badd79e7f090",
        "gas": "0x37ebd",
        "value": "0x0",
        "input": "0x75a08cce0000000000000000000000005405e3a584014c8659ba10591c1b7d55cb1cfc0d000000000000000000000000000000000000000000000000000000003b9aca00000000000000000000000000000000000000000000000000000002098a678000",
        "nonce": "0x598",
        "chainId": "0x14a34"
      },
      "additionalContracts": [],
      "isFixedGasLimit": false
    },
    {
      "hash": "0xe16acf5c16938aa7f9fca3631cb8d549f4ae5ed8f0f4d91cf3113ba254e6f62e",
      "transactionType": "CALL",
      "contractName": "VCOPCollateralManager",
      "contractAddress": "0x8f17e2128a4f917ec4147c15fc90badd79e7f090",
      "function": "addCollateral(uint256,uint256)",
      "arguments": [
        "19",
        "500000000"
      ],
      "transaction": {
        "from": "0xa6b3d200cd34ca14d7579dac8b054bf50a62c37c",
        "to": "0x8f17e2128a4f917ec4147c15fc90badd79e7f090",
        "gas": "0x119f3",
        "value": "0x0",
        "input": "0xa8f35adf0000000000000000000000000000000000000000000000000000000000000013000000000000000000000000000000000000000000000000000000001dcd6500",
        "nonce": "0x599",
        "chainId": "0x14a34"
      },
      "additionalContracts": [],
      "isFixedGasLimit": false
    },
    {
      "hash": "0x77364c991f8ce06bfa13767a86c2ca40d53ccb8bc3826a6e57a6fd7749e20a43",
      "transactionType": "CALL",
      "contractName": "VCOPCollateralManager",
      "contractAddress": "0x8f17e2128a4f917ec4147c15fc90badd79e7f090",
      "function": "withdrawCollateral(uint256,uint256)",
      "arguments": [
        "19",
        "125000000"
      ],
      "transaction": {
        "from": "0xa6b3d200cd34ca14d7579dac8b054bf50a62c37c",
        "to": "0x8f17e2128a4f917ec4147c15fc90badd79e7f090",
        "gas": "0x1863a",
        "value": "0x0",
        "input": "0x767a7b0500000000000000000000000000000000000000000000000000000000000000130000000000000000000000000000000000000000000000000000000007735940",
        "nonce": "0x59a",
        "chainId": "0x14a34"
      },
      "additionalContracts": [],
      "isFixedGasLimit": false
    },
    {
      "hash": "0x956c71f1e908686aaa753c3143a98b8de8a0c0bade5838e0a2f58b003ddbec27",
      "transactionType": "CALL",
      "contractName": "VCOPCollateralized",
      "contractAddress": "0x3d384beb1ba0197e6a87668e1d68267164c8b776",
      "function": "approve(address,uint256)",
      "arguments": [
        "0x8f17E2128a4F917ec4147c15FC90bADd79E7F090",
        "672000000000"
      ],
      "transaction": {
        "from": "0xa6b3d200cd34ca14d7579dac8b054bf50a62c37c",
        "to": "0x3d384beb1ba0197e6a87668e1d68267164c8b776",
        "gas": "0x9baf",
        "value": "0x0",
        "input": "0x095ea7b30000000000000000000000008f17e2128a4f917ec4147c15fc90badd79e7f0900000000000000000000000000000000000000000000000000000009c76524000",
        "nonce": "0x59b",
        "chainId": "0x14a34"
      },
      "additionalContracts": [],
      "isFixedGasLimit": false
    },
    {
      "hash": "0x32a2b665941d08b32a3d834a440a24c0af7b1abdc8534be69cf131b01e31b910",
      "transactionType": "CALL",
      "contractName": "VCOPCollateralManager",
      "contractAddress": "0x8f17e2128a4f917ec4147c15fc90badd79e7f090",
      "function": "repayDebt(uint256,uint256)",
      "arguments": [
        "19",
        "672000000000"
      ],
      "transaction": {
        "from": "0xa6b3d200cd34ca14d7579dac8b054bf50a62c37c",
        "to": "0x8f17e2128a4f917ec4147c15fc90badd79e7f090",
        "gas": "0x18a4b",
        "value": "0x0",
        "input": "0x015cb0a500000000000000000000000000000000000000000000000000000000000000130000000000000000000000000000000000000000000000000000009c76524000",
        "nonce": "0x59c",
        "chainId": "0x14a34"
      },
      "additionalContracts": [],
      "isFixedGasLimit": false
    },
    {
      "hash": "0x439326ffcbcb30e5109df7746029a8c96e842d970600e2b751171e877f4d78ee",
      "transactionType": "CALL",
      "contractName": "VCOPCollateralized",
      "contractAddress": "0x3d384beb1ba0197e6a87668e1d68267164c8b776",
      "function": "approve(address,uint256)",
      "arguments": [
        "0x8f17E2128a4F917ec4147c15FC90bADd79E7F090",
        "1568000000000"
      ],
      "transaction": {
        "from": "0xa6b3d200cd34ca14d7579dac8b054bf50a62c37c",
        "to": "0x3d384beb1ba0197e6a87668e1d68267164c8b776",
        "gas": "0xa4e9",
        "value": "0x0",
        "input": "0x095ea7b30000000000000000000000008f17e2128a4f917ec4147c15fc90badd79e7f0900000000000000000000000000000000000000000000000000000016d14154000",
        "nonce": "0x59d",
        "chainId": "0x14a34"
      },
      "additionalContracts": [],
      "isFixedGasLimit": false
    },
    {
      "hash": "0x330f6f3eac9375553c0ea77a0c8fe4e5b584f8968e9eb9a5f684420511a0843d",
      "transactionType": "CALL",
      "contractName": "VCOPCollateralManager",
      "contractAddress": "0x8f17e2128a4f917ec4147c15fc90badd79e7f090",
      "function": "repayDebt(uint256,uint256)",
      "arguments": [
        "19",
        "1568000000000"
      ],
      "transaction": {
        "from": "0xa6b3d200cd34ca14d7579dac8b054bf50a62c37c",
        "to": "0x8f17e2128a4f917ec4147c15fc90badd79e7f090",
        "gas": "0x1e0c1",
        "value": "0x0",
        "input": "0x015cb0a500000000000000000000000000000000000000000000000000000000000000130000000000000000000000000000000000000000000000000000016d14154000",
        "nonce": "0x59e",
        "chainId": "0x14a34"
      },
      "additionalContracts": [],
      "isFixedGasLimit": false
    }
  ],
  "receipts": [
    {
      "status": "0x1",
      "cumulativeGasUsed": "0x98bcd1",
      "logs": [
        {
          "address": "0x5405e3a584014c8659ba10591c1b7d55cb1cfc0d",
          "topics": [
            "0x8c5be1e5ebec7d5bd14f71427d1e84f3dd0314c0f7b2291e5b200ac8c7c3b925",
            "0x000000000000000000000000a6b3d200cd34ca14d7579dac8b054bf50a62c37c",
            "0x0000000000000000000000008f17e2128a4f917ec4147c15fc90badd79e7f090"
          ],
          "data": "0xffffffffffffffffffffffffffffffffffffffffffffffffffffffffffffffff",
          "blockHash": "0x5f868e494f8f2dcf04a536407f66c318aebc61d21a01487ac4a5e62c87339526",
          "blockNumber": "0x18a25c9",
          "blockTimestamp": "0x6827aa72",
          "transactionHash": "0xae2810e0861a88dcee6670869d832aaa570507f12e149380feb6638dc406c26b",
          "transactionIndex": "0x12",
          "logIndex": "0x91",
          "removed": false
        }
      ],
      "logsBloom": "0x00000000000000000000000404000000000000000000000002000000000000000000080000000000000000000000000000000000000000000000000000200020000000000000000000000000000000000000000000000000000000000000000000000000000000000000000000000000000000000000000000000000000000000000000000000000000000000000000000000000000000000000000000000000020000000000000000000000000008000000000000000000000000000000000000000040000000000000000000000000000000000000000000000000000000000011000000000000000000000000000000000000000000000000800000000000",
      "type": "0x2",
      "transactionHash": "0xae2810e0861a88dcee6670869d832aaa570507f12e149380feb6638dc406c26b",
      "transactionIndex": "0x12",
      "blockHash": "0x5f868e494f8f2dcf04a536407f66c318aebc61d21a01487ac4a5e62c87339526",
      "blockNumber": "0x18a25c9",
      "gasUsed": "0xb4bd",
      "effectiveGasPrice": "0xf454d",
      "from": "0xa6b3d200cd34ca14d7579dac8b054bf50a62c37c",
      "to": "0x5405e3a584014c8659ba10591c1b7d55cb1cfc0d",
      "contractAddress": null,
      "l1BaseFeeScalar": "0x44d",
      "l1BlobBaseFee": "0x8d85a",
      "l1BlobBaseFeeScalar": "0xa118b",
      "l1Fee": "0x6277d95e",
      "l1GasPrice": "0x369a5115",
      "l1GasUsed": "0x640"
    },
    {
      "status": "0x1",
      "cumulativeGasUsed": "0x9b4498",
      "logs": [
        {
          "address": "0x5405e3a584014c8659ba10591c1b7d55cb1cfc0d",
          "topics": [
            "0xddf252ad1be2c89b69c2b068fc378daa952ba7f163c4a11628f55a4df523b3ef",
            "0x000000000000000000000000a6b3d200cd34ca14d7579dac8b054bf50a62c37c",
            "0x0000000000000000000000008f17e2128a4f917ec4147c15fc90badd79e7f090"
          ],
          "data": "0x000000000000000000000000000000000000000000000000000000003b9aca00",
          "blockHash": "0x5f868e494f8f2dcf04a536407f66c318aebc61d21a01487ac4a5e62c87339526",
          "blockNumber": "0x18a25c9",
          "blockTimestamp": "0x6827aa72",
          "transactionHash": "0xc7889c2b9131b3bf9a8aacba2beb89d5d0fe4f7947fee74935c1153a535c181a",
          "transactionIndex": "0x13",
          "logIndex": "0x92",
          "removed": false
        },
        {
          "address": "0x3d384beb1ba0197e6a87668e1d68267164c8b776",
          "topics": [
            "0xddf252ad1be2c89b69c2b068fc378daa952ba7f163c4a11628f55a4df523b3ef",
            "0x0000000000000000000000000000000000000000000000000000000000000000",
            "0x000000000000000000000000a6b3d200cd34ca14d7579dac8b054bf50a62c37c"
          ],
          "data": "0x0000000000000000000000000000000000000000000000000000020904e3d000",
          "blockHash": "0x5f868e494f8f2dcf04a536407f66c318aebc61d21a01487ac4a5e62c87339526",
          "blockNumber": "0x18a25c9",
          "blockTimestamp": "0x6827aa72",
          "transactionHash": "0xc7889c2b9131b3bf9a8aacba2beb89d5d0fe4f7947fee74935c1153a535c181a",
          "transactionIndex": "0x13",
          "logIndex": "0x93",
          "removed": false
        },
        {
          "address": "0x3d384beb1ba0197e6a87668e1d68267164c8b776",
          "topics": [
            "0xddf252ad1be2c89b69c2b068fc378daa952ba7f163c4a11628f55a4df523b3ef",
            "0x0000000000000000000000000000000000000000000000000000000000000000",
            "0x000000000000000000000000a6b3d200cd34ca14d7579dac8b054bf50a62c37c"
          ],
          "data": "0x000000000000000000000000000000000000000000000000000000008583b000",
          "blockHash": "0x5f868e494f8f2dcf04a536407f66c318aebc61d21a01487ac4a5e62c87339526",
          "blockNumber": "0x18a25c9",
          "blockTimestamp": "0x6827aa72",
          "transactionHash": "0xc7889c2b9131b3bf9a8aacba2beb89d5d0fe4f7947fee74935c1153a535c181a",
          "transactionIndex": "0x13",
          "logIndex": "0x94",
          "removed": false
        },
        {
          "address": "0x8f17e2128a4f917ec4147c15fc90badd79e7f090",
          "topics": [
            "0xafda9316e64488bba379a6614bcee4516ef1793ee3844298c937b46b2cae5829"
          ],
          "data": "0x000000000000000000000000a6b3d200cd34ca14d7579dac8b054bf50a62c37c00000000000000000000000000000000000000000000000000000000000000130000000000000000000000005405e3a584014c8659ba10591c1b7d55cb1cfc0d000000000000000000000000000000000000000000000000000000003b9aca00000000000000000000000000000000000000000000000000000002098a678000",
          "blockHash": "0x5f868e494f8f2dcf04a536407f66c318aebc61d21a01487ac4a5e62c87339526",
          "blockNumber": "0x18a25c9",
          "blockTimestamp": "0x6827aa72",
          "transactionHash": "0xc7889c2b9131b3bf9a8aacba2beb89d5d0fe4f7947fee74935c1153a535c181a",
          "transactionIndex": "0x13",
          "logIndex": "0x95",
          "removed": false
        },
        {
          "address": "0x8f17e2128a4f917ec4147c15fc90badd79e7f090",
          "topics": [
            "0xb8d0a675deb3f0103b7b5bfee7759ee667ec4a083833f9674ae14b688cb10551"
          ],
          "data": "0x000000000000000000000000a6b3d200cd34ca14d7579dac8b054bf50a62c37c0000000000000000000000000000000000000000000000000000020904e3d000",
          "blockHash": "0x5f868e494f8f2dcf04a536407f66c318aebc61d21a01487ac4a5e62c87339526",
          "blockNumber": "0x18a25c9",
          "blockTimestamp": "0x6827aa72",
          "transactionHash": "0xc7889c2b9131b3bf9a8aacba2beb89d5d0fe4f7947fee74935c1153a535c181a",
          "transactionIndex": "0x13",
          "logIndex": "0x96",
          "removed": false
        }
      ],
      "logsBloom": "0x00000000002000000000000404000000008000000000000002000000000000000000080000000000000000000000000000000000000000000000000000000020000000000000000000000008000000000000000000000000000000000400000000800000020000200000000000000800000000002000000000000010000000000000000000200000000000020000000000000000000000000000000000400000000000000000000000000000000008000000000000000000000000000000000000000042000000000000000000000000000000020000000000000000000020100001000000000400000000000000000000000000000000000000800000000000",
      "type": "0x2",
      "transactionHash": "0xc7889c2b9131b3bf9a8aacba2beb89d5d0fe4f7947fee74935c1153a535c181a",
      "transactionIndex": "0x13",
      "blockHash": "0x5f868e494f8f2dcf04a536407f66c318aebc61d21a01487ac4a5e62c87339526",
      "blockNumber": "0x18a25c9",
      "gasUsed": "0x287c7",
      "effectiveGasPrice": "0xf454d",
      "from": "0xa6b3d200cd34ca14d7579dac8b054bf50a62c37c",
      "to": "0x8f17e2128a4f917ec4147c15fc90badd79e7f090",
      "contractAddress": null,
      "l1BaseFeeScalar": "0x44d",
      "l1BlobBaseFee": "0x8d85a",
      "l1BlobBaseFeeScalar": "0xa118b",
      "l1Fee": "0x6277d95e",
      "l1GasPrice": "0x369a5115",
      "l1GasUsed": "0x640"
    },
    {
      "status": "0x1",
      "cumulativeGasUsed": "0x9c0562",
      "logs": [
        {
          "address": "0x5405e3a584014c8659ba10591c1b7d55cb1cfc0d",
          "topics": [
            "0xddf252ad1be2c89b69c2b068fc378daa952ba7f163c4a11628f55a4df523b3ef",
            "0x000000000000000000000000a6b3d200cd34ca14d7579dac8b054bf50a62c37c",
            "0x0000000000000000000000008f17e2128a4f917ec4147c15fc90badd79e7f090"
          ],
          "data": "0x000000000000000000000000000000000000000000000000000000001dcd6500",
          "blockHash": "0x5f868e494f8f2dcf04a536407f66c318aebc61d21a01487ac4a5e62c87339526",
          "blockNumber": "0x18a25c9",
          "blockTimestamp": "0x6827aa72",
          "transactionHash": "0xe16acf5c16938aa7f9fca3631cb8d549f4ae5ed8f0f4d91cf3113ba254e6f62e",
          "transactionIndex": "0x14",
          "logIndex": "0x97",
          "removed": false
        },
        {
          "address": "0x8f17e2128a4f917ec4147c15fc90badd79e7f090",
          "topics": [
            "0xf4d587c98d234ca4d147061e6b5167e7f41ee17f11562a9f0b49570abece859e"
          ],
          "data": "0x000000000000000000000000a6b3d200cd34ca14d7579dac8b054bf50a62c37c0000000000000000000000000000000000000000000000000000000000000013000000000000000000000000000000000000000000000000000000001dcd6500",
          "blockHash": "0x5f868e494f8f2dcf04a536407f66c318aebc61d21a01487ac4a5e62c87339526",
          "blockNumber": "0x18a25c9",
          "blockTimestamp": "0x6827aa72",
          "transactionHash": "0xe16acf5c16938aa7f9fca3631cb8d549f4ae5ed8f0f4d91cf3113ba254e6f62e",
          "transactionIndex": "0x14",
          "logIndex": "0x98",
          "removed": false
        }
      ],
      "logsBloom": "0x00000000002020000000000404000000000000000000000002000000000000000000080000000000000000000000000000000000000000000000000000000020000000000000000000000008000000000000000000000000000000000400000000000000000000000000000000000000000000000000000000000010000000000000080000000000000000000000000400000000000000000000000000000000000000000000000000000000000008000000000000000000000000000000000000000042000000000000000000000000000000000000000000000000000000000001000000000400000000000000000000000000000000000000800000000000",
      "type": "0x2",
      "transactionHash": "0xe16acf5c16938aa7f9fca3631cb8d549f4ae5ed8f0f4d91cf3113ba254e6f62e",
      "transactionIndex": "0x14",
      "blockHash": "0x5f868e494f8f2dcf04a536407f66c318aebc61d21a01487ac4a5e62c87339526",
      "blockNumber": "0x18a25c9",
      "gasUsed": "0xc0ca",
      "effectiveGasPrice": "0xf454d",
      "from": "0xa6b3d200cd34ca14d7579dac8b054bf50a62c37c",
      "to": "0x8f17e2128a4f917ec4147c15fc90badd79e7f090",
      "contractAddress": null,
      "l1BaseFeeScalar": "0x44d",
      "l1BlobBaseFee": "0x8d85a",
      "l1BlobBaseFeeScalar": "0xa118b",
      "l1Fee": "0x6277d95e",
      "l1GasPrice": "0x369a5115",
      "l1GasUsed": "0x640"
    },
    {
      "status": "0x1",
      "cumulativeGasUsed": "0x9d1fe7",
      "logs": [
        {
          "address": "0x5405e3a584014c8659ba10591c1b7d55cb1cfc0d",
          "topics": [
            "0xddf252ad1be2c89b69c2b068fc378daa952ba7f163c4a11628f55a4df523b3ef",
            "0x0000000000000000000000008f17e2128a4f917ec4147c15fc90badd79e7f090",
            "0x000000000000000000000000a6b3d200cd34ca14d7579dac8b054bf50a62c37c"
          ],
          "data": "0x0000000000000000000000000000000000000000000000000000000007735940",
          "blockHash": "0x5f868e494f8f2dcf04a536407f66c318aebc61d21a01487ac4a5e62c87339526",
          "blockNumber": "0x18a25c9",
          "blockTimestamp": "0x6827aa72",
          "transactionHash": "0x77364c991f8ce06bfa13767a86c2ca40d53ccb8bc3826a6e57a6fd7749e20a43",
          "transactionIndex": "0x15",
          "logIndex": "0x99",
          "removed": false
        },
        {
          "address": "0x8f17e2128a4f917ec4147c15fc90badd79e7f090",
          "topics": [
            "0xdaed309a628faec6cab72194019e2a1a34e890ca9bf9be99788992dd54692819"
          ],
          "data": "0x000000000000000000000000a6b3d200cd34ca14d7579dac8b054bf50a62c37c00000000000000000000000000000000000000000000000000000000000000130000000000000000000000000000000000000000000000000000000007735940",
          "blockHash": "0x5f868e494f8f2dcf04a536407f66c318aebc61d21a01487ac4a5e62c87339526",
          "blockNumber": "0x18a25c9",
          "blockTimestamp": "0x6827aa72",
          "transactionHash": "0x77364c991f8ce06bfa13767a86c2ca40d53ccb8bc3826a6e57a6fd7749e20a43",
          "transactionIndex": "0x15",
          "logIndex": "0x9a",
          "removed": false
        }
      ],
      "logsBloom": "0x00000000002000000000000404000000000000000000000002000000000000000000080080000000000000000000000000000000000000000002000000000020000000000000000000000008000000000000000000000000000000000400000000000000000000000000000000000000000000000000000000000010000000000000000000000000000000000000000000000000000000000000000000000000000000000000000000000000000008000000000000000000000000000000000000000042000000000000000000000000000000000000000000000000000000000001000000000400000000000000000000000000000020000000800000000000",
      "type": "0x2",
      "transactionHash": "0x77364c991f8ce06bfa13767a86c2ca40d53ccb8bc3826a6e57a6fd7749e20a43",
      "transactionIndex": "0x15",
      "blockHash": "0x5f868e494f8f2dcf04a536407f66c318aebc61d21a01487ac4a5e62c87339526",
      "blockNumber": "0x18a25c9",
      "gasUsed": "0x11a85",
      "effectiveGasPrice": "0xf454d",
      "from": "0xa6b3d200cd34ca14d7579dac8b054bf50a62c37c",
      "to": "0x8f17e2128a4f917ec4147c15fc90badd79e7f090",
      "contractAddress": null,
      "l1BaseFeeScalar": "0x44d",
      "l1BlobBaseFee": "0x8d85a",
      "l1BlobBaseFeeScalar": "0xa118b",
      "l1Fee": "0x6277d95e",
      "l1GasPrice": "0x369a5115",
      "l1GasUsed": "0x640"
    },
    {
      "status": "0x1",
      "cumulativeGasUsed": "0x9d909e",
      "logs": [
        {
          "address": "0x3d384beb1ba0197e6a87668e1d68267164c8b776",
          "topics": [
            "0x8c5be1e5ebec7d5bd14f71427d1e84f3dd0314c0f7b2291e5b200ac8c7c3b925",
            "0x000000000000000000000000a6b3d200cd34ca14d7579dac8b054bf50a62c37c",
            "0x0000000000000000000000008f17e2128a4f917ec4147c15fc90badd79e7f090"
          ],
          "data": "0x0000000000000000000000000000000000000000000000000000009c76524000",
          "blockHash": "0x5f868e494f8f2dcf04a536407f66c318aebc61d21a01487ac4a5e62c87339526",
          "blockNumber": "0x18a25c9",
          "blockTimestamp": "0x6827aa72",
          "transactionHash": "0x956c71f1e908686aaa753c3143a98b8de8a0c0bade5838e0a2f58b003ddbec27",
          "transactionIndex": "0x16",
          "logIndex": "0x9b",
          "removed": false
        }
      ],
      "logsBloom": "0x00000000000000000000000404000000008000000000000002000000000000000000000000000000000000000000000000000000000000000000000000200000000000000000000000000000000000000000000000000000000000000000000000000000000000000000000000000000000000002000000000000000000000000000000000000000000000020000000000000000000000000000000000000000020000000000000000000000000008000000000000000000000000000000000000000040000000000000000000000000000000000000000000000000000000000010000000000000000000000000000000000000000000000000800000000000",
      "type": "0x2",
      "transactionHash": "0x956c71f1e908686aaa753c3143a98b8de8a0c0bade5838e0a2f58b003ddbec27",
      "transactionIndex": "0x16",
      "blockHash": "0x5f868e494f8f2dcf04a536407f66c318aebc61d21a01487ac4a5e62c87339526",
      "blockNumber": "0x18a25c9",
      "gasUsed": "0x70b7",
      "effectiveGasPrice": "0xf454d",
      "from": "0xa6b3d200cd34ca14d7579dac8b054bf50a62c37c",
      "to": "0x3d384beb1ba0197e6a87668e1d68267164c8b776",
      "contractAddress": null,
      "l1BaseFeeScalar": "0x44d",
      "l1BlobBaseFee": "0x8d85a",
      "l1BlobBaseFeeScalar": "0xa118b",
      "l1Fee": "0x6277d95e",
      "l1GasPrice": "0x369a5115",
      "l1GasUsed": "0x640"
    },
    {
      "status": "0x1",
      "cumulativeGasUsed": "0x9eae15",
      "logs": [
        {
          "address": "0x3d384beb1ba0197e6a87668e1d68267164c8b776",
          "topics": [
            "0xddf252ad1be2c89b69c2b068fc378daa952ba7f163c4a11628f55a4df523b3ef",
            "0x000000000000000000000000a6b3d200cd34ca14d7579dac8b054bf50a62c37c",
            "0x0000000000000000000000000000000000000000000000000000000000000000"
          ],
          "data": "0x0000000000000000000000000000000000000000000000000000009c76524000",
          "blockHash": "0x5f868e494f8f2dcf04a536407f66c318aebc61d21a01487ac4a5e62c87339526",
          "blockNumber": "0x18a25c9",
          "blockTimestamp": "0x6827aa72",
          "transactionHash": "0x32a2b665941d08b32a3d834a440a24c0af7b1abdc8534be69cf131b01e31b910",
          "transactionIndex": "0x17",
          "logIndex": "0x9c",
          "removed": false
        },
        {
          "address": "0x3d384beb1ba0197e6a87668e1d68267164c8b776",
          "topics": [
            "0xddf252ad1be2c89b69c2b068fc378daa952ba7f163c4a11628f55a4df523b3ef",
            "0x0000000000000000000000000000000000000000000000000000000000000000",
            "0x000000000000000000000000a6b3d200cd34ca14d7579dac8b054bf50a62c37c"
          ],
          "data": "0x00000000000000000000000000000000000000000000000000000000280de800",
          "blockHash": "0x5f868e494f8f2dcf04a536407f66c318aebc61d21a01487ac4a5e62c87339526",
          "blockNumber": "0x18a25c9",
          "blockTimestamp": "0x6827aa72",
          "transactionHash": "0x32a2b665941d08b32a3d834a440a24c0af7b1abdc8534be69cf131b01e31b910",
          "transactionIndex": "0x17",
          "logIndex": "0x9d",
          "removed": false
        },
        {
          "address": "0x8f17e2128a4f917ec4147c15fc90badd79e7f090",
          "topics": [
            "0x73d7115a3106da3e0d40e7f29f2941645b2b6f2fd75328fa464692cf0e42a39f"
          ],
          "data": "0x000000000000000000000000a6b3d200cd34ca14d7579dac8b054bf50a62c37c0000000000000000000000000000000000000000000000000000009c76524000",
          "blockHash": "0x5f868e494f8f2dcf04a536407f66c318aebc61d21a01487ac4a5e62c87339526",
          "blockNumber": "0x18a25c9",
          "blockTimestamp": "0x6827aa72",
          "transactionHash": "0x32a2b665941d08b32a3d834a440a24c0af7b1abdc8534be69cf131b01e31b910",
          "transactionIndex": "0x17",
          "logIndex": "0x9e",
          "removed": false
        }
      ],
      "logsBloom": "0x00000000002000000000000400000000008000000000000002000000000000000000000000000000000000000000000000000000000000000000000000000000000000000000000000000008000000000000000000000000040000000400000000000000020000000000000000000800000000002000000000000010000000000000000000001000000000020000000000000000000000000000000000000000000000000000000000000000000000000000000000000000000000000000000000200042000000000000000000000000000000000000000000000000000020000000000000000400000000000000000000000000000000000000000000000000",
      "type": "0x2",
      "transactionHash": "0x32a2b665941d08b32a3d834a440a24c0af7b1abdc8534be69cf131b01e31b910",
      "transactionIndex": "0x17",
      "blockHash": "0x5f868e494f8f2dcf04a536407f66c318aebc61d21a01487ac4a5e62c87339526",
      "blockNumber": "0x18a25c9",
      "gasUsed": "0x11d77",
      "effectiveGasPrice": "0xf454d",
      "from": "0xa6b3d200cd34ca14d7579dac8b054bf50a62c37c",
      "to": "0x8f17e2128a4f917ec4147c15fc90badd79e7f090",
      "contractAddress": null,
      "l1BaseFeeScalar": "0x44d",
      "l1BlobBaseFee": "0x8d85a",
      "l1BlobBaseFeeScalar": "0xa118b",
      "l1Fee": "0x6277d95e",
      "l1GasPrice": "0x369a5115",
      "l1GasUsed": "0x640"
    },
    {
      "status": "0x1",
      "cumulativeGasUsed": "0x9f1ed8",
      "logs": [
        {
          "address": "0x3d384beb1ba0197e6a87668e1d68267164c8b776",
          "topics": [
            "0x8c5be1e5ebec7d5bd14f71427d1e84f3dd0314c0f7b2291e5b200ac8c7c3b925",
            "0x000000000000000000000000a6b3d200cd34ca14d7579dac8b054bf50a62c37c",
            "0x0000000000000000000000008f17e2128a4f917ec4147c15fc90badd79e7f090"
          ],
          "data": "0x0000000000000000000000000000000000000000000000000000016d14154000",
          "blockHash": "0x5f868e494f8f2dcf04a536407f66c318aebc61d21a01487ac4a5e62c87339526",
          "blockNumber": "0x18a25c9",
          "blockTimestamp": "0x6827aa72",
          "transactionHash": "0x439326ffcbcb30e5109df7746029a8c96e842d970600e2b751171e877f4d78ee",
          "transactionIndex": "0x18",
          "logIndex": "0x9f",
          "removed": false
        }
      ],
      "logsBloom": "0x00000000000000000000000404000000008000000000000002000000000000000000000000000000000000000000000000000000000000000000000000200000000000000000000000000000000000000000000000000000000000000000000000000000000000000000000000000000000000002000000000000000000000000000000000000000000000020000000000000000000000000000000000000000020000000000000000000000000008000000000000000000000000000000000000000040000000000000000000000000000000000000000000000000000000000010000000000000000000000000000000000000000000000000800000000000",
      "type": "0x2",
      "transactionHash": "0x439326ffcbcb30e5109df7746029a8c96e842d970600e2b751171e877f4d78ee",
      "transactionIndex": "0x18",
      "blockHash": "0x5f868e494f8f2dcf04a536407f66c318aebc61d21a01487ac4a5e62c87339526",
      "blockNumber": "0x18a25c9",
      "gasUsed": "0x70c3",
      "effectiveGasPrice": "0xf454d",
      "from": "0xa6b3d200cd34ca14d7579dac8b054bf50a62c37c",
      "to": "0x3d384beb1ba0197e6a87668e1d68267164c8b776",
      "contractAddress": null,
      "l1BaseFeeScalar": "0x44d",
      "l1BlobBaseFee": "0x8d85a",
      "l1BlobBaseFeeScalar": "0xa118b",
      "l1Fee": "0x6277d95e",
      "l1GasPrice": "0x369a5115",
      "l1GasUsed": "0x640"
    },
    {
      "status": "0x1",
      "cumulativeGasUsed": "0xa5e30a",
      "logs": [
        {
          "address": "0x3d384beb1ba0197e6a87668e1d68267164c8b776",
          "topics": [
            "0xddf252ad1be2c89b69c2b068fc378daa952ba7f163c4a11628f55a4df523b3ef",
            "0x000000000000000000000000a6b3d200cd34ca14d7579dac8b054bf50a62c37c",
            "0x0000000000000000000000000000000000000000000000000000000000000000"
          ],
          "data": "0x0000000000000000000000000000000000000000000000000000016d14154000",
          "blockHash": "0xcb5a14c99987b0b75d1f2d629f99e98744262f7933311952fa25bfa66eecbc19",
          "blockNumber": "0x18a25c9",
          "blockTimestamp": "0x6827aa72",
          "transactionHash": "0x330f6f3eac9375553c0ea77a0c8fe4e5b584f8968e9eb9a5f684420511a0843d",
          "transactionIndex": "0x1d",
          "logIndex": "0xa6",
          "removed": false
        },
        {
          "address": "0x3d384beb1ba0197e6a87668e1d68267164c8b776",
          "topics": [
            "0xddf252ad1be2c89b69c2b068fc378daa952ba7f163c4a11628f55a4df523b3ef",
            "0x0000000000000000000000000000000000000000000000000000000000000000",
            "0x000000000000000000000000a6b3d200cd34ca14d7579dac8b054bf50a62c37c"
          ],
          "data": "0x000000000000000000000000000000000000000000000000000000005d75c800",
          "blockHash": "0xcb5a14c99987b0b75d1f2d629f99e98744262f7933311952fa25bfa66eecbc19",
          "blockNumber": "0x18a25c9",
          "blockTimestamp": "0x6827aa72",
          "transactionHash": "0x330f6f3eac9375553c0ea77a0c8fe4e5b584f8968e9eb9a5f684420511a0843d",
          "transactionIndex": "0x1d",
          "logIndex": "0xa7",
          "removed": false
        },
        {
          "address": "0x5405e3a584014c8659ba10591c1b7d55cb1cfc0d",
          "topics": [
            "0xddf252ad1be2c89b69c2b068fc378daa952ba7f163c4a11628f55a4df523b3ef",
            "0x0000000000000000000000008f17e2128a4f917ec4147c15fc90badd79e7f090",
            "0x000000000000000000000000a6b3d200cd34ca14d7579dac8b054bf50a62c37c"
          ],
          "data": "0x0000000000000000000000000000000000000000000000000000000051f4d5c0",
          "blockHash": "0xcb5a14c99987b0b75d1f2d629f99e98744262f7933311952fa25bfa66eecbc19",
          "blockNumber": "0x18a25c9",
          "blockTimestamp": "0x6827aa72",
          "transactionHash": "0x330f6f3eac9375553c0ea77a0c8fe4e5b584f8968e9eb9a5f684420511a0843d",
          "transactionIndex": "0x1d",
          "logIndex": "0xa8",
          "removed": false
        },
        {
          "address": "0x8f17e2128a4f917ec4147c15fc90badd79e7f090",
          "topics": [
            "0xdaed309a628faec6cab72194019e2a1a34e890ca9bf9be99788992dd54692819"
          ],
          "data": "0x000000000000000000000000a6b3d200cd34ca14d7579dac8b054bf50a62c37c00000000000000000000000000000000000000000000000000000000000000130000000000000000000000000000000000000000000000000000000051f4d5c0",
          "blockHash": "0xcb5a14c99987b0b75d1f2d629f99e98744262f7933311952fa25bfa66eecbc19",
          "blockNumber": "0x18a25c9",
          "blockTimestamp": "0x6827aa72",
          "transactionHash": "0x330f6f3eac9375553c0ea77a0c8fe4e5b584f8968e9eb9a5f684420511a0843d",
          "transactionIndex": "0x1d",
          "logIndex": "0xa9",
          "removed": false
        },
        {
          "address": "0x8f17e2128a4f917ec4147c15fc90badd79e7f090",
          "topics": [
            "0x73d7115a3106da3e0d40e7f29f2941645b2b6f2fd75328fa464692cf0e42a39f"
          ],
          "data": "0x000000000000000000000000a6b3d200cd34ca14d7579dac8b054bf50a62c37c0000000000000000000000000000000000000000000000000000016d14154000",
          "blockHash": "0xcb5a14c99987b0b75d1f2d629f99e98744262f7933311952fa25bfa66eecbc19",
          "blockNumber": "0x18a25c9",
          "blockTimestamp": "0x6827aa72",
          "transactionHash": "0x330f6f3eac9375553c0ea77a0c8fe4e5b584f8968e9eb9a5f684420511a0843d",
          "transactionIndex": "0x1d",
          "logIndex": "0xaa",
          "removed": false
        }
      ],
      "logsBloom": "0x00000000002000000000000404000000008000000000000002000000000000000000080080000000000000000000000000000000000000000002000000000020000000000000000000000008000000000000000000000000040000000400000000000000020000000000000000000800000000002000000000000010000000000000000000001000000000020000000000000000000000000000000000000000000000000000000000000000000008000000000000000000000000000000000000200042000000000000000000000000000000000000000000000000000020000001000000000400000000000000000000000000000020000000800000000000",
      "type": "0x2",
      "transactionHash": "0x330f6f3eac9375553c0ea77a0c8fe4e5b584f8968e9eb9a5f684420511a0843d",
      "transactionIndex": "0x1d",
      "blockHash": "0xcb5a14c99987b0b75d1f2d629f99e98744262f7933311952fa25bfa66eecbc19",
      "blockNumber": "0x18a25c9",
      "gasUsed": "0x148b9",
      "effectiveGasPrice": "0xf454d",
      "from": "0xa6b3d200cd34ca14d7579dac8b054bf50a62c37c",
      "to": "0x8f17e2128a4f917ec4147c15fc90badd79e7f090",
      "contractAddress": null,
      "l1BaseFeeScalar": "0x44d",
      "l1BlobBaseFee": "0x8d85a",
      "l1BlobBaseFeeScalar": "0xa118b",
      "l1Fee": "0x6277d95e",
      "l1GasPrice": "0x369a5115",
      "l1GasUsed": "0x640"
    }
  ],
  "libraries": [],
  "pending": [],
  "returns": {},
  "timestamp": 1747430001,
  "chain": 84532,
  "commit": "96c4dcd"
}