{
  "transactions": [
    {
      "hash": "0x32f16cf2a7f116e5385f105152ecf31423d0491d675ffe2f9e831a2f3743522b",
      "transactionType": "CREATE",
      "contractName": "MockERC20",
      "contractAddress": "0xc9d7a317b5a9b39d971fa4430d0fec7a572d2520",
      "function": null,
      "arguments": [
        "USD Coin",
        "USDC",
        "6"
      ],
      "transaction": {
        "from": "0xa6b3d200cd34ca14d7579dac8b054bf50a62c37c",
        "gas": "0xb461c",
        "value": "0x0",
        "input": "0x60806040523461033057610b7f8038038061001981610334565b9283398101906060818303126103305780516001600160401b0381116103305782610045918301610359565b60208201519092906001600160401b03811161033057604091610069918401610359565b91015160ff81168091036103305782516001600160401b03811161024157600354600181811c91168015610326575b602082101461022357601f81116102c3575b506020601f821160011461026057819293945f92610255575b50508160011b915f199060031b1c1916176003555b81516001600160401b03811161024157600454600181811c91168015610237575b602082101461022357601f81116101c0575b50602092601f821160011461015f57928192935f92610154575b50508160011b915f199060031b1c1916176004555b60ff1960055416176005556040516107d490816103ab8239f35b015190505f80610125565b601f1982169360045f52805f20915f5b8681106101a85750836001959610610190575b505050811b0160045561013a565b01515f1960f88460031b161c191690555f8080610182565b9192602060018192868501518155019401920161016f565b60045f527f8a35acfbc15ff81a39ae7d344fd709f28e8600b4aa8c65c6b64bfe7fe36bd19b601f830160051c81019160208410610219575b601f0160051c01905b81811061020e575061010b565b5f8155600101610201565b90915081906101f8565b634e487b7160e01b5f52602260045260245ffd5b90607f16906100f9565b634e487b7160e01b5f52604160045260245ffd5b015190505f806100c3565b601f1982169060035f52805f20915f5b8181106102ab57509583600195969710610293575b505050811b016003556100d8565b01515f1960f88460031b161c191690555f8080610285565b9192602060018192868b015181550194019201610270565b60035f527fc2575a0e9e593c00f959f8c92f12db2869c3395a3b0502d05e2516446f71f85b601f830160051c8101916020841061031c575b601f0160051c01905b81811061031157506100aa565b5f8155600101610304565b90915081906102fb565b90607f1690610098565b5f80fd5b6040519190601f01601f191682016001600160401b0381118382101761024157604052565b81601f82011215610330578051906001600160401b03821161024157610388601f8301601f1916602001610334565b928284526020838301011161033057815f9260208093018386015e830101529056fe6080806040526004361015610012575f80fd5b5f3560e01c90816306fdde03146105e257508063095ea7b31461056057806318160ddd1461054357806323b872dd14610413578063313ce567146103f357806340c10f191461033857806370a082311461030157806395d89b41146101e65780639dc29fac1461011e578063a9059cbb146100ed5763dd62ed3e14610095575f80fd5b346100e95760403660031901126100e9576100ae6106db565b6001600160a01b036100be6106f1565b91165f5260016020526001600160a01b0360405f2091165f52602052602060405f2054604051908152f35b5f80fd5b346100e95760403660031901126100e9576101136101096106db565b6024359033610707565b602060405160018152f35b346100e95760403660031901126100e9576101376106db565b6001600160a01b03602435911680156101ba57805f525f60205260405f20548281106101a1576020835f947fddf252ad1be2c89b69c2b068fc378daa952ba7f163c4a11628f55a4df523b3ef938587528684520360408620558060025403600255604051908152a3005b9063391434e360e21b5f5260045260245260445260645ffd5b7f96c6fd1e000000000000000000000000000000000000000000000000000000005f525f60045260245ffd5b346100e9575f3660031901126100e9576040515f6004548060011c906001811680156102f7575b6020831081146102e3578285529081156102c75750600114610272575b50819003601f01601f191681019067ffffffffffffffff82118183101761025e5761025a829182604052826106b1565b0390f35b634e487b7160e01b5f52604160045260245ffd5b905060045f527f8a35acfbc15ff81a39ae7d344fd709f28e8600b4aa8c65c6b64bfe7fe36bd19b5f905b8282106102b15750602091508201018261022a565b600181602092548385880101520191019061029c565b90506020925060ff191682840152151560051b8201018261022a565b634e487b7160e01b5f52602260045260245ffd5b91607f169161020d565b346100e95760203660031901126100e9576001600160a01b036103226106db565b165f525f602052602060405f2054604051908152f35b346100e95760403660031901126100e9576103516106db565b6001600160a01b031660243581156103c757600254908082018092116103b35760207fddf252ad1be2c89b69c2b068fc378daa952ba7f163c4a11628f55a4df523b3ef915f9360025584845283825260408420818154019055604051908152a3005b634e487b7160e01b5f52601160045260245ffd5b7fec442f05000000000000000000000000000000000000000000000000000000005f525f60045260245ffd5b346100e9575f3660031901126100e957602060ff60055416604051908152f35b346100e95760603660031901126100e95761042c6106db565b6104346106f1565b604435906001600160a01b03831692835f52600160205260405f206001600160a01b0333165f5260205260405f20545f198103610477575b506101139350610707565b83811061050f5784156104e35733156104b757610113945f52600160205260405f206001600160a01b0333165f526020528360405f20910390558461046c565b7f94280d62000000000000000000000000000000000000000000000000000000005f525f60045260245ffd5b7fe602df05000000000000000000000000000000000000000000000000000000005f525f60045260245ffd5b83907ffb8f41b2000000000000000000000000000000000000000000000000000000005f523360045260245260445260645ffd5b346100e9575f3660031901126100e9576020600254604051908152f35b346100e95760403660031901126100e9576105796106db565b6024359033156104e3576001600160a01b03169081156104b757335f52600160205260405f20825f526020528060405f20556040519081527f8c5be1e5ebec7d5bd14f71427d1e84f3dd0314c0f7b2291e5b200ac8c7c3b92560203392a3602060405160018152f35b346100e9575f3660031901126100e9575f6003548060011c906001811680156106a7575b6020831081146102e3578285529081156102c757506001146106525750819003601f01601f191681019067ffffffffffffffff82118183101761025e5761025a829182604052826106b1565b905060035f527fc2575a0e9e593c00f959f8c92f12db2869c3395a3b0502d05e2516446f71f85b5f905b8282106106915750602091508201018261022a565b600181602092548385880101520191019061067c565b91607f1691610606565b602060409281835280519182918282860152018484015e5f828201840152601f01601f1916010190565b600435906001600160a01b03821682036100e957565b602435906001600160a01b03821682036100e957565b6001600160a01b03169081156101ba576001600160a01b03169182156103c757815f525f60205260405f205481811061078557817fddf252ad1be2c89b69c2b068fc378daa952ba7f163c4a11628f55a4df523b3ef92602092855f525f84520360405f2055845f525f825260405f20818154019055604051908152a3565b8263391434e360e21b5f5260045260245260445260645ffdfea26469706673582212206eb92cd9bb5cd9b22e686a8bd521d6c5776ae5e53d664856fa8f82a8f0ce8e0064736f6c634300081a0033000000000000000000000000000000000000000000000000000000000000006000000000000000000000000000000000000000000000000000000000000000a00000000000000000000000000000000000000000000000000000000000000006000000000000000000000000000000000000000000000000000000000000000855534420436f696e00000000000000000000000000000000000000000000000000000000000000000000000000000000000000000000000000000000000000045553444300000000000000000000000000000000000000000000000000000000",
        "nonce": "0x9b",
        "chainId": "0x2105"
      },
      "additionalContracts": [],
      "isFixedGasLimit": false
    },
    {
      "hash": "0xc1ac062dc52726b6d16b0cb0b3fb50d5f94179f10c435d06b9ceb640c94c43e9",
      "transactionType": "CALL",
      "contractName": "MockERC20",
      "contractAddress": "0xc9d7a317b5a9b39d971fa4430d0fec7a572d2520",
      "function": "mint(address,uint256)",
      "arguments": [
        "0xA6B3D200cD34ca14d7579DAc8B054bf50a62c37c",
        "466560000000"
      ],
      "transaction": {
        "from": "0xa6b3d200cd34ca14d7579dac8b054bf50a62c37c",
        "to": "0xc9d7a317b5a9b39d971fa4430d0fec7a572d2520",
        "gas": "0x16f38",
        "value": "0x0",
        "input": "0x40c10f19000000000000000000000000a6b3d200cd34ca14d7579dac8b054bf50a62c37c0000000000000000000000000000000000000000000000000000006ca124a000",
        "nonce": "0x9c",
        "chainId": "0x2105"
      },
      "additionalContracts": [],
      "isFixedGasLimit": false
    },
    {
      "hash": "0x24a749ffd18fbd79421abf8ea5b812ffc83958189c0b134c90403320c18264dc",
      "transactionType": "CREATE",
      "contractName": "VCOPCollateralized",
      "contractAddress": "0xe126098b5111330ced47b80928348e4b8ed7a784",
      "function": null,
      "arguments": null,
      "transaction": {
        "from": "0xa6b3d200cd34ca14d7579dac8b054bf50a62c37c",
        "gas": "0x11a756",
        "value": "0x0",
        "input": "0x6080604052346103a457604080519081016001600160401b038111828210176102b7576040908152600f82526e2b21a7a81029ba30b13632b1b7b4b760891b602083015280519081016001600160401b038111828210176102b7576040526004815263056434f560e41b602082015281516001600160401b0381116102b757600354600181811c9116801561039a575b602082101461029957601f8111610337575b50602092601f82116001146102d657928192935f926102cb575b50508160011b915f199060031b1c1916176003555b80516001600160401b0381116102b757600454600181811c911680156102ad575b602082101461029957601f8111610236575b50602091601f82116001146101d6579181925f926101cb575b50508160011b915f199060031b1c1916176004555b33156101b85760058054336001600160a01b03198216811790925560405191906001600160a01b03167f8be0079c531659141344cd1fd0a4f28419497f9722a3daafe3b4186f6b6457e05f80a3335f52600760205260405f20600160ff19825416179055335f52600860205260405f20600160ff19825416179055610cdb90816103a98239f35b631e4fbdf760e01b5f525f60045260245ffd5b015190505f8061011c565b601f1982169260045f52805f20915f5b85811061021e57508360019510610206575b505050811b01600455610131565b01515f1960f88460031b161c191690555f80806101f8565b919260206001819286850151815501940192016101e6565b60045f527f8a35acfbc15ff81a39ae7d344fd709f28e8600b4aa8c65c6b64bfe7fe36bd19b601f830160051c8101916020841061028f575b601f0160051c01905b8181106102845750610103565b5f8155600101610277565b909150819061026e565b634e487b7160e01b5f52602260045260245ffd5b90607f16906100f1565b634e487b7160e01b5f52604160045260245ffd5b015190505f806100bb565b601f1982169360035f52805f20915f5b86811061031f5750836001959610610307575b505050811b016003556100d0565b01515f1960f88460031b161c191690555f80806102f9565b919260206001819286850151815501940192016102e6565b60035f527fc2575a0e9e593c00f959f8c92f12db2869c3395a3b0502d05e2516446f71f85b601f830160051c81019160208410610390575b601f0160051c01905b81811061038557506100a1565b5f8155600101610378565b909150819061036f565b90607f169061008f565b5f80fdfe6080806040526004361015610012575f80fd5b5f3560e01c90816303d41e0e14610b105750806306fdde0314610a3e578063095ea7b3146109bc5780630d895ee11461095a57806318160ddd1461093d57806323b872dd1461080d57806323be345c146107e7578063313ce567146107cc57806340c10f19146106b657806370a082311461067f578063715018a614610619578063842a05d41461054a5780638da5cb5b1461052457806395d89b41146104095780639dc29fac146102e8578063a9059cbb146102b7578063cf456ae714610238578063dd62ed3e146101e4578063f2fde38b146101395763f46eccc4146100f8575f80fd5b34610135576020366003190112610135576001600160a01b03610119610b49565b165f526007602052602060ff60405f2054166040519015158152f35b5f80fd5b34610135576020366003190112610135576001600160a01b0361015a610b49565b610162610bce565b1680156101b8576001600160a01b036005548273ffffffffffffffffffffffffffffffffffffffff19821617600555167f8be0079c531659141344cd1fd0a4f28419497f9722a3daafe3b4186f6b6457e05f80a3005b7f1e4fbdf7000000000000000000000000000000000000000000000000000000005f525f60045260245ffd5b34610135576040366003190112610135576101fd610b49565b6001600160a01b0361020d610b5f565b91165f5260016020526001600160a01b0360405f2091165f52602052602060405f2054604051908152f35b34610135577fb21afb9ce9be0a676f8f317ff0ca072fb89a4f8ce2d1b6fe80f8755c14f1cb1961026736610b9f565b90610270610bce565b6001600160a01b0381165f52600760205261029a8260405f209060ff801983541691151516179055565b604080516001600160a01b039290921682529115156020820152a1005b34610135576040366003190112610135576102dd6102d3610b49565b6024359033610c0e565b602060405160018152f35b3461013557604036600319011261013557610301610b49565b60243590335f52600860205260ff60405f205416156103c5576001600160a01b0316801561039957805f525f60205260405f2054828110610380576020835f947fddf252ad1be2c89b69c2b068fc378daa952ba7f163c4a11628f55a4df523b3ef938587528684520360408620558060025403600255604051908152a3005b9063391434e360e21b5f5260045260245260445260645ffd5b7f96c6fd1e000000000000000000000000000000000000000000000000000000005f525f60045260245ffd5b606460405162461bcd60e51b815260206004820152601660248201527f4e6f7420617574686f72697a656420746f206275726e000000000000000000006044820152fd5b34610135575f366003190112610135576040515f6004548060011c9060018116801561051a575b602083108114610506578285529081156104ea5750600114610495575b50819003601f01601f191681019067ffffffffffffffff8211818310176104815761047d82918260405282610b75565b0390f35b634e487b7160e01b5f52604160045260245ffd5b905060045f527f8a35acfbc15ff81a39ae7d344fd709f28e8600b4aa8c65c6b64bfe7fe36bd19b5f905b8282106104d45750602091508201018261044d565b60018160209254838588010152019101906104bf565b90506020925060ff191682840152151560051b8201018261044d565b634e487b7160e01b5f52602260045260245ffd5b91607f1691610430565b34610135575f3660031901126101355760206001600160a01b0360055416604051908152f35b34610135576020366003190112610135576001600160a01b0361056b610b49565b610573610bce565b1680156105d55760407fe2baa82f90636da9cbc73454915350116910bc672c698bcb73d4697d566d691991600654908073ffffffffffffffffffffffffffffffffffffffff198316176006556001600160a01b038351921682526020820152a1005b606460405162461bcd60e51b815260206004820152601860248201527f5a65726f2061646472657373206e6f7420616c6c6f77656400000000000000006044820152fd5b34610135575f36600319011261013557610631610bce565b5f6001600160a01b0360055473ffffffffffffffffffffffffffffffffffffffff198116600555167f8be0079c531659141344cd1fd0a4f28419497f9722a3daafe3b4186f6b6457e08280a3005b34610135576020366003190112610135576001600160a01b036106a0610b49565b165f525f602052602060405f2054604051908152f35b34610135576040366003190112610135576106cf610b49565b60243590335f52600760205260ff60405f20541615610788576001600160a01b031690811561075c57600254908082018092116107485760207fddf252ad1be2c89b69c2b068fc378daa952ba7f163c4a11628f55a4df523b3ef915f9360025584845283825260408420818154019055604051908152a3005b634e487b7160e01b5f52601160045260245ffd5b7fec442f05000000000000000000000000000000000000000000000000000000005f525f60045260245ffd5b606460405162461bcd60e51b815260206004820152601660248201527f4e6f7420617574686f72697a656420746f206d696e74000000000000000000006044820152fd5b34610135575f36600319011261013557602060405160068152f35b34610135575f3660031901126101355760206001600160a01b0360065416604051908152f35b3461013557606036600319011261013557610826610b49565b61082e610b5f565b604435906001600160a01b03831692835f52600160205260405f206001600160a01b0333165f5260205260405f20545f198103610871575b506102dd9350610c0e565b8381106109095784156108dd5733156108b1576102dd945f52600160205260405f206001600160a01b0333165f526020528360405f209103905584610866565b7f94280d62000000000000000000000000000000000000000000000000000000005f525f60045260245ffd5b7fe602df05000000000000000000000000000000000000000000000000000000005f525f60045260245ffd5b83907ffb8f41b2000000000000000000000000000000000000000000000000000000005f523360045260245260445260645ffd5b34610135575f366003190112610135576020600254604051908152f35b34610135577ff0e5abe4ab32ea692e3889b4c146fd4ddae5f17bb40ab4feba97fb67a2d4de0f61098936610b9f565b90610992610bce565b6001600160a01b0381165f52600860205261029a8260405f209060ff801983541691151516179055565b34610135576040366003190112610135576109d5610b49565b6024359033156108dd576001600160a01b03169081156108b157335f52600160205260405f20825f526020528060405f20556040519081527f8c5be1e5ebec7d5bd14f71427d1e84f3dd0314c0f7b2291e5b200ac8c7c3b92560203392a3602060405160018152f35b34610135575f366003190112610135576040515f6003548060011c90600181168015610b06575b602083108114610506578285529081156104ea5750600114610ab15750819003601f01601f191681019067ffffffffffffffff8211818310176104815761047d82918260405282610b75565b905060035f527fc2575a0e9e593c00f959f8c92f12db2869c3395a3b0502d05e2516446f71f85b5f905b828210610af05750602091508201018261044d565b6001816020925483858801015201910190610adb565b91607f1691610a65565b34610135576020366003190112610135576020906001600160a01b03610b34610b49565b165f526008825260ff60405f20541615158152f35b600435906001600160a01b038216820361013557565b602435906001600160a01b038216820361013557565b602060409281835280519182918282860152018484015e5f828201840152601f01601f1916010190565b6040906003190112610135576004356001600160a01b0381168103610135579060243580151581036101355790565b6001600160a01b03600554163303610be257565b7f118cdaa7000000000000000000000000000000000000000000000000000000005f523360045260245ffd5b6001600160a01b0316908115610399576001600160a01b031691821561075c57815f525f60205260405f2054818110610c8c57817fddf252ad1be2c89b69c2b068fc378daa952ba7f163c4a11628f55a4df523b3ef92602092855f525f84520360405f2055845f525f825260405f20818154019055604051908152a3565b8263391434e360e21b5f5260045260245260445260645ffdfea2646970667358221220e4225e207271915c921d6e5bb6c867f810725451561697cf2ea7b8d9d95a37e164736f6c634300081a0033",
        "nonce": "0x9d",
        "chainId": "0x2105"
      },
      "additionalContracts": [],
      "isFixedGasLimit": false
    },
    {
      "hash": "0x3a9fac16c55656f0c350ce2f76dc55f9336d234261b8497ed2cde3a86dce9c00",
      "transactionType": "CREATE",
      "contractName": "VCOPOracle",
      "contractAddress": "0xa3acc71fda8c0e321ea9d49ef0630dc1c1951e17",
      "function": null,
      "arguments": [
        "4200000000",
        "0x498581fF718922c3f8e6A244956aF099B2652b2b",
        "0xE126098b5111330ceD47b80928348E4B8ED7A784",
        "0xC9D7A317B5A9B39d971fA4430d0Fec7A572d2520",
        "3000",
        "60",
        "0x0000000000000000000000000000000000000000"
      ],
      "transaction": {
        "from": "0xa6b3d200cd34ca14d7579dac8b054bf50a62c37c",
        "gas": "0x218362",
        "value": "0x0",
        "input": "0x61014080604052346104085760e08161209b8038038091610020828561040c565b8339810103126104085780519061003960208201610443565b9161004660408301610443565b9261005360608401610443565b9160808401519262ffffff841684036104085760a0850151948560020b86036104085760c06100829101610443565b9533156103f5575f96879661033e96610358968954963360018060a01b0389167f8be0079c531659141344cd1fd0a4f28419497f9722a3daafe3b4186f6b6457e08d80a363fa56ea00600155620f4240600255806103ec575b506001600160a01b0390811660805260a085815260c087905260e09290925261010092909252610120929092526001600160a81b03199094163360ff60a01b191617928416919093161090911b60ff60a01b1617808455604051849081906101a9906101b79061014c60608261040c565b602681527f56434f504f7261636c6520696e697469616c697a6564207769746820556e69736020820152651dd85c081d8d60d21b604082015260405192839163104c13eb60e21b6020840152602060248401526044830190610457565b03601f19810183528261040c565b6020815191016a636f6e736f6c652e6c6f675afa508380610234610248600154604051906101e660408361040c565b601582527f496e697469616c205553442f434f5020726174653a00000000000000000000006020830152604051938492632d839cb360e21b6020850152604060248501526064840190610457565b90604483015203601f19810183528261040c565b6020815191016a636f6e736f6c652e6c6f675afa5083806102c16102d860405161027360408261040c565b601681527f496e697469616c2056434f502f434f5020726174653a000000000000000000006020820152604051928391632d839cb360e21b6020840152604060248401526064830190610457565b620f4240604483015203601f19810183528261040c565b6020815191016a636f6e736f6c652e6c6f675afa50604051906102fc60408361040c565b600f82526e2b21a7a81034b9903a37b5b2b7181d60891b602083015260ff60405194859363c3b5563560e01b6020860152604060248601526064850190610457565b9160a01c161515604483015203601f19810183528261040c565b6020815191016a636f6e736f6c652e6c6f675afa50604051611c1f908161047c823960805181818161025d01526115a8015260a051818181610b15015281816114610152611884015260c051818181610cff0152818161148c0152611859015260e05181818161021a01526114ca01526101005181818161029801526114f1015261012051818181610b5801526115220152f35b6001555f6100db565b631e4fbdf760e01b5f525f60045260245ffd5b5f80fd5b601f909101601f19168101906001600160401b0382119082101761042f57604052565b634e487b7160e01b5f52604160045260245ffd5b51906001600160a01b038216820361040857565b805180835260209291819084018484015e5f828201840152601f01601f191601019056fe6080806040526004361015610012575f80fd5b5f3560e01c90816302d4545714610ce25750806319a85d5e14610cbc5780631ef6790d14610b7c57806332a3cf9614610b39578063428bf99114610af65780634abfc43814610ad25780635b9c72af14610ab55780636922d7b61461098b578063715018a6146109275780638b95e335146109015780638da5cb5b146108dc578063905d60841461077f57806398d5fdca146105f5578063a7bc7857146104bb578063b390c25f14610499578063bfbf0251146102be578063d0c93a7c14610281578063dc4c90d31461023e578063ddca3f43146101ff578063ea0ca6a9146101e2578063ec5b1d3e146101be5763f2fde38b1461010e575f80fd5b346101ba5760203660031901126101ba576004356001600160a01b0381168091036101ba5761013b611b33565b801561018e576001600160a01b035f548273ffffffffffffffffffffffffffffffffffffffff198216175f55167f8be0079c531659141344cd1fd0a4f28419497f9722a3daafe3b4186f6b6457e05f80a3005b7f1e4fbdf7000000000000000000000000000000000000000000000000000000005f525f60045260245ffd5b5f80fd5b346101ba575f3660031901126101ba57602060ff5f5460a01c166040519015158152f35b346101ba575f3660031901126101ba576020600254604051908152f35b346101ba575f3660031901126101ba57602060405162ffffff7f0000000000000000000000000000000000000000000000000000000000000000168152f35b346101ba575f3660031901126101ba5760206040516001600160a01b037f0000000000000000000000000000000000000000000000000000000000000000168152f35b346101ba575f3660031901126101ba5760206040517f000000000000000000000000000000000000000000000000000000000000000060020b8152f35b346101ba575f3660031901126101ba576102d6610d95565b505061031a6040516102e9604082610d53565b601781527f56434f502f434f5020726174652071756572792062793a00000000000000000060208201523390611ace565b602060025461035f81604051610331604082610d53565b601681527f43757272656e742056434f502f434f5020726174653a00000000000000000000858201526119e5565b6103e3604051610370604082610d53565b601a81527f56434f502f434f502076616c756520617320646563696d616c3a000000000000848201526040516103a7604082610d53565b600181527f2e0000000000000000000000000000000000000000000000000000000000000085820152620f4240840691620f4240850490611b72565b7ff77ee0047b07d500bcb5dc409382d7f02612a6ea259f6bb70255b7511ce7e74060405133815260408482015280610434604082016040906008815267056434f502f434f560c41b60208201520190565b0390a17f3f677077d8e6673cad47ce93ec074f228deefae585474297b54b1bf1dd46b28760405133815260608482015280610488606082016040906008815267056434f502f434f560c41b60208201520190565b8460408301520390a1604051908152f35b346101ba575f3660031901126101ba5760206104b361140e565b604051908152f35b346101ba575f3660031901126101ba5761050d6040516104dc604082610d53565b601681527f5553442f434f5020726174652071756572792062793a0000000000000000000060208201523390611ace565b602060015461055281604051610524604082610d53565b601581527f43757272656e74205553442f434f5020726174653a0000000000000000000000858201526119e5565b7ff77ee0047b07d500bcb5dc409382d7f02612a6ea259f6bb70255b7511ce7e740604051338152604084820152806105a260408201604090600781526605553442f434f560cc1b60208201520190565b0390a17f3f677077d8e6673cad47ce93ec074f228deefae585474297b54b1bf1dd46b2876040513381526060848201528061048860608201604090600781526605553442f434f560cc1b60208201520190565b346101ba575f3660031901126101ba5761060d610d95565b5050610651604051610620604082610d53565b601a81527f507269636520717565727920666f72207265626173652062793a00000000000060208201523390611ace565b602060025461069681604051610668604082610d53565b601681527f557064617465642056434f502f434f5020726174653a00000000000000000000858201526119e5565b6106de6040516106a7604082610d53565b601881527f5265626173652076616c756520617320646563696d616c3a0000000000000000848201526040516103a7604082610d53565b7ff77ee0047b07d500bcb5dc409382d7f02612a6ea259f6bb70255b7511ce7e7406040513381526040848201528061072d60408201604090600681526552454241534560d01b60208201520190565b0390a17f3f677077d8e6673cad47ce93ec074f228deefae585474297b54b1bf1dd46b2876040513381526060848201528061048860608201604090600681526552454241534560d01b60208201520190565b346101ba5760203660031901126101ba5760043561079b611b33565b80156108985760407fb1b21e5157e907632ad91311b199e64ef8b6e7a36b4acf9ca920def4dd95e33891600154908060015561080d83516107dc8582610d53565b601881527f5553442f434f50207261746520757064617465642062793a000000000000000060208201523390611ace565b61084c82845161081d8682610d53565b600e81527f50726576696f757320726174653a00000000000000000000000000000000000060208201526119e5565b61088b81845161085c8682610d53565b600981527f4e657720726174653a000000000000000000000000000000000000000000000060208201526119e5565b82519182526020820152a1005b606460405162461bcd60e51b815260206004820152601e60248201527f52617465206d7573742062652067726561746572207468616e207a65726f00006044820152fd5b346101ba575f3660031901126101ba5760206001600160a01b035f5416604051908152f35b346101ba575f3660031901126101ba5760206001600160a01b0360035416604051908152f35b346101ba575f3660031901126101ba5761093f611b33565b5f6001600160a01b03815473ffffffffffffffffffffffffffffffffffffffff1981168355167f8be0079c531659141344cd1fd0a4f28419497f9722a3daafe3b4186f6b6457e08280a3005b346101ba5760203660031901126101ba576004356001600160a01b038116908181036101ba576109b9611b33565b8115610a4b577feb21e84586017517afe452d64ec57e0a3e52283d137fb8cbc11d221f7b3483eb602083610a499473ffffffffffffffffffffffffffffffffffffffff196003541617600355604051908152a1604051610a1a604082610d53565b601581527f50726963652063616c63756c61746f72207365743a00000000000000000000006020820152611ace565b005b608460405162461bcd60e51b815260206004820152602160248201527f43616c63756c61746f7220616464726573732063616e6e6f74206265207a657260448201527f6f000000000000000000000000000000000000000000000000000000000000006064820152fd5b346101ba575f3660031901126101ba576020600154604051908152f35b346101ba575f3660031901126101ba576020610aec6111a6565b6040519015158152f35b346101ba575f3660031901126101ba5760206040516001600160a01b037f0000000000000000000000000000000000000000000000000000000000000000168152f35b346101ba575f3660031901126101ba5760206040516001600160a01b037f0000000000000000000000000000000000000000000000000000000000000000168152f35b346101ba575f3660031901126101ba576020610b9661140e565b610bd7604051610ba7604082610d53565b601881527f56434f502f5553442070726963652071756572792062793a0000000000000000848201523390611ace565b610c1781604051610be9604082610d53565b601481527f506f6f6c2056434f502f5553442070726963653a000000000000000000000000858201526119e5565b7ff77ee0047b07d500bcb5dc409382d7f02612a6ea259f6bb70255b7511ce7e74060405133815260408482015280610c686040820160409060088152671590d3d40bd554d160c21b60208201520190565b0390a17f3f677077d8e6673cad47ce93ec074f228deefae585474297b54b1bf1dd46b287604051338152606084820152806104886060820160409060088152671590d3d40bd554d160c21b60208201520190565b346101ba575f3660031901126101ba576040610cd6610d95565b82519182526020820152f35b346101ba575f3660031901126101ba576020906001600160a01b037f0000000000000000000000000000000000000000000000000000000000000000168152f35b60a0810190811067ffffffffffffffff821117610d3f57604052565b634e487b7160e01b5f52604160045260245ffd5b90601f8019910116810190811067ffffffffffffffff821117610d3f57604052565b91908260409103126101ba57602082519201518060020b81036101ba5790565b6003546001600160a01b0316801580159291906111735791604060049381519485809263b390c25f60e01b82525afa8015611168575f935f9161110f575b507f6c633f26d0fb1eb6a531e13c7f2a11a74ba1fc476f54ce9649ed9c0d502ba9cd916040915b610e5e8351610e0a606082610d53565b602481527f3d3d3d3d3d3d3d3d3d3d205550444154494e47205241544553203d3d3d3d3d3d60208201527f3d3d3d3d000000000000000000000000000000000000000000000000000000008582015261197a565b610e9d868451610e6e8682610d53565b601481527f506f6f6c2056434f502f5553442070726963653a00000000000000000000000060208201526119e5565b610ede6001548451610eaf8682610d53565b601581527f43757272656e74205553442f434f5020726174653a000000000000000000000060208201526119e5565b60025491620f4240600255610f738451610ef9608082610d53565b604881527f494d504f5254414e54453a20466f727a616e646f20746173612056434f502f4360208201527f4f50206120313a31202831303030303030292070617261206d616e74656e6572868201527f2070617269646164000000000000000000000000000000000000000000000000606082015261197a565b5f80610fd3610fea8751610f878982610d53565b601d81527f4e65772063616c63756c617465642056434f502f434f5020726174653a00000060208201528851928391632d839cb360e21b60208401528a60248401526064830190611956565b620f4240604483015203601f198101835282610d53565b6020815191016a636f6e736f6c652e6c6f675afa506110c6575b5061104b6110106111a6565b835161101c8582610d53565b601281527f497320617420313a31207061726974793f3a00000000000000000000000000006020820152611a70565b6110af825161105b606082610d53565b602681527f3d3d3d3d3d3d3d3d3d3d3d3d3d3d3d3d3d3d3d3d3d3d3d3d3d3d3d3d3d3d3d3d60208201527f3d3d3d3d3d3d00000000000000000000000000000000000000000000000000008482015261197a565b8151908152620f42406020820152a1620f42409190565b8251611109916110d68583610d53565b600d82527f43757272656e74207469636b3a00000000000000000000000000000000000000602083015260020b90611a28565b5f611004565b7f6c633f26d0fb1eb6a531e13c7f2a11a74ba1fc476f54ce9649ed9c0d502ba9cd9294506040915061115690823d8411611161575b61114e8183610d53565b810190610d75565b949094915091610dd3565b503d611144565b6040513d5f823e3d90fd5b507f6c633f26d0fb1eb6a531e13c7f2a11a74ba1fc476f54ce9649ed9c0d502ba9cd604061119f61140e565b935f610dfa565b6002546111ea816040516111bb604082610d53565b601f81527f436865636b696e672070617269747920776974682056434f502f434f50203d0060208201526119e5565b6001600160a01b036003541661137b57620f1b30811015908161136d575b505f8061126d61128460405161121f604082610d53565b601081527f4c6f77657220746f6c6572616e63653a000000000000000000000000000000006020820152604051928391632d839cb360e21b6020840152604060248401526064830190611956565b620f1b30604483015203601f198101835282610d53565b6020815191016a636f6e736f6c652e6c6f675afa505f806112fd6113146040516112af604082610d53565b601081527f557070657220746f6c6572616e63653a000000000000000000000000000000006020820152604051928391632d839cb360e21b6020840152604060248401526064830190611956565b620f6950604483015203601f198101835282610d53565b6020815191016a636f6e736f6c652e6c6f675afa5061136a8160405161133b604082610d53565b601981527f4973206174207061726974793f202866616c6c6261636b293a000000000000006020820152611a70565b90565b620f6950915011155f611208565b506113e260405161138d606082610d53565b602781527f5061726964616420666f727a616461206120313a312c206465766f6c7669656e60208201527f646f207472756500000000000000000000000000000000000000000000000000604082015261197a565b600190565b818102929181159184041417156113fa57565b634e487b7160e01b5f52601160045260245ffd5b6001600160a01b0360035416806118a957505f608060405161142f81610d23565b828152826020820152826040820152826060820152015260ff5f5460a01c16805f1461184d5760a06001600160a01b037f0000000000000000000000000000000000000000000000000000000000000000166001600160a01b03807f0000000000000000000000000000000000000000000000000000000000000000165b81604051936114bb85610d23565b16835216602082015262ffffff7f00000000000000000000000000000000000000000000000000000000000000001660408201527f000000000000000000000000000000000000000000000000000000000000000060020b60608201526001600160a01b037f000000000000000000000000000000000000000000000000000000000000000016608082015220604051602081019182526006604082015260408152611568606082610d53565b51902090604051917f1e2eaeaf00000000000000000000000000000000000000000000000000000000835260048301526020826024816001600160a01b037f0000000000000000000000000000000000000000000000000000000000000000165afa918215611168575f92611819575b5061166d6001600160a01b03831692611628846040516115f9604082610d53565b601a81527f4f5241434c453a20506f6f6c207371727450726963655839363a00000000000060208201526119e5565b60405190611637604083610d53565b601282527f4f5241434c453a20506f6f6c207469636b3a0000000000000000000000000000602083015260a01c60020b90611a28565b15611789578061167c916113e7565b620f4240810290808204620f424014901517156113fa5760c01c6116fd816040516116a8606082610d53565b602481527f4f5241434c453a20496e7465726d6564696174652070726963652028746f6b6560208201527f6e30293a0000000000000000000000000000000000000000000000000000000060408201526119e5565b801561177557670de0b6b3a7640000045b61136a81604051611720606082610d53565b602f81527f4f5241434c453a2043616c63756c617465642056434f502f555344207072696360208201527f6520283620646563696d616c73293a000000000000000000000000000000000060408201526119e5565b634e487b7160e01b5f52601260045260245ffd5b80611793916113e7565b620f4240810290808204620f424014901517156113fa5760c01c611814816040516117bf606082610d53565b602481527f4f5241434c453a20496e7465726d6564696174652070726963652028746f6b6560208201527f6e31293a0000000000000000000000000000000000000000000000000000000060408201526119e5565b61170e565b9091506020813d602011611845575b8161183560209383610d53565b810103126101ba5751905f6115d8565b3d9150611828565b60a06001600160a01b037f0000000000000000000000000000000000000000000000000000000000000000166001600160a01b03807f0000000000000000000000000000000000000000000000000000000000000000166114ad565b604060049181519283809263b390c25f60e01b82525afa908115611168575f91611936575b5061136a816040516118e1606082610d53565b602f81527f4f5241434c453a204f627461696e65642056434f502f5553442070726963652060208201527f7669612063616c63756c61746f723a000000000000000000000000000000000060408201526119e5565b61194f915060403d6040116111615761114e8183610d53565b505f6118ce565b805180835260209291819084018484015e5f828201840152601f01601f1916010190565b5f6119c06119ce82936040519283917f41304fac000000000000000000000000000000000000000000000000000000006020840152602060248401526044830190611956565b03601f198101835282610d53565b6020815191016a636f6e736f6c652e6c6f675afa50565b611a146119ce5f93928493604051938492632d839cb360e21b6020850152604060248501526064840190611956565b90604483015203601f198101835282610d53565b611a146119ce5f939284936040519384927f3ca6268e000000000000000000000000000000000000000000000000000000006020850152604060248501526064840190611956565b611ab86119ce5f939284936040519384927fc3b55635000000000000000000000000000000000000000000000000000000006020850152604060248501526064840190611956565b901515604483015203601f198101835282610d53565b611b1e6119ce5f939284936001600160a01b036040519485937f319af333000000000000000000000000000000000000000000000000000000006020860152604060248601526064850190611956565b9116604483015203601f198101835282610d53565b6001600160a01b035f54163303611b4657565b7f118cdaa7000000000000000000000000000000000000000000000000000000005f523360045260245ffd5b6119ce905f94611bd5611bbe9487966040519687957fc67ea9d10000000000000000000000000000000000000000000000000000000060208801526080602488015260a4870190611956565b916044860152602319858303016064860152611956565b90608483015203601f198101835282610d5356fea264697066735822122082a8d59fd9e42939f39139cbbc29e825ab4163076530b9c421920294a36f51db64736f6c634300081a003300000000000000000000000000000000000000000000000000000000fa56ea00000000000000000000000000498581ff718922c3f8e6a244956af099b2652b2b000000000000000000000000e126098b5111330ced47b80928348e4b8ed7a784000000000000000000000000c9d7a317b5a9b39d971fa4430d0fec7a572d25200000000000000000000000000000000000000000000000000000000000000bb8000000000000000000000000000000000000000000000000000000000000003c0000000000000000000000000000000000000000000000000000000000000000",
        "nonce": "0x9e",
        "chainId": "0x2105"
      },
      "additionalContracts": [],
      "isFixedGasLimit": false
    },
    {
      "hash": "0xc4370ae9f4ad369398cc6bb1379d2c41d50fd81a68aaef50bb17986c48d62066",
      "transactionType": "CREATE",
      "contractName": "VCOPCollateralManager",
      "contractAddress": "0x5d211f80a23f04201c6b3fa06b85171b11802b95",
      "function": null,
      "arguments": [
        "0xE126098b5111330ceD47b80928348E4B8ED7A784",
        "0xA3aCc71fDA8C0E321ea9d49eF0630Dc1c1951E17"
      ],
      "transaction": {
        "from": "0xa6b3d200cd34ca14d7579dac8b054bf50a62c37c",
        "gas": "0x2d53be",
        "value": "0x0",
        "input": "0x6080346100f957601f6127d238819003918201601f19168301916001600160401b038311848410176100fd5780849260409485528339810103126100f957610052602061004b83610111565b9201610111565b33156100e6575f8054336001600160a01b0319821681178355604051949290916001600160a01b0316907f8be0079c531659141344cd1fd0a4f28419497f9722a3daafe3b4186f6b6457e09080a3600180546001600160a01b03199081166001600160a01b039384161790915560028054821693909216929092179055600a8054909116331790556126ac90816101268239f35b631e4fbdf760e01b5f525f60045260245ffd5b5f80fd5b634e487b7160e01b5f52604160045260245ffd5b51906001600160a01b03821682036100f95756fe60806040526004361015610011575f80fd5b5f803560e01c8063015cb0a514611a445780630575a28d14611a1c5780630c6faed5146119b657806314daad991461199857806322d4a3c5146118b45780632b037c571461188c5780633024a9121461184957806342fd3880146118115780634386972a1461156b5780636635e573146114f757806369248feb146114cf578063715018a61461147657806374783d451461144e57806375a08cce146110a6578063767a7b0514610f1b57806376f8996514610d4a5780637dc0d1d014610d235780637fbaf1f214610cf357806380839bf414610c5057806381b60e8c14610bbc578063878b654114610b9e5780638da5cb5b14610b78578063a42dce8014610b2e578063a8f35adf14610a93578063b01c04a7146109df578063c1be667714610968578063c415b95c14610941578063cdb4e0951461091a578063d0c2fcd3146108f3578063da2bf9a114610819578063dafc8730146107a3578063dd411b8b146106e2578063eeb97d3b14610664578063f2fde38b146105c6578063f316bc8714610561578063f3219b65146103e7578063f5797a7d1461039d578063f6400564146102b75763fec2c2ed146101c7575f80fd5b346102b45760203660031901126102b4576001600160a01b036101e8611ccc565b1681526007602052604080822090518154839261020482611d48565b9081845260208401926001811690815f14610297575060011461025d575b505061023382604094950383611dcc565b8251938492602084525180928160208601528585015e828201840152601f01601f19168101030190f35b90945083526020832083905b85821061028157508201602001935061023382610222565b6001816020925483858801015201910190610269565b60ff191684525050151560051b8201602001935061023382610222565b80fd5b50346102b45760403660031901126102b4577f37a282d7235f3ceb195f27bc205bc5e09171c92455322f842e20c07113f22a536102f2611ccc565b6024359061030c6001600160a01b03600654163314611f18565b6001600160a01b038116808552600360205261033160ff60056040882001541661238d565b61033c8315156123d8565b808552600560205260408520610353848254611fae565b90558452600560205260026040852001600160ff1982541617905542600b5561039760405192839283602090939291936001600160a01b0360408201951681520152565b0390a180f35b50346102b45760203660031901126102b4576001600160a01b036103bf611ccc565b6103c7612486565b166103d3811515612342565b6001600160a01b0319600654161760065580f35b50346102b45760403660031901126102b457610401611ccc565b906024359167ffffffffffffffff831161055d573660238401121561055d5782600401359067ffffffffffffffff8211610559573660248386010111610559576001600160a01b0390610452612486565b168252600760205260408220906104698254611d48565b601f8111610514575b5082601f82116001146104ae578394829394926104a0575b50508160011b915f199060031b1c191617905580f35b602492500101355f8061048a565b601f198216948385526020852091855b8781106104f95750836001959697106104dd575b505050811b01905580f35b01602401355f19600384901b60f8161c191690555f80806104d2565b909260206001819260248787010135815501940191016104be565b82845260208420601f830160051c8101916020841061054f575b601f0160051c01905b8181106105445750610472565b848155600101610537565b909150819061052e565b8280fd5b5080fd5b50346102b45760203660031901126102b4576040906001600160a01b03610586611ccc565b16815260056020522080546105c260ff600260018501549401541660405193849384919260409194936060840195845260208401521515910152565b0390f35b50346102b45760203660031901126102b4576001600160a01b036105e8611ccc565b6105f0612486565b168015610638576001600160a01b038254826001600160a01b03198216178455167f8be0079c531659141344cd1fd0a4f28419497f9722a3daafe3b4186f6b6457e08380a380f35b6024827f1e4fbdf700000000000000000000000000000000000000000000000000000000815280600452fd5b50346102b45760203660031901126102b457604060c0916001600160a01b0361068b611ccc565b1681526003602052206001600160a01b0381541690600181015490600281015460038201549060ff6005600485015494015416936040519586526020860152604085015260608401526080830152151560a0820152f35b50346102b457806001600160a01b036106fa36611ce2565b929061070b82600654163314611f18565b168352600560205261072660ff600260408620015416611f63565b6001600160a01b036001541691823b1561079e576040516340c10f1960e01b81526001600160a01b0392909216600483015260248201529082908290604490829084905af180156107935761077e575b5042600b5580f35b8161078891611dcc565b6102b457805f610776565b6040513d84823e3d90fd5b505050fd5b50346102b45760403660031901126102b4576040806020926001600160a01b036107cb611ccc565b168152600584522081516107de81611db0565b60ff6002835493848452600181015487850152015416151592839101528161080c575b506040519015158152f35b905060243511155f610801565b50346102b45760403660031901126102b4577f37a282d7235f3ceb195f27bc205bc5e09171c92455322f842e20c07113f22a53610854611ccc565b60243590610860612486565b6001600160a01b038116808552600360205261088560ff60056040882001541661238d565b6108908315156123d8565b61089c833033846124c5565b8085526005602052604085206108b3848254611fae565b90558452600560205260026040852001600160ff1982541617905561039760405192839283602090939291936001600160a01b0360408201951681520152565b50346102b457806003193601126102b45760206001600160a01b0360065416604051908152f35b50346102b457806003193601126102b45760206001600160a01b0360015416604051908152f35b50346102b457806003193601126102b45760206001600160a01b03600a5416604051908152f35b50346102b45760403660031901126102b4576040906001600160a01b0361098d611ccc565b16815260086020528181206024358252602052206001600160a01b038154166105c260026001840154930154604051938493846040919493926001600160a01b03606083019616825260208201520152565b50346102b45760403660031901126102b4577f62222c9b2b0f602533c434f60ad9f0998ea668a7498b9e5d9bbd19940816b192610a1a611ccc565b60243590610a26612486565b610a70826001600160a01b038316808752600560205260408720610a5060ff600283015416611f63565b610a67838254610a6281831115611fbb565b611e7e565b90553390612423565b604080516001600160a01b03909216825260208201929092529081908101610397565b50346102b4577ff4d587c98d234ca4d147061e6b5167e7f41ee17f11562a9f0b49570abece859e610ac336611cb6565b9033845260086020526040842081855260205260408420610b02836001600160a01b036001840193610af785541515611dee565b5416309033906124c5565b610b0d838254611fae565b90556040805133815260208101929092528101919091528060608101610397565b50346102b45760203660031901126102b4576001600160a01b03610b50611ccc565b610b58612486565b16610b64811515612342565b6001600160a01b0319600a541617600a5580f35b50346102b457806003193601126102b4576001600160a01b036020915416604051908152f35b50346102b457806003193601126102b4576020600c54604051908152f35b50346102b45760403660031901126102b457610bd6611ccc565b6024359081151591828103610c4c577f66275f25281c43dd8ba9b837d809b01ee2a2f5a4ccb8e28ca45b0dbb4b43327892610c3e6001600160a01b03604094610c1d612486565b169283875260056020526002858820019060ff801983541691151516179055565b82519182526020820152a180f35b8380fd5b50346102b45760403660031901126102b4577f37a282d7235f3ceb195f27bc205bc5e09171c92455322f842e20c07113f22a53610c8b611ccc565b60243590610c97612486565b6001600160a01b03811684526005602052600160408520610cbe60ff600283015416611f63565b01610cca838254611fae565b905542600b55604080516001600160a01b03909216825260208201929092529081908101610397565b50346102b45760403660031901126102b4576020610d1b610d12611ccc565b602435906122c4565b604051908152f35b50346102b457806003193601126102b45760206001600160a01b0360025416604051908152f35b50346102b45760403660031901126102b457610d64611ccc565b6024356001600160a01b03821690818452600860205260408420818552602052604084209260018401610da483825493610d9f851515611dee565b611e8b565b6001600160a01b038654169081885260036020526040882090604051610dc981611d80565b6001600160a01b03835416815260018301546020820152600283015460408201526003830154606082015260a060ff600560048601549586608086015201541615159101521015610ed7578692610e21913390612423565b60026001600160a01b0360015416950194855490803b15610c4c57604051632770a7eb60e21b8152336004820152602481019290925283908290604490829084905af18015610ecc57610eb0575b50907f75b55b3c33e29c4d930d8d670655063ae11f1bf38356fc3895b22bdd5fe8cdda9481606095949355556040519182526020820152336040820152a180f35b91610ebf818093969594611dcc565b6102b4579091925f610e6f565b6040513d85823e3d90fd5b606460405162461bcd60e51b815260206004820152601960248201527f506f736974696f6e206e6f74206c6971756964617461626c65000000000000006044820152fd5b50346102b457610f2a36611cb6565b3383526008602052604083208284526020526040832091600183018054610f52811515611dee565b80841161103c5783610f6391611e7e565b90610f7d60026001600160a01b03875416960154866122c4565b8210610fd2577fdaed309a628faec6cab72194019e2a1a34e890ca9bf9be99788992dd5469281994610fb3928592553390612423565b6040805133815260208101929092528101919091528060608101610397565b608460405162461bcd60e51b815260206004820152602860248201527f5769746864726177616c20776f756c642062726561636820636f6c6c6174657260448201527f616c20726174696f0000000000000000000000000000000000000000000000006064820152fd5b608460405162461bcd60e51b815260206004820152602360248201527f416d6f756e74206578636565647320617661696c61626c6520636f6c6c61746560448201527f72616c00000000000000000000000000000000000000000000000000000000006064820152fd5b50346102b45760603660031901126102b4576110c0611ccc565b602435604435916001600160a01b03811690818552600360205260408520906040516110eb81611d80565b6001600160a01b0383541681526001830154602082015260ff6005600285015494604084019586526003810154606085015260048101546080850152015416159060a082159101526113e557836111419161222f565b841161137b57611162620f42409161115b853033876124c5565b5185611e39565b0491338552600960205260408520549133865260096020526040862080549060018201809211611367575560405161119981611db0565b8181526002602082018481526040830190888252338a52600860205260408a20878b526020526001600160a01b038060408c20955116166001600160a01b031985541617845551600184015551910155856001600160a01b03600154166112008688611e7e565b90803b15610559576040516340c10f1960e01b8152336004820152602481019290925282908290604490829084905af1801561079357611352575b5050836112cc575b937fafda9316e64488bba379a6614bcee4516ef1793ee3844298c937b46b2cae582960a06112b49461039796947fb8d0a675deb3f0103b7b5bfee7759ee667ec4a083833f9674ae14b688cb105519860405192338452602084015260408301526060820152836080820152a1611e7e565b60408051338152602081019290925290918291820190565b856001600160a01b03600154166001600160a01b03600a541690803b15610559576040516340c10f1960e01b81526001600160a01b039290921660048301526024820187905282908290604490829084905af1801561079357611331575b5050611243565b81611340919793969497611dcc565b61134e57939092855f61132a565b8580fd5b8161135c91611dcc565b61134e57855f61123b565b602488634e487b7160e01b81526011600452fd5b608460405162461bcd60e51b815260206004820152602c60248201527f496e73756666696369656e7420636f6c6c61746572616c20666f72207265717560448201527f657374656420616d6f756e7400000000000000000000000000000000000000006064820152fd5b608460405162461bcd60e51b8152602060048201526024808201527f436f6c6c61746572616c206e6f7420737570706f72746564206f7220696e616360448201527f74697665000000000000000000000000000000000000000000000000000000006064820152fd5b50346102b45760403660031901126102b4576020610d1b61146d611ccc565b6024359061222f565b50346102b457806003193601126102b45761148f612486565b806001600160a01b0381546001600160a01b031981168355167f8be0079c531659141344cd1fd0a4f28419497f9722a3daafe3b4186f6b6457e08280a380f35b50346102b45760403660031901126102b4576020610d1b6114ee611ccc565b60243590612151565b50346102b45760203660031901126102b4576040906001600160a01b0361151c611ccc565b16815260056020522060405161153181611db0565b81548082526001830154602080840182905260029094015460ff161515604093840181905283519283529382015290810191909152606090f35b50346102b45760c03660031901126102b457611585611ccc565b906024356084359260a435801515809103610c4c576115a2612486565b6001600160a01b0382169485156117cd57620f42408410611789578381101561171f5785855260036020526001600160a01b0360408620541615611698575b946005610a70927f7dba1be544024070cd5eebfa8bdd80a8b198cea8058c7d3cc1f8dd36e41ab2f796976040519361161885611d80565b80855289602086018981526001600160a01b03806040808a0194604435865260608b0196606435885260808c0198895260a08c01998a528152600360205220985116166001600160a01b031988541617875551600187015551600286015551600385015551600484015551151591019060ff801983541691151516179055565b6004546801000000000000000081101561170b57610a70927f7dba1be544024070cd5eebfa8bdd80a8b198cea8058c7d3cc1f8dd36e41ab2f79697926116e683600160059501600455611d1c565b81549060031b906001600160a01b0387831b921b1916179055929796509250506115e1565b602486634e487b7160e01b81526041600452fd5b608460405162461bcd60e51b815260206004820152602960248201527f4c69717569646174696f6e207468726573686f6c64206d75737420626520626560448201527f6c6f7720726174696f00000000000000000000000000000000000000000000006064820152fd5b606460405162461bcd60e51b815260206004820152601b60248201527f526174696f206d757374206265206174206c65617374203130302500000000006044820152fd5b606460405162461bcd60e51b815260206004820152601560248201527f496e76616c696420746f6b656e206164647265737300000000000000000000006044820152fd5b50346102b45760203660031901126102b45760406020916001600160a01b03611838611ccc565b168152600983522054604051908152f35b50346102b45760203660031901126102b457600435906004548210156102b45760206001600160a01b0361187c84611d1c565b90549060031b1c16604051908152f35b50346102b45760403660031901126102b4576020610d1b6118ab611ccc565b60243590612070565b50346102b4576118c336611ce2565b92916118db6001600160a01b03600654163314611f18565b6001600160a01b03821680845260056020526040842061190160ff600283015416611f63565b611913868254610a6282821015611fbb565b905542600b55600c545f198114611984579461195c81846103979460017f124e95c8922ffd49854621f263b9715ce3b36286492a179e535e618623b8e112999a01600c55612423565b604051938493846001600160a01b036040929594938160608401971683521660208201520152565b602485634e487b7160e01b81526011600452fd5b50346102b457806003193601126102b4576020600b54604051908152f35b50346102b45760403660031901126102b4576001600160a01b036119d8611ccc565b6119e782600654163314611f18565b1681526005602052600160408220611a0560ff600283015416611f63565b01611a136024358254611fae565b905542600b5580f35b50346102b45760403660031901126102b4576020610d1b611a3b611ccc565b60243590611e8b565b5034611caa57611a5336611cb6565b335f52600860205260405f20825f5260205260405f206001810192611a7a84541515611dee565b600282018054808511611cae575b506001600160a01b038354165f526003602052620f4240611afd60405f20604051611ab281611d80565b6001600160a01b038254168152600182015460208201526002820154604082015260a060ff600560038501549485606086015260048101546080860152015416151591015286611e39565b046001600160a01b0360015416803b15611caa57604051632770a7eb60e21b815233600482015260248101879052905f908290604490829084905af18015611c9f57611c88575b5090818792611c07575b509184939183611b84610397977f73d7115a3106da3e0d40e7f29f2941645b2b6f2fd75328fa464692cf0e42a39f999654611e7e565b80915515611baa575b505060408051338152602081019490945292938493840192509050565b83611be47fdaed309a628faec6cab72194019e2a1a34e890ca9bf9be99788992dd54692819955480956001600160a01b0333915416612423565b55604080513381526020810192909252810191909152606090a15f808086611b8d565b6001600160a01b0360015416906001600160a01b03600a541690823b15611c84576040516340c10f1960e01b81526001600160a01b0392909216600483015260248201529083908290604490829084905af18015610ecc5715611b4e5791611c758180989593979694611dcc565b61134e5791949092935f611b4e565b8480fd5b611c96919297505f90611dcc565b5f95905f611b44565b6040513d5f823e3d90fd5b5f80fd5b93505f611a88565b6040906003190112611caa576004359060243590565b600435906001600160a01b0382168203611caa57565b6060906003190112611caa576004356001600160a01b0381168103611caa57906024356001600160a01b0381168103611caa579060443590565b600454811015611d345760045f5260205f2001905f90565b634e487b7160e01b5f52603260045260245ffd5b90600182811c92168015611d76575b6020831014611d6257565b634e487b7160e01b5f52602260045260245ffd5b91607f1691611d57565b60c0810190811067ffffffffffffffff821117611d9c57604052565b634e487b7160e01b5f52604160045260245ffd5b6060810190811067ffffffffffffffff821117611d9c57604052565b90601f8019910116810190811067ffffffffffffffff821117611d9c57604052565b15611df557565b606460405162461bcd60e51b815260206004820152601760248201527f506f736974696f6e20646f6573206e6f742065786973740000000000000000006044820152fd5b81810292918115918404141715611e4c57565b634e487b7160e01b5f52601160045260245ffd5b8115611e6a570490565b634e487b7160e01b5f52601260045260245ffd5b91908203918211611e4c57565b6001600160a01b03165f52600860205260405f20905f5260205260405f2060405190611eb682611db0565b6001600160a01b038154169081835260406002600183015492836020870152015493019280845215611f1057611eeb91612070565b620f4240810290808204620f42401490151715611e4c57611f0d915190611e60565b90565b5050505f1990565b15611f1f57565b606460405162461bcd60e51b815260206004820152600e60248201527f4e6f7420617574686f72697a65640000000000000000000000000000000000006044820152fd5b15611f6a57565b606460405162461bcd60e51b815260206004820152602060248201527f50534d2072657365727665206e6f742061637469766520666f7220746f6b656e6044820152fd5b91908201809211611e4c57565b15611fc257565b606460405162461bcd60e51b815260206004820152601960248201527f496e73756666696369656e742050534d207265736572766573000000000000006044820152fd5b5f929181549161201583611d48565b926001811690811561205d575060011461202e57505050565b90919293505f5260205f205f905b8382106120495750500190565b60018160209254848601520191019061203c565b60ff191683525050811515909102019150565b6001600160a01b03165f52600760205260405f206040516120a781612099602082018095612006565b03601f198101835282611dcc565b5190206040516020810190635553444360e01b8252600481526120cb602482611dcc565b519020146120d857505f90565b600460206001600160a01b036002541660405192838092635b9c72af60e01b82525afa908115611c9f575f9161211c575b5061211890620f424092611e39565b0490565b90506020813d602011612149575b8161213760209383611dcc565b81010312611caa5751620f4240612109565b3d915061212a565b6001600160a01b03165f52600760205260405f2060405161217a81612099602082018095612006565b5190206040516020810190635553444360e01b82526004815261219e602482611dcc565b519020146121ab57505f90565b600460206001600160a01b036002541660405192838092635b9c72af60e01b82525afa908115611c9f575f916121fd575b50620f4240820291808304620f42401490151715611e4c57611f0d91611e60565b90506020813d602011612227575b8161221860209383611dcc565b81010312611caa57515f6121dc565b3d915061220b565b906122426001600160a01b039183612070565b91165f52600360205260405f209060405161225c81611d80565b6001600160a01b03835416815260a060ff6005600186015495602085019687526002810154604086015260038101546060860152600481015460808601520154161515910152620f4240810290808204620f42401490151715611e4c57611f0d915190611e60565b620f424061233b611f0d936001600160a01b0384165f52600360205260405f20906040516122f181611d80565b6001600160a01b03835416815260a060ff60056001860154958660208601526002810154604086015260038101546060860152600481015460808601520154161515910152611e39565b0490612151565b1561234957565b606460405162461bcd60e51b815260206004820152601860248201527f5a65726f2061646472657373206e6f7420616c6c6f77656400000000000000006044820152fd5b1561239457565b606460405162461bcd60e51b815260206004820152601560248201527f436f6c6c61746572616c206e6f742061637469766500000000000000000000006044820152fd5b156123df57565b606460405162461bcd60e51b815260206004820152602060248201527f416d6f756e74206d7573742062652067726561746572207468616e207a65726f6044820152fd5b6040517fa9059cbb0000000000000000000000000000000000000000000000000000000060208201526001600160a01b03909216602483015260448201929092526124849161247f82606481015b03601f198101845283611dcc565b612520565b565b6001600160a01b035f5416330361249957565b7f118cdaa7000000000000000000000000000000000000000000000000000000005f523360045260245ffd5b6040517f23b872dd0000000000000000000000000000000000000000000000000000000060208201526001600160a01b03928316602482015292909116604483015260648201929092526124849161247f8260848101612471565b5f6001600160a01b038192169260208151910182855af13d156125de573d67ffffffffffffffff8111611d9c5761257991604051916125696020601f19601f8401160184611dcc565b82523d5f602084013e5b836125ea565b80519081151591826125ba575b505061258f5750565b7f5274afe7000000000000000000000000000000000000000000000000000000005f5260045260245ffd5b8192509060209181010312611caa5760200151801590811503611caa575f80612586565b61257990606090612573565b9061262757508051156125ff57805190602001fd5b7f1425ea42000000000000000000000000000000000000000000000000000000005f5260045ffd5b8151158061266d575b612638575090565b6001600160a01b03907f9996b315000000000000000000000000000000000000000000000000000000005f521660045260245ffd5b50803b1561263056fea264697066735822122031f8edd7c6d1d898e22d216c68a7ac338c7d6e2e07a0b6d6d39e304dc17c275264736f6c634300081a0033000000000000000000000000e126098b5111330ced47b80928348e4b8ed7a784000000000000000000000000a3acc71fda8c0e321ea9d49ef0630dc1c1951e17",
        "nonce": "0x9f",
        "chainId": "0x2105"
      },
      "additionalContracts": [],
      "isFixedGasLimit": false
    },
    {
      "hash": "0x7f3c8e7a4f9ce4b4a29b2d7297d747c4c0569ce1a9334b0d258574579f04176d",
      "transactionType": "CREATE2",
      "contractName": "VCOPCollateralHook",
      "contractAddress": "0x00feafe88e9441c10227be8ccf2dc34d691b84c0",
      "function": null,
      "arguments": [
        "0x498581fF718922c3f8e6A244956aF099B2652b2b",
        "0x5d211f80A23f04201C6b3Fa06B85171b11802B95",
        "0xA3aCc71fDA8C0E321ea9d49eF0630Dc1c1951E17",
        "0xE126098b5111330ceD47b80928348E4B8ED7A784",
        "0xC9D7A317B5A9B39d971fA4430d0Fec7A572d2520",
        "0xA6B3D200cD34ca14d7579DAc8B054bf50a62c37c",
        "0xA6B3D200cD34ca14d7579DAc8B054bf50a62c37c"
      ],
      "transaction": {
        "from": "0xa6b3d200cd34ca14d7579dac8b054bf50a62c37c",
        "to": "0x4e59b44847b379578588920ca78fbf26c0b4956c",
        "gas": "0x3c5e51",
        "value": "0x0",
        "input": "0x0000000000000000000000000000000000000000000000000000000000001e9960c080604052346104c45760e08161338a803803809161001f82856104e4565b8339810103126104c4578051906001600160a01b03821682036104c45761004860208201610507565b61005460408301610507565b9161006160608201610507565b9361006e60808301610507565b9061008760c061008060a08601610507565b9401610507565b906080525f6101a060405161009b816104c8565b8281528260208201528260408201528260608201528260808201528260a08201528260c08201528260e0820152826101008201528261012082015282610140820152826101608201528261018082015201525f6101a06040516100fd816104c8565b828152826020820152826040820152600160608201528260808201528260a0820152600160c0820152600160e0820152826101008201528261012082015282610140820152826101608201528261018082015201526120003016158015906104b7575b80156104aa575b8015610499575b801561048c575b801561047f575b801561046f575b801561045f575b8015610453575b8015610447575b801561043b575b801561042f575b8015610423575b8015610417575b610404576001600160a01b03169485156103f1575f80546001600160a01b0319811688178255604051969188916001600160a01b0316907f8be0079c531659141344cd1fd0a4f28419497f9722a3daafe3b4186f6b6457e09080a3620f6950600455620f1b306005556103e86006556402540be4006007556008805464012a05f200600955600180546001600160a01b03199081166001600160a01b03998a161790915592871660a052600280548416948816949094179093556003805490921693909516929092179091556001600160a81b03191690821b610100600160a81b031617905560608101906001600160401b038211818310176103dd575f928392604052602a8252610349608460208401927f56434f50436f6c6c61746572616c486f6f6b20696e697469616c697a6564207784526934ba341037bbb732b91d60b11b6040860152604051938491602083019663319af33360e01b8852604060248501525180928160648601528585015e878483850101526044830152601f801991011681010301601f1981018352826104e4565b51906a636f6e736f6c652e6c6f675afa50604051612e6e908161051c82396080518181816105040152818161057f015281816105d101528181610c7e01528181610efc015281816118f20152818161197201528181611a300152611bfd015260a0518181816111c301528181611c7d015281816120fd015281816125980152818161269c0152818161287901526129bd0152f35b634e487b7160e01b5f52604160045260245ffd5b631e4fbdf760e01b5f525f60045260245ffd5b630732d7b560e51b5f523060045260245ffd5b506001301615156101b4565b506002301615156101ad565b506004301615156101a6565b5060083016151561019f565b50601030161515610198565b50602030161515610191565b506040301615156001141561018a565b5060803016151560011415610183565b506101003016151561017c565b5061020030161515610175565b50610400301615156001141561016e565b5061080030161515610167565b5061100030161515610160565b5f80fd5b6101c081019081106001600160401b038211176103dd57604052565b601f909101601f19168101906001600160401b038211908210176103dd57604052565b51906001600160a01b03821682036104c45756fe60806040526004361015610011575f80fd5b5f803560e01c806213fa7714611e095780630d84af9d14611deb5780630e50ad3a14611dc95780630f29b1e014611da35780631269edef14611d7f5780632156df3014611d6257806321d0ee7014611be05780632276f26014611c5d57806323be345c14611c32578063259982e514611be05780633e1c999414611bba578063414683a814611b9d578063575e24b4146119d057806361d027b3146119a75780636c2bbe7e146119535780636d8fcb42146119365780636fe7e6eb146118ac578063715018a6146118485780637522d37b146113c95780637742b286146113aa5780637ad74385146111e75780637dc0d1d0146111a3578063842a05d4146110e15780638da5cb5b146110bb578063958af60d146110945780639f063efc14610edd578063aca5d32714610e48578063ad15795414610e21578063afc8760614610e03578063b47b2fb114610c1d578063b6a8b0fa146104e2578063c4e833ce14610ab3578063d1a2098914610613578063d4327b69146105f5578063dc4c90d3146105b1578063dc98354e14610542578063e1b4af69146104e2578063e4afa2db14610471578063e980083e146103a5578063eb5334d4146102895763f2fde38b146101dc575f80fd5b34610286576020366003190112610286576001600160a01b036101fd611e23565b610205612cbb565b16801561025a576001600160a01b0382548273ffffffffffffffffffffffffffffffffffffffff198216178455167f8be0079c531659141344cd1fd0a4f28419497f9722a3daafe3b4186f6b6457e08380a380f35b6024827f1e4fbdf700000000000000000000000000000000000000000000000000000000815280600452fd5b80fd5b50346102865761029836611f4b565b600460206001600160a01b036102ac6127b9565b1660405192838092638da5cb5b60e01b82525afa90811561039a576102e4916001600160a01b0391869161036b575b50163314612963565b8082111561032757816040917ffa971398efa0f2d0d319ecb84bbfb1a85a49f3c8d7e6043e39613b807049e428936004558060055582519182526020820152a180f35b606460405162461bcd60e51b815260206004820152600e60248201527f496e76616c696420626f756e64730000000000000000000000000000000000006044820152fd5b61038d915060203d602011610393575b6103858183612035565b810190612944565b5f6102db565b503d61037b565b6040513d86823e3d90fd5b50346102865760203660031901126102865760043580151580910361046d57600460206001600160a01b036103d86127b9565b1660405192838092638da5cb5b60e01b82525afa918215610462576104326001600160a01b037fe4b3d2a6e57869ec41aecda0a67548b140292062032c6672e58dbf91b41e740394602094879161044b5750163314612963565b60ff196008541660ff821617600855604051908152a180f35b61038d9150853d8711610393576103858183612035565b6040513d85823e3d90fd5b5080fd5b503461028657602036600319011261028657600460206001600160a01b036104976127b9565b1660405192838092638da5cb5b60e01b82525afa9081156104d7576104ce916001600160a01b0391849161036b5750163314612963565b60043560095580f35b6040513d84823e3d90fd5b5034610286576004906104f436611f61565b5050505050506001600160a01b037f000000000000000000000000000000000000000000000000000000000000000016330361053657630a85dc2960e01b8152fd5b63570c108560e11b8152fd5b50346102865760e03660031901126102865761055c611e23565b5060a036602319011261028657600490610574611f35565b506001600160a01b037f000000000000000000000000000000000000000000000000000000000000000016330361053657630a85dc2960e01b8152fd5b503461028657806003193601126102865760206040516001600160a01b037f0000000000000000000000000000000000000000000000000000000000000000168152f35b50346102865780600319360112610286576020600754604051908152f35b50346102865760203660031901126102865760043561063760ff6008541615611fb9565b8015610a6f576106468161286a565b610654600754821115612812565b61066f620f424061066760065484612078565b048092612057565b600354604051636eb1769f60e11b815233600482015230602482015291926001600160a01b0390911691602081604481865afa8015610a645785918791610a2b575b50106109c15784806001600160a01b036106c96127b9565b166040516107188161070a8a60208301956323b872dd60e01b875233602485016001600160a01b036040929594938160608401971683521660208201520152565b03601f198101835282612035565b519082865af13d156109b5573d9067ffffffffffffffff82116109a15760405161076392909190610753601f8201601f191660200184612035565b82523d88602084013e5b84612dac565b805190811515918261097a575b505061094e579084916001600160a01b036107896127b9565b16803b15610935576040517ff64005640000000000000000000000000000000000000000000000000000000081526001600160a01b0384166004820152602481018790529084908290604490829084905af190811561039a578491610939575b50506001600160a01b036107fb6127b9565b16803b156109355760405163dd411b8b60e01b81523360048201526001600160a01b0384166024820152604481018690529084908290606490829084905af190811561039a578491610920575b505080610891575b827f0867f4c3da818fe62ba7a8bf4c0394527b43ea28693103cb44f73d460a1cefa6608087876040519133835285602084015260408301526060820152a180f35b6001600160a01b036108a16127b9565b16906001600160a01b0360085460081c1691803b1561091c5760405163dd411b8b60e01b81526001600160a01b039384166004820152939092166024840152604483015282908290606490829084905af180156104d757610903575b80610850565b8161090d91612035565b61091857825f6108fd565b8280fd5b8480fd5b8161092a91612035565b61091857825f610848565b8380fd5b8161094391612035565b61091857825f6107e9565b602485837f5274afe7000000000000000000000000000000000000000000000000000000008252600452fd5b819250906020918101031261099d576020610995910161285d565b155f80610770565b8580fd5b602487634e487b7160e01b81526041600452fd5b6107639060609061075d565b608460405162461bcd60e51b815260206004820152602160248201527f496e73756666696369656e7420636f6c6c61746572616c20616c6c6f77616e6360448201527f65000000000000000000000000000000000000000000000000000000000000006064820152fd5b9150506020813d602011610a5c575b81610a4760209383612035565b81010312610a58578490515f6106b1565b5f80fd5b3d9150610a3a565b6040513d88823e3d90fd5b606460405162461bcd60e51b815260206004820152600e60248201527f496e76616c696420616d6f756e740000000000000000000000000000000000006044820152fd5b5034610286578060031936011261028657806101c0916101a0604051610ad881612004565b8281528260208201528260408201528260608201528260808201528260a08201528260c08201528260e08201528261010082015282610120820152826101408201528261016082015282610180820152015260405190610b3782612004565b80825260208201918183526040810182815260608201600181526080830184815260a0840185815260c085016001815260e0860190600182526101008701928884526101208801948986526101408901968a88526101608a01988b8a526101a06101808c019b8d8d52019b808d5260206040519e8f92835251151591015251151560408d015251151560608c015251151560808b015251151560a08a015251151560c089015251151560e08801525115156101008701525115156101208601525115156101408501525115156101608401525115156101808301525115156101a0820152f35b50346102865761016036600319011261028657610c38611e23565b5060a03660231901126102865760603660c3190112610286576101443567ffffffffffffffff811161046d57610c72903690600401611e39565b50506001600160a01b037f0000000000000000000000000000000000000000000000000000000000000000163303610df457604090610caf612d0e565b610ce1575b8151907fb47b2fb10000000000000000000000000000000000000000000000000000000082526020820152f35b81610d208151610cf18382612035565b601781527f56434f5020706f6f6c20737761702064657465637465640000000000000000006020820152612a8b565b5f80610d2a61267e565b92610dba815191610d3b8184612035565b601e83527f50726963652077697468696e2073746162696c69747920626f756e64733a00006020840152610da281519384927fc3b5563500000000000000000000000000000000000000000000000000000000602085015260248401526064830190612a67565b9515958615604483015203601f198101835282612035565b6020815191016a636f6e736f6c652e6c6f675afa5080610de7575b15610cb457610de26120e4565b610cb4565b5060ff6008541615610dd5565b8063570c108560e11b60049252fd5b50346102865780600319360112610286576020600454604051908152f35b5034610286576020366003190112610286576020610e406004356129ae565b604051908152f35b5034610286576004610e5936611f4b565b919060206001600160a01b03610e6d6127b9565b1660405193848092638da5cb5b60e01b82525afa92831561039a57610ec76001600160a01b037f891384186ffead2cb35cd6acef852802689f307176dd41748e5a8a7f2b46297695604095889161036b5750163314612963565b816006558060075582519182526020820152a180f35b503461028657610eec36611ecb565b5050509250506001600160a01b037f0000000000000000000000000000000000000000000000000000000000000000163303611085576001600160a01b03610f3382612cfa565b81600254169182911614918215611065575b5050610f7c575b6040908151907f9f063efc0000000000000000000000000000000000000000000000000000000082526020820152f35b604051917f1269edef00000000000000000000000000000000000000000000000000000000835260208360048184305af18061102b575b6040935061102557506110208251610fcc606082612035565b603b81527f5072696365206d6f6e69746f72696e67206661696c6564202d206c696b656c7960208201527f20647572696e6720706f6f6c20696e697469616c697a6174696f6e000000000084820152612a8b565b610f4c565b50610f4c565b6020843d60201161105d575b8161104460209383612035565b8101031261046d5761105760409461285d565b50610fb3565b3d9150611037565b6001600160a01b03919250602061107c9101612cfa565b16145f80610f45565b60048363570c108560e11b8152fd5b503461028657806003193601126102865760206001600160a01b0360035416604051908152f35b50346102865780600319360112610286576001600160a01b036020915416604051908152f35b5034610286576020366003190112610286576001600160a01b03611103611e23565b61110b612cbb565b16801561115f576020817f507e88d0e3541203c8e7dba038a3e807ac9121f0872ed9ed895cd7f3358334eb9273ffffffffffffffffffffffffffffffffffffffff196001541617600155604051908152a180f35b606460405162461bcd60e51b815260206004820152601860248201527f5a65726f2061646472657373206e6f7420616c6c6f77656400000000000000006044820152fd5b503461028657806003193601126102865760206040516001600160a01b037f0000000000000000000000000000000000000000000000000000000000000000168152f35b50346102865780600319360112610286576001600160a01b036003541660606001600160a01b036112166127b9565b1691602460405180948193636635e57360e01b835260048301525afa9081156104d7579160049281908293611375575b5060206001600160a01b036112596127b9565b16604051958680927f14daad990000000000000000000000000000000000000000000000000000000082525afa9081156104d7578291611340575b6004945060206001600160a01b036112aa6127b9565b16604051968780927f878b65410000000000000000000000000000000000000000000000000000000082525afa92831561133457926112ff575b60809450604051938452602084015260408301526060820152f35b91506020843d60201161132c575b8161131a60209383612035565b81010312610a585760809351916112e4565b3d915061130d565b604051903d90823e3d90fd5b90506020843d60201161136d575b8161135b60209383612035565b81010312610a58576004935190611294565b3d915061134e565b905061139a91925060603d6060116113a3575b6113928183612035565b810190612925565b5091905f611246565b503d611388565b5034610286576020366003190112610286576020610e4060043561286a565b5034610a58576020366003190112610a58576004356113ed60ff6008541615611fb9565b6113fb600754821115612812565b61140481612589565b611417620f424061066760065484612078565b906001600160a01b0360035416906001600160a01b036114356127b9565b6040517fdafc87300000000000000000000000000000000000000000000000000000000081526001600160a01b0385166004820152602481018690529160209183916044918391165afa9081156116c8575f9161180e575b50156117ca57600254604051636eb1769f60e11b81523360048201523060248201526001600160a01b0390911690602081604481855afa80156116c85786915f91611795575b5010611751576040516323b872dd60e01b8152336004820152306024820152604481018690526020816064815f865af19081156116c8575f91611717575b50156116d357803b15610a58576040517f9dc29fac00000000000000000000000000000000000000000000000000000000815230600482015260248101869052905f908290604490829084905af180156116c8576116b1575b509084916001600160a01b0361157e6127b9565b16803b15610935576040516322d4a3c560e01b81523360048201526001600160a01b0384166024820152604481018690529084908290606490829084905af190811561039a57849161169c575b505080611615575b827f0867f4c3da818fe62ba7a8bf4c0394527b43ea28693103cb44f73d460a1cefa660808787604051913383526001602084015260408301526060820152a180f35b6001600160a01b036116256127b9565b16906001600160a01b0360085460081c1691803b1561091c576040516322d4a3c560e01b81526001600160a01b039384166004820152939092166024840152604483015282908290606490829084905af180156104d757611687575b806115d3565b8161169191612035565b61091857825f611681565b816116a691612035565b61091857825f6115cb565b6116bf919295505f90612035565b5f93905f61156a565b6040513d5f823e3d90fd5b606460405162461bcd60e51b815260206004820152601460248201527f56434f50207472616e73666572206661696c65640000000000000000000000006044820152fd5b90506020813d602011611749575b8161173260209383612035565b81010312610a58576117439061285d565b5f611511565b3d9150611725565b606460405162461bcd60e51b815260206004820152601b60248201527f496e73756666696369656e742056434f5020616c6c6f77616e636500000000006044820152fd5b9150506020813d6020116117c2575b816117b160209383612035565b81010312610a58578590515f6114d3565b3d91506117a4565b606460405162461bcd60e51b815260206004820152601960248201527f496e73756666696369656e742050534d207265736572766573000000000000006044820152fd5b90506020813d602011611840575b8161182960209383612035565b81010312610a585761183a9061285d565b5f61148d565b3d915061181c565b34610a58575f366003190112610a5857611860612cbb565b5f6001600160a01b03815473ffffffffffffffffffffffffffffffffffffffff1981168355167f8be0079c531659141344cd1fd0a4f28419497f9722a3daafe3b4186f6b6457e08280a3005b34610a5857610100366003190112610a58576118c6611e23565b5060a0366023190112610a58576118db611f35565b5060e4358060020b03610a58576001600160a01b037f000000000000000000000000000000000000000000000000000000000000000016330361192757630a85dc2960e01b5f5260045ffd5b63570c108560e11b5f5260045ffd5b34610a58575f366003190112610a58576020600654604051908152f35b34610a585761196136611ecb565b505050505050506001600160a01b037f000000000000000000000000000000000000000000000000000000000000000016330361192757630a85dc2960e01b5f5260045ffd5b34610a58575f366003190112610a585760206001600160a01b0360085460081c16604051908152f35b34610a5857610140366003190112610a58576119ea611e23565b5060a0366023190112610a585760603660c3190112610a58576101243567ffffffffffffffff8111610a5857611a24903690600401611e39565b50506001600160a01b037f000000000000000000000000000000000000000000000000000000000000000016330361192757611a5e612d0e565b611a99575b60606040517f575e24b40000000000000000000000000000000000000000000000000000000081525f60208201525f6040820152f35b611aa1612d5a565b80611b1f575b15611a6357611b12604051611abd606082612035565b602881527f4c6172676520737761702064657465637465642074686174206d69676874206260208201527f7265616b207065670000000000000000000000000000000000000000000000006040820152612a8b565b611b1a6120e4565b611a63565b506024356001600160a01b03811690818103610a5857506001600160a01b036002541680911480611b8f575b15611b5f575b50611b5a612d5a565b611aa7565b6044356001600160a01b03811690818103610a58575014611b81575b80611b51565b611b89612d9d565b50611b7b565b50611b98612d9d565b611b4b565b34610a58575f366003190112610a58576020600954604051908152f35b34610a58575f366003190112610a585760206001600160a01b0360015416604051908152f35b34610a5857611bee36611e67565b50505050506001600160a01b037f000000000000000000000000000000000000000000000000000000000000000016330361192757630a85dc2960e01b5f5260045ffd5b34610a58575f366003190112610a58576020611c4c6127b9565b6001600160a01b0360405191168152f35b34610a58576020366003190112610a5857604051635b9c72af60e01b81527f00000000000000000000000000000000000000000000000000000000000000006001600160a01b0316602082600481845afa9182156116c8575f92611d2d575b5060206004916040519283809263ea0ca6a960e01b82525afa9081156116c8575f91611cfa575b6020610e4083611cf586600435612078565b61208b565b90506020813d602011611d25575b81611d1560209383612035565b81010312610a5857516020611ce3565b3d9150611d08565b9091506020813d602011611d5a575b81611d4960209383612035565b81010312610a585751906020611cbc565b3d9150611d3c565b34610a58575f366003190112610a58576020600554604051908152f35b34610a58575f366003190112610a58576020611d9961267e565b6040519015158152f35b34610a58575f366003190112610a585760206001600160a01b0360025416604051908152f35b34610a58575f366003190112610a5857602060ff600854166040519015158152f35b34610a58576020366003190112610a58576020610e40600435612589565b34610a58575f366003190112610a5857611e216120e4565b005b600435906001600160a01b0382168203610a5857565b9181601f84011215610a585782359167ffffffffffffffff8311610a585760208381860195010111610a5857565b90610160600319830112610a58576004356001600160a01b0381168103610a58579160a0602319820112610a5857602491608060c319830112610a585760c491610144359067ffffffffffffffff8211610a5857611ec791600401611e39565b9091565b906101a0600319830112610a58576004356001600160a01b0381168103610a58579160a0602319820112610a5857602491608060c319830112610a585760c49161014435916101643591610184359067ffffffffffffffff8211610a5857611ec791600401611e39565b60c435906001600160a01b0382168203610a5857565b6040906003190112610a58576004359060243590565b610120600319820112610a58576004356001600160a01b0381168103610a58579160a0602319830112610a585760249160c4359160e43591610104359067ffffffffffffffff8211610a5857611ec791600401611e39565b15611fc057565b606460405162461bcd60e51b815260206004820152600d60248201527f50534d20697320706175736564000000000000000000000000000000000000006044820152fd5b6101c0810190811067ffffffffffffffff82111761202157604052565b634e487b7160e01b5f52604160045260245ffd5b90601f8019910116810190811067ffffffffffffffff82111761202157604052565b9190820391821161206457565b634e487b7160e01b5f52601160045260245ffd5b8181029291811591840414171561206457565b8115612095570490565b634e487b7160e01b5f52601260045260245ffd5b604051906120b8604083612035565b600482527f56434f50000000000000000000000000000000000000000000000000000000006020830152565b6120f360ff6008541615611fb9565b6001600160a01b037f00000000000000000000000000000000000000000000000000000000000000001660405163bfbf025160e01b81526020816004815f865af15f9181612555575b50612185575050612183604051612154604082612035565b601f81527f4661696c656420746f206765742070726963652066726f6d206f7261636c65006020820152612a8b565b565b906040916121c88184516121998682612035565b601681527f43757272656e742056434f502f434f5020726174653a000000000000000000006020820152612ae8565b6005549061220b8285516121dc8782612035565b600c81527f4c6f77657220626f756e643a00000000000000000000000000000000000000006020820152612ae8565b60045461224d81865161221e8882612035565b600c81527f557070657220626f756e643a00000000000000000000000000000000000000006020820152612ae8565b828210156123a957506122609082612057565b620f4240810290808204620f424014901517156120645761229361228b61229993620f42409361208b565b600754612078565b04612bdf565b91826122a457505050565b60206004926122f083516122b88582612035565b601481527f457865637574696e672050534d20627579206f6600000000000000000000000084820152866122ea6120a9565b91612c58565b82519384809263ea0ca6a960e01b82525afa91821561239f575f92612349575b5091606091837f95c568f526c94a46c97ca9a1db1020c92926b9da9860be7e06783e75c0d1d532945192600184526020840152820152a1565b9150916020823d602011612397575b8161236560209383612035565b81010312610a5857905190917f95c568f526c94a46c97ca9a1db1020c92926b9da9860be7e06783e75c0d1d532612310565b3d9150612358565b50513d5f823e3d90fd5b9150818111156124ed57816123bd91612057565b620f4240810290808204620f42401490151715612064576123e861228b6123ee93620f42409361208b565b04612b44565b91826123f957505050565b602060049261243f835161240d8582612035565b601581527f457865637574696e672050534d2073656c6c206f66000000000000000000000084820152866122ea6120a9565b82519384809263ea0ca6a960e01b82525afa91821561239f575f92612497575b5091606091837f95c568f526c94a46c97ca9a1db1020c92926b9da9860be7e06783e75c0d1d5329451925f84526020840152820152a1565b9150916020823d6020116124e5575b816124b360209383612035565b81010312610a5857905190917f95c568f526c94a46c97ca9a1db1020c92926b9da9860be7e06783e75c0d1d53261245f565b3d91506124a6565b505050612183907f6174696f6e206e65656465640000000000000000000000000000000000000000815191612523606084612035565b602c83527f50726963652077697468696e20626f756e64732c206e6f2073746162696c697a6020840152820152612a8b565b9091506020813d602011612581575b8161257160209383612035565b81010312610a585751905f61213c565b3d9150612564565b60405163bfbf025160e01b81527f00000000000000000000000000000000000000000000000000000000000000006001600160a01b0316916020826004815f875af19182156116c8575f92612649575b5060205f929360046040518095819363a7bc785760e01b83525af19182156116c8575f92612613575b5061261092611cf591612078565b90565b9091506020813d602011612641575b8161262f60209383612035565b81010312610a58575190612610612602565b3d9150612622565b91506020823d602011612676575b8161266460209383612035565b81010312610a585790519060206125d9565b3d9150612657565b60405163bfbf025160e01b81526020816004815f6001600160a01b037f0000000000000000000000000000000000000000000000000000000000000000165af15f9181612785575b5061273657506127326040516126dd606082612035565b602781527f4661696c656420746f206765742056434f502f434f5020726174652066726f6d60208201527f206f7261636c65000000000000000000000000000000000000000000000000006040820152612a8b565b5f90565b6005548110159081612778575b60407f9d7c1511366d26aca640ce4644cf89df4da2025ada572b454765bfc2fa274c499181519081528315156020820152a190565b6004548111159150612743565b9091506020813d6020116127b1575b816127a160209383612035565b81010312610a585751905f6126c6565b3d9150612794565b6001600160a01b036001541680156127ce5790565b606460405162461bcd60e51b815260206004820152601a60248201527f436f6c6c61746572616c204d616e61676572206e6f74207365740000000000006044820152fd5b1561281957565b606460405162461bcd60e51b815260206004820152601860248201527f416d6f756e7420657863656564732050534d206c696d697400000000000000006044820152fd5b51908115158203610a5857565b60405163a7bc785760e01b81527f00000000000000000000000000000000000000000000000000000000000000006001600160a01b0316916020826004815f875af19182156116c8575f926128f0575b5060205f929360046040518095819363bfbf025160e01b83525af19182156116c8575f92612613575061261092611cf591612078565b91506020823d60201161291d575b8161290b60209383612035565b81010312610a585790519060206128ba565b3d91506128fe565b90816060910312610a585780519161261060406020840151930161285d565b90816020910312610a5857516001600160a01b0381168103610a585790565b1561296a57565b606460405162461bcd60e51b815260206004820152600e60248201527f4e6f7420617574686f72697a65640000000000000000000000000000000000006044820152fd5b60405163ea0ca6a960e01b81527f00000000000000000000000000000000000000000000000000000000000000006001600160a01b031691602082600481865afa9182156116c8575f92612a32575b5060206004929360405193848092635b9c72af60e01b82525afa9182156116c8575f92612613575061261092611cf591612078565b91506020823d602011612a5f575b81612a4d60209383612035565b81010312610a585790519060206129fd565b3d9150612a40565b805180835260209291819084018484015e5f828201840152601f01601f1916010190565b5f61070a612ad182936040519283917f41304fac000000000000000000000000000000000000000000000000000000006020840152602060248401526044830190612a67565b6020815191016a636f6e736f6c652e6c6f675afa50565b612b30612ad15f939284936040519384927fb60e72cc000000000000000000000000000000000000000000000000000000006020850152604060248501526064840190612a67565b90604483015203601f198101835282612035565b6001600160a01b036003541660606001600160a01b03612b626127b9565b1691602460405180948193636635e57360e01b835260048301525afa80156116c8575f915f91612bbc575b5015612bb657612b9c826129ae565b90808211612ba957505090565b611cf59061261093612078565b50505f90565b9050612bd7915060603d6060116113a3576113928183612035565b90505f612b8d565b6001600160a01b036003541660606001600160a01b03612bfd6127b9565b1691602460405180948193636635e57360e01b835260048301525afa9081156116c8575f91612c35575b5015612c305790565b505f90565b612c4e915060603d6060116113a3576113928183612035565b919050505f612c27565b612ad1612ca49161070a5f959486956040519586947f5970e089000000000000000000000000000000000000000000000000000000006020870152606060248701526084860190612a67565b916044850152602319848303016064850152612a67565b6001600160a01b035f54163303612cce57565b7f118cdaa7000000000000000000000000000000000000000000000000000000005f523360045260245ffd5b356001600160a01b0381168103610a585790565b6024356001600160a01b03811690818103610a5857506001600160a01b0360025416809114908115612d3e575090565b90506044356001600160a01b03811690818103610a5857501490565b60e4355f811215612d96577f8000000000000000000000000000000000000000000000000000000000000000811461206457600954905f031190565b6009541090565b60c4358015158103610a585790565b90612de95750805115612dc157805190602001fd5b7f1425ea42000000000000000000000000000000000000000000000000000000005f5260045ffd5b81511580612e2f575b612dfa575090565b6001600160a01b03907f9996b315000000000000000000000000000000000000000000000000000000005f521660045260245ffd5b50803b15612df256fea26469706673582212202703e984b20db80b553c0ee79c3ba2e3493ef295f5ba357770a2e2b517ca4b3f64736f6c634300081a0033000000000000000000000000498581ff718922c3f8e6a244956af099b2652b2b0000000000000000000000005d211f80a23f04201c6b3fa06b85171b11802b95000000000000000000000000a3acc71fda8c0e321ea9d49ef0630dc1c1951e17000000000000000000000000e126098b5111330ced47b80928348e4b8ed7a784000000000000000000000000c9d7a317b5a9b39d971fa4430d0fec7a572d2520000000000000000000000000a6b3d200cd34ca14d7579dac8b054bf50a62c37c000000000000000000000000a6b3d200cd34ca14d7579dac8b054bf50a62c37c",
        "nonce": "0xa0",
        "chainId": "0x2105"
      },
      "additionalContracts": [],
      "isFixedGasLimit": false
    },
    {
      "hash": "0xdbb8da339b4dc2fe0eafb1a14b50d75b633f8975f12920f7c0600ed61b736c98",
      "transactionType": "CALL",
      "contractName": "VCOPCollateralHook",
      "contractAddress": "0x00feafe88e9441c10227be8ccf2dc34d691b84c0",
      "function": "setCollateralManager(address)",
      "arguments": [
        "0x5d211f80A23f04201C6b3Fa06B85171b11802B95"
      ],
      "transaction": {
        "from": "0xa6b3d200cd34ca14d7579dac8b054bf50a62c37c",
        "to": "0x00feafe88e9441c10227be8ccf2dc34d691b84c0",
        "gas": "0x94c7",
        "value": "0x0",
        "input": "0x842a05d40000000000000000000000005d211f80a23f04201c6b3fa06b85171b11802b95",
        "nonce": "0xa1",
        "chainId": "0x2105"
      },
      "additionalContracts": [],
      "isFixedGasLimit": false
    },
    {
      "hash": "0x56a43d428c6b5df04d9fbbb58032f1e6a27a7f94785e4101dc2905041426e85f",
      "transactionType": "CALL",
      "contractName": "VCOPCollateralManager",
      "contractAddress": "0x5d211f80a23f04201c6b3fa06b85171b11802b95",
      "function": "setPSMHook(address)",
      "arguments": [
        "0x00feAFe88e9441C10227Be8CcF2DC34D691b84c0"
      ],
      "transaction": {
        "from": "0xa6b3d200cd34ca14d7579dac8b054bf50a62c37c",
        "to": "0x5d211f80a23f04201c6b3fa06b85171b11802b95",
        "gas": "0xfc5e",
        "value": "0x0",
        "input": "0xf5797a7d00000000000000000000000000feafe88e9441c10227be8ccf2dc34d691b84c0",
        "nonce": "0xa2",
        "chainId": "0x2105"
      },
      "additionalContracts": [],
      "isFixedGasLimit": false
    },
    {
      "hash": "0xc534c496d2db72a6056ce07e47c5d5396bdfeee45cdb13b5ec3abd6b17a13b5a",
      "transactionType": "CALL",
      "contractName": "VCOPCollateralized",
      "contractAddress": "0xe126098b5111330ced47b80928348e4b8ed7a784",
      "function": "setCollateralManager(address)",
      "arguments": [
        "0x5d211f80A23f04201C6b3Fa06B85171b11802B95"
      ],
      "transaction": {
        "from": "0xa6b3d200cd34ca14d7579dac8b054bf50a62c37c",
        "to": "0xe126098b5111330ced47b80928348e4b8ed7a784",
        "gas": "0x10f87",
        "value": "0x0",
        "input": "0x842a05d40000000000000000000000005d211f80a23f04201c6b3fa06b85171b11802b95",
        "nonce": "0xa3",
        "chainId": "0x2105"
      },
      "additionalContracts": [],
      "isFixedGasLimit": false
    },
    {
      "hash": "0xcd9db046807b1da0636870e9630a14b9e863f925b0dd96d4b2c4df73c466e522",
      "transactionType": "CALL",
      "contractName": "VCOPCollateralized",
      "contractAddress": "0xe126098b5111330ced47b80928348e4b8ed7a784",
      "function": "setMinter(address,bool)",
      "arguments": [
        "0x5d211f80A23f04201C6b3Fa06B85171b11802B95",
        "true"
      ],
      "transaction": {
        "from": "0xa6b3d200cd34ca14d7579dac8b054bf50a62c37c",
        "to": "0xe126098b5111330ced47b80928348e4b8ed7a784",
        "gas": "0x10274",
        "value": "0x0",
        "input": "0xcf456ae70000000000000000000000005d211f80a23f04201c6b3fa06b85171b11802b950000000000000000000000000000000000000000000000000000000000000001",
        "nonce": "0xa4",
        "chainId": "0x2105"
      },
      "additionalContracts": [],
      "isFixedGasLimit": false
    },
    {
      "hash": "0xbf1e3f64233536914b19b038e704dc9c9a0476e070c100980384c226495695d7",
      "transactionType": "CALL",
      "contractName": "VCOPCollateralized",
      "contractAddress": "0xe126098b5111330ced47b80928348e4b8ed7a784",
      "function": "setBurner(address,bool)",
      "arguments": [
        "0x5d211f80A23f04201C6b3Fa06B85171b11802B95",
        "true"
      ],
      "transaction": {
        "from": "0xa6b3d200cd34ca14d7579dac8b054bf50a62c37c",
        "to": "0xe126098b5111330ced47b80928348e4b8ed7a784",
        "gas": "0x11007",
        "value": "0x0",
        "input": "0x0d895ee10000000000000000000000005d211f80a23f04201c6b3fa06b85171b11802b950000000000000000000000000000000000000000000000000000000000000001",
        "nonce": "0xa5",
        "chainId": "0x2105"
      },
      "additionalContracts": [],
      "isFixedGasLimit": false
    },
    {
      "hash": "0x51aa6c1e39d7bce8f79309378d8560b4a1bfd9b2e6cdd49daed1cd099572ea57",
      "transactionType": "CALL",
      "contractName": "VCOPCollateralized",
      "contractAddress": "0xe126098b5111330ced47b80928348e4b8ed7a784",
      "function": "setBurner(address,bool)",
      "arguments": [
        "0x00feAFe88e9441C10227Be8CcF2DC34D691b84c0",
        "true"
      ],
      "transaction": {
        "from": "0xa6b3d200cd34ca14d7579dac8b054bf50a62c37c",
        "to": "0xe126098b5111330ced47b80928348e4b8ed7a784",
        "gas": "0x100da",
        "value": "0x0",
        "input": "0x0d895ee100000000000000000000000000feafe88e9441c10227be8ccf2dc34d691b84c00000000000000000000000000000000000000000000000000000000000000001",
        "nonce": "0xa6",
        "chainId": "0x2105"
      },
      "additionalContracts": [],
      "isFixedGasLimit": false
    },
    {
      "hash": "0xae59caf2ddc2f276c015fd89378124bb4a3ee6414dda14d7554d30b0870c47c9",
      "transactionType": "CALL",
      "contractName": "VCOPCollateralManager",
      "contractAddress": "0x5d211f80a23f04201c6b3fa06b85171b11802b95",
      "function": "setFeeCollector(address)",
      "arguments": [
        "0xA6B3D200cD34ca14d7579DAc8B054bf50a62c37c"
      ],
      "transaction": {
        "from": "0xa6b3d200cd34ca14d7579dac8b054bf50a62c37c",
        "to": "0x5d211f80a23f04201c6b3fa06b85171b11802b95",
        "gas": "0x8f55",
        "value": "0x0",
        "input": "0xa42dce80000000000000000000000000a6b3d200cd34ca14d7579dac8b054bf50a62c37c",
        "nonce": "0xa7",
        "chainId": "0x2105"
      },
      "additionalContracts": [],
      "isFixedGasLimit": false
    },
    {
      "hash": "0xe845580cdcfa8de057de86d4c7a833b114311ac3dacfc7ca387257874d87f926",
      "transactionType": "CALL",
      "contractName": "VCOPCollateralManager",
      "contractAddress": "0x5d211f80a23f04201c6b3fa06b85171b11802b95",
      "function": "configureCollateral(address,uint256,uint256,uint256,uint256,bool)",
      "arguments": [
        "0xC9D7A317B5A9B39d971fA4430d0Fec7A572d2520",
        "1500000",
        "1000",
        "1000",
        "1200000",
        "true"
      ],
      "transaction": {
        "from": "0xa6b3d200cd34ca14d7579dac8b054bf50a62c37c",
        "to": "0x5d211f80a23f04201c6b3fa06b85171b11802b95",
        "gas": "0x48de4",
        "value": "0x0",
        "input": "0x4386972a000000000000000000000000c9d7a317b5a9b39d971fa4430d0fec7a572d2520000000000000000000000000000000000000000000000000000000000016e36000000000000000000000000000000000000000000000000000000000000003e800000000000000000000000000000000000000000000000000000000000003e80000000000000000000000000000000000000000000000000000000000124f800000000000000000000000000000000000000000000000000000000000000001",
        "nonce": "0xa8",
        "chainId": "0x2105"
      },
      "additionalContracts": [],
      "isFixedGasLimit": false
    },
    {
      "hash": "0xc8544ba503910829a3062d998208ce3f070bd56aa80637f6b3aa968c6d2bfac6",
      "transactionType": "CALL",
      "contractName": "VCOPCollateralManager",
      "contractAddress": "0x5d211f80a23f04201c6b3fa06b85171b11802b95",
      "function": "registerTokenIdentifier(address,string)",
      "arguments": [
        "0xC9D7A317B5A9B39d971fA4430d0Fec7A572d2520",
        "USDC"
      ],
      "transaction": {
        "from": "0xa6b3d200cd34ca14d7579dac8b054bf50a62c37c",
        "to": "0x5d211f80a23f04201c6b3fa06b85171b11802b95",
        "gas": "0x100f9",
        "value": "0x0",
        "input": "0xf3219b65000000000000000000000000c9d7a317b5a9b39d971fa4430d0fec7a572d2520000000000000000000000000000000000000000000000000000000000000004000000000000000000000000000000000000000000000000000000000000000045553444300000000000000000000000000000000000000000000000000000000",
        "nonce": "0xa9",
        "chainId": "0x2105"
      },
      "additionalContracts": [],
      "isFixedGasLimit": false
    },
    {
      "hash": "0x8af7746b318d723f68c1b4892a7f8bc08e2527f39a2940cc0c07418db4e3c642",
      "transactionType": "CREATE",
      "contractName": "VCOPPriceCalculator",
      "contractAddress": "0x5f56a7eb5cd6aa8fc904d6dfea676be7c9dabd26",
      "function": null,
      "arguments": [
        "0x498581fF718922c3f8e6A244956aF099B2652b2b",
        "0xE126098b5111330ceD47b80928348E4B8ED7A784",
        "0xC9D7A317B5A9B39d971fA4430d0Fec7A572d2520",
        "3000",
        "60",
        "0x00feAFe88e9441C10227Be8CcF2DC34D691b84c0",
        "4200000000"
      ],
      "transaction": {
        "from": "0xa6b3d200cd34ca14d7579dac8b054bf50a62c37c",
        "gas": "0x11bdcb",
        "value": "0x0",
        "input": "0x610160806040523461026d5760e08161123880380380916100208285610271565b83398101031261026d57610033816102a8565b90610040602082016102a8565b61004c604083016102a8565b9160608101519262ffffff8416840361026d5760808201518060020b810361026d575f9560ff6101b39585610164948a9960c061008e60a06101c99b016102a8565b9301519560018060a01b03166080528360a0528760c05260e0526101005261012052826101405281198854169460018060a01b03169060018060a01b031610168093178655610127816040516100e5606082610271565b602a81527f507269636543616c63756c61746f7220696e697469616c697a65642e2055534460208201526917a1a7a8103930ba329d60b11b60408201526102e0565b604051610135604082610271565b601d81527f5553442f434f5020726174652077697468203620646563696d616c733a00000060208201526102e0565b60405190610173604083610271565b600f82526e2b21a7a81034b9903a37b5b2b7181d60891b602083015260405193849263c3b5563560e01b60208501526040602485015260648401906102bc565b901515604483015203601f198101835282610271565b6020815191016a636f6e736f6c652e6c6f675afa50604051610efd908161033b823960805181818161012e0152610ad0015260a0518181816103e2015281816105170152610635015260c05181818161046601528181610542015261060a015260e05181818160eb015261058001526101005181818161016901526105a701526101205181818161042501526105d8015261014051818181610206015261066f0152f35b5f80fd5b601f909101601f19168101906001600160401b0382119082101761029457604052565b634e487b7160e01b5f52604160045260245ffd5b51906001600160a01b038216820361026d57565b805180835260209291819084018484015e5f828201840152601f01601f1916010190565b61030f6103235f93928493604051938492632d839cb360e21b60208501526040602485015260648401906102bc565b90604483015203601f198101835282610271565b6020815191016a636f6e736f6c652e6c6f675afa5056fe6080806040526004361015610012575f80fd5b5f3560e01c90816302d45457146104495750806332a3cf9614610406578063428bf991146103c35780634abfc4381461034257806371440717146102e25780637898de721461022957806381bb38f6146101ef57806386fcfa98146101b8578063b390c25f1461018f578063d0c93a7c14610152578063dc4c90d31461010f578063ddca3f43146100d05763ec5b1d3e146100ab575f80fd5b346100cc575f3660031901126100cc57602060ff5f54166040519015158152f35b5f80fd5b346100cc575f3660031901126100cc57602060405162ffffff7f0000000000000000000000000000000000000000000000000000000000000000168152f35b346100cc575f3660031901126100cc5760206040516001600160a01b037f0000000000000000000000000000000000000000000000000000000000000000168152f35b346100cc575f3660031901126100cc5760206040517f000000000000000000000000000000000000000000000000000000000000000060020b8152f35b346100cc575f3660031901126100cc5760406101a9610a65565b825191825260020b6020820152f35b346100cc575f3660031901126100cc5760806101d261065a565b91604051938452602084015260020b604083015215156060820152f35b346100cc575f3660031901126100cc5760206040517f00000000000000000000000000000000000000000000000000000000000000008152f35b346100cc575f3660031901126100cc576040610243610a65565b90506102cf82516102556080826104ba565b604f81527f494d504f5254414e54453a20466f727a616e646f20746173612056434f502f4360208201527f4f50206120313a312070617261206d616e74656e657220706172696461642063848201527f6f72726563746120636f6e2055534400000000000000000000000000000000006060820152610db8565b815190620f4240825260020b6020820152f35b346100cc575f3660031901126100cc5760a06102fc6104dc565b6001600160a01b0360806040519282815116845282602082015116602085015262ffffff6040820151166040850152606081015160020b60608501520151166080820152f35b346100cc575f3660031901126100cc576103b86040516103636060826104ba565b602a81527f56434f502f434f5020666f727a61646f206120313a312c207369656d7072652060208201527f656e2070617269646164000000000000000000000000000000000000000000006040820152610db8565b602060405160018152f35b346100cc575f3660031901126100cc5760206040516001600160a01b037f0000000000000000000000000000000000000000000000000000000000000000168152f35b346100cc575f3660031901126100cc5760206040516001600160a01b037f0000000000000000000000000000000000000000000000000000000000000000168152f35b346100cc575f3660031901126100cc576020906001600160a01b037f0000000000000000000000000000000000000000000000000000000000000000168152f35b60a0810190811067ffffffffffffffff8211176104a657604052565b634e487b7160e01b5f52604160045260245ffd5b90601f8019910116810190811067ffffffffffffffff8211176104a657604052565b5f60806040516104eb8161048a565b828152826020820152826040820152826060820152015260ff5f54165f14610600576001600160a01b037f0000000000000000000000000000000000000000000000000000000000000000166001600160a01b03807f0000000000000000000000000000000000000000000000000000000000000000165b81604051936105718561048a565b16835216602082015262ffffff7f00000000000000000000000000000000000000000000000000000000000000001660408201527f000000000000000000000000000000000000000000000000000000000000000060020b60608201526001600160a01b037f000000000000000000000000000000000000000000000000000000000000000016608082015290565b6001600160a01b037f0000000000000000000000000000000000000000000000000000000000000000166001600160a01b03807f000000000000000000000000000000000000000000000000000000000000000016610563565b610662610a65565b90818180156108905750507f0000000000000000000000000000000000000000000000000000000000000000620f4240810290808204620f4240149015171561087c5781156108685781900492620f1b30841015918261085a575b6106fd6040516106ce6040826104ba565b602081527f526573756c7473206f6620636f6d706c6574652063616c63756c6174696f6e3a6020820152610db8565b61073e8160405161070f6040826104ba565b600f81527f56434f502f5553442070726963653a00000000000000000000000000000000006020820152610e7f565b61077f856040516107506040826104ba565b600f81527f56434f502f434f502070726963653a00000000000000000000000000000000006020820152610e7f565b6107ac6040516107906040826104ba565b60058152642a34b1b59d60d91b60208201528560020b90610e23565b5f8061082961083f6040516107c26040826104ba565b600b81527f4174207061726974793f3a00000000000000000000000000000000000000000060208201526040519283917fc3b55635000000000000000000000000000000000000000000000000000000006020840152604060248401526064830190610d94565b881515604483015203601f1981018352826104ba565b6020815191016a636f6e736f6c652e6c6f675afa5093929190565b620f695085111592506106bd565b634e487b7160e01b5f52601260045260245ffd5b634e487b7160e01b5f52601160045260245ffd5b915091506108fa6040516108a56060826104ba565b603181527f526573756c7473206f6620636f6d706c6574652063616c63756c6174696f6e2060208201527f28696e697469616c697a6174696f6e293a0000000000000000000000000000006040820152610db8565b61096060405161090b6060826104ba565b602581527f56434f502f5553442070726963653a203020286e6f7420617661696c61626c6560208201527f20796574290000000000000000000000000000000000000000000000000000006040820152610db8565b6109c66040516109716060826104ba565b602781527f56434f502f434f502070726963653a2031303030303030202864656661756c7460208201527f2076616c756529000000000000000000000000000000000000000000000000006040820152610db8565b6109f36040516109d76040826104ba565b60058152642a34b1b59d60d91b60208201528360020b90610e23565b610a59604051610a046060826104ba565b602d81527f4174207061726974793f3a20747275652028617373756d656420666f7220696e60208201527f697469616c697a6174696f6e29000000000000000000000000000000000000006040820152610db8565b91620f42409190600190565b60a0610a6f6104dc565b20604051602081019182526006604082015260408152610a906060826104ba565b51902090604051917f1e2eaeaf00000000000000000000000000000000000000000000000000000000835260048301526020826024816001600160a01b037f0000000000000000000000000000000000000000000000000000000000000000165afa918215610d89575f92610d55575b506001600160a01b0382169160a01c60020b918015610ce6575f90800280610cd1575b505f9060ff5f54165f14610cc65780158015610ca3575b50610b7d905b604051610b4e6040826104ba565b602081527f496e697469616c207261772070726963652028313820646563696d616c73293a6020820152610e7f565b610be481604051610b8f6060826104ba565b602f81527f56434f502f555344207072696365206265666f72652061646a7573746d656e7460208201527f2028313820646563696d616c73293a00000000000000000000000000000000006040820152610e7f565b80610c96575b610c5181604051610bfc6060826104ba565b602d81527f56434f502f5553442070726963652061667465722061646a7573746d656e742060208201527f283620646563696d616c73293a000000000000000000000000000000000000006040820152610e7f565b610c9283604051610c636040826104ba565b600d81527f43757272656e74207469636b3a000000000000000000000000000000000000006020820152610e23565b9190565b64e8d4a510009004610bea565b90915061086857610b7d816ec097ce7bc90715b34b9f1000000000049190610b3a565b9050610b7d81610b40565b670de0b6b3a764000091500260c01c5f610b23565b509050610d4f604051610cfa6060826104ba565b603281527f5741524e494e473a20737172745072696365583936206973207a65726f206f7260208201527f20616e206572726f72206f6363757272656400000000000000000000000000006040820152610db8565b5f905f90565b9091506020813d602011610d81575b81610d71602093836104ba565b810103126100cc5751905f610b00565b3d9150610d64565b6040513d5f823e3d90fd5b805180835260209291819084018484015e5f828201840152601f01601f1916010190565b5f610dfe610e0c82936040519283917f41304fac000000000000000000000000000000000000000000000000000000006020840152602060248401526044830190610d94565b03601f1981018352826104ba565b6020815191016a636f6e736f6c652e6c6f675afa50565b610e6b610e0c5f939284936040519384927f3ca6268e000000000000000000000000000000000000000000000000000000006020850152604060248501526064840190610d94565b90604483015203601f1981018352826104ba565b610e6b610e0c5f939284936040519384927fb60e72cc000000000000000000000000000000000000000000000000000000006020850152604060248501526064840190610d9456fea264697066735822122083af21513462d114479c757b158d98efee2fc547ebf211ed4a11a6c12d3ce24a64736f6c634300081a0033000000000000000000000000498581ff718922c3f8e6a244956af099b2652b2b000000000000000000000000e126098b5111330ced47b80928348e4b8ed7a784000000000000000000000000c9d7a317b5a9b39d971fa4430d0fec7a572d25200000000000000000000000000000000000000000000000000000000000000bb8000000000000000000000000000000000000000000000000000000000000003c00000000000000000000000000feafe88e9441c10227be8ccf2dc34d691b84c000000000000000000000000000000000000000000000000000000000fa56ea00",
        "nonce": "0xaa",
        "chainId": "0x2105"
      },
      "additionalContracts": [],
      "isFixedGasLimit": false
    },
    {
      "hash": "0xfff96d9f231fca514c0e788ada75a1f035fd007c403b7672f2dc7faab7a7da62",
      "transactionType": "CALL",
      "contractName": "VCOPOracle",
      "contractAddress": "0xa3acc71fda8c0e321ea9d49ef0630dc1c1951e17",
      "function": "setPriceCalculator(address)",
      "arguments": [
        "0x5F56a7Eb5CD6aa8fC904d6dFEA676BE7C9Dabd26"
      ],
      "transaction": {
        "from": "0xa6b3d200cd34ca14d7579dac8b054bf50a62c37c",
        "to": "0xa3acc71fda8c0e321ea9d49ef0630dc1c1951e17",
        "gas": "0x10f0e",
        "value": "0x0",
        "input": "0x6922d7b60000000000000000000000005f56a7eb5cd6aa8fc904d6dfea676be7c9dabd26",
        "nonce": "0xab",
        "chainId": "0x2105"
      },
      "additionalContracts": [],
      "isFixedGasLimit": false
    },
    {
      "hash": "0x05f90840034071fba2de4857ecaaebcf13ade75f4c10a632dcada760b916095a",
      "transactionType": "CALL",
      "contractName": "VCOPCollateralized",
      "contractAddress": "0xe126098b5111330ced47b80928348e4b8ed7a784",
      "function": "mint(address,uint256)",
      "arguments": [
        "0xA6B3D200cD34ca14d7579DAc8B054bf50a62c37c",
        "420000000000000"
      ],
      "transaction": {
        "from": "0xa6b3d200cd34ca14d7579dac8b054bf50a62c37c",
        "to": "0xe126098b5111330ced47b80928348e4b8ed7a784",
        "gas": "0x17b87",
        "value": "0x0",
        "input": "0x40c10f19000000000000000000000000a6b3d200cd34ca14d7579dac8b054bf50a62c37c00000000000000000000000000000000000000000000000000017dfcdece4000",
        "nonce": "0xac",
        "chainId": "0x2105"
      },
      "additionalContracts": [],
      "isFixedGasLimit": false
    },
    {
      "hash": "0x8cc49bdaae818763b4636cfb341d8b1ffa90867764d377d18b4508507316e513",
      "transactionType": "CALL",
      "contractName": null,
      "contractAddress": "0x498581ff718922c3f8e6a244956af099b2652b2b",
      "function": "initialize((address,address,uint24,int24,address),uint160)",
      "arguments": [
        "(0xC9D7A317B5A9B39d971fA4430d0Fec7A572d2520, 0xE126098b5111330ceD47b80928348E4B8ED7A784, 3000, 60, 0x00feAFe88e9441C10227Be8CcF2DC34D691b84c0)",
        "5024716617189120688100476944820"
      ],
      "transaction": {
        "from": "0xa6b3d200cd34ca14d7579dac8b054bf50a62c37c",
        "to": "0x498581ff718922c3f8e6a244956af099b2652b2b",
        "gas": "0x12959",
        "value": "0x0",
        "input": "0x6276cbbe000000000000000000000000c9d7a317b5a9b39d971fa4430d0fec7a572d2520000000000000000000000000e126098b5111330ced47b80928348e4b8ed7a7840000000000000000000000000000000000000000000000000000000000000bb8000000000000000000000000000000000000000000000000000000000000003c00000000000000000000000000feafe88e9441c10227be8ccf2dc34d691b84c0000000000000000000000000000000000000003f6bbc2b5805e14d9f8dff81b4",
        "nonce": "0xad",
        "chainId": "0x2105"
      },
      "additionalContracts": [],
      "isFixedGasLimit": false
    },
    {
      "hash": "0x8da489ff12b92faf36eff0c43f36147df4ebf78b5af53e6c4306e5b266a6a7d4",
      "transactionType": "CALL",
      "contractName": "VCOPCollateralized",
      "contractAddress": "0xe126098b5111330ced47b80928348e4b8ed7a784",
      "function": "approve(address,uint256)",
      "arguments": [
        "0x000000000022D473030F116dDEE9F6B43aC78BA3",
        "115792089237316195423570985008687907853269984665640564039457584007913129639935"
      ],
      "transaction": {
        "from": "0xa6b3d200cd34ca14d7579dac8b054bf50a62c37c",
        "to": "0xe126098b5111330ced47b80928348e4b8ed7a784",
        "gas": "0xf970",
        "value": "0x0",
        "input": "0x095ea7b3000000000000000000000000000000000022d473030f116ddee9f6b43ac78ba3ffffffffffffffffffffffffffffffffffffffffffffffffffffffffffffffff",
        "nonce": "0xae",
        "chainId": "0x2105"
      },
      "additionalContracts": [],
      "isFixedGasLimit": false
    },
    {
      "hash": "0xfec7a366cbb7f8b220d4a44b3cf8672e6a9714b87b2dc9cb61ea724f0b095dfb",
      "transactionType": "CALL",
      "contractName": null,
      "contractAddress": "0x000000000022d473030f116ddee9f6b43ac78ba3",
      "function": "approve(address,address,uint160,uint48)",
      "arguments": [
        "0xE126098b5111330ceD47b80928348E4B8ED7A784",
        "0x7C5f5A4bBd8fD63184577525326123B519429bDc",
        "1461501637330902918203684832716283019655932542975",
        "281474976710655"
      ],
      "transaction": {
        "from": "0xa6b3d200cd34ca14d7579dac8b054bf50a62c37c",
        "to": "0x000000000022d473030f116ddee9f6b43ac78ba3",
        "gas": "0x1112d",
        "value": "0x0",
        "input": "0x87517c45000000000000000000000000e126098b5111330ced47b80928348e4b8ed7a7840000000000000000000000007c5f5a4bbd8fd63184577525326123b519429bdc000000000000000000000000ffffffffffffffffffffffffffffffffffffffff0000000000000000000000000000000000000000000000000000ffffffffffff",
        "nonce": "0xaf",
        "chainId": "0x2105"
      },
      "additionalContracts": [],
      "isFixedGasLimit": false
    },
    {
      "hash": "0x979014284e6608e9d17fece4d9884fea21c84763bdce4e7cb4d89b3b7c84b5f2",
      "transactionType": "CALL",
      "contractName": "MockERC20",
      "contractAddress": "0xc9d7a317b5a9b39d971fa4430d0fec7a572d2520",
      "function": "approve(address,uint256)",
      "arguments": [
        "0x000000000022D473030F116dDEE9F6B43aC78BA3",
        "115792089237316195423570985008687907853269984665640564039457584007913129639935"
      ],
      "transaction": {
        "from": "0xa6b3d200cd34ca14d7579dac8b054bf50a62c37c",
        "to": "0xc9d7a317b5a9b39d971fa4430d0fec7a572d2520",
        "gas": "0x107fc",
        "value": "0x0",
        "input": "0x095ea7b3000000000000000000000000000000000022d473030f116ddee9f6b43ac78ba3ffffffffffffffffffffffffffffffffffffffffffffffffffffffffffffffff",
        "nonce": "0xb0",
        "chainId": "0x2105"
      },
      "additionalContracts": [],
      "isFixedGasLimit": false
    },
    {
      "hash": "0x9de1cf6397b71bf64ac43a82b4e6536f38e60d39e7890a30e839bbeb9ea966c0",
      "transactionType": "CALL",
      "contractName": null,
      "contractAddress": "0x000000000022d473030f116ddee9f6b43ac78ba3",
      "function": "approve(address,address,uint160,uint48)",
      "arguments": [
        "0xC9D7A317B5A9B39d971fA4430d0Fec7A572d2520",
        "0x7C5f5A4bBd8fD63184577525326123B519429bDc",
        "1461501637330902918203684832716283019655932542975",
        "281474976710655"
      ],
      "transaction": {
        "from": "0xa6b3d200cd34ca14d7579dac8b054bf50a62c37c",
        "to": "0x000000000022d473030f116ddee9f6b43ac78ba3",
        "gas": "0x1112d",
        "value": "0x0",
        "input": "0x87517c45000000000000000000000000c9d7a317b5a9b39d971fa4430d0fec7a572d25200000000000000000000000007c5f5a4bbd8fd63184577525326123b519429bdc000000000000000000000000ffffffffffffffffffffffffffffffffffffffff0000000000000000000000000000000000000000000000000000ffffffffffff",
        "nonce": "0xb1",
        "chainId": "0x2105"
      },
      "additionalContracts": [],
      "isFixedGasLimit": false
    },
    {
      "hash": "0x155f55f337cefb2668569701e81bc2acc850402b52cc13d08a53f50bfb0a5b2b",
      "transactionType": "CALL",
      "contractName": null,
      "contractAddress": "0x7c5f5a4bbd8fd63184577525326123b519429bdc",
      "function": "multicall(bytes[])",
      "arguments": [
        "[0xdd46508f000000000000000000000000000000000000000000000000000000000000004000000000000000000000000000000000000000000000000000000000682817330000000000000000000000000000000000000000000000000000000000000300000000000000000000000000000000000000000000000000000000000000004000000000000000000000000000000000000000000000000000000000000000800000000000000000000000000000000000000000000000000000000000000002020d00000000000000000000000000000000000000000000000000000000000000000000000000000000000000000000000000000000000000000000000000020000000000000000000000000000000000000000000000000000000000000040000000000000000000000000000000000000000000000000000000000000020000000000000000000000000000000000000000000000000000000000000001a0000000000000000000000000c9d7a317b5a9b39d971fa4430d0fec7a572d2520000000000000000000000000e126098b5111330ced47b80928348e4b8ed7a7840000000000000000000000000000000000000000000000000000000000000bb8000000000000000000000000000000000000000000000000000000000000003c00000000000000000000000000feafe88e9441c10227be8ccf2dc34d691b84c00000000000000000000000000000000000000000000000000000000000012cb40000000000000000000000000000000000000000000000000000000000015b9400000000000000000000000000000000000000000000000000001651dda27472000000000000000000000000000000000000000000000000000000174876e80000000000000000000000000000000000000000000000000000017dfcdece4000000000000000000000000000a6b3d200cd34ca14d7579dac8b054bf50a62c37c000000000000000000000000000000000000000000000000000000000000018000000000000000000000000000000000000000000000000000000000000000000000000000000000000000000000000000000000000000000000000000000040000000000000000000000000c9d7a317b5a9b39d971fa4430d0fec7a572d2520000000000000000000000000e126098b5111330ced47b80928348e4b8ed7a784]"
      ],
      "transaction": {
        "from": "0xa6b3d200cd34ca14d7579dac8b054bf50a62c37c",
        "to": "0x7c5f5a4bbd8fd63184577525326123b519429bdc",
        "gas": "0x9eebf",
        "value": "0x0",
        "input": "0xac9650d80000000000000000000000000000000000000000000000000000000000000020000000000000000000000000000000000000000000000000000000000000000100000000000000000000000000000000000000000000000000000000000000200000000000000000000000000000000000000000000000000000000000000364dd46508f000000000000000000000000000000000000000000000000000000000000004000000000000000000000000000000000000000000000000000000000682817330000000000000000000000000000000000000000000000000000000000000300000000000000000000000000000000000000000000000000000000000000004000000000000000000000000000000000000000000000000000000000000000800000000000000000000000000000000000000000000000000000000000000002020d00000000000000000000000000000000000000000000000000000000000000000000000000000000000000000000000000000000000000000000000000020000000000000000000000000000000000000000000000000000000000000040000000000000000000000000000000000000000000000000000000000000020000000000000000000000000000000000000000000000000000000000000001a0000000000000000000000000c9d7a317b5a9b39d971fa4430d0fec7a572d2520000000000000000000000000e126098b5111330ced47b80928348e4b8ed7a7840000000000000000000000000000000000000000000000000000000000000bb8000000000000000000000000000000000000000000000000000000000000003c00000000000000000000000000feafe88e9441c10227be8ccf2dc34d691b84c00000000000000000000000000000000000000000000000000000000000012cb40000000000000000000000000000000000000000000000000000000000015b9400000000000000000000000000000000000000000000000000001651dda27472000000000000000000000000000000000000000000000000000000174876e80000000000000000000000000000000000000000000000000000017dfcdece4000000000000000000000000000a6b3d200cd34ca14d7579dac8b054bf50a62c37c000000000000000000000000000000000000000000000000000000000000018000000000000000000000000000000000000000000000000000000000000000000000000000000000000000000000000000000000000000000000000000000040000000000000000000000000c9d7a317b5a9b39d971fa4430d0fec7a572d2520000000000000000000000000e126098b5111330ced47b80928348e4b8ed7a78400000000000000000000000000000000000000000000000000000000",
        "nonce": "0xb2",
        "chainId": "0x2105"
      },
      "additionalContracts": [],
      "isFixedGasLimit": false
    },
    {
      "hash": "0x50502b1b6977f960967141d58e72ee27be184b410a4d94007898ee84cc544dc7",
      "transactionType": "CALL",
      "contractName": "MockERC20",
      "contractAddress": "0xc9d7a317b5a9b39d971fa4430d0fec7a572d2520",
      "function": "transfer(address,uint256)",
      "arguments": [
        "0x5d211f80A23f04201C6b3Fa06B85171b11802B95",
        "100000000000"
      ],
      "transaction": {
        "from": "0xa6b3d200cd34ca14d7579dac8b054bf50a62c37c",
        "to": "0xc9d7a317b5a9b39d971fa4430d0fec7a572d2520",
        "gas": "0x11491",
        "value": "0x0",
        "input": "0xa9059cbb0000000000000000000000005d211f80a23f04201c6b3fa06b85171b11802b95000000000000000000000000000000000000000000000000000000174876e800",
        "nonce": "0xb3",
        "chainId": "0x2105"
      },
      "additionalContracts": [],
      "isFixedGasLimit": false
    },
    {
      "hash": "0x02514c788d44d06c1e7375f54c73f652da501ce7333fcb2729e3b51eae59a413",
      "transactionType": "CALL",
      "contractName": "MockERC20",
      "contractAddress": "0xc9d7a317b5a9b39d971fa4430d0fec7a572d2520",
      "function": "approve(address,uint256)",
      "arguments": [
        "0x5d211f80A23f04201C6b3Fa06B85171b11802B95",
        "100000000000"
      ],
      "transaction": {
        "from": "0xa6b3d200cd34ca14d7579dac8b054bf50a62c37c",
        "to": "0xc9d7a317b5a9b39d971fa4430d0fec7a572d2520",
        "gas": "0xf7d3",
        "value": "0x0",
        "input": "0x095ea7b30000000000000000000000005d211f80a23f04201c6b3fa06b85171b11802b95000000000000000000000000000000000000000000000000000000174876e800",
        "nonce": "0xb4",
        "chainId": "0x2105"
      },
      "additionalContracts": [],
      "isFixedGasLimit": false
    },
    {
      "hash": "0x6a1467551f7c8877d0359a62f612793964f954a372477d0eee7fd76a619dbff9",
      "transactionType": "CALL",
      "contractName": "VCOPCollateralManager",
      "contractAddress": "0x5d211f80a23f04201c6b3fa06b85171b11802b95",
      "function": "addPSMFunds(address,uint256)",
      "arguments": [
        "0xC9D7A317B5A9B39d971fA4430d0Fec7A572d2520",
        "100000000000"
      ],
      "transaction": {
        "from": "0xa6b3d200cd34ca14d7579dac8b054bf50a62c37c",
        "to": "0x5d211f80a23f04201c6b3fa06b85171b11802b95",
        "gas": "0x1e17b",
        "value": "0x0",
        "input": "0xda2bf9a1000000000000000000000000c9d7a317b5a9b39d971fa4430d0fec7a572d2520000000000000000000000000000000000000000000000000000000174876e800",
        "nonce": "0xb5",
        "chainId": "0x2105"
      },
      "additionalContracts": [],
      "isFixedGasLimit": false
    },
    {
      "hash": "0x5ae98a157ef3c84408b5197de1df24cc84bdfd3287024f299555ae92b2d0d277",
      "transactionType": "CALL",
      "contractName": "VCOPCollateralized",
      "contractAddress": "0xe126098b5111330ced47b80928348e4b8ed7a784",
      "function": "mint(address,uint256)",
      "arguments": [
        "0x5d211f80A23f04201C6b3Fa06B85171b11802B95",
        "420000000000000"
      ],
      "transaction": {
        "from": "0xa6b3d200cd34ca14d7579dac8b054bf50a62c37c",
        "to": "0xe126098b5111330ced47b80928348e4b8ed7a784",
        "gas": "0x11f54",
        "value": "0x0",
        "input": "0x40c10f190000000000000000000000005d211f80a23f04201c6b3fa06b85171b11802b9500000000000000000000000000000000000000000000000000017dfcdece4000",
        "nonce": "0xb6",
        "chainId": "0x2105"
      },
      "additionalContracts": [],
      "isFixedGasLimit": false
    },
    {
      "hash": "0x82d38e5bf9d8ef3babafabee515161d6e996672be1e94dbd187e16a97b1a9448",
      "transactionType": "CALL",
      "contractName": "VCOPCollateralManager",
      "contractAddress": "0x5d211f80a23f04201c6b3fa06b85171b11802b95",
      "function": "setPSMReserveStatus(address,bool)",
      "arguments": [
        "0xC9D7A317B5A9B39d971fA4430d0Fec7A572d2520",
        "true"
      ],
      "transaction": {
        "from": "0xa6b3d200cd34ca14d7579dac8b054bf50a62c37c",
        "to": "0x5d211f80a23f04201c6b3fa06b85171b11802b95",
        "gas": "0xa03d",
        "value": "0x0",
        "input": "0x81b60e8c000000000000000000000000c9d7a317b5a9b39d971fa4430d0fec7a572d25200000000000000000000000000000000000000000000000000000000000000001",
        "nonce": "0xb7",
        "chainId": "0x2105"
      },
      "additionalContracts": [],
      "isFixedGasLimit": false
    },
    {
      "hash": "0xc726263198f854ab65d1f0041cc4dd243087d4c75f8e54dbe5b7977a9794fc8c",
      "transactionType": "CALL",
      "contractName": "VCOPCollateralManager",
      "contractAddress": "0x5d211f80a23f04201c6b3fa06b85171b11802b95",
      "function": "initializePSMVcop(address,uint256)",
      "arguments": [
        "0xC9D7A317B5A9B39d971fA4430d0Fec7A572d2520",
        "420000000000000"
      ],
      "transaction": {
        "from": "0xa6b3d200cd34ca14d7579dac8b054bf50a62c37c",
        "to": "0x5d211f80a23f04201c6b3fa06b85171b11802b95",
        "gas": "0x18603",
        "value": "0x0",
        "input": "0x80839bf4000000000000000000000000c9d7a317b5a9b39d971fa4430d0fec7a572d252000000000000000000000000000000000000000000000000000017dfcdece4000",
        "nonce": "0xb8",
        "chainId": "0x2105"
      },
      "additionalContracts": [],
      "isFixedGasLimit": false
    },
    {
      "hash": "0xcf943b3f954624285aa10a02043524dd4e29dca8afd907f5e73c72e42b90d4b5",
      "transactionType": "CALL",
      "contractName": "VCOPCollateralHook",
      "contractAddress": "0x00feafe88e9441c10227be8ccf2dc34d691b84c0",
      "function": "updatePSMParameters(uint256,uint256)",
      "arguments": [
        "1000",
        "42000000000000"
      ],
      "transaction": {
        "from": "0xa6b3d200cd34ca14d7579dac8b054bf50a62c37c",
        "to": "0x00feafe88e9441c10227be8ccf2dc34d691b84c0",
        "gas": "0xd043",
        "value": "0x0",
        "input": "0xaca5d32700000000000000000000000000000000000000000000000000000000000003e800000000000000000000000000000000000000000000000000002632e314a000",
        "nonce": "0xb9",
        "chainId": "0x2105"
      },
      "additionalContracts": [],
      "isFixedGasLimit": false
    },
    {
      "hash": "0x7dc4b7661e12d4fff8148f5bd7f80f231680d39dc9110c5767642b9e794ea531",
      "transactionType": "CALL",
      "contractName": "MockERC20",
      "contractAddress": "0xc9d7a317b5a9b39d971fa4430d0fec7a572d2520",
      "function": "approve(address,uint256)",
      "arguments": [
        "0x5d211f80A23f04201C6b3Fa06B85171b11802B95",
        "1000000000"
      ],
      "transaction": {
        "from": "0xa6b3d200cd34ca14d7579dac8b054bf50a62c37c",
        "to": "0xc9d7a317b5a9b39d971fa4430d0fec7a572d2520",
        "gas": "0x10657",
        "value": "0x0",
        "input": "0x095ea7b30000000000000000000000005d211f80a23f04201c6b3fa06b85171b11802b95000000000000000000000000000000000000000000000000000000003b9aca00",
        "nonce": "0xba",
        "chainId": "0x2105"
      },
      "additionalContracts": [],
      "isFixedGasLimit": false
    },
    {
      "hash": "0x0f072c2d6a68a76bf0361ea0751d47844d21b5dca0b465125c13b18258b1610d",
      "transactionType": "CALL",
      "contractName": "VCOPCollateralManager",
      "contractAddress": "0x5d211f80a23f04201c6b3fa06b85171b11802b95",
      "function": "createPosition(address,uint256,uint256)",
      "arguments": [
        "0xC9D7A317B5A9B39d971fA4430d0Fec7A572d2520",
        "1000000000",
        "2800000000000"
      ],
      "transaction": {
        "from": "0xa6b3d200cd34ca14d7579dac8b054bf50a62c37c",
        "to": "0x5d211f80a23f04201c6b3fa06b85171b11802b95",
        "gas": "0x3d1ff",
        "value": "0x0",
        "input": "0x75a08cce000000000000000000000000c9d7a317b5a9b39d971fa4430d0fec7a572d2520000000000000000000000000000000000000000000000000000000003b9aca000000000000000000000000000000000000000000000000000000028bed016000",
        "nonce": "0xbb",
        "chainId": "0x2105"
      },
      "additionalContracts": [],
      "isFixedGasLimit": false
    }
  ],
  "receipts": [
    {
      "status": "0x1",
      "cumulativeGasUsed": "0x2d7a49a",
      "logs": [],
      "logsBloom": "0x00000000000000000000000000000000000000000000000000000000000000000000000000000000000000000000000000000000000000000000000000000000000000000000000000000000000000000000000000000000000000000000000000000000000000000000000000000000000000000000000000000000000000000000000000000000000000000000000000000000000000000000000000000000000000000000000000000000000000000000000000000000000000000000000000000000000000000000000000000000000000000000000000000000000000000000000000000000000000000000000000000000000000000000000000000000",
      "type": "0x2",
      "transactionHash": "0x32f16cf2a7f116e5385f105152ecf31423d0491d675ffe2f9e831a2f3743522b",
      "transactionIndex": "0xa3",
      "blockHash": "0x05b8cdbf667bd32fd5bc9caa905a3657cd16eef0e9083512e879e811e2244ac1",
      "blockNumber": "0x1cedd12",
      "gasUsed": "0x8ac16",
      "effectiveGasPrice": "0xf6d37",
      "from": "0xa6b3d200cd34ca14d7579dac8b054bf50a62c37c",
      "to": null,
      "contractAddress": "0xc9d7a317b5a9b39d971fa4430d0fec7a572d2520",
      "l1BaseFeeScalar": "0x8dd",
      "l1BlobBaseFee": "0x1",
      "l1BlobBaseFeeScalar": "0x101c12",
      "l1Fee": "0x9ec1b481d",
      "l1GasPrice": "0x29b1d84d",
      "l1GasUsed": "0x68e1"
    },
    {
      "status": "0x1",
      "cumulativeGasUsed": "0x2d8ae77",
      "logs": [
        {
          "address": "0xc9d7a317b5a9b39d971fa4430d0fec7a572d2520",
          "topics": [
            "0xddf252ad1be2c89b69c2b068fc378daa952ba7f163c4a11628f55a4df523b3ef",
            "0x0000000000000000000000000000000000000000000000000000000000000000",
            "0x000000000000000000000000a6b3d200cd34ca14d7579dac8b054bf50a62c37c"
          ],
          "data": "0x0000000000000000000000000000000000000000000000000000006ca124a000",
          "blockHash": "0x05b8cdbf667bd32fd5bc9caa905a3657cd16eef0e9083512e879e811e2244ac1",
          "blockNumber": "0x1cedd12",
          "transactionHash": "0xc1ac062dc52726b6d16b0cb0b3fb50d5f94179f10c435d06b9ceb640c94c43e9",
          "transactionIndex": "0xa4",
          "logIndex": "0x277",
          "removed": false
        }
      ],
      "logsBloom": "0x00000000000000000000000400000000000000000000000002000000000000000000000000000000000000000000000000000000000000000000000000000000000000000000000000000008000000000000000000800000000000000000000000000000020000000000000000100800000000000000000000000010000000000000000000000000000000000000000000000000000000000000000000000000000000000000000000000000000000000000000000000000000000000000000000000042000000000000000000000000000000000000000000000000000020000000000000000000000000000020000000000000000000000000000000000000",
      "type": "0x2",
      "transactionHash": "0xc1ac062dc52726b6d16b0cb0b3fb50d5f94179f10c435d06b9ceb640c94c43e9",
      "transactionIndex": "0xa4",
      "blockHash": "0x05b8cdbf667bd32fd5bc9caa905a3657cd16eef0e9083512e879e811e2244ac1",
      "blockNumber": "0x1cedd12",
      "gasUsed": "0x109dd",
      "effectiveGasPrice": "0xf6d37",
      "from": "0xa6b3d200cd34ca14d7579dac8b054bf50a62c37c",
      "to": "0xc9d7a317b5a9b39d971fa4430d0fec7a572d2520",
      "contractAddress": null,
      "l1BaseFeeScalar": "0x8dd",
      "l1BlobBaseFee": "0x1",
      "l1BlobBaseFeeScalar": "0x101c12",
      "l1Fee": "0x975e5406",
      "l1GasPrice": "0x29b1d84d",
      "l1GasUsed": "0x640"
    },
    {
      "status": "0x1",
      "cumulativeGasUsed": "0x2e642e1",
      "logs": [
        {
          "address": "0xe126098b5111330ced47b80928348e4b8ed7a784",
          "topics": [
            "0x8be0079c531659141344cd1fd0a4f28419497f9722a3daafe3b4186f6b6457e0",
            "0x0000000000000000000000000000000000000000000000000000000000000000",
            "0x000000000000000000000000a6b3d200cd34ca14d7579dac8b054bf50a62c37c"
          ],
          "data": "0x",
          "blockHash": "0x05b8cdbf667bd32fd5bc9caa905a3657cd16eef0e9083512e879e811e2244ac1",
          "blockNumber": "0x1cedd12",
          "transactionHash": "0x24a749ffd18fbd79421abf8ea5b812ffc83958189c0b134c90403320c18264dc",
          "transactionIndex": "0xa5",
          "logIndex": "0x278",
          "removed": false
        }
      ],
      "logsBloom": "0x00000000000000000000000400000000000000000000000002800000000000000000000000000000000000000000000000000000000000000000000000000000000000000000000000000000000000000001000000000000000000000000000000000000020000000000000000000800000000000000000000000000000000400000000000000000000000000000000000200000000000000000000000020000000000000000000020000000000000000000000000000000000000000000000000000040000000000000000000000000000000000000000000000000000020000000000000000000000000000000000000000000000000000000000000000000",
      "type": "0x2",
      "transactionHash": "0x24a749ffd18fbd79421abf8ea5b812ffc83958189c0b134c90403320c18264dc",
      "transactionIndex": "0xa5",
      "blockHash": "0x05b8cdbf667bd32fd5bc9caa905a3657cd16eef0e9083512e879e811e2244ac1",
      "blockNumber": "0x1cedd12",
      "gasUsed": "0xd946a",
      "effectiveGasPrice": "0xf6d37",
      "from": "0xa6b3d200cd34ca14d7579dac8b054bf50a62c37c",
      "to": null,
      "contractAddress": "0xe126098b5111330ced47b80928348e4b8ed7a784",
      "l1BaseFeeScalar": "0x8dd",
      "l1BlobBaseFee": "0x1",
      "l1BlobBaseFeeScalar": "0x101c12",
      "l1Fee": "0xd0c57ddef",
      "l1GasPrice": "0x29b1d84d",
      "l1GasUsed": "0x89ec"
    },
    {
      "status": "0x1",
      "cumulativeGasUsed": "0x3000a68",
      "logs": [
        {
          "address": "0xa3acc71fda8c0e321ea9d49ef0630dc1c1951e17",
          "topics": [
            "0x8be0079c531659141344cd1fd0a4f28419497f9722a3daafe3b4186f6b6457e0",
            "0x0000000000000000000000000000000000000000000000000000000000000000",
            "0x000000000000000000000000a6b3d200cd34ca14d7579dac8b054bf50a62c37c"
          ],
          "data": "0x",
          "blockHash": "0x05b8cdbf667bd32fd5bc9caa905a3657cd16eef0e9083512e879e811e2244ac1",
          "blockNumber": "0x1cedd12",
          "transactionHash": "0x3a9fac16c55656f0c350ce2f76dc55f9336d234261b8497ed2cde3a86dce9c00",
          "transactionIndex": "0xa6",
          "logIndex": "0x279",
          "removed": false
        }
      ],
      "logsBloom": "0x00000000000000000400000400000000000000000000000002c00000000000000000000000000000000000000000000000000000000000000000000000000000000000000000000000000000000000000001000000000000000000000040000000000000020000000000000000000800000000000000000000000000000000400000000000000000000000000000000000000000000000000000000000000000000000000000000000000000000000000000000000000000000000000000000000000040000000000000000000000000000000000000000000000000000020000000000000000000000000000000000000000000000000000000000000000000",
      "type": "0x2",
      "transactionHash": "0x3a9fac16c55656f0c350ce2f76dc55f9336d234261b8497ed2cde3a86dce9c00",
      "transactionIndex": "0xa6",
      "blockHash": "0x05b8cdbf667bd32fd5bc9caa905a3657cd16eef0e9083512e879e811e2244ac1",
      "blockNumber": "0x1cedd12",
      "gasUsed": "0x19c787",
      "effectiveGasPrice": "0xf6d37",
      "from": "0xa6b3d200cd34ca14d7579dac8b054bf50a62c37c",
      "to": null,
      "contractAddress": "0xa3acc71fda8c0e321ea9d49ef0630dc1c1951e17",
      "l1BaseFeeScalar": "0x8dd",
      "l1BlobBaseFee": "0x1",
      "l1BlobBaseFeeScalar": "0x101c12",
      "l1Fee": "0x160b8e57aa",
      "l1GasPrice": "0x29b1d84d",
      "l1GasUsed": "0xe905"
    },
    {
      "status": "0x1",
      "cumulativeGasUsed": "0x322e85d",
      "logs": [
        {
          "address": "0x5d211f80a23f04201c6b3fa06b85171b11802b95",
          "topics": [
            "0x8be0079c531659141344cd1fd0a4f28419497f9722a3daafe3b4186f6b6457e0",
            "0x0000000000000000000000000000000000000000000000000000000000000000",
            "0x000000000000000000000000a6b3d200cd34ca14d7579dac8b054bf50a62c37c"
          ],
          "data": "0x",
          "blockHash": "0x05b8cdbf667bd32fd5bc9caa905a3657cd16eef0e9083512e879e811e2244ac1",
          "blockNumber": "0x1cedd12",
          "transactionHash": "0xc4370ae9f4ad369398cc6bb1379d2c41d50fd81a68aaef50bb17986c48d62066",
          "transactionIndex": "0xa7",
          "logIndex": "0x27a",
          "removed": false
        }
      ],
      "logsBloom": "0x00000000000000000000040400000000000000000000000002800000000000000000000000000000000000000000000000000000000000000000100000000000000000000000000000000000000000000001000000000000000000000000000000000000020000000000000000000800000000000000000000000000000000400000000000000000000000000000000000000000000000000000000000000000000000000000000000000000000000000000000000000000000000000000000000000040000000000000000000000000400000000000000000000000000020000000000000000000000000000000000000000000000000000000000000000000",
      "type": "0x2",
      "transactionHash": "0xc4370ae9f4ad369398cc6bb1379d2c41d50fd81a68aaef50bb17986c48d62066",
      "transactionIndex": "0xa7",
      "blockHash": "0x05b8cdbf667bd32fd5bc9caa905a3657cd16eef0e9083512e879e811e2244ac1",
      "blockNumber": "0x1cedd12",
      "gasUsed": "0x22ddf5",
      "effectiveGasPrice": "0xf6d37",
      "from": "0xa6b3d200cd34ca14d7579dac8b054bf50a62c37c",
      "to": null,
      "contractAddress": "0x5d211f80a23f04201c6b3fa06b85171b11802b95",
      "l1BaseFeeScalar": "0x8dd",
      "l1BlobBaseFee": "0x1",
      "l1BlobBaseFeeScalar": "0x101c12",
      "l1Fee": "0x2081902e40",
      "l1GasPrice": "0x29b1d84d",
      "l1GasUsed": "0x15798"
    },
    {
      "status": "0x1",
      "cumulativeGasUsed": "0x34e9d03",
      "logs": [
        {
          "address": "0x00feafe88e9441c10227be8ccf2dc34d691b84c0",
          "topics": [
            "0x8be0079c531659141344cd1fd0a4f28419497f9722a3daafe3b4186f6b6457e0",
            "0x0000000000000000000000000000000000000000000000000000000000000000",
            "0x000000000000000000000000a6b3d200cd34ca14d7579dac8b054bf50a62c37c"
          ],
          "data": "0x",
          "blockHash": "0x05b8cdbf667bd32fd5bc9caa905a3657cd16eef0e9083512e879e811e2244ac1",
          "blockNumber": "0x1cedd12",
          "transactionHash": "0x7f3c8e7a4f9ce4b4a29b2d7297d747c4c0569ce1a9334b0d258574579f04176d",
          "transactionIndex": "0xa8",
          "logIndex": "0x27b",
          "removed": false
        }
      ],
      "logsBloom": "0x00000000000000000000000400000000000000000000000002800000000000000000000000000000000000000000000000000000000000000000000000000000000008000000000000000000000000000001080000000000000000000000000000000000020000000000000000000800000000000000000000000000000000400000000000000000000000000000000000000000000000000000000000000000000000000000000000000000000000000000000000000000000000000000000000000040000000000000000000000000080000000000000000000000000020000000000000000000000000000000000000000000000000000000000000000000",
      "type": "0x2",
      "transactionHash": "0x7f3c8e7a4f9ce4b4a29b2d7297d747c4c0569ce1a9334b0d258574579f04176d",
      "transactionIndex": "0xa8",
      "blockHash": "0x05b8cdbf667bd32fd5bc9caa905a3657cd16eef0e9083512e879e811e2244ac1",
      "blockNumber": "0x1cedd12",
      "gasUsed": "0x2bb4a6",
      "effectiveGasPrice": "0xf6d37",
      "from": "0xa6b3d200cd34ca14d7579dac8b054bf50a62c37c",
      "to": "0x4e59b44847b379578588920ca78fbf26c0b4956c",
      "contractAddress": null,
      "l1BaseFeeScalar": "0x8dd",
      "l1BlobBaseFee": "0x1",
      "l1BlobBaseFeeScalar": "0x101c12",
      "l1Fee": "0x263d15f816",
      "l1GasPrice": "0x29b1d84d",
      "l1GasUsed": "0x19430"
    },
    {
      "status": "0x1",
      "cumulativeGasUsed": "0x34f08ba",
      "logs": [
        {
          "address": "0x00feafe88e9441c10227be8ccf2dc34d691b84c0",
          "topics": [
            "0x507e88d0e3541203c8e7dba038a3e807ac9121f0872ed9ed895cd7f3358334eb"
          ],
          "data": "0x0000000000000000000000005d211f80a23f04201c6b3fa06b85171b11802b95",
          "blockHash": "0x05b8cdbf667bd32fd5bc9caa905a3657cd16eef0e9083512e879e811e2244ac1",
          "blockNumber": "0x1cedd12",
          "transactionHash": "0xdbb8da339b4dc2fe0eafb1a14b50d75b633f8975f12920f7c0600ed61b736c98",
          "transactionIndex": "0xa9",
          "logIndex": "0x27c",
          "removed": false
        }
      ],
      "logsBloom": "0x00000000000000000000000000000000000000000000000000000000000000000000000000000000000000000000000000000000000000000000000000800000000008000000000000000000000000000000080000000000000000000000000000000000000000000000000000000000000000000000000000000000000000000000000000000000000000000000000000000000000000000000000000000000000000000000000000000000000000000000008000000000000000000000000000000000000000000000000000000000080000000000000000000000000000000000000000000000000000000000000000000000000000000000000000000080",
      "type": "0x2",
      "transactionHash": "0xdbb8da339b4dc2fe0eafb1a14b50d75b633f8975f12920f7c0600ed61b736c98",
      "transactionIndex": "0xa9",
      "blockHash": "0x05b8cdbf667bd32fd5bc9caa905a3657cd16eef0e9083512e879e811e2244ac1",
      "blockNumber": "0x1cedd12",
      "gasUsed": "0x6bb7",
      "effectiveGasPrice": "0xf6d37",
      "from": "0xa6b3d200cd34ca14d7579dac8b054bf50a62c37c",
      "to": "0x00feafe88e9441c10227be8ccf2dc34d691b84c0",
      "contractAddress": null,
      "l1BaseFeeScalar": "0x8dd",
      "l1BlobBaseFee": "0x1",
      "l1BlobBaseFeeScalar": "0x101c12",
      "l1Fee": "0x975e5406",
      "l1GasPrice": "0x29b1d84d",
      "l1GasUsed": "0x640"
    },
    {
      "status": "0x1",
      "cumulativeGasUsed": "0x34fbf70",
      "logs": [],
      "logsBloom": "0x00000000000000000000000000000000000000000000000000000000000000000000000000000000000000000000000000000000000000000000000000000000000000000000000000000000000000000000000000000000000000000000000000000000000000000000000000000000000000000000000000000000000000000000000000000000000000000000000000000000000000000000000000000000000000000000000000000000000000000000000000000000000000000000000000000000000000000000000000000000000000000000000000000000000000000000000000000000000000000000000000000000000000000000000000000000",
      "type": "0x2",
      "transactionHash": "0x56a43d428c6b5df04d9fbbb58032f1e6a27a7f94785e4101dc2905041426e85f",
      "transactionIndex": "0xaa",
      "blockHash": "0x05b8cdbf667bd32fd5bc9caa905a3657cd16eef0e9083512e879e811e2244ac1",
      "blockNumber": "0x1cedd12",
      "gasUsed": "0xb6b6",
      "effectiveGasPrice": "0xf6d37",
      "from": "0xa6b3d200cd34ca14d7579dac8b054bf50a62c37c",
      "to": "0x5d211f80a23f04201c6b3fa06b85171b11802b95",
      "contractAddress": null,
      "l1BaseFeeScalar": "0x8dd",
      "l1BlobBaseFee": "0x1",
      "l1BlobBaseFeeScalar": "0x101c12",
      "l1Fee": "0x975e5406",
      "l1GasPrice": "0x29b1d84d",
      "l1GasUsed": "0x640"
    },
    {
      "status": "0x1",
      "cumulativeGasUsed": "0x3507919",
      "logs": [
        {
          "address": "0xe126098b5111330ced47b80928348e4b8ed7a784",
          "topics": [
            "0xe2baa82f90636da9cbc73454915350116910bc672c698bcb73d4697d566d6919"
          ],
          "data": "0x00000000000000000000000000000000000000000000000000000000000000000000000000000000000000005d211f80a23f04201c6b3fa06b85171b11802b95",
          "blockHash": "0x05b8cdbf667bd32fd5bc9caa905a3657cd16eef0e9083512e879e811e2244ac1",
          "blockNumber": "0x1cedd12",
          "transactionHash": "0xc534c496d2db72a6056ce07e47c5d5396bdfeee45cdb13b5ec3abd6b17a13b5a",
          "transactionIndex": "0xab",
          "logIndex": "0x27d",
          "removed": false
        }
      ],
      "logsBloom": "0x00000000000000000000000000000000000000000000000000000000000000000000000000000000000000000000000000000000000000000000000000000000000000000000000000000000000000000000000000000000000000000000000000000000000000000000000000000000000000000000000000000000000000000000000000000000000000000000000000200000000000000000000000020020000000000000000020000000000000000000000000000000000000000000000000000000000000000000000000000000000000000000000000000000002000000000000000000000000020000000000000000000000000000000000000000000",
      "type": "0x2",
      "transactionHash": "0xc534c496d2db72a6056ce07e47c5d5396bdfeee45cdb13b5ec3abd6b17a13b5a",
      "transactionIndex": "0xab",
      "blockHash": "0x05b8cdbf667bd32fd5bc9caa905a3657cd16eef0e9083512e879e811e2244ac1",
      "blockNumber": "0x1cedd12",
      "gasUsed": "0xb9a9",
      "effectiveGasPrice": "0xf6d37",
      "from": "0xa6b3d200cd34ca14d7579dac8b054bf50a62c37c",
      "to": "0xe126098b5111330ced47b80928348e4b8ed7a784",
      "contractAddress": null,
      "l1BaseFeeScalar": "0x8dd",
      "l1BlobBaseFee": "0x1",
      "l1BlobBaseFeeScalar": "0x101c12",
      "l1Fee": "0x975e5406",
      "l1GasPrice": "0x29b1d84d",
      "l1GasUsed": "0x640"
    },
    {
      "status": "0x1",
      "cumulativeGasUsed": "0x3513438",
      "logs": [
        {
          "address": "0xe126098b5111330ced47b80928348e4b8ed7a784",
          "topics": [
            "0xb21afb9ce9be0a676f8f317ff0ca072fb89a4f8ce2d1b6fe80f8755c14f1cb19"
          ],
          "data": "0x0000000000000000000000005d211f80a23f04201c6b3fa06b85171b11802b950000000000000000000000000000000000000000000000000000000000000001",
          "blockHash": "0x05b8cdbf667bd32fd5bc9caa905a3657cd16eef0e9083512e879e811e2244ac1",
          "blockNumber": "0x1cedd12",
          "transactionHash": "0xcd9db046807b1da0636870e9630a14b9e863f925b0dd96d4b2c4df73c466e522",
          "transactionIndex": "0xac",
          "logIndex": "0x27e",
          "removed": false
        }
      ],
      "logsBloom": "0x00000000000000000000000000000000000000000000000000000000000000000000000000000000000000000000000000000000000000040000000000000080000000000000000000000000000000000000000000000000000000000000000000000000000000000000000000000000000000000000000000000000000000000000000000000000000000000000000000200000000000000000200000020000000000000000000020000000000000000000000000000000000000000000000000000000000000000000000000000000000000000000000000000000000000000000000000000000000000000000000000000000000000000000000000000000",
      "type": "0x2",
      "transactionHash": "0xcd9db046807b1da0636870e9630a14b9e863f925b0dd96d4b2c4df73c466e522",
      "transactionIndex": "0xac",
      "blockHash": "0x05b8cdbf667bd32fd5bc9caa905a3657cd16eef0e9083512e879e811e2244ac1",
      "blockNumber": "0x1cedd12",
      "gasUsed": "0xbb1f",
      "effectiveGasPrice": "0xf6d37",
      "from": "0xa6b3d200cd34ca14d7579dac8b054bf50a62c37c",
      "to": "0xe126098b5111330ced47b80928348e4b8ed7a784",
      "contractAddress": null,
      "l1BaseFeeScalar": "0x8dd",
      "l1BlobBaseFee": "0x1",
      "l1BlobBaseFeeScalar": "0x101c12",
      "l1Fee": "0x975e5406",
      "l1GasPrice": "0x29b1d84d",
      "l1GasUsed": "0x640"
    },
    {
      "status": "0x1",
      "cumulativeGasUsed": "0x351ee39",
      "logs": [
        {
          "address": "0xe126098b5111330ced47b80928348e4b8ed7a784",
          "topics": [
            "0xf0e5abe4ab32ea692e3889b4c146fd4ddae5f17bb40ab4feba97fb67a2d4de0f"
          ],
          "data": "0x0000000000000000000000005d211f80a23f04201c6b3fa06b85171b11802b950000000000000000000000000000000000000000000000000000000000000001",
          "blockHash": "0x05b8cdbf667bd32fd5bc9caa905a3657cd16eef0e9083512e879e811e2244ac1",
          "blockNumber": "0x1cedd12",
          "transactionHash": "0xbf1e3f64233536914b19b038e704dc9c9a0476e070c100980384c226495695d7",
          "transactionIndex": "0xad",
          "logIndex": "0x27f",
          "removed": false
        }
      ],
      "logsBloom": "0x00000000000000000000000000000000000000000000000000000000000000000000000000000000000000000000000000000000040000000000000000000000100000000000000000000000000000000000000020000000000000000000000000000000000000000000000000000000000000000000000000000000000000000000000000000000000000000000000000200000000000000000000000020000000000000000000020000000000000000000000000000000000000000000000000000000000000000000000000000000000000000000000000000000000000000000000000000000000000000000000000000000000000000000000000000000",
      "type": "0x2",
      "transactionHash": "0xbf1e3f64233536914b19b038e704dc9c9a0476e070c100980384c226495695d7",
      "transactionIndex": "0xad",
      "blockHash": "0x05b8cdbf667bd32fd5bc9caa905a3657cd16eef0e9083512e879e811e2244ac1",
      "blockNumber": "0x1cedd12",
      "gasUsed": "0xba01",
      "effectiveGasPrice": "0xf6d37",
      "from": "0xa6b3d200cd34ca14d7579dac8b054bf50a62c37c",
      "to": "0xe126098b5111330ced47b80928348e4b8ed7a784",
      "contractAddress": null,
      "l1BaseFeeScalar": "0x8dd",
      "l1BlobBaseFee": "0x1",
      "l1BlobBaseFeeScalar": "0x101c12",
      "l1Fee": "0x975e5406",
      "l1GasPrice": "0x29b1d84d",
      "l1GasUsed": "0x640"
    },
    {
      "status": "0x1",
      "cumulativeGasUsed": "0x352a82e",
      "logs": [
        {
          "address": "0xe126098b5111330ced47b80928348e4b8ed7a784",
          "topics": [
            "0xf0e5abe4ab32ea692e3889b4c146fd4ddae5f17bb40ab4feba97fb67a2d4de0f"
          ],
          "data": "0x00000000000000000000000000feafe88e9441c10227be8ccf2dc34d691b84c00000000000000000000000000000000000000000000000000000000000000001",
          "blockHash": "0x05b8cdbf667bd32fd5bc9caa905a3657cd16eef0e9083512e879e811e2244ac1",
          "blockNumber": "0x1cedd12",
          "transactionHash": "0x51aa6c1e39d7bce8f79309378d8560b4a1bfd9b2e6cdd49daed1cd099572ea57",
          "transactionIndex": "0xae",
          "logIndex": "0x280",
          "removed": false
        }
      ],
      "logsBloom": "0x00000000000000000000000000000000000000000000000000000000000000000000000000000000000000000000000000000000040000000000000000000000100000000000000000000000000000000000000020000000000000000000000000000000000000000000000000000000000000000000000000000000000000000000000000000000000000000000000000200000000000000000000000020000000000000000000020000000000000000000000000000000000000000000000000000000000000000000000000000000000000000000000000000000000000000000000000000000000000000000000000000000000000000000000000000000",
      "type": "0x2",
      "transactionHash": "0x51aa6c1e39d7bce8f79309378d8560b4a1bfd9b2e6cdd49daed1cd099572ea57",
      "transactionIndex": "0xae",
      "blockHash": "0x05b8cdbf667bd32fd5bc9caa905a3657cd16eef0e9083512e879e811e2244ac1",
      "blockNumber": "0x1cedd12",
      "gasUsed": "0xb9f5",
      "effectiveGasPrice": "0xf6d37",
      "from": "0xa6b3d200cd34ca14d7579dac8b054bf50a62c37c",
      "to": "0xe126098b5111330ced47b80928348e4b8ed7a784",
      "contractAddress": null,
      "l1BaseFeeScalar": "0x8dd",
      "l1BlobBaseFee": "0x1",
      "l1BlobBaseFeeScalar": "0x101c12",
      "l1Fee": "0x975e5406",
      "l1GasPrice": "0x29b1d84d",
      "l1GasUsed": "0x640"
    },
    {
      "status": "0x1",
      "cumulativeGasUsed": "0x3530ff4",
      "logs": [],
      "logsBloom": "0x00000000000000000000000000000000000000000000000000000000000000000000000000000000000000000000000000000000000000000000000000000000000000000000000000000000000000000000000000000000000000000000000000000000000000000000000000000000000000000000000000000000000000000000000000000000000000000000000000000000000000000000000000000000000000000000000000000000000000000000000000000000000000000000000000000000000000000000000000000000000000000000000000000000000000000000000000000000000000000000000000000000000000000000000000000000",
      "type": "0x2",
      "transactionHash": "0xae59caf2ddc2f276c015fd89378124bb4a3ee6414dda14d7554d30b0870c47c9",
      "transactionIndex": "0xaf",
      "blockHash": "0x05b8cdbf667bd32fd5bc9caa905a3657cd16eef0e9083512e879e811e2244ac1",
      "blockNumber": "0x1cedd12",
      "gasUsed": "0x67c6",
      "effectiveGasPrice": "0xf6d37",
      "from": "0xa6b3d200cd34ca14d7579dac8b054bf50a62c37c",
      "to": "0x5d211f80a23f04201c6b3fa06b85171b11802b95",
      "contractAddress": null,
      "l1BaseFeeScalar": "0x8dd",
      "l1BlobBaseFee": "0x1",
      "l1BlobBaseFeeScalar": "0x101c12",
      "l1Fee": "0x975e5406",
      "l1GasPrice": "0x29b1d84d",
      "l1GasUsed": "0x640"
    },
    {
      "status": "0x1",
      "cumulativeGasUsed": "0x3562d25",
      "logs": [
        {
          "address": "0x5d211f80a23f04201c6b3fa06b85171b11802b95",
          "topics": [
            "0x7dba1be544024070cd5eebfa8bdd80a8b198cea8058c7d3cc1f8dd36e41ab2f7"
          ],
          "data": "0x000000000000000000000000c9d7a317b5a9b39d971fa4430d0fec7a572d2520000000000000000000000000000000000000000000000000000000000016e360",
          "blockHash": "0x05b8cdbf667bd32fd5bc9caa905a3657cd16eef0e9083512e879e811e2244ac1",
          "blockNumber": "0x1cedd12",
          "transactionHash": "0xe845580cdcfa8de057de86d4c7a833b114311ac3dacfc7ca387257874d87f926",
          "transactionIndex": "0xb0",
          "logIndex": "0x281",
          "removed": false
        }
      ],
      "logsBloom": "0x00000000000000000000040000000000000000000000000000000000000000000000000000000000000000000000000000000001000000000000100000000000000000000000000000000000000000000000000000000000000000000000000000000000000000000000000000000000000000000000000000000000000000000000000000000000000000000000000000200002000000000000000000000000000000000000000000000000000000000000000000000000000000000000000000000000000000000000000000000000400000000000000000000000000000000000000000000000000000000000000000000000000000000000000000000000",
      "type": "0x2",
      "transactionHash": "0xe845580cdcfa8de057de86d4c7a833b114311ac3dacfc7ca387257874d87f926",
      "transactionIndex": "0xb0",
      "blockHash": "0x05b8cdbf667bd32fd5bc9caa905a3657cd16eef0e9083512e879e811e2244ac1",
      "blockNumber": "0x1cedd12",
      "gasUsed": "0x31d31",
      "effectiveGasPrice": "0xf6d37",
      "from": "0xa6b3d200cd34ca14d7579dac8b054bf50a62c37c",
      "to": "0x5d211f80a23f04201c6b3fa06b85171b11802b95",
      "contractAddress": null,
      "l1BaseFeeScalar": "0x8dd",
      "l1BlobBaseFee": "0x1",
      "l1BlobBaseFeeScalar": "0x101c12",
      "l1Fee": "0xab0d303b",
      "l1GasPrice": "0x29b1d84d",
      "l1GasUsed": "0x710"
    },
    {
      "status": "0x1",
      "cumulativeGasUsed": "0x356e731",
      "logs": [],
      "logsBloom": "0x00000000000000000000000000000000000000000000000000000000000000000000000000000000000000000000000000000000000000000000000000000000000000000000000000000000000000000000000000000000000000000000000000000000000000000000000000000000000000000000000000000000000000000000000000000000000000000000000000000000000000000000000000000000000000000000000000000000000000000000000000000000000000000000000000000000000000000000000000000000000000000000000000000000000000000000000000000000000000000000000000000000000000000000000000000000",
      "type": "0x2",
      "transactionHash": "0xc8544ba503910829a3062d998208ce3f070bd56aa80637f6b3aa968c6d2bfac6",
      "transactionIndex": "0xb1",
      "blockHash": "0x05b8cdbf667bd32fd5bc9caa905a3657cd16eef0e9083512e879e811e2244ac1",
      "blockNumber": "0x1cedd12",
      "gasUsed": "0xba0c",
      "effectiveGasPrice": "0xf6d37",
      "from": "0xa6b3d200cd34ca14d7579dac8b054bf50a62c37c",
      "to": "0x5d211f80a23f04201c6b3fa06b85171b11802b95",
      "contractAddress": null,
      "l1BaseFeeScalar": "0x8dd",
      "l1BlobBaseFee": "0x1",
      "l1BlobBaseFeeScalar": "0x101c12",
      "l1Fee": "0x99532331",
      "l1GasPrice": "0x29b1d84d",
      "l1GasUsed": "0x654"
    },
    {
      "status": "0x1",
      "cumulativeGasUsed": "0x3648ce1",
      "logs": [],
      "logsBloom": "0x00000000000000000000000000000000000000000000000000000000000000000000000000000000000000000000000000000000000000000000000000000000000000000000000000000000000000000000000000000000000000000000000000000000000000000000000000000000000000000000000000000000000000000000000000000000000000000000000000000000000000000000000000000000000000000000000000000000000000000000000000000000000000000000000000000000000000000000000000000000000000000000000000000000000000000000000000000000000000000000000000000000000000000000000000000000",
      "type": "0x2",
      "transactionHash": "0x8af7746b318d723f68c1b4892a7f8bc08e2527f39a2940cc0c07418db4e3c642",
      "transactionIndex": "0xb2",
      "blockHash": "0x05b8cdbf667bd32fd5bc9caa905a3657cd16eef0e9083512e879e811e2244ac1",
      "blockNumber": "0x1cedd12",
      "gasUsed": "0xda5b0",
      "effectiveGasPrice": "0xf6d37",
      "from": "0xa6b3d200cd34ca14d7579dac8b054bf50a62c37c",
      "to": null,
      "contractAddress": "0x5f56a7eb5cd6aa8fc904d6dfea676be7c9dabd26",
      "l1BaseFeeScalar": "0x8dd",
      "l1BlobBaseFee": "0x1",
      "l1BlobBaseFeeScalar": "0x101c12",
      "l1Fee": "0xde621106d",
      "l1GasPrice": "0x29b1d84d",
      "l1GasUsed": "0x92ea"
    },
    {
      "status": "0x1",
      "cumulativeGasUsed": "0x365511f",
      "logs": [
        {
          "address": "0xa3acc71fda8c0e321ea9d49ef0630dc1c1951e17",
          "topics": [
            "0xeb21e84586017517afe452d64ec57e0a3e52283d137fb8cbc11d221f7b3483eb"
          ],
          "data": "0x0000000000000000000000005f56a7eb5cd6aa8fc904d6dfea676be7c9dabd26",
          "blockHash": "0x05b8cdbf667bd32fd5bc9caa905a3657cd16eef0e9083512e879e811e2244ac1",
          "blockNumber": "0x1cedd12",
          "transactionHash": "0xfff96d9f231fca514c0e788ada75a1f035fd007c403b7672f2dc7faab7a7da62",
          "transactionIndex": "0xb3",
          "logIndex": "0x282",
          "removed": false
        }
      ],
      "logsBloom": "0x00000000000000000400000000000000000000000000000000400000000000000000000000000000000000000000000000000000000000000000000000000000000000000000000000000000000000000000000000000000000000000040004000000000000000000000000000000000000000000000000000000000000000000000000000000000000000000000000000000000000000000000000000000000000000000000000000000000000000000000000000000000000000000000000000000000000000000000000000000000000000000000000000000000000000000000000008000000000000000000000000000200000000000000000000000000",
      "type": "0x2",
      "transactionHash": "0xfff96d9f231fca514c0e788ada75a1f035fd007c403b7672f2dc7faab7a7da62",
      "transactionIndex": "0xb3",
      "blockHash": "0x05b8cdbf667bd32fd5bc9caa905a3657cd16eef0e9083512e879e811e2244ac1",
      "blockNumber": "0x1cedd12",
      "gasUsed": "0xc43e",
      "effectiveGasPrice": "0xf6d37",
      "from": "0xa6b3d200cd34ca14d7579dac8b054bf50a62c37c",
      "to": "0xa3acc71fda8c0e321ea9d49ef0630dc1c1951e17",
      "contractAddress": null,
      "l1BaseFeeScalar": "0x8dd",
      "l1BlobBaseFee": "0x1",
      "l1BlobBaseFeeScalar": "0x101c12",
      "l1Fee": "0x975e5406",
      "l1GasPrice": "0x29b1d84d",
      "l1GasUsed": "0x640"
    },
    {
      "status": "0x1",
      "cumulativeGasUsed": "0x36663e5",
      "logs": [
        {
          "address": "0xe126098b5111330ced47b80928348e4b8ed7a784",
          "topics": [
            "0xddf252ad1be2c89b69c2b068fc378daa952ba7f163c4a11628f55a4df523b3ef",
            "0x0000000000000000000000000000000000000000000000000000000000000000",
            "0x000000000000000000000000a6b3d200cd34ca14d7579dac8b054bf50a62c37c"
          ],
          "data": "0x00000000000000000000000000000000000000000000000000017dfcdece4000",
          "blockHash": "0x05b8cdbf667bd32fd5bc9caa905a3657cd16eef0e9083512e879e811e2244ac1",
          "blockNumber": "0x1cedd12",
          "transactionHash": "0x05f90840034071fba2de4857ecaaebcf13ade75f4c10a632dcada760b916095a",
          "transactionIndex": "0xb4",
          "logIndex": "0x283",
          "removed": false
        }
      ],
      "logsBloom": "0x00000000000000000000000400000000000000000000000002000000000000000000000000000000000000000000000000000000000000000000000000000000000000000000000000000008000000000000000000000000000000000000000000000000020000000000000000000800000000000000000000000010000000000000000000000000000000000000000000200000000000000000000000020000000000000000000020000000000000000000000000000000000000000000000000000042000000000000000000000000000000000000000000000000000020000000000000000000000000000000000000000000000000000000000000000000",
      "type": "0x2",
      "transactionHash": "0x05f90840034071fba2de4857ecaaebcf13ade75f4c10a632dcada760b916095a",
      "transactionIndex": "0xb4",
      "blockHash": "0x05b8cdbf667bd32fd5bc9caa905a3657cd16eef0e9083512e879e811e2244ac1",
      "blockNumber": "0x1cedd12",
      "gasUsed": "0x112c6",
      "effectiveGasPrice": "0xf6d37",
      "from": "0xa6b3d200cd34ca14d7579dac8b054bf50a62c37c",
      "to": "0xe126098b5111330ced47b80928348e4b8ed7a784",
      "contractAddress": null,
      "l1BaseFeeScalar": "0x8dd",
      "l1BlobBaseFee": "0x1",
      "l1BlobBaseFeeScalar": "0x101c12",
      "l1Fee": "0x975e5406",
      "l1GasPrice": "0x29b1d84d",
      "l1GasUsed": "0x640"
    },
    {
      "status": "0x1",
      "cumulativeGasUsed": "0x3672f36",
      "logs": [
        {
          "address": "0x498581ff718922c3f8e6a244956af099b2652b2b",
          "topics": [
            "0xdd466e674ea557f56295e2d0218a125ea4b4f0f6f3307b95f85e6110838d6438",
            "0xaff93d6c7a8af66f86401b522769ef51df380b6e96a3351ea97102690de1ca5c",
            "0x000000000000000000000000c9d7a317b5a9b39d971fa4430d0fec7a572d2520",
            "0x000000000000000000000000e126098b5111330ced47b80928348e4b8ed7a784"
          ],
          "data": "0x0000000000000000000000000000000000000000000000000000000000000bb8000000000000000000000000000000000000000000000000000000000000003c00000000000000000000000000feafe88e9441c10227be8ccf2dc34d691b84c0000000000000000000000000000000000000003f6bbc2b5805e14d9f8dff81b40000000000000000000000000000000000000000000000000000000000014438",
          "blockHash": "0x05b8cdbf667bd32fd5bc9caa905a3657cd16eef0e9083512e879e811e2244ac1",
          "blockNumber": "0x1cedd12",
          "transactionHash": "0x8cc49bdaae818763b4636cfb341d8b1ffa90867764d377d18b4508507316e513",
          "transactionIndex": "0xb5",
          "logIndex": "0x284",
          "removed": false
        }
      ],
      "logsBloom": "0x00000000000000000000000000080002000000000000000000000000000000000000000000000000000000000000000000000000000000000008000000000000000000000000000001000000000000000000000000000000000000000000000000000000000000000000000000000000000000000000000000000000000000000000000000004008000000000000000000000001000000000000000000200000000200000000000000000800000000000100000000000000000000000000000000000000000000000000000000000000000800000000000008000000000100000000000000000000000000000000000000000400000000000000000000000000",
      "type": "0x2",
      "transactionHash": "0x8cc49bdaae818763b4636cfb341d8b1ffa90867764d377d18b4508507316e513",
      "transactionIndex": "0xb5",
      "blockHash": "0x05b8cdbf667bd32fd5bc9caa905a3657cd16eef0e9083512e879e811e2244ac1",
      "blockNumber": "0x1cedd12",
      "gasUsed": "0xcb51",
      "effectiveGasPrice": "0xf6d37",
      "from": "0xa6b3d200cd34ca14d7579dac8b054bf50a62c37c",
      "to": "0x498581ff718922c3f8e6a244956af099b2652b2b",
      "contractAddress": null,
      "l1BaseFeeScalar": "0x8dd",
      "l1BlobBaseFee": "0x1",
      "l1BlobBaseFeeScalar": "0x101c12",
      "l1Fee": "0xe407c7dc",
      "l1GasPrice": "0x29b1d84d",
      "l1GasUsed": "0x96a"
    },
    {
      "status": "0x1",
      "cumulativeGasUsed": "0x367e3cd",
      "logs": [
        {
          "address": "0xe126098b5111330ced47b80928348e4b8ed7a784",
          "topics": [
            "0x8c5be1e5ebec7d5bd14f71427d1e84f3dd0314c0f7b2291e5b200ac8c7c3b925",
            "0x000000000000000000000000a6b3d200cd34ca14d7579dac8b054bf50a62c37c",
            "0x000000000000000000000000000000000022d473030f116ddee9f6b43ac78ba3"
          ],
          "data": "0xffffffffffffffffffffffffffffffffffffffffffffffffffffffffffffffff",
          "blockHash": "0x05b8cdbf667bd32fd5bc9caa905a3657cd16eef0e9083512e879e811e2244ac1",
          "blockNumber": "0x1cedd12",
          "transactionHash": "0x8da489ff12b92faf36eff0c43f36147df4ebf78b5af53e6c4306e5b266a6a7d4",
          "transactionIndex": "0xb6",
          "logIndex": "0x285",
          "removed": false
        }
      ],
      "logsBloom": "0x00000000000000000000000400000000000000000000000002000000000000000000000000000000000000000000000000000000800000000000000000200000000000000000000000004000000000000000000000000800000000000000000000000000000000000000000000000000000000000000000000000000000000000000000000000000000000000000000000200000000000000000000000020000020000000000000020000000000000000000000000000000000000000000000000000040000000000000000000000000000000000000000000000000000000000010000000000000000000000000000000000000000000000000000000000000",
      "type": "0x2",
      "transactionHash": "0x8da489ff12b92faf36eff0c43f36147df4ebf78b5af53e6c4306e5b266a6a7d4",
      "transactionIndex": "0xb6",
      "blockHash": "0x05b8cdbf667bd32fd5bc9caa905a3657cd16eef0e9083512e879e811e2244ac1",
      "blockNumber": "0x1cedd12",
      "gasUsed": "0xb497",
      "effectiveGasPrice": "0xf6d37",
      "from": "0xa6b3d200cd34ca14d7579dac8b054bf50a62c37c",
      "to": "0xe126098b5111330ced47b80928348e4b8ed7a784",
      "contractAddress": null,
      "l1BaseFeeScalar": "0x8dd",
      "l1BlobBaseFee": "0x1",
      "l1BlobBaseFeeScalar": "0x101c12",
      "l1Fee": "0x975e5406",
      "l1GasPrice": "0x29b1d84d",
      "l1GasUsed": "0x640"
    },
    {
      "status": "0x1",
      "cumulativeGasUsed": "0x3689e97",
      "logs": [
        {
          "address": "0x000000000022d473030f116ddee9f6b43ac78ba3",
          "topics": [
            "0xda9fa7c1b00402c17d0161b249b1ab8bbec047c5a52207b9c112deffd817036b",
            "0x000000000000000000000000a6b3d200cd34ca14d7579dac8b054bf50a62c37c",
            "0x000000000000000000000000e126098b5111330ced47b80928348e4b8ed7a784",
            "0x0000000000000000000000007c5f5a4bbd8fd63184577525326123b519429bdc"
          ],
          "data": "0x000000000000000000000000ffffffffffffffffffffffffffffffffffffffff0000000000000000000000000000000000000000000000000000ffffffffffff",
          "blockHash": "0x05b8cdbf667bd32fd5bc9caa905a3657cd16eef0e9083512e879e811e2244ac1",
          "blockNumber": "0x1cedd12",
          "transactionHash": "0xfec7a366cbb7f8b220d4a44b3cf8672e6a9714b87b2dc9cb61ea724f0b095dfb",
          "transactionIndex": "0xb7",
          "logIndex": "0x286",
          "removed": false
        }
      ],
      "logsBloom": "0x00010000000000000000000400000000000000000000000002000000000000000000000000000000000000000000000000000000000000000000000000082000000000000000000001000000000000000000000000000000000000000000000000000000000000000000000000000000000000000000000000000000000000000020000000000000000000000000000000000000000000000000000000000000000000000000000000000000000000000100000000000000000000080000000200000040000000000000000000000000000000000000000048000000000000000000000000000000000000000000000000000000002000000000000000000400",
      "type": "0x2",
      "transactionHash": "0xfec7a366cbb7f8b220d4a44b3cf8672e6a9714b87b2dc9cb61ea724f0b095dfb",
      "transactionIndex": "0xb7",
      "blockHash": "0x05b8cdbf667bd32fd5bc9caa905a3657cd16eef0e9083512e879e811e2244ac1",
      "blockNumber": "0x1cedd12",
      "gasUsed": "0xbaca",
      "effectiveGasPrice": "0xf6d37",
      "from": "0xa6b3d200cd34ca14d7579dac8b054bf50a62c37c",
      "to": "0x000000000022d473030f116ddee9f6b43ac78ba3",
      "contractAddress": null,
      "l1BaseFeeScalar": "0x8dd",
      "l1BlobBaseFee": "0x1",
      "l1BlobBaseFeeScalar": "0x101c12",
      "l1Fee": "0xa9c90aba",
      "l1GasPrice": "0x29b1d84d",
      "l1GasUsed": "0x702"
    },
    {
      "status": "0x1",
      "cumulativeGasUsed": "0x3695318",
      "logs": [
        {
          "address": "0xc9d7a317b5a9b39d971fa4430d0fec7a572d2520",
          "topics": [
            "0x8c5be1e5ebec7d5bd14f71427d1e84f3dd0314c0f7b2291e5b200ac8c7c3b925",
            "0x000000000000000000000000a6b3d200cd34ca14d7579dac8b054bf50a62c37c",
            "0x000000000000000000000000000000000022d473030f116ddee9f6b43ac78ba3"
          ],
          "data": "0xffffffffffffffffffffffffffffffffffffffffffffffffffffffffffffffff",
          "blockHash": "0x05b8cdbf667bd32fd5bc9caa905a3657cd16eef0e9083512e879e811e2244ac1",
          "blockNumber": "0x1cedd12",
          "transactionHash": "0x979014284e6608e9d17fece4d9884fea21c84763bdce4e7cb4d89b3b7c84b5f2",
          "transactionIndex": "0xb8",
          "logIndex": "0x287",
          "removed": false
        }
      ],
      "logsBloom": "0x00000000000000000000000400000000000000000000000002000000000000000000000000000000000000000000000000000000800000000000000000200000000000000000000000004000000000000000000000800800000000000000000000000000000000000000000000100000000000000000000000000000000000000000000000000000000000000000000000000000000000000000000000000000020000000000000000000000000000000000000000000000000000000000000000000040000000000000000000000000000000000000000000000000000000000010000000000000000000000020000000000000000000000000000000000000",
      "type": "0x2",
      "transactionHash": "0x979014284e6608e9d17fece4d9884fea21c84763bdce4e7cb4d89b3b7c84b5f2",
      "transactionIndex": "0xb8",
      "blockHash": "0x05b8cdbf667bd32fd5bc9caa905a3657cd16eef0e9083512e879e811e2244ac1",
      "blockNumber": "0x1cedd12",
      "gasUsed": "0xb481",
      "effectiveGasPrice": "0xf6d37",
      "from": "0xa6b3d200cd34ca14d7579dac8b054bf50a62c37c",
      "to": "0xc9d7a317b5a9b39d971fa4430d0fec7a572d2520",
      "contractAddress": null,
      "l1BaseFeeScalar": "0x8dd",
      "l1BlobBaseFee": "0x1",
      "l1BlobBaseFeeScalar": "0x101c12",
      "l1Fee": "0x975e5406",
      "l1GasPrice": "0x29b1d84d",
      "l1GasUsed": "0x640"
    },
    {
      "status": "0x1",
      "cumulativeGasUsed": "0x36a0de2",
      "logs": [
        {
          "address": "0x000000000022d473030f116ddee9f6b43ac78ba3",
          "topics": [
            "0xda9fa7c1b00402c17d0161b249b1ab8bbec047c5a52207b9c112deffd817036b",
            "0x000000000000000000000000a6b3d200cd34ca14d7579dac8b054bf50a62c37c",
            "0x000000000000000000000000c9d7a317b5a9b39d971fa4430d0fec7a572d2520",
            "0x0000000000000000000000007c5f5a4bbd8fd63184577525326123b519429bdc"
          ],
          "data": "0x000000000000000000000000ffffffffffffffffffffffffffffffffffffffff0000000000000000000000000000000000000000000000000000ffffffffffff",
          "blockHash": "0x05b8cdbf667bd32fd5bc9caa905a3657cd16eef0e9083512e879e811e2244ac1",
          "blockNumber": "0x1cedd12",
          "transactionHash": "0x9de1cf6397b71bf64ac43a82b4e6536f38e60d39e7890a30e839bbeb9ea966c0",
          "transactionIndex": "0xb9",
          "logIndex": "0x288",
          "removed": false
        }
      ],
      "logsBloom": "0x00010000000000000000000400000000000000000000000002000000000000000000000000000000000000000000000000000000000000000008000000082000000000000000000000000000000000000000000000000000000000000000000000000000000000000000000000000000000000000000000000000000000000000020000000000000000000000000000000000000000000000000000000000000000000000000000000000800000000000000000000000000000000080000000200000040000000000000000000000000000000000000000040000000000100000000000000000000000000000000000000000000002000000000000000000400",
      "type": "0x2",
      "transactionHash": "0x9de1cf6397b71bf64ac43a82b4e6536f38e60d39e7890a30e839bbeb9ea966c0",
      "transactionIndex": "0xb9",
      "blockHash": "0x05b8cdbf667bd32fd5bc9caa905a3657cd16eef0e9083512e879e811e2244ac1",
      "blockNumber": "0x1cedd12",
      "gasUsed": "0xbaca",
      "effectiveGasPrice": "0xf6d37",
      "from": "0xa6b3d200cd34ca14d7579dac8b054bf50a62c37c",
      "to": "0x000000000022d473030f116ddee9f6b43ac78ba3",
      "contractAddress": null,
      "l1BaseFeeScalar": "0x8dd",
      "l1BlobBaseFee": "0x1",
      "l1BlobBaseFeeScalar": "0x101c12",
      "l1Fee": "0xa9c90aba",
      "l1GasPrice": "0x29b1d84d",
      "l1GasUsed": "0x702"
    },
    {
      "status": "0x1",
      "cumulativeGasUsed": "0x3713eca",
      "logs": [
        {
          "address": "0x7c5f5a4bbd8fd63184577525326123b519429bdc",
          "topics": [
            "0xddf252ad1be2c89b69c2b068fc378daa952ba7f163c4a11628f55a4df523b3ef",
            "0x0000000000000000000000000000000000000000000000000000000000000000",
            "0x000000000000000000000000a6b3d200cd34ca14d7579dac8b054bf50a62c37c",
            "0x000000000000000000000000000000000000000000000000000000000000ebd8"
          ],
          "data": "0x",
          "blockHash": "0x05b8cdbf667bd32fd5bc9caa905a3657cd16eef0e9083512e879e811e2244ac1",
          "blockNumber": "0x1cedd12",
          "transactionHash": "0x155f55f337cefb2668569701e81bc2acc850402b52cc13d08a53f50bfb0a5b2b",
          "transactionIndex": "0xba",
          "logIndex": "0x289",
          "removed": false
        },
        {
          "address": "0x498581ff718922c3f8e6a244956af099b2652b2b",
          "topics": [
            "0xf208f4912782fd25c7f114ca3723a2d5dd6f3bcc3ac8db5af63baa85f711d5ec",
            "0xaff93d6c7a8af66f86401b522769ef51df380b6e96a3351ea97102690de1ca5c",
            "0x0000000000000000000000007c5f5a4bbd8fd63184577525326123b519429bdc"
          ],
          "data": "0x0000000000000000000000000000000000000000000000000000000000012cb40000000000000000000000000000000000000000000000000000000000015b9400000000000000000000000000000000000000000000000000001651dda27472000000000000000000000000000000000000000000000000000000000000ebd8",
          "blockHash": "0x05b8cdbf667bd32fd5bc9caa905a3657cd16eef0e9083512e879e811e2244ac1",
          "blockNumber": "0x1cedd12",
          "transactionHash": "0x155f55f337cefb2668569701e81bc2acc850402b52cc13d08a53f50bfb0a5b2b",
          "transactionIndex": "0xba",
          "logIndex": "0x28a",
          "removed": false
        },
        {
          "address": "0xa3acc71fda8c0e321ea9d49ef0630dc1c1951e17",
          "topics": [
            "0x6c633f26d0fb1eb6a531e13c7f2a11a74ba1fc476f54ce9649ed9c0d502ba9cd"
          ],
          "data": "0x00000000000000000000000000000000000000000000000000000000000f424000000000000000000000000000000000000000000000000000000000000f4240",
          "blockHash": "0x05b8cdbf667bd32fd5bc9caa905a3657cd16eef0e9083512e879e811e2244ac1",
          "blockNumber": "0x1cedd12",
          "transactionHash": "0x155f55f337cefb2668569701e81bc2acc850402b52cc13d08a53f50bfb0a5b2b",
          "transactionIndex": "0xba",
          "logIndex": "0x28b",
          "removed": false
        },
        {
          "address": "0xa3acc71fda8c0e321ea9d49ef0630dc1c1951e17",
          "topics": [
            "0xf77ee0047b07d500bcb5dc409382d7f02612a6ea259f6bb70255b7511ce7e740"
          ],
          "data": "0x00000000000000000000000000feafe88e9441c10227be8ccf2dc34d691b84c00000000000000000000000000000000000000000000000000000000000000040000000000000000000000000000000000000000000000000000000000000000856434f502f434f50000000000000000000000000000000000000000000000000",
          "blockHash": "0x05b8cdbf667bd32fd5bc9caa905a3657cd16eef0e9083512e879e811e2244ac1",
          "blockNumber": "0x1cedd12",
          "transactionHash": "0x155f55f337cefb2668569701e81bc2acc850402b52cc13d08a53f50bfb0a5b2b",
          "transactionIndex": "0xba",
          "logIndex": "0x28c",
          "removed": false
        },
        {
          "address": "0xa3acc71fda8c0e321ea9d49ef0630dc1c1951e17",
          "topics": [
            "0x3f677077d8e6673cad47ce93ec074f228deefae585474297b54b1bf1dd46b287"
          ],
          "data": "0x00000000000000000000000000feafe88e9441c10227be8ccf2dc34d691b84c0000000000000000000000000000000000000000000000000000000000000006000000000000000000000000000000000000000000000000000000000000f4240000000000000000000000000000000000000000000000000000000000000000856434f502f434f50000000000000000000000000000000000000000000000000",
          "blockHash": "0x05b8cdbf667bd32fd5bc9caa905a3657cd16eef0e9083512e879e811e2244ac1",
          "blockNumber": "0x1cedd12",
          "transactionHash": "0x155f55f337cefb2668569701e81bc2acc850402b52cc13d08a53f50bfb0a5b2b",
          "transactionIndex": "0xba",
          "logIndex": "0x28d",
          "removed": false
        },
        {
          "address": "0x00feafe88e9441c10227be8ccf2dc34d691b84c0",
          "topics": [
            "0x9d7c1511366d26aca640ce4644cf89df4da2025ada572b454765bfc2fa274c49"
          ],
          "data": "0x00000000000000000000000000000000000000000000000000000000000f42400000000000000000000000000000000000000000000000000000000000000001",
          "blockHash": "0x05b8cdbf667bd32fd5bc9caa905a3657cd16eef0e9083512e879e811e2244ac1",
          "blockNumber": "0x1cedd12",
          "transactionHash": "0x155f55f337cefb2668569701e81bc2acc850402b52cc13d08a53f50bfb0a5b2b",
          "transactionIndex": "0xba",
          "logIndex": "0x28e",
          "removed": false
        },
        {
          "address": "0xc9d7a317b5a9b39d971fa4430d0fec7a572d2520",
          "topics": [
            "0xddf252ad1be2c89b69c2b068fc378daa952ba7f163c4a11628f55a4df523b3ef",
            "0x000000000000000000000000a6b3d200cd34ca14d7579dac8b054bf50a62c37c",
            "0x000000000000000000000000498581ff718922c3f8e6a244956af099b2652b2b"
          ],
          "data": "0x000000000000000000000000000000000000000000000000000000174876e800",
          "blockHash": "0x05b8cdbf667bd32fd5bc9caa905a3657cd16eef0e9083512e879e811e2244ac1",
          "blockNumber": "0x1cedd12",
          "transactionHash": "0x155f55f337cefb2668569701e81bc2acc850402b52cc13d08a53f50bfb0a5b2b",
          "transactionIndex": "0xba",
          "logIndex": "0x28f",
          "removed": false
        },
        {
          "address": "0xe126098b5111330ced47b80928348e4b8ed7a784",
          "topics": [
            "0xddf252ad1be2c89b69c2b068fc378daa952ba7f163c4a11628f55a4df523b3ef",
            "0x000000000000000000000000a6b3d200cd34ca14d7579dac8b054bf50a62c37c",
            "0x000000000000000000000000498581ff718922c3f8e6a244956af099b2652b2b"
          ],
          "data": "0x00000000000000000000000000000000000000000000000000016fea1aa28787",
          "blockHash": "0x05b8cdbf667bd32fd5bc9caa905a3657cd16eef0e9083512e879e811e2244ac1",
          "blockNumber": "0x1cedd12",
          "transactionHash": "0x155f55f337cefb2668569701e81bc2acc850402b52cc13d08a53f50bfb0a5b2b",
          "transactionIndex": "0xba",
          "logIndex": "0x290",
          "removed": false
        }
      ],
      "logsBloom": "0x00000000000000000600008400080002000000000000000002400100000000000020000000000200000000000000000000000000000000000000000000002000000008000000000080000008000000008000080000800000000000000040000000400000020000000000000000100800040000000000000000000010000000000001000001004000000000000000000800200000000000000000000400020000004204004000000028000000000000000000000000000000000000800000000200000042000001000000020040000000080800001000000000010000000020000000000000000000000000000020000004000400002000000000000000000000",
      "type": "0x2",
      "transactionHash": "0x155f55f337cefb2668569701e81bc2acc850402b52cc13d08a53f50bfb0a5b2b",
      "transactionIndex": "0xba",
      "blockHash": "0x05b8cdbf667bd32fd5bc9caa905a3657cd16eef0e9083512e879e811e2244ac1",
      "blockNumber": "0x1cedd12",
      "gasUsed": "0x730e8",
      "effectiveGasPrice": "0xf6d37",
      "from": "0xa6b3d200cd34ca14d7579dac8b054bf50a62c37c",
      "to": "0x7c5f5a4bbd8fd63184577525326123b519429bdc",
      "contractAddress": null,
      "l1BaseFeeScalar": "0x8dd",
      "l1BlobBaseFee": "0x1",
      "l1BlobBaseFeeScalar": "0x101c12",
      "l1Fee": "0x1bc8cd4da",
      "l1GasPrice": "0x29b1d84d",
      "l1GasUsed": "0x125a"
    },
    {
      "status": "0x1",
      "cumulativeGasUsed": "0x3720706",
      "logs": [
        {
          "address": "0xc9d7a317b5a9b39d971fa4430d0fec7a572d2520",
          "topics": [
            "0xddf252ad1be2c89b69c2b068fc378daa952ba7f163c4a11628f55a4df523b3ef",
            "0x000000000000000000000000a6b3d200cd34ca14d7579dac8b054bf50a62c37c",
            "0x0000000000000000000000005d211f80a23f04201c6b3fa06b85171b11802b95"
          ],
          "data": "0x000000000000000000000000000000000000000000000000000000174876e800",
          "blockHash": "0x05b8cdbf667bd32fd5bc9caa905a3657cd16eef0e9083512e879e811e2244ac1",
          "blockNumber": "0x1cedd12",
          "transactionHash": "0x50502b1b6977f960967141d58e72ee27be184b410a4d94007898ee84cc544dc7",
          "transactionIndex": "0xbb",
          "logIndex": "0x291",
          "removed": false
        }
      ],
      "logsBloom": "0x000000000000000000000004000000000000000000000000020000000000000000000000000000000000000000000000000000000000000000000000000000000000000000000000000000080000080000000000008000000000000000000000000000000000000000000000001000000000000000000000000000100000000000000000000000000000000000000000000000000000000000000000000000000000001000000000000000000000000000000000000000000000000000000000000000c2000000000000000000000000000000000000000000000000000000000000000000000000000000000020000000000000000000000000000000000000",
      "type": "0x2",
      "transactionHash": "0x50502b1b6977f960967141d58e72ee27be184b410a4d94007898ee84cc544dc7",
      "transactionIndex": "0xbb",
      "blockHash": "0x05b8cdbf667bd32fd5bc9caa905a3657cd16eef0e9083512e879e811e2244ac1",
      "blockNumber": "0x1cedd12",
      "gasUsed": "0xc83c",
      "effectiveGasPrice": "0xf6d37",
      "from": "0xa6b3d200cd34ca14d7579dac8b054bf50a62c37c",
      "to": "0xc9d7a317b5a9b39d971fa4430d0fec7a572d2520",
      "contractAddress": null,
      "l1BaseFeeScalar": "0x8dd",
      "l1BlobBaseFee": "0x1",
      "l1BlobBaseFeeScalar": "0x101c12",
      "l1Fee": "0x975e5406",
      "l1GasPrice": "0x29b1d84d",
      "l1GasUsed": "0x640"
    },
    {
      "status": "0x1",
      "cumulativeGasUsed": "0x372ba73",
      "logs": [
        {
          "address": "0xc9d7a317b5a9b39d971fa4430d0fec7a572d2520",
          "topics": [
            "0x8c5be1e5ebec7d5bd14f71427d1e84f3dd0314c0f7b2291e5b200ac8c7c3b925",
            "0x000000000000000000000000a6b3d200cd34ca14d7579dac8b054bf50a62c37c",
            "0x0000000000000000000000005d211f80a23f04201c6b3fa06b85171b11802b95"
          ],
          "data": "0x000000000000000000000000000000000000000000000000000000174876e800",
          "blockHash": "0x05b8cdbf667bd32fd5bc9caa905a3657cd16eef0e9083512e879e811e2244ac1",
          "blockNumber": "0x1cedd12",
          "transactionHash": "0x02514c788d44d06c1e7375f54c73f652da501ce7333fcb2729e3b51eae59a413",
          "transactionIndex": "0xbc",
          "logIndex": "0x292",
          "removed": false
        }
      ],
      "logsBloom": "0x000000000000000000000004000000000000000000000000020000000000000000000000000000000000000000000000000000000000000000000000002000000000000000000000000000000000080000000000008000000000000000000000000000000000000000000000001000000000000000000000000000000000000000000000000000000000000000000000000000000000000000000000000000000200001000000000000000000000000000000000000000000000000000000000000000c0000000000000000000000000000000000000000000000000000000000010000000000000000000000020000000000000000000000000000000000000",
      "type": "0x2",
      "transactionHash": "0x02514c788d44d06c1e7375f54c73f652da501ce7333fcb2729e3b51eae59a413",
      "transactionIndex": "0xbc",
      "blockHash": "0x05b8cdbf667bd32fd5bc9caa905a3657cd16eef0e9083512e879e811e2244ac1",
      "blockNumber": "0x1cedd12",
      "gasUsed": "0xb36d",
      "effectiveGasPrice": "0xf6d37",
      "from": "0xa6b3d200cd34ca14d7579dac8b054bf50a62c37c",
      "to": "0xc9d7a317b5a9b39d971fa4430d0fec7a572d2520",
      "contractAddress": null,
      "l1BaseFeeScalar": "0x8dd",
      "l1BlobBaseFee": "0x1",
      "l1BlobBaseFeeScalar": "0x101c12",
      "l1Fee": "0x975e5406",
      "l1GasPrice": "0x29b1d84d",
      "l1GasUsed": "0x640"
    },
    {
      "status": "0x1",
      "cumulativeGasUsed": "0x3741709",
      "logs": [
        {
          "address": "0xc9d7a317b5a9b39d971fa4430d0fec7a572d2520",
          "topics": [
            "0xddf252ad1be2c89b69c2b068fc378daa952ba7f163c4a11628f55a4df523b3ef",
            "0x000000000000000000000000a6b3d200cd34ca14d7579dac8b054bf50a62c37c",
            "0x0000000000000000000000005d211f80a23f04201c6b3fa06b85171b11802b95"
          ],
          "data": "0x000000000000000000000000000000000000000000000000000000174876e800",
          "blockHash": "0x05b8cdbf667bd32fd5bc9caa905a3657cd16eef0e9083512e879e811e2244ac1",
          "blockNumber": "0x1cedd12",
          "transactionHash": "0x6a1467551f7c8877d0359a62f612793964f954a372477d0eee7fd76a619dbff9",
          "transactionIndex": "0xbd",
          "logIndex": "0x293",
          "removed": false
        },
        {
          "address": "0x5d211f80a23f04201c6b3fa06b85171b11802b95",
          "topics": [
            "0x37a282d7235f3ceb195f27bc205bc5e09171c92455322f842e20c07113f22a53"
          ],
          "data": "0x000000000000000000000000c9d7a317b5a9b39d971fa4430d0fec7a572d2520000000000000000000000000000000000000000000000000000000174876e800",
          "blockHash": "0x05b8cdbf667bd32fd5bc9caa905a3657cd16eef0e9083512e879e811e2244ac1",
          "blockNumber": "0x1cedd12",
          "transactionHash": "0x6a1467551f7c8877d0359a62f612793964f954a372477d0eee7fd76a619dbff9",
          "transactionIndex": "0xbd",
          "logIndex": "0x294",
          "removed": false
        }
      ],
      "logsBloom": "0x000000000000000000000404020000000000000000000000020000000000000000000000000000000000000000000000000000000000000000001000000000000000000000000000000000080000080000000000008000000000000000000000000000000000000000000000001000000000000000000000000000100000000000000000000000000000000000000000000000000000000000000000000000000000001000000000000000000000000000000000000000000000000000000000000000c2000000020000000000000000400000040000000000000000000000000000000000000000000000000020000000000000000000000000000000000000",
      "type": "0x2",
      "transactionHash": "0x6a1467551f7c8877d0359a62f612793964f954a372477d0eee7fd76a619dbff9",
      "transactionIndex": "0xbd",
      "blockHash": "0x05b8cdbf667bd32fd5bc9caa905a3657cd16eef0e9083512e879e811e2244ac1",
      "blockNumber": "0x1cedd12",
      "gasUsed": "0x15c96",
      "effectiveGasPrice": "0xf6d37",
      "from": "0xa6b3d200cd34ca14d7579dac8b054bf50a62c37c",
      "to": "0x5d211f80a23f04201c6b3fa06b85171b11802b95",
      "contractAddress": null,
      "l1BaseFeeScalar": "0x8dd",
      "l1BlobBaseFee": "0x1",
      "l1BlobBaseFeeScalar": "0x101c12",
      "l1Fee": "0x975e5406",
      "l1GasPrice": "0x29b1d84d",
      "l1GasUsed": "0x640"
    },
    {
      "status": "0x1",
      "cumulativeGasUsed": "0x374e70f",
      "logs": [
        {
          "address": "0xe126098b5111330ced47b80928348e4b8ed7a784",
          "topics": [
            "0xddf252ad1be2c89b69c2b068fc378daa952ba7f163c4a11628f55a4df523b3ef",
            "0x0000000000000000000000000000000000000000000000000000000000000000",
            "0x0000000000000000000000005d211f80a23f04201c6b3fa06b85171b11802b95"
          ],
          "data": "0x00000000000000000000000000000000000000000000000000017dfcdece4000",
          "blockHash": "0x05b8cdbf667bd32fd5bc9caa905a3657cd16eef0e9083512e879e811e2244ac1",
          "blockNumber": "0x1cedd12",
          "transactionHash": "0x5ae98a157ef3c84408b5197de1df24cc84bdfd3287024f299555ae92b2d0d277",
          "transactionIndex": "0xbe",
          "logIndex": "0x295",
          "removed": false
        }
      ],
      "logsBloom": "0x00000000000000000000000000000000000000000000000000000000000000000000000000000000000000000000000000000000000000000000000000000000000000000000000000000008000008000000000000000000000000000000000000000000020000000000000000000800000000000000000000000010000000000000000000000000000000000000000000200000000000000000000000020000000000100000000020000000000000000000000000000000000000000000000000000082000000000000000000000000000000000000000000000000000020000000000000000000000000000000000000000000000000000000000000000000",
      "type": "0x2",
      "transactionHash": "0x5ae98a157ef3c84408b5197de1df24cc84bdfd3287024f299555ae92b2d0d277",
      "transactionIndex": "0xbe",
      "blockHash": "0x05b8cdbf667bd32fd5bc9caa905a3657cd16eef0e9083512e879e811e2244ac1",
      "blockNumber": "0x1cedd12",
      "gasUsed": "0xd006",
      "effectiveGasPrice": "0xf6d37",
      "from": "0xa6b3d200cd34ca14d7579dac8b054bf50a62c37c",
      "to": "0xe126098b5111330ced47b80928348e4b8ed7a784",
      "contractAddress": null,
      "l1BaseFeeScalar": "0x8dd",
      "l1BlobBaseFee": "0x1",
      "l1BlobBaseFeeScalar": "0x101c12",
      "l1Fee": "0x975e5406",
      "l1GasPrice": "0x29b1d84d",
      "l1GasUsed": "0x640"
    },
    {
      "status": "0x1",
      "cumulativeGasUsed": "0x37554a0",
      "logs": [
        {
          "address": "0x5d211f80a23f04201c6b3fa06b85171b11802b95",
          "topics": [
            "0x66275f25281c43dd8ba9b837d809b01ee2a2f5a4ccb8e28ca45b0dbb4b433278"
          ],
          "data": "0x000000000000000000000000c9d7a317b5a9b39d971fa4430d0fec7a572d25200000000000000000000000000000000000000000000000000000000000000001",
          "blockHash": "0x05b8cdbf667bd32fd5bc9caa905a3657cd16eef0e9083512e879e811e2244ac1",
          "blockNumber": "0x1cedd12",
          "transactionHash": "0x82d38e5bf9d8ef3babafabee515161d6e996672be1e94dbd187e16a97b1a9448",
          "transactionIndex": "0xbf",
          "logIndex": "0x296",
          "removed": false
        }
      ],
      "logsBloom": "0x00000000000000000000040000000000000000000000000000000000000000000000000000000000000000000000000002000000000000000000100000000000000000000000000000000000000000000000000000000000000000000000000000000000000000000000100000000000000000000000000000000000000000000000000000000000000000000000000000000000000000000000000000000000000000000000000000000000000000000000000000000000000000000000000000000000000000000000000000000000400000000000000000000000000000000000000000000000000000000000000000000000000000000000000000100000",
      "type": "0x2",
      "transactionHash": "0x82d38e5bf9d8ef3babafabee515161d6e996672be1e94dbd187e16a97b1a9448",
      "transactionIndex": "0xbf",
      "blockHash": "0x05b8cdbf667bd32fd5bc9caa905a3657cd16eef0e9083512e879e811e2244ac1",
      "blockNumber": "0x1cedd12",
      "gasUsed": "0x6d91",
      "effectiveGasPrice": "0xf6d37",
      "from": "0xa6b3d200cd34ca14d7579dac8b054bf50a62c37c",
      "to": "0x5d211f80a23f04201c6b3fa06b85171b11802b95",
      "contractAddress": null,
      "l1BaseFeeScalar": "0x8dd",
      "l1BlobBaseFee": "0x1",
      "l1BlobBaseFeeScalar": "0x101c12",
      "l1Fee": "0x975e5406",
      "l1GasPrice": "0x29b1d84d",
      "l1GasUsed": "0x640"
    },
    {
      "status": "0x1",
      "cumulativeGasUsed": "0x2332f54",
      "logs": [
        {
          "address": "0x5d211f80a23f04201c6b3fa06b85171b11802b95",
          "topics": [
            "0x37a282d7235f3ceb195f27bc205bc5e09171c92455322f842e20c07113f22a53"
          ],
          "data": "0x000000000000000000000000c9d7a317b5a9b39d971fa4430d0fec7a572d252000000000000000000000000000000000000000000000000000017dfcdece4000",
          "blockHash": "0x86385816c30189a6851fde949844f9d8489ec8160e89a7448d00ade103ea7159",
          "blockNumber": "0x1cedd13",
          "transactionHash": "0xc726263198f854ab65d1f0041cc4dd243087d4c75f8e54dbe5b7977a9794fc8c",
          "transactionIndex": "0x77",
          "logIndex": "0x194",
          "removed": false
        }
      ],
      "logsBloom": "0x00000000000000000000040002000000000000000000000000000000000000000000000000000000000000000000000000000000000000000000100000000000000000000000000000000000000000000000000000000000000000000000000000000000000000000000000000000000000000000000000000000000000000000000000000000000000000000000000000000000000000000000000000000000000000000000000000000000000000000000000000000000000000000000000000000000000000020000000000000000400000040000000000000000000000000000000000000000000000000000000000000000000000000000000000000000",
      "type": "0x2",
      "transactionHash": "0xc726263198f854ab65d1f0041cc4dd243087d4c75f8e54dbe5b7977a9794fc8c",
      "transactionIndex": "0x77",
      "blockHash": "0x86385816c30189a6851fde949844f9d8489ec8160e89a7448d00ade103ea7159",
      "blockNumber": "0x1cedd13",
      "gasUsed": "0x11a5e",
      "effectiveGasPrice": "0xf6f43",
      "from": "0xa6b3d200cd34ca14d7579dac8b054bf50a62c37c",
      "to": "0x5d211f80a23f04201c6b3fa06b85171b11802b95",
      "contractAddress": null,
      "l1BaseFeeScalar": "0x8dd",
      "l1BlobBaseFee": "0x1",
      "l1BlobBaseFeeScalar": "0x101c12",
      "l1Fee": "0x975e5406",
      "l1GasPrice": "0x29b1d84d",
      "l1GasUsed": "0x640"
    },
    {
      "status": "0x1",
      "cumulativeGasUsed": "0x233c61c",
      "logs": [
        {
          "address": "0x00feafe88e9441c10227be8ccf2dc34d691b84c0",
          "topics": [
            "0x891384186ffead2cb35cd6acef852802689f307176dd41748e5a8a7f2b462976"
          ],
          "data": "0x00000000000000000000000000000000000000000000000000000000000003e800000000000000000000000000000000000000000000000000002632e314a000",
          "blockHash": "0x86385816c30189a6851fde949844f9d8489ec8160e89a7448d00ade103ea7159",
          "blockNumber": "0x1cedd13",
          "transactionHash": "0xcf943b3f954624285aa10a02043524dd4e29dca8afd907f5e73c72e42b90d4b5",
          "transactionIndex": "0x78",
          "logIndex": "0x195",
          "removed": false
        }
      ],
      "logsBloom": "0x00000000000000000000000020000000000000000000000000000000000000000000000000000000000000000000000000000000000000000000000000000000000008000000000000000000000000000000080000000000000000000000000000000000000000000000000000000000000000000000000100000000000000000000000000000000000000000000000000000000000000000000000000000000000000000000000000000000000000000000000000000000000000000000000000000000000000000000000000000000080000000000000000000000000000000000000000000000000000000000000000000000000000000000200000000000",
      "type": "0x2",
      "transactionHash": "0xcf943b3f954624285aa10a02043524dd4e29dca8afd907f5e73c72e42b90d4b5",
      "transactionIndex": "0x78",
      "blockHash": "0x86385816c30189a6851fde949844f9d8489ec8160e89a7448d00ade103ea7159",
      "blockNumber": "0x1cedd13",
      "gasUsed": "0x96c8",
      "effectiveGasPrice": "0xf6f43",
      "from": "0xa6b3d200cd34ca14d7579dac8b054bf50a62c37c",
      "to": "0x00feafe88e9441c10227be8ccf2dc34d691b84c0",
      "contractAddress": null,
      "l1BaseFeeScalar": "0x8dd",
      "l1BlobBaseFee": "0x1",
      "l1BlobBaseFeeScalar": "0x101c12",
      "l1Fee": "0x975e5406",
      "l1GasPrice": "0x29b1d84d",
      "l1GasUsed": "0x640"
    },
    {
      "status": "0x1",
      "cumulativeGasUsed": "0x234797d",
      "logs": [
        {
          "address": "0xc9d7a317b5a9b39d971fa4430d0fec7a572d2520",
          "topics": [
            "0x8c5be1e5ebec7d5bd14f71427d1e84f3dd0314c0f7b2291e5b200ac8c7c3b925",
            "0x000000000000000000000000a6b3d200cd34ca14d7579dac8b054bf50a62c37c",
            "0x0000000000000000000000005d211f80a23f04201c6b3fa06b85171b11802b95"
          ],
          "data": "0x000000000000000000000000000000000000000000000000000000003b9aca00",
          "blockHash": "0x86385816c30189a6851fde949844f9d8489ec8160e89a7448d00ade103ea7159",
          "blockNumber": "0x1cedd13",
          "transactionHash": "0x7dc4b7661e12d4fff8148f5bd7f80f231680d39dc9110c5767642b9e794ea531",
          "transactionIndex": "0x79",
          "logIndex": "0x196",
          "removed": false
        }
      ],
      "logsBloom": "0x000000000000000000000004000000000000000000000000020000000000000000000000000000000000000000000000000000000000000000000000002000000000000000000000000000000000080000000000008000000000000000000000000000000000000000000000001000000000000000000000000000000000000000000000000000000000000000000000000000000000000000000000000000000200001000000000000000000000000000000000000000000000000000000000000000c0000000000000000000000000000000000000000000000000000000000010000000000000000000000020000000000000000000000000000000000000",
      "type": "0x2",
      "transactionHash": "0x7dc4b7661e12d4fff8148f5bd7f80f231680d39dc9110c5767642b9e794ea531",
      "transactionIndex": "0x79",
      "blockHash": "0x86385816c30189a6851fde949844f9d8489ec8160e89a7448d00ade103ea7159",
      "blockNumber": "0x1cedd13",
      "gasUsed": "0xb361",
      "effectiveGasPrice": "0xf6f43",
      "from": "0xa6b3d200cd34ca14d7579dac8b054bf50a62c37c",
      "to": "0xc9d7a317b5a9b39d971fa4430d0fec7a572d2520",
      "contractAddress": null,
      "l1BaseFeeScalar": "0x8dd",
      "l1BlobBaseFee": "0x1",
      "l1BlobBaseFeeScalar": "0x101c12",
      "l1Fee": "0x975e5406",
      "l1GasPrice": "0x29b1d84d",
      "l1GasUsed": "0x640"
    },
    {
      "status": "0x1",
      "cumulativeGasUsed": "0x2373d8b",
      "logs": [
        {
          "address": "0xc9d7a317b5a9b39d971fa4430d0fec7a572d2520",
          "topics": [
            "0xddf252ad1be2c89b69c2b068fc378daa952ba7f163c4a11628f55a4df523b3ef",
            "0x000000000000000000000000a6b3d200cd34ca14d7579dac8b054bf50a62c37c",
            "0x0000000000000000000000005d211f80a23f04201c6b3fa06b85171b11802b95"
          ],
          "data": "0x000000000000000000000000000000000000000000000000000000003b9aca00",
          "blockHash": "0x86385816c30189a6851fde949844f9d8489ec8160e89a7448d00ade103ea7159",
          "blockNumber": "0x1cedd13",
          "transactionHash": "0x0f072c2d6a68a76bf0361ea0751d47844d21b5dca0b465125c13b18258b1610d",
          "transactionIndex": "0x7a",
          "logIndex": "0x197",
          "removed": false
        },
        {
          "address": "0xe126098b5111330ced47b80928348e4b8ed7a784",
          "topics": [
            "0xddf252ad1be2c89b69c2b068fc378daa952ba7f163c4a11628f55a4df523b3ef",
            "0x0000000000000000000000000000000000000000000000000000000000000000",
            "0x000000000000000000000000a6b3d200cd34ca14d7579dac8b054bf50a62c37c"
          ],
          "data": "0x0000000000000000000000000000000000000000000000000000028b461cc400",
          "blockHash": "0x86385816c30189a6851fde949844f9d8489ec8160e89a7448d00ade103ea7159",
          "blockNumber": "0x1cedd13",
          "transactionHash": "0x0f072c2d6a68a76bf0361ea0751d47844d21b5dca0b465125c13b18258b1610d",
          "transactionIndex": "0x7a",
          "logIndex": "0x198",
          "removed": false
        },
        {
          "address": "0xe126098b5111330ced47b80928348e4b8ed7a784",
          "topics": [
            "0xddf252ad1be2c89b69c2b068fc378daa952ba7f163c4a11628f55a4df523b3ef",
            "0x0000000000000000000000000000000000000000000000000000000000000000",
            "0x000000000000000000000000a6b3d200cd34ca14d7579dac8b054bf50a62c37c"
          ],
          "data": "0x00000000000000000000000000000000000000000000000000000000a6e49c00",
          "blockHash": "0x86385816c30189a6851fde949844f9d8489ec8160e89a7448d00ade103ea7159",
          "blockNumber": "0x1cedd13",
          "transactionHash": "0x0f072c2d6a68a76bf0361ea0751d47844d21b5dca0b465125c13b18258b1610d",
          "transactionIndex": "0x7a",
          "logIndex": "0x199",
          "removed": false
        },
        {
          "address": "0x5d211f80a23f04201c6b3fa06b85171b11802b95",
          "topics": [
            "0xafda9316e64488bba379a6614bcee4516ef1793ee3844298c937b46b2cae5829"
          ],
          "data": "0x000000000000000000000000a6b3d200cd34ca14d7579dac8b054bf50a62c37c0000000000000000000000000000000000000000000000000000000000000000000000000000000000000000c9d7a317b5a9b39d971fa4430d0fec7a572d2520000000000000000000000000000000000000000000000000000000003b9aca000000000000000000000000000000000000000000000000000000028bed016000",
          "blockHash": "0x86385816c30189a6851fde949844f9d8489ec8160e89a7448d00ade103ea7159",
          "blockNumber": "0x1cedd13",
          "transactionHash": "0x0f072c2d6a68a76bf0361ea0751d47844d21b5dca0b465125c13b18258b1610d",
          "transactionIndex": "0x7a",
          "logIndex": "0x19a",
          "removed": false
        },
        {
          "address": "0x5d211f80a23f04201c6b3fa06b85171b11802b95",
          "topics": [
            "0xb8d0a675deb3f0103b7b5bfee7759ee667ec4a083833f9674ae14b688cb10551"
          ],
          "data": "0x000000000000000000000000a6b3d200cd34ca14d7579dac8b054bf50a62c37c0000000000000000000000000000000000000000000000000000028b461cc400",
          "blockHash": "0x86385816c30189a6851fde949844f9d8489ec8160e89a7448d00ade103ea7159",
          "blockNumber": "0x1cedd13",
          "transactionHash": "0x0f072c2d6a68a76bf0361ea0751d47844d21b5dca0b465125c13b18258b1610d",
          "transactionIndex": "0x7a",
          "logIndex": "0x19b",
          "removed": false
        }
      ],
      "logsBloom": "0x000000000000000000000404000000000000000000000000020000000000000000000000000000000000000000000000000000000000000000001000000000000000000000000000000000080000080000000000008000000000000000000000008000000200002000000000001008000000000000000000000000100000000000000000002000000000000000000000002000000000000000000000004200000000001000000000200000000000000000000000000000000000000000000000000000c2000000000000000000000000400000020000000000000000000020100000000000000000000000000020000000000000000000000000000000000000",
      "type": "0x2",
      "transactionHash": "0x0f072c2d6a68a76bf0361ea0751d47844d21b5dca0b465125c13b18258b1610d",
      "transactionIndex": "0x7a",
      "blockHash": "0x86385816c30189a6851fde949844f9d8489ec8160e89a7448d00ade103ea7159",
      "blockNumber": "0x1cedd13",
      "gasUsed": "0x2c40e",
      "effectiveGasPrice": "0xf6f43",
      "from": "0xa6b3d200cd34ca14d7579dac8b054bf50a62c37c",
      "to": "0x5d211f80a23f04201c6b3fa06b85171b11802b95",
      "contractAddress": null,
      "l1BaseFeeScalar": "0x8dd",
      "l1BlobBaseFee": "0x1",
      "l1BlobBaseFeeScalar": "0x101c12",
      "l1Fee": "0x975e5406",
      "l1GasPrice": "0x29b1d84d",
      "l1GasUsed": "0x640"
    }
  ],
  "libraries": [],
  "pending": [],
  "returns": {},
  "timestamp": 1747457802,
  "chain": 8453,
  "commit": "96c4dcd"
}