{
  "transactions": [
    {
      "hash": "0xef9f705940f2b5b395176678d26e88019529ff2876b9efb302a23596f6bf3016",
      "transactionType": "CALL",
      "contractName": null,
      "contractAddress": "0x05e73354cfdd6745c338b50bcfdfa3aa6fa03408",
      "function": "initialize((address,address,uint24,int24,address),uint160)",
      "arguments": [
        "(0x036CbD53842c5426634e7929541eC2318f3dCF7e, 0xaCaB3eFD542c3B17880e3EE038001AEe9A80BF35, 3000, 60, 0x269fdA08DA77d0226d6035C1d56CF13b4Eb84040)",
        "79228162514264337593543950336"
      ],
      "transaction": {
        "from": "0xa6b3d200cd34ca14d7579dac8b054bf50a62c37c",
        "to": "0x05e73354cfdd6745c338b50bcfdfa3aa6fa03408",
        "gas": "0x11738",
        "value": "0x0",
        "input": "0x6276cbbe000000000000000000000000036cbd53842c5426634e7929541ec2318f3dcf7e000000000000000000000000acab3efd542c3b17880e3ee038001aee9a80bf350000000000000000000000000000000000000000000000000000000000000bb8000000000000000000000000000000000000000000000000000000000000003c000000000000000000000000269fda08da77d0226d6035c1d56cf13b4eb840400000000000000000000000000000000000000001000000000000000000000000",
        "nonce": "0x2c",
        "chainId": "0x14a34"
      },
      "additionalContracts": [],
      "isFixedGasLimit": false
    }
  ],
  "receipts": [
    {
      "status": "0x1",
      "cumulativeGasUsed": "0x6e8937",
      "logs": [
        {
          "address": "0x05e73354cfdd6745c338b50bcfdfa3aa6fa03408",
          "topics": [
            "0xdd466e674ea557f56295e2d0218a125ea4b4f0f6f3307b95f85e6110838d6438",
            "0xba9a121f5a26fa5ba88194026ef15f93ea7ef0112f5fbc2b104ef933055b8eaa",
            "0x000000000000000000000000036cbd53842c5426634e7929541ec2318f3dcf7e",
            "0x000000000000000000000000acab3efd542c3b17880e3ee038001aee9a80bf35"
          ],
          "data": "0x0000000000000000000000000000000000000000000000000000000000000bb8000000000000000000000000000000000000000000000000000000000000003c000000000000000000000000269fda08da77d0226d6035c1d56cf13b4eb8404000000000000000000000000000000000000000010000000000000000000000000000000000000000000000000000000000000000000000000000000000000000",
          "blockHash": "0x574d9ad8b971308885f5ec987bd33d0367bc1baf3bc40ba093e1687171df4255",
          "blockNumber": "0x1864632",
          "transactionHash": "0xef9f705940f2b5b395176678d26e88019529ff2876b9efb302a23596f6bf3016",
          "transactionIndex": "0x15",
          "logIndex": "0xa3",
          "removed": false
        }
      ],
      "logsBloom": "0x00000000000000000000000000000000000000000000000000000000000000000000000100000000000000000000000000000040000000000000000000000000000000000000000000000000000000004000002000000000000000000000000000020000000000000000000000000000000000000000000000000000000000000000000044000008000000000000000000000001000000000000000000200000200000000000000000000000000000000000000000000000100000000000000000000000001000000000000000000000000000000000000000000000800000000000000000000000000000000040000000000000000000000000000000000000",
      "type": "0x2",
      "transactionHash": "0xef9f705940f2b5b395176678d26e88019529ff2876b9efb302a23596f6bf3016",
      "transactionIndex": "0x15",
      "blockHash": "0x574d9ad8b971308885f5ec987bd33d0367bc1baf3bc40ba093e1687171df4255",
      "blockNumber": "0x1864632",
      "gasUsed": "0xca27",
      "effectiveGasPrice": "0xf439c",
      "from": "0xa6b3d200cd34ca14d7579dac8b054bf50a62c37c",
      "to": "0x05e73354cfdd6745c338b50bcfdfa3aa6fa03408",
      "contractAddress": null,
      "l1BaseFeeScalar": "0x44d",
      "l1BlobBaseFee": "0x1",
      "l1BlobBaseFeeScalar": "0xa118b",
      "l1Fee": "0x7d",
      "l1GasPrice": "0xc",
      "l1GasUsed": "0x8ff"
    }
  ],
  "libraries": [],
  "pending": [],
  "returns": {},
  "timestamp": 1746922309,
  "chain": 84532,
  "commit": "74b6c77"
}